:020000040000FA
:0600000000F0D2EF00F059
:10000800FFFF6E82D9CF5AF0DACF5BF0F3CF5CF006
:10001800F4CF5DF0F2A413EF00F016EF00F0FFFF4D
:100028002CEF00F0FFFFF294212AA2EC0EF0586E9C
:100038005850215CD8A023EF00F026EF00F0FFFF16
:100048002CEF00F0FFFFD59E000E216E4AEC0EF05B
:10005800FFFF9EA032EF00F035EF00F0FFFF45EF05
:1000680000F0FFFF9E90AAEC0EF00009D8B43FEF15
:1000780000F042EF00F0FFFF45EF00F0FFFF25EC36
:100088000EF0FFFF9EA24BEF00F04EEF00F0FFFFD7
:1000980080EF00F0FFFF9E920F4A102A51EC0EF0FD
:1000A8000F504E5C10504F58D8B05DEF00F060EF25
:1000B80000F0FFFF80EF00F0FFFF000E106E000E53
:1000C8000F6E202A2050D8B46CEF00F06FEF00F0CC
:1000D800FFFF7DEF00F0FFFF20B075EF00F078EF35
:1000E80000F0FFFF7DEF00F0FFFF000E206EA6EC92
:1000F8000EF0FFFF83EC0EF0FFFF9EAC86EF00F0E2
:1001080089EF00F0FFFFB6EF00F0FFFF9E9CC3CF22
:1001180011F0126AC450596E586A58501112595049
:1001280012121104040E1258D8A09DEF00F0A0EF8F
:1001380000F0FFFFA7EF00F0FFFF88EC0EF08DEC5A
:100148000EF0B6EF00F0FFFF1104020E1258D8A00F
:10015800B0EF00F0B3EF00F0FFFFB6EF00F0FFFFE5
:1001680088EC0EF0FFFF9EAABCEF00F0BFEF00F096
:10017800FFFFC6EF00F0FFFF9E9AAECF5EF05E5025
:10018800C9EC08F0FFFF5DC0F4FF5CC0F3FF5BC083
:10019800DAFF5AC0D9FF6E921100FFFF8BEF0CF007
:1006000000ACFFB33D000400021E961E641E32C8FB
:100610003C00FFFF675007E1CA0E665CD8B013EFDD
:1006200003F016EF03F0FFFF23EF03F0FFFF695025
:100630000AE1CA0E685CD8A020EF03F023EF03F0B4
:10064000FFFF27EF03F0FFFF050EF2EF04F0FFFFBF
:100650006250665C6A6E635067586B6E6BBE39EFB2
:1006600003F06B5009E16A04D8A039EF03F03CEFC6
:1006700003F0FFFF46EF03F0FFFF000E306E010EA8
:100680002F6E010E0001EB6F4CEF03F0FFFF2F68A0
:100690003068000E0001EB6FFFFF6450685C6A6E0B
:1006A000655069586B6E6BBE5EEF03F06B5009E1ED
:1006B0006A04D8A05EEF03F061EF03F0FFFF6AEF7A
:1006C00003F0FFFF000E346E010E336E010EEC6F6F
:1006D0006FEF03F0FFFF37683868000EEC6FFFFF25
:1006E000010EED6F010EEE6FCA84000E186E000E43
:1006F000176EFA0E246ED58ED1EF04F0FFFF17505F
:100700001810D8B486EF03F089EF03F0FFFF90EFE5
:1007100003F0FFFF000E186E040E176EE6EF04F0F4
:10072000FFFFEB05D8A497EF03F09AEF03F0FFFF6C
:10073000E5EF03F0FFFF64EC0EF062505F266350BC
:10074000602266505F5C67506058D8A0AAEF03F043
:10075000ADEF03F0FFFFB4EF03F0FFFFFFFF000E6C
:100760000001ED6F2AEF04F0FFFF0001ED51D8B456
:10077000BCEF03F0BFEF03F0FFFF2AEF04F0FFFF31
:1007800020EE2FF0DE502D26DD502E222EBED2EF91
:1007900003F02E500AE1040E2D5CD8A0D2EF03F036
:1007A000D5EF03F0FFFFDAEF03F0FFFF000E2E6E30
:1007B000000E2D6EFFFF450E2D24D96E000E2E204B
:1007C000DA6EDF50896E2AEF04F0FFFFEB51D8A4F8
:1007D000ECEF03F0EFEF03F0FFFF2AEF04F0FFFF71
:1007E00064EC0EF062C06AF063C06BF05F506A5E4A
:1007F00060506B5A6A50665C6B506758D8A003EF24
:1008000004F006EF04F0FFFF09EF04F0FFFFAEEF86
:1008100003F0FFFF0001ED51D8B411EF04F014EF25
:1008200004F0FFFF2AEF04F0FFFF20EE2FF0DE5070
:100830002D26DD502E222EBE23EF04F020EF04F0F3
:10084000FFFFDAEF03F0FFFF000E2E6E030E2D6E9A
:10085000DAEF03F0FFFFEC05D8A431EF04F034EF3A
:1008600004F0FFFF7FEF04F0FFFF64EC0EF0645034
:100870005F266550602268505F5C69506058D8A060
:1008800044EF04F047EF04F0FFFF4EEF04F0FFFFEA
:10089000FFFF000E0001EE6FC4EF04F0FFFF000148
:1008A000EE51D8B456EF04F059EF04F0FFFFC4EF57
:1008B00004F0FFFF20EE33F0DE503126DD5032220F
:1008C00032BE6CEF04F032500AE1040E315CD8A065
:1008D0006CEF04F06FEF04F0FFFF74EF04F0FFFF24
:1008E000000E326E000E316EFFFF410E3124D96EC4
:1008F000000E3220DA6EDF508A6EC4EF04F0FFFF84
:10090000EC51D8A486EF04F089EF04F0FFFFC4EFA8
:1009100004F0FFFF64EC0EF064C06AF065C06BF099
:100920005F506A5E60506B5A6A50685C6B506958E1
:10093000D8A09DEF04F0A0EF04F0FFFFA3EF04F0B8
:10094000FFFF48EF04F0FFFF0001EE51D8B4ABEF1A
:1009500004F0AEEF04F0FFFFC4EF04F0FFFF20EE61
:1009600033F0DE503126DD50322232BEBDEF04F0CE
:10097000BAEF04F0FFFF74EF04F0FFFF000E326ED9
:10098000030E316E74EF04F0FFFF12EC0EF05F50B7
:100990006010D8B4CEEF04F0D1EF04F0FFFFC4EF45
:1009A00004F0FFFF0001ED51D8A4D9EF04F0DCEF13
:1009B00004F0FFFF7EEF03F0FFFFEE51D8A4E3EF5A
:1009C00004F0E6EF04F0FFFF7EEF03F0FFFFD59E9B
:1009D000CA94000ED76E000ED66E000ECC6E7EEC62
:1009E0000EF01750FFFF1200FFFFFFFF3CEC0EF070
:1009F0005FC0F0F060C0F1F0A8EF05F0FFFF0AC0A3
:100A000062F0636A0BC064F0656A0D0EF66E060E46
:100A1000F76E0800FFFFF550666E676A0E0EF66E01
:100A2000060EF76E0800FFFFF550686E696A09EC64
:100A300003F00001EF6F0D0EF66E060EF76E080064
:100A4000FFFFF5CF0AF00E0EF66E060EF76E0800E9
:100A5000FFFFF5CF0BF0CBEF05F0FFFF0AC062F010
:100A6000636A0BC064F0656A0B0EF66E060EF76ED5
:100A70000800FFFFF550666E676A0C0EF66E060EF4
:100A8000F76E0800FFFFF550686E696A09EC03F025
:100A90000001EF6F0B0EF66E060EF76E0800FFFFFB
:100AA000F5CF0AF00C0EF66E060EF76E0800FFFF8B
:100AB000F5CF0BF0CBEF05F0FFFF0AC062F0636AE1
:100AC0000BC064F0656A090EF66E060EF76E08003C
:100AD000FFFFF550666E676A0A0EF66E060EF76E39
:100AE0000800FFFFF550686E696A09EC03F0000129
:100AF000EF6F090EF66E060EF76E0800FFFFF5CFDA
:100B00000AF00A0EF66E060EF76E0800FFFFF5CF2C
:100B10000BF0CBEF05F0FFFF0AC062F0636A0BC079
:100B200064F0656A13C066F0676A14C068F0696AA9
:100B300009EC03F00001EF6F13C00AF014C00BF0D2
:100B4000CBEF05F0FFFF010E0001EF6FCBEF05F0DB
:100B5000FFFFF0C0D9FFF1C0DAFFDF506C6E6D6AA5
:100B60006D50000AD8B4B7EF05F0A2EF05F0FFFF13
:100B70006C50000AD8B4FEEF04F0010AD8B42DEF8F
:100B800005F0030AD8B45CEF05F0FD0AD8B48BEF8A
:100B900005F0A2EF05F0FFFFEF51D8A4D2EF05F06A
:100BA000D5EF05F0FFFF32EF06F0FFFF86EC09F00E
:100BB000ACEC0DF02BEC0CF00AC062F0636A0BC0D9
:100BC00064F0656A000120EE01F0F051D926F15180
:100BD000DA22DF506C6E6C50666E676A20EE02F0AF
:100BE000F051D926F151DA22DF506D6E6D50686EEA
:100BF000696A09EC03F0000120EE01F0F051D926FA
:100C0000F151DA22DF500A6E20EE02F0F051D926BF
:100C1000F151DA22DF500B6E20EE03F0F051D926AD
:100C2000F151DA22DF506C6E15506C5C156E165067
:100C3000D8A01628166A165E16BE24EF06F021EF1D
:100C400006F0FFFF29EF06F0FFFF680E1526010EE4
:100C50001622FFFFA4EC0AF096EC0DF02BEC0CF042
:100C60000001EF6FFFFFEF511200FFFFFFFF2F6842
:100C700030683368346837683868010E626E010E78
:100C8000636E010E646ECA84000E186E000E176E3D
:100C9000FA0E246ED58E0BEF07F0FFFF17501810D9
:100CA000D8B455EF06F058EF06F0FFFF5FEF06F0FF
:100CB000FFFF000E186E030E176E29EF07F0FFFFFF
:100CC00084B065EF06F068EF06F0FFFF72EF06F004
:100CD000FFFF6250D8A46FEF06F072EF06F0FFFF3F
:100CE00077EF06F0FFFF000E626E94EF06F0FFFF55
:100CF00020EE2FF0DE502D26DD502E222EBE86EF68
:100D000006F083EF06F0FFFF8BEF06F0FFFF000E0B
:100D10002E6E030E2D6EFFFF450E2D24D96E000E94
:100D20002E20DA6EDF50896EFFFF84B29AEF06F054
:100D30009DEF06F0FFFFA7EF06F0FFFF6350D8A47A
:100D4000A4EF06F0A7EF06F0FFFFACEF06F0FFFF01
:100D5000000E636EC9EF06F0FFFF20EE33F0DE50A9
:100D60003126DD50322232BEBBEF06F0B8EF06F07E
:100D7000FFFFC0EF06F0FFFF000E326E030E316E74
:100D8000FFFF410E3124D96E000E3220DA6EDF50A3
:100D90008A6EFFFF84B4CFEF06F0D2EF06F0FFFFBC
:100DA000DCEF06F0FFFF6450D8A4D9EF06F0DCEFCB
:100DB00006F0FFFFE1EF06F0FFFF000E646EFEEFAE
:100DC00006F0FFFF20EE37F0DE503526DD503622EC
:100DD00036BEF0EF06F0EDEF06F0FFFFF5EF06F0A0
:100DE000FFFF000E366E030E356EFFFF3D0E3524FD
:100DF000D96E000E3620DA6EDF508B6EFFFF12ECDC
:100E00000EF05F506010D8B408EF07F00BEF07F05A
:100E1000FFFFFEEF06F0FFFF6250D8A412EF07F0CD
:100E200015EF07F0FFFF4DEF06F0FFFF6350D8A46A
:100E30001CEF07F01FEF07F0FFFF4DEF06F0FFFF7D
:100E40006450D8A426EF07F029EF07F0FFFF4DEF1D
:100E500006F0FFFFD59ECA94000ED76E000ED66E28
:100E6000000ECC6E7EEC0EF017501200FFFFFFFF5D
:100E700078EC0DF0C2EC0DF0D5EC0DF0F9EC0DF0C6
:100E80001CEC0EF02EEC0EF0000E606E0A0E5F6E83
:100E900008EC0EF036EC06F00001F46FF451D8B413
:100EA00054EF07F057EF07F0FFFF5EEF07F0FFFF8B
:100EB000F45116EC0AF0FFFF5BEF07F0FFFFAB8881
:100EC000FFFF9AEC0EF00009D8B469EF07F06CEF61
:100ED00007F0FFFFEEEF07F0FFFF35EC0EF05FC00D
:100EE000F5F060C0F6F0000120EE02F0F551D926D1
:100EF000F651DA22DF50136E20EE03F0F551D926B9
:100F0000F651DA22DF50146EAB9820EE05F0F55161
:100F1000D926F651DA223D0EDF6091EF07F094EF0B
:100F200007F0FFFFA4EF07F0FFFF20EE06F0F551FA
:100F3000D926F651DA22C80EDF64A1EF07F0A4EF3C
:100F400007F0FFFFA9EF07F0FFFF050EF46FBDEFFD
:100F500007F0FFFF20EE05F0F551D926F651DA2211
:100F6000DF500CEC08F0000120EE06F0F551D92618
:100F7000F651DA22DF500CEC08F0FFFF0001F451CB
:100F8000D8A4C5EF07F0C8EF07F0FFFFE6EF07F0C2
:100F9000FFFF000E0CEC08F0FF0E0CEC08F0000157
:100FA00020EE04F0F551D926F651DA22DF50F26F27
:100FB00020EE07F0F551D926F651DA22DF50F36F13
:100FC000F251F35D0CEC08F0EAEF07F0FFFFF4518B
:100FD00016EC0AF0FFFFAB886AEC0EF0FFFF96EC10
:100FE0000EF00009D8B4F7EF07F0FAEF07F0FFFFB3
:100FF00060EF07F0FFFFF5EC04F00001F46FF4512F
:1010000016EC0AF043EC0EF092EC0EF0CEEC0CF085
:1010100060EF07F0D2EF00F0FFFF686E010E1C24B6
:10102000D96EDA6A000EDA2268C0DFFF1C2A28EFC8
:1010300008F0FFFF050E4D6E43EF08F0FFFF090EAD
:101040004D6E43EF08F0FFFF010E4D6E43EF08F0C9
:10105000FFFF0150666E676A6750000AD8B433EF2D
:1010600008F043EF08F0FFFF6650000AD8B419EF0C
:1010700008F0010AD8B41EEF08F0030AD8B423EF31
:1010800008F043EF08F0FFFF4D501C5CD8A04BEF79
:1010900008F04EEF08F0FFFFC6EF08F0FFFF000E6C
:1010A0001C6EABEF08F0FFFF1F50040DD70EF324AA
:1010B000D96E000EF420DA6E02C0DFFF1F50040D5F
:1010C000D80EF324D96E000EF420DA6E03500A0D08
:1010D000F3CFDFFF1F50040DD90EF324D96E000E9D
:1010E000F420DA6E04500A0DF3CFDFFF1F50040D19
:1010F000DA0EF324D96E000EF420DA6E05C0DFFF9D
:101100001F2AC6EF08F0FFFF02C025F003C026F03B
:1011100004500A0DF3CF27F005500A0DF3CF28F045
:1011200006C029F007500A0DF3CF2AF008500A0D27
:10113000F3CF2BF009C02CF0010E1D6EC6EF08F0A6
:10114000FFFF010E1E6EC6EF08F0FFFF080E16EC43
:101150000AF0C6EF08F0FFFF0150666E676A67503D
:10116000000AD8B4B6EF08F0A5EF08F0FFFF66500C
:10117000000AD8B453EF08F0010AD8B483EF08F09E
:10118000030AD8B4A0EF08F0A5EF08F0FFFF1200A3
:10119000FFFFFFFF576E010E1C24D96EDA6A000EA6
:1011A000DA2257C0DFFF1C2AE5EF08F0FFFF050E2B
:1011B0004D6E00EF09F0FFFF090E4D6E00EF09F0D4
:1011C000FFFF010E4D6E00EF09F0FFFF0150556E5D
:1011D000566A5650000AD8B4F0EF08F000EF09F054
:1011E000FFFF5550000AD8B4D6EF08F0010AD8B472
:1011F000DBEF08F0030AD8B4E0EF08F000EF09F0E5
:10120000FFFF4D501C5CD8A008EF09F00BEF09F070
:10121000FFFF83EF09F0FFFF000E1C6E68EF09F07F
:10122000FFFF1F50040DD70EF324D96E000EF420DB
:10123000DA6E02C0DFFF1F50040DD80EF324D96E02
:10124000000EF420DA6E03500A0DF3CFDFFF1F50BB
:10125000040DD90EF324D96E000EF420DA6E04507A
:101260000A0DF3CFDFFF1F50040DDA0EF324D96E01
:10127000000EF420DA6E05C0DFFF1F2A83EF09F0AD
:10128000FFFF02C025F003C026F004500A0DF3CF83
:1012900027F005500A0DF3CF28F006C029F00750BB
:1012A0000A0DF3CF2AF008500A0DF3CF2BF009C036
:1012B0002CF0010E1D6E83EF09F0FFFF010E1E6E74
:1012C00083EF09F0FFFF080E32EC0BF083EF09F01B
:1012D000FFFF0150556E566A5650000AD8B473EF9E
:1012E00009F062EF09F0FFFF5550000AD8B410EF83
:1012F00009F0010AD8B440EF09F0030AD8B45DEF51
:1013000009F062EF09F0FFFF1200FFFFFFFF000E80
:10131000386E010E376ECA84000E186E000E176EFE
:10132000FA0E246ED58EFFFF6FEC0EF0DEEF09F0A3
:10133000FFFF17501810D8B4A0EF09F0A3EF09F081
:10134000FFFFAAEF09F0FFFF000E186E060E176EE2
:10135000F4EF09F0FFFF20EE37F0DE503526DD50C8
:10136000362236BEBDEF09F036500AE1040E355C78
:10137000D8A0BDEF09F0C0EF09F0FFFFC5EF09F0FD
:10138000FFFF000E366E000E356EFFFF3D0E35245A
:10139000D96E000E3620DA6EDF508B6EFFFF12EC36
:1013A0000EF05F506010D8B4D8EF09F0DBEF09F011
:1013B000FFFFCEEF09F0FFFF93EF09F0FFFF5EECB8
:1013C0000EF05F506010D8B4E8EF09F0EBEF09F0D1
:1013D000FFFF98EF09F0FFFF83BEF1EF09F0F4EF94
:1013E00009F0FFFF98EF09F0FFFF9EEC0EF074ECA0
:1013F0000EF0D59ECA94000ED76E000ED66E000E6B
:10140000CC6E7EEC0EF079EC0EF083AE0AEF0AF0B3
:101410000DEF0AF0FFFF12EF0AF0FFFF000E186E4B
:10142000020E176EFFFF17501200FFFFFFFF656EE1
:1014300072EF0AF0FFFFA10E5F6E000E606E1E0ECF
:10144000616E2AEC0DF0A1EF0AF0FFFF5E0E5F6EF9
:10145000010E606E290E616E2AEC0DF0A1EF0AF00C
:10146000FFFF870E5F6E010E606E280E616E2AEC24
:101470000DF0A1EF0AF0FFFF350E5F6E010E606EFA
:10148000290E616E2AEC0DF0A1EF0AF0FFFF800E2D
:101490005F6E000E606E210E616E2AEC0DF0A1EF02
:1014A0000AF0FFFF000E5F6E010E606E350E616E7A
:1014B0002AEC0DF0A1EF0AF0FFFFAF0E5F6E010EF8
:1014C000606E270E616E2AEC0DF0A1EF0AF0FFFFAF
:1014D000BF0E5F6E000E606E180E616E2AEC0DF08E
:1014E000A1EF0AF0FFFF6550636E646A6450000A62
:1014F000D8B47DEF0AF0A1EF0AF0FFFF6350010AB4
:10150000D8B41AEF0AF0030AD8B425EF0AF0010A9A
:10151000D8B430EF0AF0070AD8B43BEF0AF0010A5A
:10152000D8B446EF0AF0030AD8B451EF0AF0010A22
:10153000D8B45CEF0AF00F0AD8B467EF0AF0A1EF55
:101540000AF0FFFF1200FFFFFFFF000E386E010ED2
:10155000376ECA84000E186E000E176EFA0E246ED7
:10156000D58EFFFF6FEC0EF0FCEF0AF0FFFF175077
:101570001810D8B4BEEF0AF0C1EF0AF0FFFFC8EFB1
:101580000AF0FFFF000E186E060E176E12EF0BF03A
:10159000FFFF20EE37F0DE503526DD50362236BE16
:1015A000DBEF0AF036500AE1040E355CD8A0DBEF21
:1015B0000AF0DEEF0AF0FFFFE3EF0AF0FFFF000E94
:1015C000366E000E356EFFFF3D0E3524D96E000ECF
:1015D0003620DA6EDF508B6EFFFF12EC0EF05F509C
:1015E0006010D8B4F6EF0AF0F9EF0AF0FFFFECEF65
:1015F0000AF0FFFFB1EF0AF0FFFF58EC0EF05F506A
:101600006010D8B406EF0BF009EF0BF0FFFFB6EF58
:101610000AF0FFFF83BE0FEF0BF012EF0BF0FFFF9E
:10162000B6EF0AF0FFFF9EEC0EF079EC0EF0D59EBF
:10163000CA94000ED76E000ED66E000ECC6E7EECF5
:101640000EF083AE26EF0BF029EF0BF0FFFF2EEF2D
:101650000BF0FFFF000E186E020E176EFFFF175003
:101660001200FFFFFFFF546E8EEF0BF0FFFFA10E85
:101670004E6E000E4F6E1E0E506E51EC0DF0BDEF13
:101680000BF0FFFF5E0E4E6E010E4F6E290E506E78
:1016900051EC0DF0BDEF0BF0FFFF870E4E6E010E0B
:1016A0004F6E280E506E51EC0DF0BDEF0BF0FFFFAA
:1016B000350E4E6E010E4F6E290E506E51EC0DF030
:1016C000BDEF0BF0FFFF800E4E6E000E4F6E210E31
:1016D000506E51EC0DF0BDEF0BF0FFFF000E4E6EA3
:1016E000010E4F6E350E506E51EC0DF0BDEF0BF04C
:1016F000FFFFAF0E4E6E010E4F6E270E506E51EC77
:101700000DF0BDEF0BF0FFFFBF0E4E6E000E4F6EE3
:10171000180E506E51EC0DF0BDEF0BF0FFFF545062
:10172000526E536A5350000AD8B499EF0BF0BDEFD4
:101730000BF0FFFF5250010AD8B436EF0BF0030A4A
:10174000D8B441EF0BF0010AD8B44CEF0BF0070A04
:10175000D8B457EF0BF0010AD8B462EF0BF0030ACC
:10176000D8B46DEF0BF0010AD8B478EF0BF00F0A84
:10177000D8B483EF0BF0BDEF0BF0FFFF1200FFFFBB
:101780004572726F722C2074696D6520657863658F
:101790006564656420746F20726561636820746895
:1017A0006520656E64206F6620746865205A20414C
:1017B0007869730A004572726F722C2074696D65C6
:1017C00020657863656564656420746F2072656167
:1017D00063682074686520706F696E740A004572D2
:1017E000726F722C206E6F206F626A656374207254
:1017F000656C65766174656420616C6F6E67205AF4
:1018000020417869730A004572726F722C207469E6
:101810006D6520657863656564656420746F20720A
:101820006573657420706F736974696F6E0A004622
:101830006174616C204572726F722C20706C6561EE
:1018400073652072657365742074686520646576BD
:10185000696365210A00FFFF37683868CA84000E93
:10186000186E000E176EFA0E246ED58E74EF0CF003
:10187000FFFF17501810D8B440EF0CF043EF0CF0F6
:10188000FFFF4AEF0CF0FFFF000E186E060E176EFA
:101890007DEF0CF0FFFF20EE37F0DE503526DD50F7
:1018A000362236BE59EF0CF056EF0CF0FFFF5EEF1C
:1018B0000CF0FFFF000E366E030E356EFFFF3D0E7F
:1018C0003524D96E000E3620DA6EDF508B6EFFFFA6
:1018D00012EC0EF05F506010D8B471EF0CF074EFA2
:1018E0000CF0FFFF67EF0CF0FFFF84A47AEF0CF021
:1018F0007DEF0CF0FFFF38EF0CF0FFFFD59ECA9490
:10190000000ED76E000ED66E000ECC6E7EEC0EF082
:1019100017501200FFFF800EF66E170EF76E000EC6
:10192000F86E01EE00F010EED6F00900F5CFEEFFF4
:10193000E550E150FAE1FC0EF66E190EF76E000E5E
:10194000F86E00EE80F010EE57F00900F5CFEEFFD4
:10195000E550E150FAE1D00EF66E1B0EF76E000E68
:10196000F86E00EE2DF010EE21F00900F5CFEEFF3D
:10197000E550E150FAE100EED7F0140EEE6AE80609
:10198000FDE100EE01F02C0EEE6AE806FDE16E903E
:101990006E92000EF86E000137EF07F0FFFF000EA9
:1019A000616EFFFF61505F6E606AD8905F3660368F
:1019B000D8905F366036DB0E5F24D96E000E602053
:1019C000DA6E6150040DD70EF324E16E000EF420A0
:1019D000E26EDECFE6FFDECFE6FFDECFE6FFDECF54
:1019E000E6FF612A030E6164F8EF0CF0FBEF0CF0E8
:1019F000FFFFD1EF0CF0FFFF1200FFFF4572726F87
:101A0000722C20706F696E74206F757473696465D1
:101A100020626F756E6461726965730A0045727247
:101A20006F722C2066656564206C696E65206E6F30
:101A30007420646566696E65640A00436F6D6D614C
:101A40006E64206E6F74207265636F676E697A656D
:031A5000640A0025
:101A5400FFFF010E626E43EF0DF0FFFF5FC0D9FF81
:101A640060C0DAFFDF50AD6EFFFFACA23CEF0DF0BB
:101A74003FEF0DF0FFFF36EF0DF0FFFF5F4A602AE6
:101A8400622AFFFF6150625CD8A04BEF0DF04EEF6D
:101A94000DF0FFFF2FEF0DF0FFFF1200FFFFFFFF20
:101AA400010E516E6AEF0DF0FFFF4EC0D9FF4FC01B
:101AB400DAFFDF50AD6EFFFFACA263EF0DF066EF0F
:101AC4000DF0FFFF5DEF0DF0FFFF4E4A4F2A512A44
:101AD400FFFF5050515CD8A072EF0DF075EF0DF080
:101AE400FFFF56EF0DF0FFFF1200FFFFFFFFF2BEF6
:101AF4007EEF0DF081EF0DF0FFFF83EF0DF0FFFFA0
:101B0400F28EFFFFF2BC89EF0DF08CEF0DF0FFFFBA
:101B14008EEF0DF0FFFFF28CFFFFD08EF28A9D80D6
:101B24009D829D8A1200FFFFFFFF8C92CA84FFFFF3
:101B340012EC0EF05F506010D8B4A3EF0DF0A6EFD6
:101B44000DF0FFFF99EF0DF0FFFFCA84000ECC6E7D
:101B54001200FFFFFFFF8C82CA84FFFF12EC0EF01D
:101B64005F506010D8B4B9EF0DF0BCEF0DF0FFFF7B
:101B7400AFEF0DF0FFFFCA84000ECC6E1200FFFF22
:101B8400FFFFC150F00B0609C16ED10E9216020E72
:101B94009316C00E9416C00E95169680968296845F
:101BA400958E1200FFFFFFFFC2503F0B4009C26E2B
:101BB400C18CC70EC216C294C290C19EC150F00B14
:101BC4000E09C16E9D8C9F8C1200FFFF0000010066
:101BD40000000100000001000903060C0903060CC3
:0D1BE40011050C1822060C28C900C90005C7
:101BF200FFFF949C948EAC9CAC8AAC98AC94AB8E58
:101C0200AB9CAB98AB96190EAF6E1200FFFFFFFFB5
:101C1200CA94FC0ECA165FC00DF060C00EF012002E
:101C2200FFFFFFFF19C061F0000E196E61C05FF087
:101C3200606A1200FFFFFFFFD59ED59CD59AD5861C
:101C4200070ED5121200FFFFFFFF070E32EC0BF05A
:101C5200FFFF29EF0EF01200FFFFFFFF300ECD1243
:101C6200CD92CD801200FFFFFFFF250E5F6E000EAA
:101C7200606E1200FFFFFFFFD70E5F6E000E606EF8
:101C82001200FFFFFFFF000E186E000E176E12000B
:101C9200FFFFFFFF000E186E010E176E1200FFFF0E
:101CA200FFFF0DC04EF00EC04FF01200FFFFFFFF0E
:101CB20022C05FF0606A1200FFFFFFFF23C05FF0E7
:101CC200606A1200FFFFFFFF1AC05FF0606A120035
:101CD200FFFFFFFF000E1D6E1200FFFFFFFFC2801D
:101CE200C2841200FFFFFFFF000E236E1200FFFFEF
:101CF200FFFF000E226E1200FFFFFFFF000E1A6EA2
:101D02001200FFFFFFFF010E196E1200FFFFFFFF1F
:101D1200010E236E1200FFFFFFFF010E226E120062
:101D2200FFFFFFFF1F061200FFFFFFFF1F50120001
:101D3200FFFFFFFF1D501200FFFFFFFFC2901200C6
:101D4200FFFFFFFF24501200FFFFFFFF1A2A1200BD
:0C1D5200FFFFFFFF1E501200FFFFFFFF0D
:020000040020DA
:08000000FFFFFFFFFFFFFFFF00
:020000040030CA
:0E000000FF210D0EFF0080FF0FC00FE00F402C
:00000001FF
