:020000040000FA
:0600000000F0D2EF00F059
:10000800FFFF6D82D9CF0DF0DACF0EF0F3CF0FF0EE
:10001800F4CF10F0F2A413EF00F016EF00F0FFFF9A
:100028002CEF00F0FFFFF2945A2ABBEC12F00B6E93
:100038000B505A5CD8A023EF00F026EF00F0FFFF2A
:100048002CEF00F0FFFFD59E000E5A6E63EC12F005
:10005800FFFF9EA032EF00F035EF00F0FFFF45EF05
:1000680000F0FFFF9E90C3EC12F00009D8B43FEFF8
:1000780000F042EF00F0FFFF45EF00F0FFFF36EC25
:1000880012F0FFFF9EA24BEF00F04EEF00F0FFFFD3
:1000980080EF00F0FFFF9E92484A492A6AEC12F06E
:1000A8004850015C49500258D8B05DEF00F060EF4D
:1000B80000F0FFFF80EF00F0FFFF000E496E000E1A
:1000C800486E592A5950D8B46CEF00F06FEF00F021
:1000D800FFFF7DEF00F0FFFF59B075EF00F078EFFC
:1000E80000F0FFFF7DEF00F0FFFF000E596EBFEC40
:1000F80012F0FFFF9CEC12F0FFFF9EAC86EF00F0C1
:1001080089EF00F0FFFFB6EF00F0FFFF9E9CC3CF22
:100118004AF04B6AC4500C6E0B6A0B504A120C50D2
:100128004B124A04040E4B58D8A09DEF00F0A0EFE4
:1001380000F0FFFFA7EF00F0FFFFA1EC12F0A6EC24
:1001480012F0B6EF00F0FFFF4A04020E4B58D8A099
:10015800B0EF00F0B3EF00F0FFFFB6EF00F0FFFFE5
:10016800A1EC12F0FFFF9EAABCEF00F0BFEF00F079
:10017800FFFFC6EF00F0FFFF9E9AAECF11F01150BF
:10018800D9EC0BF0FFFF10C0F4FF0FC0F3FF0EC057
:10019800DAFF0DC0D9FF6D921100FFFFB5EF10F027
:1006000000ACFFB33D000400021E961E641E32C8FB
:100610003C00FFFF2350800B306E23502324376EA5
:1006200022AE15EF03F018EF03F0FFFF1AEF03F00F
:10063000FFFF3780FFFF3750D8B421EF03F024EFDE
:1006400003F0FFFF3DEF03F0FFFF3728D8A42BEFA7
:1006500003F02EEF03F0FFFF37EF03F0FFFF000E74
:10066000206E000E216E000E226E000E236EFFFF24
:10067000228E000E236E46EF03F0FFFF000E206E69
:10068000000E216E000E226E000E236EFFFF27501B
:10069000800B301A27502724386E26AE52EF03F015
:1006A00055EF03F0FFFF57EF03F0FFFF3880FFFF28
:1006B0003850D8B45EEF03F061EF03F0FFFF7AEF3C
:1006C00003F0FFFF3828D8A468EF03F06BEF03F0C6
:1006D000FFFF74EF03F0FFFF000E246E000E256E87
:1006E000000E266E000E276EFFFF268E000E276E70
:1006F00083EF03F0FFFF000E246E000E256E000E48
:10070000266E000E276EFFFF24502510261027109E
:10071000D8A48DEF03F090EF03F0FFFFAAEF03F0F2
:10072000FFFF000E206E000E216E000E226E000EE6
:10073000236E800E22127F0E2312FFFF30502312F1
:1007400020C020F021C021F022C022F023C023F0DD
:100750001FEF05F0FFFF3750D8A4B1EF03F0B4EF5F
:1007600003F0FFFFBFEF03F0FFFF000E206E000E4F
:10077000216E000E226E000E236E1FEF05F0FFFFAC
:10078000385037C028F0296A285E000E295A7F0E9B
:100790002824316E000E2920326E20C02CF021C09A
:1007A0002DF022C02EF023C02FF0000E206E000E80
:1007B000216E000E226E000E236E000E336E000EB0
:1007C000346E000E356E000E366E000E386E2BEF56
:1007D00004F0FFFF3850D8B4F0EF03F0F3EF03F06C
:1007E000FFFF0EEF04F0FFFFD8902C362D362E368B
:1007F0002F36D890203621362236233636AE03EFF8
:1008000004F006EF04F0FFFF08EF04F0FFFF208084
:10081000FFFFD8903336343635363636FFFF245056
:100820002C5C25502D5826502E5827502F58D8A0D4
:100830001CEF04F01FEF04F0FFFF29EF04F0FFFFAF
:10084000368C24502C5E25502D5A26502E5A275077
:100850002F5AFFFF382AFFFF190E386432EF04F0D9
:1008600035EF04F0FFFFE9EF03F0FFFF2C502D10F0
:100870002E102F10D8B43FEF04F042EF04F0FFFF2A
:100880005FEF04F0FFFF33805FEF04F0FFFFD890CD
:10089000203621362236233636AE51EF04F054EF9F
:1008A00004F0FFFF56EF04F0FFFF2080FFFFD89019
:1008B00033363436353636363106D8A03206FFFFA9
:1008C00022AE65EF04F068EF04F0FFFF46EF04F09E
:1008D000FFFF000E386E36AE70EF04F073EF04F0D9
:1008E000FFFF9EEF04F0FFFFFF0E3314286EFF0E94
:1008F0003414296EFF0E35142A6E7F0E36142B6EBB
:10090000285029102A102B10D8B489EF04F08CEF4E
:1009100004F0FFFF92EF04F0FFFFFFFF010E386EBF
:100920009EEF04F0FFFF20A098EF04F09BEF04F08F
:10093000FFFF9EEF04F0FFFF8DEF04F0FFFF385044
:10094000D8B4A5EF04F0A8EF04F0FFFFCFEF04F058
:10095000FFFF010E2026000E21222222232223A0A7
:10096000B4EF04F0B7EF04F0FFFFCFEF04F0FFFFA8
:1009700020C028F021C029F022C02AF023C02BF08B
:100980002B342B322A322932283228C020F029C0B9
:1009900021F02AC022F02BC023F0314A322AFFFF77
:1009A00032BEDBEF04F0325009E13128D8A0DBEF92
:1009B00004F0DEEF04F0FFFFEAEF04F0FFFF000EAB
:1009C000326E3168000E206E000E216E000E226E17
:1009D000000E236EFFFF32BEF9EF04F0325006E145
:1009E0003104D8B0F6EF04F0F9EF04F0FFFF08EFA0
:1009F00005F0FFFF000E326E000E316E000E206E0D
:100A0000000E216E000E226E000E236E000E306E60
:100A1000FFFF31C037F037A010EF05F013EF05F0FE
:100A2000FFFF17EF05F0FFFF228E19EF05F0FFFF24
:100A3000229EFFFFD8903730236E9DEF03F0FFFF1B
:100A40001200FFFFFFFF1A5007E1CA0E195CD8B071
:100A50002CEF05F02FEF05F0FFFF3CEF05F0FFFF57
:100A60001C500AE1CA0E1B5CD8A039EF05F03CEF20
:100A700005F0FFFF40EF05F0FFFF050E02EF07F066
:100A8000FFFF1550195C1D6E16501A581E6E1EBEC3
:100A900052EF05F01E5009E11D04D8A052EF05F0F9
:100AA00055EF05F0FFFF5EEF05F0FFFF000E616EF2
:100AB000010E606E010E1F6E63EF05F0FFFF6068B0
:100AC0006168000E1F6EFFFF17501B5C1D6E1850F3
:100AD0001C581E6E1EBE75EF05F01E5009E11D0468
:100AE000D8A075EF05F078EF05F0FFFF81EF05F076
:100AF000FFFF000E656E010E646E010E206E86EF24
:100B000005F0FFFF68686968000E206EFFFF010EA8
:100B1000216E010E226ECA84000E516E000E506EC0
:100B2000FA0E5D6ED58EE2EF06F0FFFF50505110C9
:100B3000D8B49DEF05F0A0EF05F0FFFFA7EF05F09B
:100B4000FFFF000E516E040E506EF6EF06F0FFFF31
:100B50001F04D8A4AEEF05F0B1EF05F0FFFFFAEFE8
:100B600005F0FFFF7DEC12F01550122616501322EF
:100B70001950125C1A501358D8A0C1EF05F0C4EFF9
:100B800005F0FFFFCAEF05F0FFFFFFFF000E216E2B
:100B90003EEF06F0FFFF2150D8B4D1EF05F0D4EFBF
:100BA00005F0FFFF3EEF06F0FFFF20EE60F0DE50A5
:100BB0005E26DD505F225FBEE7EF05F05F500AE181
:100BC000040E5E5CD8A0E7EF05F0EAEF05F0FFFF4A
:100BD000EFEF05F0FFFF000E5F6E000E5E6EFFFF91
:100BE0008C0E5E24D96E000E5F20DA6EDF50896EA7
:100BF0003EEF06F0FFFF1F50D8A401EF06F004EF10
:100C000006F0FFFF3EEF06F0FFFF7DEC12F015C08F
:100C10001DF016C01EF012501D5E13501E5A1D50BE
:100C2000195C1E501A58D8A018EF06F01BEF06F0FA
:100C3000FFFF1EEF06F0FFFFC5EF05F0FFFF21509D
:100C4000D8B425EF06F028EF06F0FFFF3EEF06F0E0
:100C5000FFFF20EE60F0DE505E26DD505F225FBEBB
:100C600037EF06F034EF06F0FFFFEFEF05F0FFFF80
:100C7000000E5F6E030E5E6EEFEF05F0FFFF2004C7
:100C8000D8A445EF06F048EF06F0FFFF91EF06F01D
:100C9000FFFF7DEC12F017501226185013221B5044
:100CA000125C1C501358D8A058EF06F05BEF06F00A
:100CB000FFFF61EF06F0FFFFFFFF000E226ED5EF92
:100CC00006F0FFFF2250D8B468EF06F06BEF06F095
:100CD000FFFFD5EF06F0FFFF20EE64F0DE50622646
:100CE000DD50632263BE7EEF06F063500AE1040E1E
:100CF000625CD8A07EEF06F081EF06F0FFFF86EF82
:100D000006F0FFFF000E636E000E626EFFFF880E9E
:100D10006224D96E000E6320DA6EDF508A6ED5EF42
:100D200006F0FFFF2050D8A498EF06F09BEF06F0E6
:100D3000FFFFD5EF06F0FFFF7DEC12F017C01DF0AE
:100D400018C01EF012501D5E13501E5A1D501B5C21
:100D50001E501C58D8A0AFEF06F0B2EF06F0FFFF10
:100D6000B5EF06F0FFFF5CEF06F0FFFF2250D8B4AE
:100D7000BCEF06F0BFEF06F0FFFFD5EF06F0FFFF78
:100D800020EE64F0DE506226DD50632263BECEEFBB
:100D900006F0CBEF06F0FFFF86EF06F0FFFF000E38
:100DA000636E030E626E86EF06F0FFFF23EC12F017
:100DB00012501310D8B4DFEF06F0E2EF06F0FFFF99
:100DC000D5EF06F0FFFF2150D8A4E9EF06F0ECEFD5
:100DD00006F0FFFF95EF05F0FFFF2250D8A4F3EFD8
:100DE00006F0F6EF06F0FFFF95EF05F0FFFFD59E4A
:100DF000CA94000ED76E000ED66E000ECC6E97EC25
:100E000012F05050FFFF1200FFFFFFFF55EC12F0F1
:100E100012C0F7F013C0F8F0B7EF07F0FFFF43C0C0
:100E200015F0166A44C017F0186A0D0EF66E060E1D
:100E3000F76E0800FFFFF550196E1A6A0E0EF66E77
:100E4000060EF76E0800FFFFF5501B6E1C6A22ECC1
:100E500005F00001F66F0D0EF66E060EF76E080037
:100E6000FFFFF5CF43F00E0EF66E060EF76E08008C
:100E7000FFFFF5CF44F0DBEF07F0FFFF43C015F0B5
:100E8000166A44C017F0186A0B0EF66E060EF76E5F
:100E90000800FFFFF550196E1A6A0C0EF66E060E6A
:100EA000F76E0800FFFFF5501B6E1C6A22EC05F080
:100EB0000001F66F0B0EF66E060EF76E0800FFFFD0
:100EC000F5CF43F00C0EF66E060EF76E0800FFFF2E
:100ED000F5CF44F0DBEF07F0FFFF43C015F0166AD3
:100EE00044C017F0186A090EF66E060EF76E080079
:100EF000FFFFF550196E1A6A0A0EF66E060EF76EAF
:100F00000800FFFFF5501B6E1C6A22EC05F0000183
:100F1000F66F090EF66E060EF76E0800FFFFF5CFAE
:100F200043F00A0EF66E060EF76E0800FFFFF5CFCF
:100F300044F0DBEF07F0FFFF43C015F0166A44C032
:100F400017F0186A4CC019F01A6A4DC01BF01C6AE1
:100F500022EC05F00001F66F4CC043F04DC044F0A8
:100F6000DBEF07F0FFFF010EF66FDBEF07F0FFFF8F
:100F7000F7C0D9FFF8C0DAFFDF500001F46FF56B5E
:100F8000F551000AD8B4C7EF07F0B2EF07F0FFFF42
:100F9000F451000AD8B40EEF07F0010AD8B43DEFBF
:100FA00007F0030AD8B46CEF07F0FD0AD8B49BEF42
:100FB00007F0B2EF07F0FFFFF651D8A4E2EF07F019
:100FC000E5EF07F0FFFF45EF08F0FFFF32EC0DF013
:100FD000CEEC11F055EC10F043C015F0166A44C089
:100FE00017F0186A000120EE01F0F751D926F851E8
:100FF000DA22DF50F46FF451196E1A6A20EE02F013
:10100000F751D926F851DA22DF50F56FF5511B6EF2
:101010001C6A22EC05F0000120EE01F0F751D92600
:10102000F851DA22DF50436E20EE02F0F751D92654
:10103000F851DA22DF50446E20EE03F0F751D92642
:10104000F851DA22DF50F46F4E50F45D4E6E4F507F
:10105000D8A04F284F6A4F5E4FBE34EF08F031EFF3
:1010600008F0FFFF39EF08F0FFFF680E4E26010E73
:101070004F22FFFF4E50E8EC0FF050EC0EF0B8ECB2
:1010800011F055EC10F00001F66FFFFFF651120061
:10109000FFFFFFFF60686168646865686868696889
:1010A000010E156E010E166E010E176ECA84000E2B
:1010B000516E000E506EFA0E5D6ED58E1EEF09F069
:1010C000FFFF50505110D8B468EF08F06BEF08F0F4
:1010D000FFFF72EF08F0FFFF000E516E030E506E1F
:1010E0003CEF09F0FFFF84B078EF08F07BEF08F0E9
:1010F000FFFF85EF08F0FFFF1550D8A482EF08F03E
:1011000085EF08F0FFFF8AEF08F0FFFF000E156E75
:10111000A7EF08F0FFFF20EE60F0DE505E26DD5006
:101120005F225FBE99EF08F096EF08F0FFFF9EEF99
:1011300008F0FFFF000E5F6E030E5E6EFFFF8C0E69
:101140005E24D96E000E5F20DA6EDF50896EFFFFDD
:1011500084B2ADEF08F0B0EF08F0FFFFBAEF08F08F
:10116000FFFF1650D8A4B7EF08F0BAEF08F0FFFF62
:10117000BFEF08F0FFFF000E166EDCEF08F0FFFF78
:1011800020EE64F0DE506226DD50632263BECEEFB7
:1011900008F0CBEF08F0FFFFD3EF08F0FFFF000EE1
:1011A000636E030E626EFFFF880E6224D96E000E1E
:1011B0006320DA6EDF508A6EFFFF84B4E2EF08F03E
:1011C000E5EF08F0FFFFEFEF08F0FFFF1750D8A49E
:1011D000ECEF08F0EFEF08F0FFFFF4EF08F0FFFF8F
:1011E000000E176E11EF09F0FFFF20EE68F0DE50E1
:1011F0006626DD50672267BE03EF09F000EF09F0B5
:10120000FFFF08EF09F0FFFF000E676E030E666E2A
:10121000FFFF840E6624D96E000E6720DA6EDF5061
:101220008B6EFFFF23EC12F012501310D8B41BEF9B
:1012300009F01EEF09F0FFFF11EF09F0FFFF155055
:10124000D8A425EF09F028EF09F0FFFF60EF08F0C0
:10125000FFFF1650D8A42FEF09F032EF09F0FFFF7F
:1012600060EF08F0FFFF1750D8A439EF09F03CEF0A
:1012700009F0FFFF60EF08F0FFFFD59ECA94000E53
:10128000D76E000ED66E000ECC6E97EC12F050505A
:101290001200FFFFFFFF1A6E1A50D8B452EF09F088
:1012A00055EF09F0FFFF7AEF09F0FFFF15BE5EEF83
:1012B00009F05BEF09F0FFFF7AEF09F0FFFF12C0C2
:1012C00016F013C017F014C018F015C019F0161E50
:1012D000171E181E191E162A000E17221822192270
:1012E00016C01CF017C01DF018C01EF019C01FF06A
:1012F00083EF09F0FFFF12C01CF013C01DF014C0F3
:101300001EF015C01FF0FFFF12501310141015101F
:10131000D8A48DEF09F090EF09F0FFFF9BEF09F0E3
:10132000FFFF000E126E000E136E000E146E000E04
:10133000156E43EF0AF0FFFF960E1B6EA7EF09F044
:10134000FFFF1B2AD8901F321E321D321C32FFFFB6
:10135000000E1C14166E000E1D14176E000E1E14C7
:10136000186EFE0E1F14196E165017101810191053
:10137000D8A4BDEF09F0C0EF09F0FFFFA0EF09F01E
:10138000FFFFD0EF09F0FFFF1B2A010E1C26000E05
:101390001D221E221F22D8901F321E321D321C32E7
:1013A000FFFF000E1C14166E000E1D14176E000EAB
:1013B0001E14186EFF0E1F14196E165017101810F9
:1013C0001910D8A4E6EF09F0E9EF09F0FFFFC3EF29
:1013D00009F0FFFFF3EF09F0FFFF1B06D8901C3662
:1013E0001D361E361F36FFFF1EBEF9EF09F0FCEF5B
:1013F00009F0FFFF06EF0AF0FFFF020E1B6003EF8C
:101400000AF006EF0AF0FFFFECEF09F0FFFF1BB058
:101410000CEF0AF00FEF0AF0FFFF11EF0AF0FFFFE9
:101420001E9EFFFFD8901B321BC016F0176A186A69
:10143000196A16C019F0186A176A166A16501C1233
:1014400017501D1218501E1219501F121A50D8B4DE
:101450002CEF0AF02FEF0AF0FFFF3AEF0AF0FFFF40
:1014600015BE38EF0AF035EF0AF0FFFF3AEF0AF049
:10147000FFFF1F8EFFFF1CC012F01DC013F01EC027
:1014800014F01FC015F0FFFF1200FFFFFFFF9AECE2
:1014900011F0E4EC11F0F7EC11F00AEC12F02DEC85
:1014A00012F047EC12F0000E136E0A0E126E19ECD9
:1014B00012F049EC08F00001FB6FFB51D8B463EF68
:1014C0000AF066EF0AF0FFFF6DEF0AF0FFFFFB5135
:1014D000C2EC0DF0FFFF6AEF0AF0FFFFAB88FFFFE1
:1014E000B3EC12F00009D8B478EF0AF07BEF0AF001
:1014F000FFFFFDEF0AF0FFFF4EEC12F012C0FCF010
:1015000013C0FDF0000120EE02F0FC51D926FD5180
:10151000DA22DF504C6E20EE03F0FC51D926FD514B
:10152000DA22DF504D6EAB9820EE05F0FC51D92643
:10153000FD51DA223D0EDF60A0EF0AF0A3EF0AF0C2
:10154000FFFFB3EF0AF0FFFF20EE06F0FC51D926B3
:10155000FD51DA22C80EDF64B0EF0AF0B3EF0AF0F3
:10156000FFFFB8EF0AF0FFFF050EFB6FCCEF0AF0AC
:10157000FFFF20EE05F0FC51D926FD51DA22DF50A5
:101580001BEC0BF0000120EE06F0FC51D926FD51BA
:10159000DA22DF501BEC0BF0FFFF0001FB51D8A457
:1015A000D4EF0AF0D7EF0AF0FFFFF5EF0AF0FFFFE4
:1015B000000E1BEC0BF0FF0E1BEC0BF0000120EEFD
:1015C00004F0FC51D926FD51DA22DF50F96F20EEEC
:1015D00007F0FC51D926FD51DA22DF50FA6FF9519C
:1015E000FA5D1BEC0BF0F9EF0AF0FFFFFB51C2ECC8
:1015F0000DF0FFFFAB8883EC12F0FFFFAFEC12F0B1
:101600000009D8B406EF0BF009EF0BF0FFFF6FEF06
:101610000AF0FFFF05EC07F00001FB6FFB51C2EC85
:101620000DF05CEC12F0ABEC12F0F8EC10F06FEF98
:101630000AF0D2EF00F0FFFF1B6EC80E5524D96EE2
:10164000DA6A000EDA221BC0DFFF552A37EF0BF0F3
:10165000FFFF050E6C6E53EF0BF0FFFF090E6C6E73
:1016600053EF0BF0FFFF010E6C6E53EF0BF0FFFF1B
:101670000001C851196E1A6A1A50000AD8B443EF13
:101680000BF053EF0BF0FFFF1950000AD8B428EF0E
:101690000BF0010AD8B42DEF0BF0030AD8B432EFE7
:1016A0000BF053EF0BF0FFFF6C50555CD8A05BEFD5
:1016B0000BF05EEF0BF0FFFFD6EF0BF0FFFF000E1D
:1016C000556EBBEF0BF0FFFF5850040DD10EF32405
:1016D000D96E000EF420DA6EC9C0DFFF5850040D39
:1016E000D20EF324D96E000EF420DA6ECA510A0D20
:1016F000F3CFDFFF5850040DD30EF324D96E000E44
:10170000F420DA6ECB510A0DF3CFDFFF5850040DF1
:10171000D40EF324D96E000EF420DA6ECCC0DFFFB5
:10172000582AD6EF0BF0FFFFC9C0E5F0CAC0E6F0BB
:10173000CB510A0DF3CFE7F0CC510A0DF3CFE8F00F
:10174000CDC0E9F0CE510A0DF3CFEAF0CF510A0D2A
:10175000F3CFEBF0D0C0ECF0010E566ED6EF0BF0ED
:10176000FFFF010E576ED6EF0BF0FFFF080EC2EC25
:101770000DF0D6EF0BF0FFFFC851196E1A6A1A5020
:10178000000AD8B4C6EF0BF0B5EF0BF0FFFF19500D
:10179000000AD8B463EF0BF0010AD8B493EF0BF052
:1017A000030AD8B4B0EF0BF0B5EF0BF0FFFF120057
:1017B000FFFFFFFF0A6EC80E5524D96EDA6A000ECD
:1017C000DA220AC0DFFF552AF5EF0BF0FFFF050E06
:1017D0006C6E11EF0CF0FFFF090E6C6E11EF0CF048
:1017E000FFFF010E6C6E11EF0CF0FFFF0001C851FE
:1017F000086E096A0950000AD8B401EF0CF011EF25
:101800000CF0FFFF0850000AD8B4E6EF0BF0010A15
:10181000D8B4EBEF0BF0030AD8B4F0EF0BF011EFF4
:101820000CF0FFFF6C50555CD8A019EF0CF01CEFCA
:101830000CF0FFFF94EF0CF0FFFF000E556E79EFF8
:101840000CF0FFFF5850040DD10EF324D96E000E9A
:10185000F420DA6EC9C0DFFF5850040DD20EF32415
:10186000D96E000EF420DA6ECA510A0DF3CFDFFFF5
:101870005850040DD30EF324D96E000EF420DA6E06
:10188000CB510A0DF3CFDFFF5850040DD40EF324D3
:10189000D96E000EF420DA6ECCC0DFFF582A94EF28
:1018A0000CF0FFFFC9C0E5F0CAC0E6F0CB510A0D4D
:1018B000F3CFE7F0CC510A0DF3CFE8F0CDC0E9F05B
:1018C000CE510A0DF3CFEAF0CF510A0DF3CFEBF072
:1018D000D0C0ECF0010E566E94EF0CF0FFFF010E3D
:1018E000576E94EF0CF0FFFF080EDEEC0EF094EF55
:1018F0000CF0FFFFC851086E096A0950000AD8B4FD
:1019000084EF0CF073EF0CF0FFFF0850000AD8B41E
:1019100021EF0CF0010AD8B451EF0CF0030AD8B44F
:101920006EEF0CF073EF0CF0FFFF1200FFFFFFFFF4
:101930003B343C34426E4250D8A4A1EF0CF0A4EFEB
:101940000CF0FFFFB0EF0CF0FFFFFFFF000E396E51
:10195000000E3A6E000E3B6E000E3C6E2FEF0DF047
:10196000FFFF39C03DF03AC03EF03BC03FF03CC005
:1019700040F0200EC2EF0CF0FFFFD89040323F3213
:101980003E323D32FFFFE82EBCEF0CF03D50416E81
:101990003B8EFF0E3916FF0E3A16FF0E3B16000E59
:1019A0003C16960E425E42BEDBEF0CF0D8EF0CF018
:1019B000FFFFF5EF0CF0FFFF4250800A970FD8B001
:1019C000E4EF0CF0E7EF0CF0FFFFEAEF0CF0FFFFA5
:1019D000A5EF0CF0FFFFD8903C323B323A3239325F
:1019E000423EEAEF0CF013EF0DF0FFFF1F0E4264D2
:1019F000FCEF0CF0FFEF0CF0FFFF09EF0DF0FFFF25
:101A0000A5EF0CF0FFFFD89039363A363B363C361E
:101A10004206FFFF4250D8A410EF0DF013EF0DF077
:101A2000FFFF02EF0DF0FFFF4150D8B41AEF0DF0A9
:101A30001DEF0DF0FFFF26EF0DF0FFFF3C1E3B1EDC
:101A40003A1E396C000E3A223B223C22FFFF39C07D
:101A500039F03AC03AF03BC03BF03CC03CF0FFFFED
:101A60001200FFFFFFFF000E696E010E686ECA8450
:101A7000000E516E000E506EFA0E5D6ED58EFFFF99
:101A800088EC12F08AEF0DF0FFFF50505110D8B4DF
:101A90004CEF0DF04FEF0DF0FFFF56EF0DF0FFFF95
:101AA000000E516E060E506EA0EF0DF0FFFF20EEFF
:101AB00068F0DE506626DD50672267BE69EF0DF0E4
:101AC00067500AE1040E665CD8A069EF0DF06CEF78
:101AD0000DF0FFFF71EF0DF0FFFF000E676E000EBF
:101AE000666EFFFF840E6624D96E000E6720DA6EE4
:101AF000DF508B6EFFFF23EC12F012501310D8B49E
:101B000084EF0DF087EF0DF0FFFF7AEF0DF0FFFF90
:101B10003FEF0DF0FFFF77EC12F012501310D8B426
:101B200094EF0DF097EF0DF0FFFF44EF0DF0FFFF86
:101B300083BE9DEF0DF0A0EF0DF0FFFF44EF0DF021
:101B4000FFFFB7EC12F08DEC12F0D59ECA94000E98
:101B5000D76E000ED66E000ECC6E97EC12F092ECA3
:101B600012F083AEB6EF0DF0B9EF0DF0FFFFBEEF50
:101B70000DF0FFFF000E516E020E506EFFFF505031
:101B80001200FFFFFFFF186E1EEF0EF0FFFF920E18
:101B9000126E000E136E1E0E146E28EC11F04DEF37
:101BA0000EF0FFFF5E0E126E010E136E290E146E04
:101BB00028EC11F04DEF0EF0FFFF870E126E010EB4
:101BC000136E280E146E28EC11F04DEF0EF0FFFF8F
:101BD000350E126E010E136E290E146E28EC11F0E4
:101BE0004DEF0EF0FFFFD60E126E010E136E210E9A
:101BF000146E28EC11F04DEF0EF0FFFF000E126E88
:101C0000010E136E350E146E28EC11F04DEF0EF030
:101C1000FFFFAF0E126E010E136E270E146E28EC2E
:101C200011F04DEF0EF0FFFFB00E126E000E136EAE
:101C3000180E146E28EC11F04DEF0EF0FFFF185047
:101C4000166E176A1750000AD8B429EF0EF04DEF40
:101C50000EF0FFFF1650010AD8B4C6EF0DF0030ACC
:101C6000D8B4D1EF0DF0010AD8B4DCEF0DF0070ABB
:101C7000D8B4E7EF0DF0010AD8B4F2EF0DF0030A83
:101C8000D8B4FDEF0DF0010AD8B408EF0EF00F0A3A
:101C9000D8B413EF0EF04DEF0EF0FFFF1200FFFF70
:101CA000FFFF000E696E010E686ECA84000E516E51
:101CB000000E506EFA0E5D6ED58EFFFF88EC12F0AE
:101CC000A8EF0EF0FFFF50505110D8B46AEF0EF09D
:101CD0006DEF0EF0FFFF74EF0EF0FFFF000E516E80
:101CE000060E506EBEEF0EF0FFFF20EE68F0DE50E5
:101CF0006626DD50672267BE87EF0EF067500AE167
:101D0000040E665CD8A087EF0EF08AEF0EF0FFFF9E
:101D10008FEF0EF0FFFF000E676E000E666EFFFF86
:101D2000840E6624D96E000E6720DA6EDF508B6E4B
:101D3000FFFF23EC12F012501310D8B4A2EF0EF0F4
:101D4000A5EF0EF0FFFF98EF0EF0FFFF5DEF0EF036
:101D5000FFFF71EC12F012501310D8B4B2EF0EF076
:101D6000B5EF0EF0FFFF62EF0EF0FFFF83BEBBEF9B
:101D70000EF0BEEF0EF0FFFF62EF0EF0FFFFB7ECCC
:101D800012F092EC12F0D59ECA94000ED76E000E9F
:101D9000D66E000ECC6E97EC12F083AED2EF0EF042
:101DA000D5EF0EF0FFFFDAEF0EF0FFFF000E516EE1
:101DB000020E506EFFFF50501200FFFFFFFF076E34
:101DC0003AEF0FF0FFFF920E016E000E026E1E0E34
:101DD000036E4FEC11F069EF0FF0FFFF5E0E016E26
:101DE000010E026E290E036E4FEC11F069EF0FF039
:101DF000FFFF870E016E010E026E280E036E4FEC80
:101E000011F069EF0FF0FFFF350E016E010E026E4B
:101E1000290E036E4FEC11F069EF0FF0FFFFD60EA5
:101E2000016E010E026E210E036E4FEC11F069EF90
:101E30000FF0FFFF000E016E010E026E350E036EF5
:101E40004FEC11F069EF0FF0FFFFAF0E016E010EC6
:101E5000026E270E036E4FEC11F069EF0FF0FFFFDB
:101E6000B00E016E000E026E180E036E4FEC11F0F4
:101E700069EF0FF0FFFF0750056E066A0650000A73
:101E8000D8B445EF0FF069EF0FF0FFFF0550010ADE
:101E9000D8B4E2EF0EF0030AD8B4EDEF0EF0010A69
:101EA000D8B4F8EF0EF0070AD8B403EF0FF0010A28
:101EB000D8B40EEF0FF0030AD8B419EF0FF0010AEF
:101EC000D8B424EF0FF00F0AD8B42FEF0FF069EF5A
:101ED0000FF0FFFF1200FFFF4572726F722C20742B
:101EE000696D6520657863656564656420746F203D
:101EF00072656163682074686520656E64206F6632
:101F000020746865205A20417869730A004572720E
:101F10006F722C2074696D652065786365656465F2
:101F20006420746F20726561636820746865207036
:101F30006F696E740A004572726F722C206E6F208A
:101F40006F626A6563742072656C6576617465643E
:101F500020616C6F6E67205A20417869730A0045D2
:101F600072726F722C2074696D6520657863656587
:101F700064656420746F20726573657420706F737C
:101F80006974696F6E0A00466174616C20457272F3
:101F90006F722C20706C6561736520726573657457
:101FA0002074686520646576696365210A0045725E
:101FB000726F722C20706F696E74206F7574736904
:0F1FC000646520626F756E6461726965730A00F3
:101FD000FFFF0001EF6FAC0E246EFF0E256EB30EF7
:101FE000266E3D0E276E0001EF51126E136A146AC1
:101FF000156A010E4AEC09F012C020F013C021F05E
:1020000014C022F015C023F009EC03F020C039F011
:1020100021C03AF022C03BF023C03CF097EC0CF01A
:1020200039C0F0F03AC0F1F0000E0001F36F000E7D
:10203000F26F41EF10F0FFFFC30E8C16030EF21586
:10204000ED6F000EF315EE6F800EED25D96E000ECC
:10205000EE21DA6EDF508C12CA84FFFF23EC12F0FF
:1020600012501310D8B437EF10F03AEF10F0FFFF12
:102070002DEF10F0FFFFCA94000ECC6E0001F24B62
:10208000F32BFFFFF051F25DF151F359D8A04BEF64
:1020900010F04EEF10F0FFFF1BEF10F0FFFF000EEF
:1020A000CC6E97EC12F01200FFFFFFFF68686968C2
:1020B000CA84000E516E000E506EFA0E5D6ED58E03
:1020C0009EEF10F0FFFF50505110D8B46AEF10F09F
:1020D0006DEF10F0FFFF74EF10F0FFFF000E516E78
:1020E000060E506EA7EF10F0FFFF20EE68F0DE50F6
:1020F0006626DD50672267BE83EF10F080EF10F098
:10210000FFFF88EF10F0FFFF000E676E030E666E94
:10211000FFFF840E6624D96E000E6720DA6EDF5052
:102120008B6EFFFF23EC12F012501310D8B49BEF0C
:1021300010F09EEF10F0FFFF91EF10F0FFFF84A46E
:10214000A4EF10F0A7EF10F0FFFF62EF10F0FFFF19
:10215000D59ECA94000ED76E000ED66E000ECC6EC1
:1021600097EC12F050501200FFFFD80EF66E1E0EC4
:10217000F76E000EF86E01EE00F010EEF7F00900B9
:10218000F5CFEEFFE550E150FAE1EC0EF66E220ECF
:10219000F76E000EF86E00EE80F010EE48F00900C9
:1021A000F5CFEEFFE550E150FAE17E0EF66E240E1B
:1021B000F76E000EF86E00EE5EF010EE0FF0090004
:1021C000F5CFEEFFE550E150FAE100EEC8F0250E44
:1021D000EE6AE806FDE100EE43F01B0EEE6AE8064B
:1021E000FDE16D906D92000EF86E000146EF0AF071
:1021F000FFFF000E146EFFFF1450126E136AD8908A
:1022000012361336D89012361336D50E1224D96EE4
:10221000000E1320DA6E1450040DD10EF324E16E7B
:10222000000EF420E26EDECFE6FFDECFE6FFDECF6B
:10223000E6FFDECFE6FF142A030E146422EF11F04E
:1022400025EF11F0FFFFFBEF10F0FFFF1200FFFF83
:10225000FFFF010E156E41EF11F0FFFF12C0D9FF15
:1022600013C0DAFFDF50AD6EFFFFACA23AEF11F002
:102270003DEF11F0FFFF34EF11F0FFFF124A132A78
:10228000152AFFFF1450155CD8A049EF11F04CEF50
:1022900011F0FFFF2DEF11F0FFFF1200FFFFFFFF16
:1022A000010E046E68EF11F0FFFF01C0D9FF02C0FC
:1022B000DAFFDF50AD6EFFFFACA261EF11F064EF0B
:1022C00011F0FFFF5BEF11F0FFFF014A022A042A21
:1022D000FFFF0350045CD8A070EF11F073EF11F012
:1022E000FFFF54EF11F0FFFF1200FFFF240C183026
:1022F0000903060C11050C1822060C28C9004572AA
:10230000726F722C2066656564206C696E65206E44
:102310006F7420646566696E65640A00436F6D6D55
:10232000616E64206E6F74207265636F676E697A88
:1023300065640A00FFFFF2BEA0EF11F0A3EF11F0F9
:10234000FFFFA5EF11F0FFFFF28EFFFFF2BCABEF36
:1023500011F0AEEF11F0FFFFB0EF11F0FFFFF28CC4
:10236000FFFFD08EF28A9D809D829D8A1200FFFF22
:10237000FFFF8C92CA84FFFF23EC12F0125013105F
:10238000D8B4C5EF11F0C8EF11F0FFFFBBEF11F0AB
:10239000FFFFCA94000ECC6E1200FFFFFFFF8C827D
:1023A000CA84FFFF23EC12F012501310D8B4DBEFF5
:1023B00011F0DEEF11F0FFFFD1EF11F0FFFFCA9433
:1023C000000ECC6E1200FFFFFFFFC150F00B06099C
:1023D000C16ED10E9216020E9316C00E9416C00E48
:1023E0009516968096829684958E1200FFFFFFFFC9
:1023F000C2503F0B4009C26EC18CC70EC216C294B8
:10240000C290C19EC150F00B0E09C16E9D8C9F8C75
:102410001200FFFFFFFF949C948EAC9CAC8AAC989A
:10242000AC94AB8EAB9CAB98AB96190EAF6E120012
:10243000FFFFFFFFCA94FC0ECA1612C046F013C07D
:1024400047F01200FFFFFFFF52C014F0000E526E63
:1024500014C012F0136A1200FFFFFFFFD59ED59C37
:10246000D59AD586070ED5121200FFFFFFFF070E83
:10247000DEEC0EF0FFFF3AEF12F01200FFFF00005B
:0D24800001000000010000000100C900057E
:10248E00FFFF300ECD12CD92CD801200FFFFFFFF69
:10249E00E50E126E000E136E1200FFFFFFFFD10E3F
:1024AE00126E000E136E1200FFFFFFFF000E516E34
:1024BE00000E506E1200FFFFFFFF000E516E010E58
:1024CE00506E1200FFFFFFFF46C001F047C002F042
:1024DE001200FFFFFFFF5BC012F0136A1200FFFF36
:1024EE00FFFF5CC012F0136A1200FFFFFFFF53C024
:1024FE0012F0136A1200FFFFFFFF000E566E12005D
:10250E00FFFFFFFFC280C2841200FFFFFFFF000E1D
:10251E005C6E1200FFFFFFFF000E5B6E1200FFFFEE
:10252E00FFFF000E536E1200FFFFFFFF010E526EF3
:10253E001200FFFFFFFF010E5C6E1200FFFFFFFF98
:10254E00010E5B6E1200FFFFFFFF58061200FFFF29
:10255E00FFFF58501200FFFFFFFF56501200FFFF03
:10256E00FFFFC2901200FFFFFFFF5D501200FFFF42
:10257E00FFFF532A1200FFFFFFFF57501200FFFF0D
:02258E00FFFF4D
:020000040020DA
:08000000FFFFFFFFFFFFFFFF00
:020000040030CA
:0E000000FF210D0EFF0080FF0FC00FE00F402C
:00000001FF
