:020000040000FA
:0600000000F0C5EF00F066
:10000800FFFF6682D9CF11F0DACF12F0F3CF13F0E9
:10001800F4CF14F0F6CF15F0F7CF16F0F8CF17F0AD
:10002800F5CF18F0F2A41BEF00F01EEF00F0FFFF71
:1000380034EF00F0FFFFF294582AB9EC10F00F6E7D
:100048000F50585CD8A02BEF00F02EEF00F0FFFF08
:1000580034EF00F0FFFFD59E000E586E5BEC10F0F9
:10006800FFFF9EA23AEF00F03DEF00F0FFFF6BEFBD
:1000780000F0FFFF9E924A4A4B2A62EC10F04A5069
:10008800015C4B500258D8B04CEF00F04FEF00F035
:10009800FFFF6BEF00F0FFFF572A5750D8B457EF18
:1000A80000F05AEF00F0FFFF68EF00F0FFFF57B0D5
:1000B80060EF00F063EF00F0FFFF68EF00F0FFFF74
:1000C800000E576EBDEC10F0FFFF8AEC10F0FFFF3A
:1000D8009EAC71EF00F074EF00F0FFFFA1EF00F0AD
:1000E800FFFF9E9CC3CF4CF04D6AC450106E0F6A40
:1000F8000F504C1210504D124C04040E4D58D8A0FD
:1001080088EF00F08BEF00F0FFFF92EF00F0FFFFA9
:100118008FEC10F094EC10F0A1EF00F0FFFF4C040E
:10012800020E4D58D8A09BEF00F09EEF00F0FFFFA5
:10013800A1EF00F0FFFF8FEC10F0FFFF9EAAA7EFE2
:1001480000F0AAEF00F0FFFFB1EF00F0FFFF9E9A6A
:10015800AECF19F01950F5EC0AF0FFFF18C0F5FF03
:1001680017C0F8FF16C0F7FF15C0F6FF14C0F4FF5C
:1001780013C0F3FF12C0DAFF11C0D9FF6692110055
:06018800FFFF45EF0EF041
:1006000000FFFFFFFFACFFB33D0004000219190F0C
:050610000F05050500C7
:10061600FFFF2B50800B386E2B502B243F6E2AAEDB
:1006260017EF03F01AEF03F0FFFF1CEF03F0FFFFD5
:100636003F80FFFF3F50D8B423EF03F026EF03F0CF
:10064600FFFF3FEF03F0FFFF3F28D8A42DEF03F095
:1006560030EF03F0FFFF39EF03F0FFFF000E286EC7
:10066600000E296E000E2A6E000E2B6EFFFF2A8EDC
:10067600000E2B6E48EF03F0FFFF000E286E000EF3
:10068600296E000E2A6E000E2B6EFFFF2F50800B78
:10069600381A2F502F24406E2EAE54EF03F057EF2A
:1006A60003F0FFFF59EF03F0FFFF4080FFFF4050CC
:1006B600D8B460EF03F063EF03F0FFFF7CEF03F0C5
:1006C600FFFF4028D8A46AEF03F06DEF03F0FFFFA9
:1006D60076EF03F0FFFF000E2C6E000E2D6E000E5F
:1006E6002E6E000E2F6EFFFF2E8E000E2F6E85EFE4
:1006F60003F0FFFF000E2C6E000E2D6E000E2E6E08
:10070600000E2F6EFFFF2C502D102E102F10D8A488
:100716008FEF03F092EF03F0FFFFACEF03F0FFFF64
:10072600000E286E000E296E000E2A6E000E2B6E2D
:10073600800E2A127F0E2B12FFFF38502B1228C074
:1007460028F029C029F02AC02AF02BC02BF021EF6F
:1007560005F0FFFF3F50D8A4B3EF03F0B6EF03F068
:10076600FFFFC1EF03F0FFFF000E286E000E296E9B
:10077600000E2A6E000E2B6E21EF05F0FFFF405093
:100786003FC030F0316A305E000E315A7F0E3024A1
:10079600396E000E31203A6E28C034F029C035F08B
:1007A6002AC036F02BC037F0000E286E000E296ED8
:1007B600000E2A6E000E2B6E000E3B6E000E3C6E77
:1007C600000E3D6E000E3E6E000E406E2DEF04F0E4
:1007D600FFFF4050D8B4F2EF03F0F5EF03F0FFFF50
:1007E60010EF04F0FFFFD8903436353636363736FC
:1007F600D890283629362A362B363EAE05EF04F039
:1008060008EF04F0FFFF0AEF04F0FFFF2880FFFF68
:10081600D8903B363C363D363E36FFFF2C50345C96
:100826002D5035582E5036582F503758D8A01EEF19
:1008360004F021EF04F0FFFF2BEF04F0FFFF3E8CE6
:100846002C50345E2D50355A2E50365A2F50375A6A
:10085600FFFF402AFFFF190E406434EF04F037EF24
:1008660004F0FFFFEBEF03F0FFFF345035103610B6
:100876003710D8B441EF04F044EF04F0FFFF61EF06
:1008860004F0FFFF3B8061EF04F0FFFFD8902836AD
:1008960029362A362B363EAE53EF04F056EF04F0D7
:1008A600FFFF58EF04F0FFFF2880FFFFD8903B368C
:1008B6003C363D363E363906D8A03A06FFFF2AAE0C
:1008C60067EF04F06AEF04F0FFFF48EF04F0FFFF64
:1008D600000E406E3EAE72EF04F075EF04F0FFFFBF
:1008E600A0EF04F0FFFFFF0E3B14306EFF0E3C142A
:1008F600316EFF0E3D14326E7F0E3E14336E305055
:10090600311032103310D8B48BEF04F08EEF04F0B0
:10091600FFFF94EF04F0FFFFFFFF010E406EA0EF14
:1009260004F0FFFF28A09AEF04F09DEF04F0FFFF0C
:10093600A0EF04F0FFFF8FEF04F0FFFF4050D8B4A4
:10094600A7EF04F0AAEF04F0FFFFD1EF04F0FFFFDA
:10095600010E2826000E29222A222B222BA0B6EFD2
:1009660004F0B9EF04F0FFFFD1EF04F0FFFF28C059
:1009760030F029C031F02AC032F02BC033F03334C6
:10098600333232323132303230C028F031C029F0C1
:1009960032C02AF033C02BF0394A3A2AFFFF3ABE5A
:1009A600DDEF04F03A5009E13928D8A0DDEF04F074
:1009B600E0EF04F0FFFFECEF04F0FFFF000E3A6EED
:1009C6003968000E286E000E296E000E2A6E000E83
:1009D6002B6EFFFF3ABEFBEF04F03A5006E13904F6
:1009E600D8B0F8EF04F0FBEF04F0FFFF0AEF05F0D4
:1009F600FFFF000E3A6E000E396E000E286E000ED6
:100A0600296E000E2A6E000E2B6E000E386EFFFF4A
:100A160039C03FF03FA012EF05F015EF05F0FFFFDC
:100A260019EF05F0FFFF2A8E1BEF05F0FFFF2A9E48
:100A3600FFFFD8903F302B6E9FEF03F0FFFF1200B1
:100A4600FFFFFFFF4DEC10F01AC0E8F01BC0E9F005
:100A5600000E0001E76FC2EF05F0FFFF47C01EF072
:100A66001F6A48C020F0216A110EF66E060EF76E58
:100A76000800FFFFF550226E236A120EF66E060E70
:100A8600F76E0800FFFFF550246E256A48EC08F063
:100A96000001E76F110EF66E060EF76E0800FFFFF7
:100AA600F5CF47F0120EF66E060EF76E0800FFFF42
:100AB600F5CF48F0E5EF05F0FFFF47C01EF01F6ACF
:100AC60048C020F0216A0F0EF66E060EF76E08007B
:100AD600FFFFF550226E236A100EF66E060EF76EB5
:100AE6000800FFFFF550246E256A48EC08F0000167
:100AF600E76F0F0EF66E060EF76E0800FFFFF5CFD6
:100B060047F0100EF66E060EF76E0800FFFFF5CFE3
:100B160048F0E5EF05F0FFFF47C01EF01F6A48C02A
:100B260020F0216A0D0EF66E060EF76E0800FFFF26
:100B3600F550226E236A0E0EF66E060EF76E08004C
:100B4600FFFFF550246E256A48EC08F00001E76FB8
:100B56000D0EF66E060EF76E0800FFFFF5CF47F096
:100B66000E0EF66E060EF76E0800FFFFF5CF48F084
:100B7600E5EF05F0FFFF010EE76FE5EF05F0FFFF7C
:100B8600E8C0D9FFE9C0DAFFDF50E56FE66BE65152
:100B9600000AD8B4D1EF05F0BDEF05F0FFFFE5512F
:100BA600300AD8B430EF05F0010AD8B45FEF05F08B
:100BB600030AD8B48EEF05F0CD0AD8B4E5EF05F0F8
:100BC600BDEF05F0FFFFE751D8A4ECEF05F0EFEF1E
:100BD60005F0FFFF4FEF06F0FFFFF0EC0BF0B5EC72
:100BE60010F09AEC0DF047C01EF01F6A48C020F0C6
:100BF600216A000120EE01F0E851D926E951DA22F6
:100C0600DF50E56FE551226E236A20EE02F0E851CF
:100C1600D926E951DA22DF50E66FE651246E256ABD
:100C260048EC08F0000120EE01F0E851D926E95120
:100C3600DA22DF50476E20EE02F0E851D926E9515C
:100C4600DA22DF50486E20EE03F0E851D926E9514A
:100C5600DA22DF50E56F5050E55D506E5150D8A056
:100C66005128516A515E51BE3EEF06F03BEF06F049
:100C7600FFFF43EF06F0FFFF680E5026010E5122DC
:100C8600FFFF50503DEC0DF077EC0BF0B1EC10F09F
:100C96009AEC0DF00001E76FFFFFE7511200FFFF2E
:100CA600FFFF226E2250D8B45BEF06F05EEF06F02F
:100CB600FFFF83EF06F0FFFF1DBE67EF06F064EF50
:100CC60006F0FFFF83EF06F0FFFF1AC01EF01BC001
:100CD6001FF01CC020F01DC021F01E1E1F1E201E6E
:100CE600211E1E2A000E1F22202221221EC024F0B1
:100CF6001FC025F020C026F021C027F08CEF06F09B
:100D0600FFFF1AC024F01BC025F01CC026F01DC032
:100D160027F0FFFF1A501B101C101D10D8A496EFC9
:100D260006F099EF06F0FFFFA4EF06F0FFFF000EB6
:100D36001A6E000E1B6E000E1C6E000E1D6E4CEF22
:100D460007F0FFFF960E236EB0EF06F0FFFF232A93
:100D5600D8902732263225322432FFFF000E241483
:100D66001E6E000E25141F6E000E2614206EFE0E3B
:100D76002714216E1E501F1020102110D8A4C6EF74
:100D860006F0C9EF06F0FFFFA9EF06F0FFFFD9EF67
:100D960006F0FFFF232A010E2426000E2522262216
:100DA6002722D8902732263225322432FFFF000E22
:100DB60024141E6E000E25141F6E000E2614206EBF
:100DC600FF0E2714216E1E501F1020102110D8A4CC
:100DD600EFEF06F0F2EF06F0FFFFCCEF06F0FFFFB5
:100DE600FCEF06F0FFFF2306D8902436253626367C
:100DF6002736FFFF26BE02EF07F005EF07F0FFFFDD
:100E06000FEF07F0FFFF020E23600CEF07F00FEF66
:100E160007F0FFFFF5EF06F0FFFF23B015EF07F031
:100E260018EF07F0FFFF1AEF07F0FFFF269EFFFF00
:100E3600D890233223C01EF01F6A206A216A1EC082
:100E460021F0206A1F6A1E6A1E5024121F502512A6
:100E560020502612215027122250D8B435EF07F021
:100E660038EF07F0FFFF43EF07F0FFFF1DBE41EF2E
:100E760007F03EEF07F0FFFF43EF07F0FFFF278E77
:100E8600FFFF24C01AF025C01BF026C01CF027C0A7
:100E96001DF0FFFF1200FFFFFFFF000E1A6E000E8F
:100EA60069EC0CF0000E1A6E010E69EC0CF0000EE7
:100EB6001A6E020E69EC0CF0000E1A6E000EFCECB7
:100EC6000EF0010E1A6E000EFCEC0EF0020E1A6EFB
:100ED600000EFCEC0EF0000E1A6E010E88EC0EF001
:100EE600010E1A6E010E88EC0EF0020E1A6E010E3D
:100EF60088EC0EF0000E1A6E000EC2EC0EF0010E1B
:100F06001A6E000EC2EC0EF0020E1A6E000EC2EC45
:100F16000EF0010E1E6E010E1F6E010E206ECA84AB
:100F2600000E536E000E526EC80E5D6ED58E1DEF0E
:100F360008F0FFFF52505310D8B4A4EF07F0A7EF04
:100F460007F0FFFFB1EF07F0FFFF89948A988B94B3
:100F5600000E536E030E526E3BEF08F0FFFF84B097
:100F6600B7EF07F0BAEF07F0FFFFC4EF07F0FFFF98
:100F76001E50D8A4C1EF07F0C4EF07F0FFFFC9EF7A
:100F860007F0FFFF000E1E6ECBEF07F0FFFF898410
:100F9600FFFF84B2D1EF07F0D4EF07F0FFFFDEEFDB
:100FA60007F0FFFF1F50D8A4DBEF07F0DEEF07F0D6
:100FB600FFFFE3EF07F0FFFF000E1F6EE5EF07F000
:100FC600FFFF8A88FFFF84B4EBEF07F0EEEF07F030
:100FD600FFFFF8EF07F0FFFF2050D8A4F5EF07F06A
:100FE600F8EF07F0FFFFFDEF07F0FFFF000E206EA2
:100FF600FFEF07F0FFFF8B84FFFF3AEC10F01A506B
:101006001B10D8B409EF08F00CEF08F0FFFFFFEF54
:1010160007F0FFFF89948A988B94FFFF3AEC10F053
:101026001A501B10D8B41AEF08F01DEF08F0FFFF96
:1010360010EF08F0FFFF1E50D8A424EF08F027EFAA
:1010460008F0FFFF9CEF07F0FFFF1F50D8A42EEF1C
:1010560008F031EF08F0FFFF9CEF07F0FFFF20508C
:10106600D8A438EF08F03BEF08F0FFFF9CEF07F03D
:10107600FFFFD59ECA94000ED76E000ED66E000EE8
:10108600CC6E85EC10F01200FFFFFFFFE90E225C2C
:10109600030E2358D8B052EF08F055EF08F0FFFFC3
:1010A60062EF08F0FFFFE90E245C030E2558D8A076
:1010B6005FEF08F062EF08F0FFFF66EF08F0FFFF52
:1010C600050E3AEF09F0FFFF1E50225C266E1F50F8
:1010D6002358276E26502710D8B474EF08F077EF00
:1010E60008F0FFFF7FEF08F0FFFF000E1A6E010EFB
:1010F600FCEC0EF085EF08F0FFFF000E1A6E000EF6
:10110600FCEC0EF0FFFF2050245C266E2150255883
:10111600276E26502710D8B493EF08F096EF08F004
:10112600FFFF9EEF08F0FFFF010E1A6E010EFCECAA
:101136000EF0A4EF08F0FFFF010E1A6E000EFCEC95
:101146000EF0FFFF010E286E010E296ECA84000EF6
:10115600536E000E526EC80E5D6ED58E1AEF09F0F4
:10116600FFFF52505310D8B4BBEF08F0BEEF08F0A3
:10117600FFFFC7EF08F0FFFF89948A98000E536EB1
:10118600040E526E2EEF09F0FFFF75EC10F01E50A4
:101196001A261F501B2222501A1807E123501B182B
:1011A600D8A4D8EF08F0DBEF08F0FFFFE0EF08F077
:1011B600FFFF000E286EE2EF08F0FFFF8984FFFFB5
:1011C60075EC10F020501A2621501B2224501A18B4
:1011D60007E125501B18D8A4F3EF08F0F6EF08F046
:1011E600FFFFFBEF08F0FFFF000E296EFDEF08F092
:1011F600FFFF8A88FFFF3AEC10F01A501B10D8B494
:1012060007EF09F00AEF09F0FFFFFDEF08F0FFFF17
:1012160089948A98FFFF3AEC10F01A501B10D8B444
:1012260017EF09F01AEF09F0FFFF0DEF09F0FFFFC6
:101236002850D8A421EF09F024EF09F0FFFFB3EFFF
:1012460008F0FFFF2950D8A42BEF09F02EEF09F084
:10125600FFFFB3EF08F0FFFFD59ECA94000ED76ECE
:10126600000ED66E000ECC6E85EC10F05250FFFFCD
:101276001200FFFFFFFF0001D635D735DD6FDD51C8
:10128600D8A448EF09F04BEF09F0FFFF57EF09F03C
:10129600FFFFFFFF000ED46F000ED56F000ED66F56
:1012A600000ED76FD6EF09F0FFFFD4C0D8F0D5C037
:1012B600D9F0D6C0DAF0D7C0DBF0200E69EF09F01E
:1012C600FFFFD890DB33DA33D933D833FFFFE82E6C
:1012D60063EF09F0D851DC6FD68FFF0ED417FF0EDF
:1012E600D517FF0ED617000ED717960EDD5FDDBF9A
:1012F60082EF09F07FEF09F0FFFF9CEF09F0FFFF97
:10130600DD51800A970FD8B08BEF09F08EEF09F008
:10131600FFFF91EF09F0FFFF4CEF09F0FFFFD890B8
:10132600D733D633D533D433DD3F91EF09F0BAEF57
:1013360009F0FFFF1F0EDD65A3EF09F0A6EF09F028
:10134600FFFFB0EF09F0FFFF4CEF09F0FFFFD89069
:10135600D437D537D637D737DD07FFFFDD51D8A4C9
:10136600B7EF09F0BAEF09F0FFFFA9EF09F0FFFFA9
:10137600DC51D8B4C1EF09F0C4EF09F0FFFFCDEF9F
:1013860009F0FFFFD71FD61FD51FD46D000ED5233A
:10139600D623D723FFFFD4C0D4F0D5C0D5F0D6C00E
:1013A600D6F0D7C0D7F0FFFF1200FFFFFFFF206E79
:1013B60035EF0AF0FFFFA00E1A6E000E1B6E1D0E13
:1013C6001C6E90EC0FF064EF0AF0FFFF5C0E1A6ED5
:1013D600010E1B6E280E1C6E90EC0FF064EF0AF0E7
:1013E600FFFF840E1A6E010E1B6E270E1C6E90EC0C
:1013F6000FF064EF0AF0FFFF340E1A6E010E1B6E3B
:10140600280E1C6E90EC0FF064EF0AF0FFFF800EC2
:101416001A6E000E1B6E200E1C6E90EC0FF064EF21
:101426000AF0FFFF000E1A6E010E1B6E340E1C6EC4
:1014360090EC0FF064EF0AF0FFFFAB0E1A6E010E90
:101446001B6E260E1C6E90EC0FF064EF0AF0FFFF89
:10145600BD0E1A6E000E1B6E170E1C6E90EC0FF072
:1014660064EF0AF0FFFF20501E6E1F6A1F50000A2D
:10147600D8B440EF0AF064EF0AF0FFFF1E50010AED
:10148600D8B4DDEF09F0030AD8B4E8EF09F0010A91
:10149600D8B4F3EF09F0070AD8B4FEEF09F0010A51
:1014A600D8B409EF0AF0030AD8B414EF0AF0010A17
:1014B600D8B41FEF0AF00F0AD8B42AEF0AF064EF87
:1014C6000AF0FFFF1200FFFFFFFF076EC3EF0AF0EF
:1014D600FFFFA00E016E000E026E1D0E036EB7EC2E
:1014E6000FF0F2EF0AF0FFFF5C0E016E010E026EC6
:1014F600280E036EB7EC0FF0F2EF0AF0FFFF840E32
:10150600016E010E026E270E036EB7EC0FF0F2EFBE
:101516000AF0FFFF340E016E010E026E280E036EF6
:10152600B7EC0FF0F2EF0AF0FFFF800E016E000E2F
:10153600026E200E036EB7EC0FF0F2EF0AF0FFFF1B
:10154600000E016E010E026E340E036EB7EC0FF044
:10155600F2EF0AF0FFFFAB0E016E010E026E260ED1
:10156600036EB7EC0FF0F2EF0AF0FFFFBD0E016E4F
:10157600000E026E170E036EB7EC0FF0F2EF0AF0D4
:10158600FFFF0750056E066A0650000AD8B4CEEF74
:101596000AF0F2EF0AF0FFFF0550010AD8B46BEF2C
:1015A6000AF0030AD8B476EF0AF0010AD8B481EF3C
:1015B6000AF0070AD8B48CEF0AF0010AD8B497EFFC
:1015C6000AF0030AD8B4A2EF0AF0010AD8B4ADEFC4
:1015D6000AF00F0AD8B4B8EF0AF0F2EF0AF0FFFFEC
:1015E6001200FFFFFFFF0E6E010EF66E060EF76E7F
:1015F6000900FFFFF5CF0AF00900FFFFF5CF0BF05A
:101606000900FFFFF5CF0CF00A00FFFFF5CF0DF044
:10161600420E5424D96EDA6A000EDA220EC0DFFFBB
:10162600542A040E54641AEF0BF01DEF0BF0FFFF63
:1016360074EF0BF0FFFF000E546E59EF0BF0FFFF37
:101646005650040DEA0EF324D96E000EF420DA6E1D
:1016560042C0DFFF5650040DEB0EF324D96E000E88
:10166600F420DA6E42C0DFFF5650040DEC0EF32470
:10167600D96E000EF420DA6E42C0DFFF5650040D1C
:10168600ED0EF324D96E000EF420DA6E42C0DFFFB1
:10169600562A74EF0BF0FFFF010E556E74EF0BF038
:1016A600FFFF080E67EC0AF074EF0BF0FFFF4250E5
:1016B600086E096A0950000AD8B464EF0BF053EFBC
:1016C6000BF0FFFF0850000AD8B422EF0BF0010A16
:1016D600D8B474EF0BF0030AD8B44EEF0BF053EF07
:1016E6000BF0FFFF1200FFFFFFFF020E1A6E010E46
:1016F600FCEC0EF0CA84000E536E000E526EC80E3D
:101706005D6ED58EADEC10F0BAEF0BF0FFFF5250C8
:101716005310D8B491EF0BF094EF0BF0FFFF9CEF52
:101726000BF0FFFF8B94000E536E060E526ED0EF39
:101736000BF0FFFF8B84FFFF3AEC10F01A501B10E2
:10174600D8B4A8EF0BF0ABEF0BF0FFFF9EEF0BF05A
:10175600FFFF8B94FFFF3AEC10F01A501B10D8B421
:10176600B7EF0BF0BAEF0BF0FFFFADEF0BF0FFFF9B
:1017760069EC10F01A501B10D8B4C4EF0BF0C7EF89
:101786000BF0FFFF89EF0BF0FFFF83BECDEF0BF0F1
:10179600D0EF0BF0FFFF89EF0BF0FFFFA9EC10F085
:1017A6007BEC10F0D59ECA94000ED76E000ED66E56
:1017B600000ECC6E85EC10F083AEE4EF0BF0E7EF95
:1017C6000BF0FFFFECEF0BF0FFFF000E536E020E67
:1017D600526EFFFF52501200FFFFFFFF020E1A6EFD
:1017E600010EFCEC0EF0CA84000E536E000E526E13
:1017F600C80E5D6ED58EADEC10F033EF0CF0FFFF2A
:1018060052505310D8B40AEF0CF00DEF0CF0FFFF56
:1018160015EF0CF0FFFF8B94000E536E060E526E02
:1018260049EF0CF0FFFF8B84FFFF3AEC10F01A50E3
:101836001B10D8B421EF0CF024EF0CF0FFFF17EFCC
:101846000CF0FFFF8B94FFFF3AEC10F01A501B10C0
:10185600D8B430EF0CF033EF0CF0FFFF26EF0CF0AE
:10186600FFFF6FEC10F01A501B10D8B43DEF0CF0D0
:1018760040EF0CF0FFFF02EF0CF0FFFF83BE46EFD8
:101886000CF049EF0CF0FFFF02EF0CF0FFFFA9ECA4
:1018960010F080EC10F0D59ECA94000ED76E000EA4
:1018A600D66E000ECC6E85EC10F083AE5DEF0CF0BC
:1018B60060EF0CF0FFFF65EF0CF0FFFF000E536EBC
:1018C600020E526EFFFF52501200FFFFFFFF1D6E09
:1018D600B6EF0CF0FFFF1DC01BF0010E1B161B3AE6
:1018E6001B4689501B18DF0B1B18896E1DC01BF089
:1018F600020E1B168A501B18FE0B1B188A6ED1EFA0
:101906000CF0FFFF1DC01BF0010E1B161B3A1B46F9
:101916001B468A501B18BF0B1B188A6E1DC01BF076
:10192600020E1B161B321B328A501B187F0B1B180C
:101936008A6ED1EF0CF0FFFF1DC01BF0010E1B16C7
:101946001B3A8B501B18EF0B1B188B6E1DC01BF020
:10195600020E1B161B3A1B468B501B18DF0B1B185F
:101966008B6ED1EF0CF0FFFF1A501B6E1C6A1C50D9
:10197600000AD8B4C1EF0CF0D1EF0CF0FFFF1B50FA
:10198600000AD8B46DEF0CF0010AD8B484EF0CF05D
:10199600030AD8B49EEF0CF0D1EF0CF0FFFF120053
:1019A600FFFF4572726F722C2074696D6520657831
:1019B60063656564656420746F2072656163682081
:1019C60074686520656E64206F6620746865205AA9
:1019D6002041786973004572726F722C2074696DAC
:1019E6006520657863656564656420746F2072653B
:1019F6006163682074686520706F696E7400457253
:101A0600726F722C206E6F206F626A65637420722B
:101A1600656C65766174656420616C6F6E67205ACB
:101A26002041786973004572726F722C2074696D5B
:101A36006520657863656564656420746F207265EA
:101A460073657420706F736974696F6E0046617494
:101A5600616C204572726F722C20706C65617365C3
:101A660020726573657420746865206465766963A1
:031A7600652100E7
:101A7A00FFFF0001E16FAC0E2C6EFF0E2D6EB30E50
:101A8A002E6E3D0E2F6E0001E1511A6E1B6A1C6A02
:101A9A001D6A010E53EC06F01AC028F01BC029F08B
:101AAA001CC02AF01DC02BF00BEC03F028C0D4F0A8
:101ABA0029C0D5F02AC0D6F02BC0D7F03DEC09F0EA
:101ACA00D4C0E2F0D5C0E3F0000E0001E46F83EF6A
:101ADA000DF0FFFFC30E8C16E451030BDE6FDF6BB4
:101AEA005E0EDE25D96E000EDF21DA6EDF50E06F62
:101AFA00D890E037D890E0358C12E42BFFFFE45100
:101B0A00DE6FDF6BE251DE5DDF51800AE06FE35189
:101B1A00800AE059D8A094EF0DF097EF0DF0FFFF7F
:101B2A006EEF0DF0FFFF1200FFFFFFFF020E1A6EAD
:101B3A00000EFCEC0EF0CA84000E536E000E526EBC
:101B4A00C80E5D6ED58EDBEF0DF0FFFF52505310BD
:101B5A00D8B4B2EF0DF0B5EF0DF0FFFFBDEF0DF009
:101B6A00FFFF8B94000E536E060E526EE4EF0DF0DB
:101B7A00FFFF8B84FFFF3AEC10F01A501B10D8B409
:101B8A00C9EF0DF0CCEF0DF0FFFFBFEF0DF0FFFF37
:101B9A008B94FFFF3AEC10F01A501B10D8B4D8EF10
:101BAA000DF0DBEF0DF0FFFFCEEF0DF0FFFF84A489
:101BBA00E1EF0DF0E4EF0DF0FFFFAAEF0DF0FFFFEC
:101BCA00D59ECA94000ED76E000ED66E000ECC6E4D
:101BDA0085EC10F052501200FFFFFFFFDEEC0FF011
:101BEA00FBEC0FF00EEC10F044EC10F0000E1B6E44
:101BFA000A0E1A6E30EC10F04FEC07F021EC10F0E0
:101C0A00AB88FFFFA5EC10F00009D8B40FEF0EF077
:101C1A0012EF0EF0FFFF28EF0EF0FFFF000E1A6E14
:101C2A00010EC2EC0EF0010E1A6E010EC2EC0EF09D
:101C3A00020E1A6E010EC2EC0EF0070ED9EC09F074
:101C4A00FFFF25EF0EF0FFFFA1EC10F00009D8B45A
:101C5A0031EF0EF034EF0EF0FFFF06EF0EF0FFFF4C
:101C6A0024EC05F0416E4150D9EC09F054EC10F027
:101C7A009DEC10F036EC0FF006EF0EF0C5EF00F019
:101C8A00A80EF66E190EF76E000EF86E01EE00F051
:101C9A0010EED1F00900F5CFEEFFE550E150FAE180
:101CAA00CC0EF66E1E0EF76E000EF86E00EE80F089
:101CBA0010EE54F00900F5CFEEFFE550E150FAE1DD
:101CCA00320EF66E210EF76E000EF86E00EE5EF022
:101CDA0010EE08F00900F5CFEEFFE550E150FAE109
:101CEA0000EEEAF0140EEE6AE806FDE100EE42F0BC
:101CFA001C0EEE6AE806FDE166906692000EF86E2A
:101D0A000001F2EF0DF0FFFF1D6EA4EF0EF0FFFFD2
:101D1A001DB002D08A9401D08A84BFEF0EF0FFFF73
:101D2A001DB002D08B9001D08B80BFEF0EF0FFFF69
:101D3A001DB002D08C9001D08C80BFEF0EF0FFFF57
:101D4A001A501B6E1C6A1C50000AD8B4AFEF0EF072
:101D5A00BFEF0EF0FFFF1B50000AD8B48CEF0EF055
:101D6A00010AD8B494EF0EF0030AD8B49CEF0EF02F
:101D7A00BFEF0EF0FFFF1200FFFFFFFF1D6EDEEF49
:101D8A000EF0FFFF1DB002D0899601D08986F9EFC7
:101D9A000EF0FFFF1DB002D08A9A01D08A8AF9EFAD
:101DAA000EF0FFFF1DB002D08B9601D08B86F9EFA3
:101DBA000EF0FFFF1A501B6E1C6A1C50000AD8B4A2
:101DCA00E9EF0EF0F9EF0EF0FFFF1B50000AD8B44E
:101DDA00C6EF0EF0010AD8B4CEEF0EF0030AD8B45B
:101DEA00D6EF0EF0F9EF0EF0FFFF1200FFFFFFFF34
:101DFA001D6E18EF0FF0FFFF1DB002D0899201D0BF
:101E0A00898233EF0FF0FFFF1DB002D08A9601D00E
:101E1A008A8633EF0FF0FFFF1DB002D08B9201D0FC
:101E2A008B8233EF0FF0FFFF1A501B6E1C6A1C5097
:101E3A00000AD8B423EF0FF033EF0FF0FFFF1B5067
:101E4A00000AD8B400EF0FF0010AD8B408EF0FF077
:101E5A00030AD8B410EF0FF033EF0FF0FFFF1200B0
:101E6A00FFFFFFFF000E1C6EFFFF1C501A6E1B6A5D
:101E7A00D8901A361B36D8901A361B36EE0E1A240C
:101E8A00D96E000E1B20DA6E1C50040DEA0EF324E4
:101E9A00E16E000EF420E26EDECFE6FFDECFE6FF53
:101EAA00DECFE6FFDECFE6FF1C2A030E1C6460EFDE
:101EBA000FF063EF0FF0FFFF39EF0FF0FFFF120093
:101ECA00FFFF4572726F722C20706F696E74206FFB
:101EDA0075747369646520626F756E646172696591
:101EEA0073004572726F722C2066656564206C6996
:101EFA006E65206E6F7420646566696E6564004362
:101F0A006F6D6D616E64206E6F74207265636F67AA
:101F1A006E697A656400FFFF010E1D6EA9EF0FF06E
:101F2A00FFFF1AC0D9FF1BC0DAFFDF50AD6EFFFFFB
:101F3A00ACA2A2EF0FF0A5EF0FF0FFFF9CEF0FF09E
:101F4A00FFFF1A4A1B2A1D2AFFFF1C501D5CD8A03E
:101F5A00B1EF0FF0B4EF0FF0FFFF95EF0FF0FFFFB7
:101F6A001200FFFFFFFF010E046ED0EF0FF0FFFF1C
:101F7A0001C0D9FF02C0DAFFDF50AD6EFFFFACA28D
:101F8A00C9EF0FF0CCEF0FF0FFFFC3EF0FF0FFFF29
:101F9A00014A022A042AFFFF0350045CD8A0D8EFA2
:101FAA000FF0DBEF0FF0FFFFBCEF0FF0FFFF1200A7
:101FBA00FFFFFFFFF2BEE4EF0FF0E7EF0FF0FFFFC6
:101FCA00E9EF0FF0FFFFF28EFFFFF2BCEFEF0FF029
:101FDA00F2EF0FF0FFFFF4EF0FF0FFFFF28CFFFFBD
:101FEA00D08EF28A9D829D8A1200FFFFFFFFC150A8
:101FFA00F00B0609C16ED10E9216020E9316C00E90
:10200A009416C00E9516968096829684958E120026
:10201A00FFFFFFFFC2503F0B4009C26EC18CC70EC3
:10202A00C216C294C290C19EC150F00B0E09C16E75
:10203A009D8C9F8C1200FFFFFFFF949C948EAC9C9A
:10204A00AC8AAC98AC94AB8EAB9CAB98AB96190EA1
:10205A00AF6E1200FFFFFFFFCA94030ECA121AC026
:10206A004EF01BC04FF01200FFFFFFFF5BC01CF0D9
:10207A00000E5B6E1CC01AF01B6A1200FFFFFFFF06
:10208A00D59ED59CD59AD586070ED5121200FFFF8C
:10209A00FFFFEA0E1A6E000E1B6E1200FFFFFFFF13
:1020AA00000E536E000E526E1200FFFFFFFF000E6D
:1020BA00536E010E526E1200FFFFFFFF4EC001F079
:1020CA004FC002F01200FFFFFFFF59C01AF01B6A4F
:1020DA001200FFFFFFFF5AC01AF01B6A1200FFFF2F
:1020EA00FFFF5CC01AF01B6A1200FFFFFFFF000E21
:1020FA00596E1200FFFFFFFF000E5A6E1200FFFF1B
:10210A00FFFF000E5C6E1200FFFFFFFF010E5B6E09
:10211A001200FFFFFFFF010E5A6E1200FFFFFFFFC2
:10212A00010E596E1200FFFF0903060CE803E803CB
:10213A00FFFF56061200FFFFFFFF56501200FFFF77
:10214A00FFFF55501200FFFFFFFFC2901200FFFF72
:10215A00FFFFC2801200FFFFFFFF8C921200FFFFF9
:10216A00FFFF8C821200FFFFFFFF5D501200FFFF8E
:0A217A00FFFF5C2A1200FFFFFFFFC9
:020000040020DA
:08000000FFFFFFFFFFFFFFFF00
:020000040030CA
:0E000000FF210D0EFF0080FF0FC00FE00F402C
:00000001FF
