:020000040000FA
:0600000000F0B5EF00F076
:10000800FFFF6E82D9CF0DF0DACF0EF0F3CF0FF0ED
:10001800F4CF10F0F2A413EF00F016EF00F0FFFF9A
:100028002CEF00F0FFFFF294632A0CEC11F00B6E3A
:100038000B50635CD8A023EF00F026EF00F0FFFF21
:100048002CEF00F0FFFFD59E000E636EC7EC10F09A
:10005800FFFF9EA232EF00F035EF00F0FFFF63EFE5
:1000680000F0FFFF9E92514A522ACEEC10F05150F8
:10007800015C52500258D8B044EF00F047EF00F04E
:10008800FFFF63EF00F0FFFF622A6250D8B44FEF22
:1000980000F052EF00F0FFFF60EF00F0FFFF62B0EA
:1000A80058EF00F05BEF00F0FFFF60EF00F0FFFF9C
:1000B800000E626E10EC11F0FFFFE5EC10F0FFFF90
:1000C8009EAC69EF00F06CEF00F0FFFF99EF00F0D5
:1000D800FFFF9E9CC3CF53F0546AC4500C6E0B6A4A
:1000E8000B5053120C5054125304040E5458D8A0F9
:1000F80080EF00F083EF00F0FFFF8AEF00F0FFFFD2
:10010800EAEC10F0EFEC10F099EF00F0FFFF530469
:10011800020E5458D8A093EF00F096EF00F0FFFFBE
:1001280099EF00F0FFFFEAEC10F0FFFF9EAA9FEFA7
:1001380000F0A2EF00F0FFFFA9EF00F0FFFF9E9A8A
:10014800AECF11F01150B7EC0AF0FFFF10C0F4FF6A
:100158000FC0F3FF0EC0DAFF0DC0D9FF6E92110079
:06016800FFFFA8EF0EF0FE
:1006000000ACFFB33D0004000219190F0F050500EF
:10061000FFFF2350800B306E23502324376E22AE11
:1006200014EF03F017EF03F0FFFF19EF03F0FFFFE4
:100630003780FFFF3750D8B420EF03F023EF03F0EB
:10064000FFFF3CEF03F0FFFF3728D8A42AEF03F0A9
:100650002DEF03F0FFFF36EF03F0FFFF000E206EDB
:10066000000E216E000E226E000E236EFFFF228E02
:10067000000E236E45EF03F0FFFF000E206E000E0C
:10068000216E000E226E000E236EFFFF2750800B9E
:10069000301A27502724386E26AE51EF03F054EF5E
:1006A00003F0FFFF56EF03F0FFFF3880FFFF3850E5
:1006B000D8B45DEF03F060EF03F0FFFF79EF03F0D4
:1006C000FFFF3828D8A467EF03F06AEF03F0FFFFBD
:1006D00073EF03F0FFFF000E246E000E256E000E78
:1006E000266E000E276EFFFF268E000E276E82EF0D
:1006F00003F0FFFF000E246E000E256E000E266E26
:10070000000E276EFFFF2450251026102710D8A4B6
:100710008CEF03F08FEF03F0FFFFA9EF03F0FFFF73
:10072000000E206E000E216E000E226E000E236E53
:10073000800E22127F0E2312FFFF3050231220C0A2
:1007400020F021C021F022C022F023C023F01EEFB0
:1007500005F0FFFF3750D8A4B0EF03F0B3EF03F07C
:10076000FFFFBEEF03F0FFFF000E206E000E216EB4
:10077000000E226E000E236E1EEF05F0FFFF3850B4
:1007800037C028F0296A285E000E295A7F0E2824D7
:10079000316E000E2920326E20C02CF021C02DF0C9
:1007A00022C02EF023C02FF0000E206E000E216E0E
:1007B000000E226E000E236E000E336E000E346E9D
:1007C000000E356E000E366E000E386E2AEF04F005
:1007D000FFFF3850D8B4EFEF03F0F2EF03F0FFFF64
:1007E0000DEF04F0FFFFD8902C362D362E362F3625
:1007F000D890203621362236233636AE02EF04F06A
:1008000005EF04F0FFFF07EF04F0FFFF2080FFFF7C
:10081000D8903336343635363636FFFF24502C5CCC
:1008200025502D5826502E5827502F58D8A01BEF52
:1008300004F01EEF04F0FFFF28EF04F0FFFF368CFA
:1008400024502C5E25502D5A26502E5A27502F5AB0
:10085000FFFF382AFFFF190E386431EF04F034EF40
:1008600004F0FFFFE8EF03F0FFFF2C502D102E10D7
:100870002F10D8B43EEF04F041EF04F0FFFF5EEF1D
:1008800004F0FFFF33805EEF04F0FFFFD8902036C6
:1008900021362236233636AE50EF04F053EF04F003
:1008A000FFFF55EF04F0FFFF2080FFFFD8903336A5
:1008B0003436353636363106D8A03206FFFF22AE42
:1008C00064EF04F067EF04F0FFFF45EF04F0FFFF73
:1008D000000E386E36AE6FEF04F072EF04F0FFFFDB
:1008E0009DEF04F0FFFFFF0E3314286EFF0E34144B
:1008F000296EFF0E35142A6E7F0E36142B6E28508B
:1009000029102A102B10D8B488EF04F08BEF04F0D4
:10091000FFFF91EF04F0FFFFFFFF010E386E9DEF28
:1009200004F0FFFF20A097EF04F09AEF04F0FFFF20
:100930009DEF04F0FFFF8CEF04F0FFFF3850D8B4B8
:10094000A4EF04F0A7EF04F0FFFFCEEF04F0FFFFE9
:10095000010E2026000E21222222232223A0B3EF03
:1009600004F0B6EF04F0FFFFCEEF04F0FFFF20C06D
:1009700028F021C029F022C02AF023C02BF02B340C
:100980002B322A322932283228C020F029C021F007
:100990002AC022F02BC023F0314A322AFFFF32BE98
:1009A000DAEF04F0325009E13128D8A0DAEF04F090
:1009B000DDEF04F0FFFFE9EF04F0FFFF000E326E01
:1009C0003168000E206E000E216E000E226E000EA9
:1009D000236EFFFF32BEF8EF04F0325006E131041F
:1009E000D8B0F5EF04F0F8EF04F0FFFF07EF05F0E3
:1009F000FFFF000E326E000E316E000E206E000EF4
:100A0000216E000E226E000E236E000E306EFFFF70
:100A100031C037F037A00FEF05F012EF05F0FFFF00
:100A200016EF05F0FFFF228E18EF05F0FFFF229E64
:100A3000FFFFD8903730236E9CEF03F0FFFF1200CA
:100A4000FFFFFFFFB9EC10F012C0FCF013C0FDF087
:100A5000D4EF05F0FFFF4EC016F0176A4FC018F034
:100A6000196A0D0EF66E060EF76E0800FFFFF550C0
:100A70001A6E1B6A0E0EF66E060EF76E0800FFFF6A
:100A8000F5501C6E1D6A56EC08F00001FB6F0D0E50
:100A9000F66E060EF76E0800FFFFF5CF4EF00E0E55
:100AA000F66E060EF76E0800FFFFF5CF4FF0F7EF7A
:100AB00005F0FFFF4EC016F0176A4FC018F0196A14
:100AC0000B0EF66E060EF76E0800FFFFF5501A6E5D
:100AD0001B6A0C0EF66E060EF76E0800FFFFF5504F
:100AE0001C6E1D6A56EC08F00001FB6F0B0EF66ED3
:100AF000060EF76E0800FFFFF5CF4EF00C0EF66EF7
:100B0000060EF76E0800FFFFF5CF4FF0F7EF05F088
:100B1000FFFF4EC016F0176A4FC018F0196A090E91
:100B2000F66E060EF76E0800FFFFF5501A6E1B6A90
:100B30000A0EF66E060EF76E0800FFFFF5501C6EEB
:100B40001D6A56EC08F00001FB6F090EF66E060EEA
:100B5000F76E0800FFFFF5CF4EF00A0EF66E060E98
:100B6000F76E0800FFFFF5CF4FF0F7EF05F0FFFF3E
:100B70004EC016F0176A4FC018F0196A57C01AF025
:100B80001B6A58C01CF01D6A56EC08F00001FB6F90
:100B900057C04EF058C04FF0F7EF05F0FFFF010EC1
:100BA0000001FB6FF7EF05F0FFFFFCC0D9FFFDC0B0
:100BB000DAFFDF50436E446A4450000AD8B4E3EFD2
:100BC00005F0CEEF05F0FFFF4350000AD8B42AEF3E
:100BD00005F0010AD8B459EF05F0030AD8B488EF3C
:100BE00005F0FD0AD8B4B7EF05F0CEEF05F0FFFF32
:100BF000FB51D8A4FEEF05F001EF06F0FFFF5DEF1B
:100C000006F0FFFF08EC11F050EC0EF04EC016F0AD
:100C1000176A4FC018F0196A000120EE01F0FC516C
:100C2000D926FD51DA22DF50436E43501A6E1B6AFB
:100C300020EE02F0FC51D926FD51DA22DF50446E3D
:100C400044501C6E1D6A56EC08F0000120EE01F0C5
:100C5000FC51D926FD51DA22DF504E6E20EE02F013
:100C6000FC51D926FD51DA22DF504F6E20EE03F001
:100C7000FC51D926FD51DA22DF50436E5950435CB6
:100C8000596E5A50D8A05A285A6A5A5E5ABE4EEF28
:100C900006F04BEF06F0FFFF53EF06F0FFFF680E84
:100CA0005926010E5A22FFFF5950F3EC0DF004ECC7
:100CB00011F050EC0EF00001FB6FFFFFFB51120032
:100CC000FFFFFFFF1A6E1A50D8B469EF06F06CEF01
:100CD00006F0FFFF91EF06F0FFFF15BE75EF06F07F
:100CE00072EF06F0FFFF91EF06F0FFFF12C016F063
:100CF00013C017F014C018F015C019F0161E171EF7
:100D0000181E191E162A000E17221822192216C0A4
:100D10001CF017C01DF018C01EF019C01FF09AEF8C
:100D200006F0FFFF12C01CF013C01DF014C01EF02F
:100D300015C01FF0FFFF1250131014101510D8A487
:100D4000A4EF06F0A7EF06F0FFFFB2EF06F0FFFFFB
:100D5000000E126E000E136E000E146E000E156E55
:100D60005AEF07F0FFFF960E1B6EBEEF06F0FFFF77
:100D70001B2AD8901F321E321D321C32FFFF000E7C
:100D80001C14166E000E1D14176E000E1E14186E25
:100D9000FE0E1F14196E1650171018101910D8A433
:100DA000D4EF06F0D7EF06F0FFFFB7EF06F0FFFF36
:100DB000E7EF06F0FFFF1B2A010E1C26000E1D2286
:100DC0001E221F22D8901F321E321D321C32FFFFFE
:100DD000000E1C14166E000E1D14176E000E1E144D
:100DE000186EFF0E1F14196E1650171018101910D8
:100DF000D8A4FDEF06F000EF07F0FFFFDAEF06F0F2
:100E0000FFFF0AEF07F0FFFF1B06D8901C361D36C8
:100E10001E361F36FFFF1EBE10EF07F013EF07F060
:100E2000FFFF1DEF07F0FFFF020E1B601AEF07F038
:100E30001DEF07F0FFFF03EF07F0FFFF1BB023EFED
:100E400007F026EF07F0FFFF28EF07F0FFFF1E9ED9
:100E5000FFFFD8901B321BC016F0176A186A196A78
:100E600016C019F0186A176A166A16501C12175025
:100E70001D1218501E1219501F121A50D8B443EFE9
:100E800007F046EF07F0FFFF51EF07F0FFFF15BE39
:100E90004FEF07F04CEF07F0FFFF51EF07F0FFFFB8
:100EA0001F8EFFFF1CC012F01DC013F01EC014F0F7
:100EB0001FC015F0FFFF1200FFFFFFFF000E126EB4
:100EC000000E1FEC0DF0000E126E010E1FEC0DF067
:100ED000000E126E020E1FEC0DF0000E126E000ED0
:100EE0005FEC0FF0010E126E000E5FEC0FF0020EC1
:100EF000126E000E5FEC0FF0000E126E010EEBECA6
:100F00000EF0010E126E010EEBEC0EF0020E126EE0
:100F1000010EEBEC0EF0000E126E000E25EC0FF041
:100F2000010E126E000E25EC0FF0020E126E000E76
:100F300025EC0FF0010E166E010E176E010E186EE5
:100F4000CA84000E5C6E000E5B6EC80E686ED58E95
:100F50002BEF08F0FFFF5B505C10D8B4B2EF07F046
:100F6000B5EF07F0FFFFBFEF07F0FFFF89948A9806
:100F70008B94000E5C6E030E5B6E49EF08F0FFFF72
:100F800084B0C5EF07F0C8EF07F0FFFFD2EF07F01E
:100F9000FFFF1650D8A4CFEF07F0D2EF07F0FFFF06
:100FA000D7EF07F0FFFF000E166ED9EF07F0FFFF37
:100FB0008984FFFF84B2DFEF07F0E2EF07F0FFFF65
:100FC000ECEF07F0FFFF1750D8A4E9EF07F0ECEFC4
:100FD00007F0FFFFF1EF07F0FFFF000E176EF3EFD2
:100FE00007F0FFFF8A88FFFF84B4F9EF07F0FCEFFA
:100FF00007F0FFFF06EF08F0FFFF1850D8A403EF3B
:1010000008F006EF08F0FFFF0BEF08F0FFFF000EFF
:10101000186E0DEF08F0FFFF8B84FFFF9FEC10F0C0
:1010200012501310D8B417EF08F01AEF08F0FFFFB2
:101030000DEF08F0FFFF89948A988B94FFFF9FECD7
:1010400010F012501310D8B428EF08F02BEF08F06E
:10105000FFFF1EEF08F0FFFF1650D8A432EF08F094
:1010600035EF08F0FFFFAAEF07F0FFFF1750D8A4F5
:101070003CEF08F03FEF08F0FFFFAAEF07F0FFFF9B
:101080001850D8A446EF08F049EF08F0FFFFAAEF88
:1010900007F0FFFFD59ECA94000ED76E000ED66EE5
:1010A000000ECC6EE0EC10F01200FFFFFFFFE90E27
:1010B0001A5C030E1B58D8B060EF08F063EF08F01D
:1010C000FFFF70EF08F0FFFFE90E1C5C030E1D58D8
:1010D000D8A06DEF08F070EF08F0FFFF74EF08F094
:1010E000FFFF050E48EF09F0FFFF16501A5C1E6E59
:1010F00017501B581F6E1E501F10D8B482EF08F0F7
:1011000085EF08F0FFFF8DEF08F0FFFF000E126E75
:10111000010E5FEC0FF093EF08F0FFFF000E126E70
:10112000000E5FEC0FF0FFFF18501C5C1E6E195094
:101130001D581F6E1E501F10D8B4A1EF08F0A4EF69
:1011400008F0FFFFACEF08F0FFFF010E126E010E7A
:101150005FEC0FF0B2EF08F0FFFF010E126E000E11
:101160005FEC0FF0FFFF010E206E010E216ECA84AE
:10117000000E5C6E000E5B6EC80E686ED58E28EF9A
:1011800009F0FFFF5B505C10D8B4C9EF08F0CCEF5A
:1011900008F0FFFFD5EF08F0FFFF89948A98000E52
:1011A0005C6E040E5B6E3CEF09F0FFFFD5EC10F0B7
:1011B00016501226175013221A50121807E11B500E
:1011C0001318D8A4E6EF08F0E9EF08F0FFFFEEEF00
:1011D00008F0FFFF000E206EF0EF08F0FFFF89849B
:1011E000FFFFD5EC10F018501226195013221C5096
:1011F000121807E11D501318D8A401EF09F004EFED
:1012000009F0FFFF09EF09F0FFFF000E216E0BEF61
:1012100009F0FFFF8A88FFFF9FEC10F012501310B7
:10122000D8B415EF09F018EF09F0FFFF0BEF09F044
:10123000FFFF89948A98FFFF9FEC10F01250131063
:10124000D8B425EF09F028EF09F0FFFF1BEF09F0F4
:10125000FFFF2050D8A42FEF09F032EF09F0FFFF75
:10126000C1EF08F0FFFF2150D8A439EF09F03CEF9F
:1012700009F0FFFFC1EF08F0FFFFD59ECA94000EF2
:10128000D76E000ED66E000ECC6EE0EC10F05B5008
:10129000FFFF1200FFFFFFFF43EC10F060EC10F0C7
:1012A00073EC10F0A9EC10F0000E136E0A0E126E23
:1012B00095EC10F05DEC07F086EC10F0AB88FFFFCA
:1012C00000EC11F00009D8B468EF09F06BEF09F0F9
:1012D000FFFF81EF09F0FFFF000E126E010E25ECFB
:1012E0000FF0010E126E010E25EC0FF0020E126EC1
:1012F000010E25EC0FF0070E03EC0CF0FFFF7EEF64
:1013000009F0FFFFFCEC10F00009D8B48AEF09F0F7
:101310008DEF09F0FFFFEBEF09F0FFFFB2EC10F0EB
:1013200012C0D2F113C0D3F1010120EE02F0D2516C
:10133000D926D351DA22DF50576E20EE03F0D25176
:10134000D926D351DA22DF50586EAB98000E06EC46
:101350000AF0FF0E06EC0AF0010120EE05F0D25172
:10136000D926D351DA22DF5006EC0AF0010120EE33
:1013700006F0D251D926D351DA22DF5006EC0AF01A
:10138000010120EE04F0D251D926D351DA22DF50E8
:101390000001FE6F010120EE07F0D251D926D35192
:1013A000DA22DF500001FF6FFE51FF5D06EC0AF00C
:1013B000AB88DBEC10F021EC05F00101D16FD151CD
:1013C00003EC0CF0FFFFC0EC10F0F4EC10F099EC23
:1013D0000FF05FEF09F0FFFFF8EC10F00009D8B450
:1013E000F4EF09F0F7EF09F0FFFF01EF0AF0FFFF5C
:1013F00021EC05F00101D16FD15103EC0CF0E2EFCB
:1014000009F0FFFF5FEF09F0B5EF00F0FFFF1B6E83
:10141000450E5E24D96EDA6A000EDA221BC0DFFFA9
:101420005E2A22EF0AF0FFFF050E6D6E3DEF0AF017
:10143000FFFF090E6D6E3DEF0AF0FFFF010E6D6EAE
:101440003DEF0AF0FFFF4550196E1A6A1A50000A64
:10145000D8B42DEF0AF03DEF0AF0FFFF1950000A53
:10146000D8B413EF0AF0010AD8B418EF0AF0030A4F
:10147000D8B41DEF0AF03DEF0AF0FFFF6D505E5C3F
:10148000D8A045EF0AF048EF0AF0FFFFB4EF0AF0EA
:10149000FFFF000E5E6E99EF0AF0FFFF6150040D32
:1014A000D80EF324D96E000EF420DA6E46C0DFFFAA
:1014B0006150040DD90EF324D96E000EF420DA6EBB
:1014C00047C0DFFF6150040DDA0EF324D96E000E21
:1014D000F420DA6E48C0DFFF6150040DDB0EF32408
:1014E000D96E000EF420DA6E49C0DFFF612AB4EF36
:1014F0000AF0FFFF46C0ECF047C0EDF048C0EEF048
:1015000049C0EFF04AC0F0F04BC0F1F04CC0F2F02F
:101510004DC0F3F0010E5F6EB4EF0AF0FFFF010E55
:10152000606EB4EF0AF0FFFF080E03EC0CF0B4EFAE
:101530000AF0FFFF4550196E1A6A1A50000AD8B413
:10154000A4EF0AF093EF0AF0FFFF1950000AD8B495
:101550004DEF0AF0010AD8B479EF0AF0030AD8B4C3
:101560008EEF0AF093EF0AF0FFFF1200FFFFFFFF7C
:101570000A6E450E5E24D96EDA6A000EDA220AC0BF
:10158000DFFF5E2AD3EF0AF0FFFF050E6D6EEEEF70
:101590000AF0FFFF090E6D6EEEEF0AF0FFFF010E7D
:1015A0006D6EEEEF0AF0FFFF4550086E096A0950B4
:1015B000000AD8B4DEEF0AF0EEEF0AF0FFFF0850A1
:1015C000000AD8B4C4EF0AF0010AD8B4C9EF0AF08F
:1015D000030AD8B4CEEF0AF0EEEF0AF0FFFF6D5029
:1015E0005E5CD8A0F6EF0AF0F9EF0AF0FFFF65EFB6
:1015F0000BF0FFFF000E5E6E4AEF0BF0FFFF615035
:10160000040DD80EF324D96E000EF420DA6E46C015
:10161000DFFF6150040DD90EF324D96E000EF420C3
:10162000DA6E47C0DFFF6150040DDA0EF324D96E85
:10163000000EF420DA6E48C0DFFF6150040DDB0EAF
:10164000F324D96E000EF420DA6E49C0DFFF612A60
:1016500065EF0BF0FFFF46C0ECF047C0EDF048C06F
:10166000EEF049C0EFF04AC0F0F04BC0F1F04CC0D2
:10167000F2F04DC0F3F0010E5F6E65EF0BF0FFFF6F
:10168000010E606E65EF0BF0FFFF080E91EC0CF0A1
:1016900065EF0BF0FFFF4550086E096A0950000A1C
:1016A000D8B455EF0BF044EF0BF0FFFF0850000AE1
:1016B000D8B4FEEF0AF0010AD8B42AEF0BF0030AFF
:1016C000D8B43FEF0BF044EF0BF0FFFF1200FFFF29
:1016D000FFFF3B343C34426E4250D8A472EF0BF013
:1016E00075EF0BF0FFFF81EF0BF0FFFFFFFF000E28
:1016F000396E000E3A6E000E3B6E000E3C6E00EF2F
:101700000CF0FFFF39C03DF03AC03EF03BC03FF067
:101710003CC040F0200E93EF0BF0FFFFD89040321A
:101720003F323E323D32FFFFE82E8DEF0BF03D5051
:10173000416E3B8EFF0E3916FF0E3A16FF0E3B161A
:10174000000E3C16960E425E42BEACEF0BF0A9EFC7
:101750000BF0FFFFC6EF0BF0FFFF4250800A970F20
:10176000D8B0B5EF0BF0B8EF0BF0FFFFBBEF0BF00D
:10177000FFFF76EF0BF0FFFFD8903C323B323A325E
:101780003932423EBBEF0BF0E4EF0BF0FFFF1F0ED0
:101790004264CDEF0BF0D0EF0BF0FFFFDAEF0BF070
:1017A000FFFF76EF0BF0FFFFD89039363A363B3625
:1017B0003C364206FFFF4250D8A4E1EF0BF0E4EFC5
:1017C0000BF0FFFFD3EF0BF0FFFF4150D8B4EBEF6E
:1017D0000BF0EEEF0BF0FFFFF7EF0BF0FFFF3C1EFF
:1017E0003B1E3A1E396C000E3A223B223C22FFFF80
:1017F00039C039F03AC03AF03BC03BF03CC03CF055
:10180000FFFF1200FFFFFFFF186E5FEF0CF0FFFFFE
:10181000A40E126E000E136E1D0E146EF5EC0FF07A
:101820008EEF0CF0FFFF5C0E126E010E136E280E91
:10183000146EF5EC0FF08EEF0CF0FFFF840E126EBD
:10184000010E136E270E146EF5EC0FF08EEF0CF0F8
:10185000FFFF340E126E010E136E280E146EF5EC9F
:101860000FF08EEF0CF0FFFF840E126E000E136E61
:10187000200E146EF5EC0FF08EEF0CF0FFFF000E53
:10188000126E010E136E340E146EF5EC0FF08EEF27
:101890000CF0FFFFAB0E126E010E136E260E146ECF
:1018A000F5EC0FF08EEF0CF0FFFFC10E126E000E84
:1018B000136E170E146EF5EC0FF08EEF0CF0FFFFA9
:1018C0001850166E176A1750000AD8B46AEF0CF059
:1018D0008EEF0CF0FFFF1650010AD8B407EF0CF0A2
:1018E000030AD8B412EF0CF0010AD8B41DEF0CF0C3
:1018F000070AD8B428EF0CF0010AD8B433EF0CF083
:10190000030AD8B43EEF0CF0010AD8B449EF0CF04A
:101910000F0AD8B454EF0CF08EEF0CF0FFFF12005A
:10192000FFFFFFFF076EEDEF0CF0FFFFA40E016E4F
:10193000000E026E1D0E036E1CEC10F01CEF0DF07D
:10194000FFFF5C0E016E010E026E280E036E1CEC92
:1019500010F01CEF0DF0FFFF840E016E010E026E01
:10196000270E036E1CEC10F01CEF0DF0FFFF340E81
:10197000016E010E026E280E036E1CEC10F01CEFBF
:101980000DF0FFFF840E016E000E026E200E036E3E
:101990001CEC10F01CEF0DF0FFFF000E016E010EAD
:1019A000026E340E036E1CEC10F01CEF0DF0FFFF06
:1019B000AB0E016E010E026E260E036E1CEC10F0D3
:1019C0001CEF0DF0FFFFC10E016E000E026E170E30
:1019D000036E1CEC10F01CEF0DF0FFFF0750056EBE
:1019E000066A0650000AD8B4F8EF0CF01CEF0DF0B0
:1019F000FFFF0550010AD8B495EF0CF0030AD8B4E4
:101A0000A0EF0CF0010AD8B4ABEF0CF0070AD8B481
:101A1000B6EF0CF0010AD8B4C1EF0CF0030AD8B449
:101A2000CCEF0CF0010AD8B4D7EF0CF00F0AD8B401
:101A3000E2EF0CF01CEF0DF0FFFF1200FFFFFFFFC5
:101A4000156E6CEF0DF0FFFF15C013F0010E1316AD
:101A5000133A134689501318DF0B1318896E15C0FB
:101A600013F0020E13168A501318FE0B13188A6E09
:101A700087EF0DF0FFFF15C013F0010E1316133A98
:101A8000134613468A501318BF0B13188A6E15C0DD
:101A900013F0020E1316133213328A5013187F0BF1
:101AA00013188A6E87EF0DF0FFFF15C013F0010EBB
:101AB0001316133A8B501318EF0B13188B6E15C0B7
:101AC00013F0020E1316133A13468B501318DF0B44
:101AD00013188B6E87EF0DF0FFFF1250136E146A10
:101AE0001450000AD8B477EF0DF087EF0DF0FFFF28
:101AF0001350000AD8B423EF0DF0010AD8B43AEF1E
:101B00000DF0030AD8B454EF0DF087EF0DF0FFFF8E
:101B10001200FFFF4572726F722C2074696D652090
:101B2000657863656564656420746F2072656163C0
:101B3000682074686520656E64206F66207468652F
:101B4000205A2041786973004572726F722C20749C
:101B5000696D6520657863656564656420746F20D0
:101B600072656163682074686520706F696E7400C7
:101B70004572726F722C206E6F206F626A6563749B
:101B80002072656C65766174656420616C6F6E6748
:101B9000205A2041786973004572726F722C20744C
:101BA000696D6520657863656564656420746F2080
:101BB000726573657420706F736974696F6E004627
:101BC0006174616C204572726F722C20706C65615B
:101BD000736520726573657420746865206465762A
:051BE0006963652100AE
:101BE600FFFF0001F76FAC0E246EFF0E256EB30EDD
:101BF600266E3D0E276E0001F751126E136A146AA7
:101C0600156A010E61EC06F012C020F013C021F037
:101C160014C022F015C023F008EC03F020C039F000
:101C260021C03AF022C03BF023C03CF068EC0BF038
:101C360039C0F8F03AC0F9F0000E0001FA6F39EF3A
:101C46000EF0FFFFC30E8C16FA51030BF46FF56B03
:101C5600800EF425D96E000EF521DA6EDF50F66F90
:101C6600D890F637D890F6358C12FA2BFFFFFA513A
:101C7600F46FF56BF851F45DF551800AF66FF95182
:101C8600800AF659D8A04AEF0EF04DEF0EF0FFFF8E
:101C960024EF0EF0FFFF1200FFFFFFFF020E126E91
:101CA600000E5FEC0FF0CA84000E5C6E000E5B6ED9
:101CB600C80E686ED58E91EF0EF0FFFF5B505C107C
:101CC600D8B468EF0EF06BEF0EF0FFFF73EF0EF077
:101CD600FFFF8B94000E5C6E060E5B6E9AEF0EF0A5
:101CE600FFFF8B84FFFF9FEC10F012501310D8B447
:101CF6007FEF0EF082EF0EF0FFFF75EF0EF0FFFFA5
:101D06008B94FFFF9FEC10F012501310D8B48EEF97
:101D16000EF091EF0EF0FFFF84EF0EF0FFFF84A4AC
:101D260097EF0EF09AEF0EF0FFFF60EF0EF0FFFF59
:101D3600D59ECA94000ED76E000ED66E000ECC6EDF
:101D4600E0EC10F05B501200FFFF140EF66E1B0E57
:101D5600F76E000EF86E01EE00F010EED1F00900FD
:101D6600F5CFEEFFE550E150FAE1920EF66E1F0E4A
:101D7600F76E000EF86E00EE80F010EE58F00900D7
:101D8600F5CFEEFFE550E150FAE1280EF66E220E91
:101D9600F76E000EF86E00EE69F010EE05F0090021
:101DA600F5CFEEFFE550E150FAE100EED8F01C0E5B
:101DB600EE6AE806FDE100EE45F0240EEE6AE8065E
:101DC600FDE16E906E92000EF86E00014BEF09F089
:101DD600FFFF156E07EF0FF0FFFF15B002D08A94D4
:101DE60001D08A8422EF0FF0FFFF15B002D08B904E
:101DF60001D08B8022EF0FF0FFFF15B002D08C9040
:101E060001D08C8022EF0FF0FFFF1250136E146A80
:101E16001450000AD8B412EF0FF022EF0FF0FFFFB4
:101E26001350000AD8B4EFEF0EF0010AD8B4F7EF5A
:101E36000EF0030AD8B4FFEF0EF022EF0FF0FFFF0B
:101E46001200FFFFFFFF156E41EF0FF0FFFF15B009
:101E560002D0899601D089865CEF0FF0FFFF15B09E
:101E660002D08A9A01D08A8A5CEF0FF0FFFF15B084
:101E760002D08B9601D08B865CEF0FF0FFFF1250DD
:101E8600136E146A1450000AD8B44CEF0FF05CEFCE
:101E96000FF0FFFF1350000AD8B429EF0FF0010A24
:101EA600D8B431EF0FF0030AD8B439EF0FF05CEF76
:101EB6000FF0FFFF1200FFFFFFFF156E7BEF0FF025
:101EC600FFFF15B002D0899201D0898296EF0FF0FC
:101ED600FFFF15B002D08A9601D08A8696EF0FF0E2
:101EE600FFFF15B002D08B9201D08B8296EF0FF0D8
:101EF600FFFF1250136E146A1450000AD8B486EF0E
:101F06000FF096EF0FF0FFFF1350000AD8B463EFFF
:101F16000FF0010AD8B46BEF0FF0030AD8B473EFD1
:101F26000FF096EF0FF0FFFF1200FFFFFFFF000E0E
:101F3600146EFFFF1450126E136AD89012361336C1
:101F4600D89012361336DC0E1224D96E000E1320EA
:101F5600DA6E1450040DD80EF324E16E000EF42050
:101F6600E26EDECFE6FFDECFE6FFDECFE6FFDECFB8
:101F7600E6FF142A030E1464C3EF0FF0C6EF0FF04A
:101F8600FFFF9CEF0FF0FFFF1200FFFF0903060C97
:101F96004572726F722C20706F696E74206F757443
:101FA6007369646520626F756E646172696573003A
:101FB6004572726F722C2066656564206C696E6569
:101FC600206E6F7420646566696E656400436F6D8C
:101FD6006D616E64206E6F74207265636F676E69E3
:101FE6007A656400FFFF010E156E0EEF10F0FFFF1D
:101FF60012C0D9FF13C0DAFFDF50AD6EFFFFACA2EF
:1020060007EF10F00AEF10F0FFFF01EF10F0FFFFEF
:10201600124A132A152AFFFF1450155CD8A016EF92
:1020260010F019EF10F0FFFFFAEF0FF0FFFF1200AC
:10203600FFFFFFFF010E046E35EF10F0FFFF01C03A
:10204600D9FF02C0DAFFDF50AD6EFFFFACA22EEF64
:1020560010F031EF10F0FFFF28EF10F0FFFF014AFC
:10206600022A042AFFFF0350045CD8A03DEF10F0BB
:1020760040EF10F0FFFF21EF10F0FFFF1200FFFF0F
:10208600FFFFF2BE49EF10F04CEF10F0FFFF4EEFEE
:1020960010F0FFFFF28EFFFFF2BC54EF10F057EF87
:1020A60010F0FFFF59EF10F0FFFFF28CFFFFD08E0C
:1020B600F28A9D829D8A1200FFFFFFFFC150F00B3E
:1020C6000609C16ED10E9216020E9316C00E941614
:1020D600C00E9516968096829684958E1200FFFF06
:1020E600FFFFC2503F0B4009C26EC18CC70EC2161D
:1020F600C294C290C19EC150F00B0E09C16E9D8C58
:102106009F8C1200FFFFFFFF949C948EAC9CAC8AC0
:10211600AC98AC94AB8EAB9CAB98AB96190EAF6EED
:102126001200FFFFFFFFCA94030ECA1212C055F039
:1021360013C056F01200FFFFFFFF66C014F0000E3A
:10214600666E14C012F0136A1200FFFFFFFFD59EE1
:10215600D59CD59AD586070ED5121200FFFFFFFF34
:10216600EC0E126E000E136E1200FFFFFFFFD80E6C
:10217600126E000E136E1200FFFFFFFF000E5C6E64
:10218600000E5B6E1200FFFFFFFF000E5C6E010E7D
:102196005B6E1200FFFFFFFF55C001F056C002F054
:1021A6001200FFFFFFFF67C012F0136A1200FFFF65
:1021B600FFFF000E5F6E1200FFFFFFFF000E676E4F
:1021C6001200FFFFFFFF010E666E1200FFFFFFFF0A
:1021D600010E656E1200FFFFFFFF010E646E120016
:1021E600FFFFFFFF61061200FFFFFFFF61501200B5
:1021F600FFFFFFFF5F501200FFFFFFFF605012005E
:10220600FFFFFFFF8C921200FFFFFFFF8C82120080
:10221600FFFFFFFF68501200FFFFFFFF672A120053
:07222600FFFFE803E80305D8
:02222E00FFFFB0
:020000040020DA
:08000000FFFFFFFFFFFFFFFF00
:020000040030CA
:0E000000FF210D0EFF0080FF0FC00FE00F402C
:00000001FF
