:020000040000FA
:0600000000F0D2EF00F059
:10000800FFFF6E82D9CF0DF0DACF0EF0F3CF0FF0ED
:10001800F4CF10F0F2A413EF00F016EF00F0FFFF9A
:100028002CEF00F0FFFFF294632ABCEC12F00B6E89
:100038000B50635CD8A023EF00F026EF00F0FFFF21
:100048002CEF00F0FFFFD59E000E636E5FEC12F000
:10005800FFFF9EA032EF00F035EF00F0FFFF45EF05
:1000680000F0FFFF9E90C4EC12F00009D8B43FEFF7
:1000780000F042EF00F0FFFF45EF00F0FFFF3AEC21
:1000880012F0FFFF9EA24BEF00F04EEF00F0FFFFD3
:1000980080EF00F0FFFF9E92514A522A66EC12F060
:1000A8005150015C52500258D8B05DEF00F060EF3B
:1000B80000F0FFFF80EF00F0FFFF000E526E000E11
:1000C800516E622A6250D8B46CEF00F06FEF00F006
:1000D800FFFF7DEF00F0FFFF62B075EF00F078EFF3
:1000E80000F0FFFF7DEF00F0FFFF000E626EC0EC36
:1000F80012F0FFFF9DEC12F0FFFF9EAC86EF00F0C0
:1001080089EF00F0FFFFB6EF00F0FFFF9E9CC3CF22
:1001180053F0546AC4500C6E0B6A0B5053120C50B7
:1001280054125304040E5458D8A09DEF00F0A0EFC9
:1001380000F0FFFFA7EF00F0FFFFA2EC12F0A7EC22
:1001480012F0B6EF00F0FFFF5304020E5458D8A087
:10015800B0EF00F0B3EF00F0FFFFB6EF00F0FFFFE5
:10016800A2EC12F0FFFF9EAABCEF00F0BFEF00F078
:10017800FFFFC6EF00F0FFFF9E9AAECF11F01150BF
:10018800DEEC0BF0FFFF10C0F4FF0FC0F3FF0EC052
:10019800DAFF0DC0D9FF6E921100FFFFACEF10F02F
:1006000000ACFFB33D000400020F500F320F146422
:100610001E00FFFF2350800B306E23502324376EC3
:1006200022AE15EF03F018EF03F0FFFF1AEF03F00F
:10063000FFFF3780FFFF3750D8B421EF03F024EFDE
:1006400003F0FFFF3DEF03F0FFFF3728D8A42BEFA7
:1006500003F02EEF03F0FFFF37EF03F0FFFF000E74
:10066000206E000E216E000E226E000E236EFFFF24
:10067000228E000E236E46EF03F0FFFF000E206E69
:10068000000E216E000E226E000E236EFFFF27501B
:10069000800B301A27502724386E26AE52EF03F015
:1006A00055EF03F0FFFF57EF03F0FFFF3880FFFF28
:1006B0003850D8B45EEF03F061EF03F0FFFF7AEF3C
:1006C00003F0FFFF3828D8A468EF03F06BEF03F0C6
:1006D000FFFF74EF03F0FFFF000E246E000E256E87
:1006E000000E266E000E276EFFFF268E000E276E70
:1006F00083EF03F0FFFF000E246E000E256E000E48
:10070000266E000E276EFFFF24502510261027109E
:10071000D8A48DEF03F090EF03F0FFFFAAEF03F0F2
:10072000FFFF000E206E000E216E000E226E000EE6
:10073000236E800E22127F0E2312FFFF30502312F1
:1007400020C020F021C021F022C022F023C023F0DD
:100750001FEF05F0FFFF3750D8A4B1EF03F0B4EF5F
:1007600003F0FFFFBFEF03F0FFFF000E206E000E4F
:10077000216E000E226E000E236E1FEF05F0FFFFAC
:10078000385037C028F0296A285E000E295A7F0E9B
:100790002824316E000E2920326E20C02CF021C09A
:1007A0002DF022C02EF023C02FF0000E206E000E80
:1007B000216E000E226E000E236E000E336E000EB0
:1007C000346E000E356E000E366E000E386E2BEF56
:1007D00004F0FFFF3850D8B4F0EF03F0F3EF03F06C
:1007E000FFFF0EEF04F0FFFFD8902C362D362E368B
:1007F0002F36D890203621362236233636AE03EFF8
:1008000004F006EF04F0FFFF08EF04F0FFFF208084
:10081000FFFFD8903336343635363636FFFF245056
:100820002C5C25502D5826502E5827502F58D8A0D4
:100830001CEF04F01FEF04F0FFFF29EF04F0FFFFAF
:10084000368C24502C5E25502D5A26502E5A275077
:100850002F5AFFFF382AFFFF190E386432EF04F0D9
:1008600035EF04F0FFFFE9EF03F0FFFF2C502D10F0
:100870002E102F10D8B43FEF04F042EF04F0FFFF2A
:100880005FEF04F0FFFF33805FEF04F0FFFFD890CD
:10089000203621362236233636AE51EF04F054EF9F
:1008A00004F0FFFF56EF04F0FFFF2080FFFFD89019
:1008B00033363436353636363106D8A03206FFFFA9
:1008C00022AE65EF04F068EF04F0FFFF46EF04F09E
:1008D000FFFF000E386E36AE70EF04F073EF04F0D9
:1008E000FFFF9EEF04F0FFFFFF0E3314286EFF0E94
:1008F0003414296EFF0E35142A6E7F0E36142B6EBB
:10090000285029102A102B10D8B489EF04F08CEF4E
:1009100004F0FFFF92EF04F0FFFFFFFF010E386EBF
:100920009EEF04F0FFFF20A098EF04F09BEF04F08F
:10093000FFFF9EEF04F0FFFF8DEF04F0FFFF385044
:10094000D8B4A5EF04F0A8EF04F0FFFFCFEF04F058
:10095000FFFF010E2026000E21222222232223A0A7
:10096000B4EF04F0B7EF04F0FFFFCFEF04F0FFFFA8
:1009700020C028F021C029F022C02AF023C02BF08B
:100980002B342B322A322932283228C020F029C0B9
:1009900021F02AC022F02BC023F0314A322AFFFF77
:1009A00032BEDBEF04F0325009E13128D8A0DBEF92
:1009B00004F0DEEF04F0FFFFEAEF04F0FFFF000EAB
:1009C000326E3168000E206E000E216E000E226E17
:1009D000000E236EFFFF32BEF9EF04F0325006E145
:1009E0003104D8B0F6EF04F0F9EF04F0FFFF08EFA0
:1009F00005F0FFFF000E326E000E316E000E206E0D
:100A0000000E216E000E226E000E236E000E306E60
:100A1000FFFF31C037F037A010EF05F013EF05F0FE
:100A2000FFFF17EF05F0FFFF228E19EF05F0FFFF24
:100A3000229EFFFFD8903730236E9DEF03F0FFFF1B
:100A40001200FFFFFFFF1A5007E1660E195CD8B0D5
:100A50002CEF05F02FEF05F0FFFF3CEF05F0FFFF57
:100A60001C500AE1660E1B5CD8A039EF05F03CEF84
:100A700005F0FFFF40EF05F0FFFF050EE0EF06F089
:100A8000FFFF1550195C1D6E16501A581E6E1EBEC3
:100A900052EF05F01E5009E11D04D8A052EF05F0F9
:100AA00055EF05F0FFFF5CEF05F0FFFF010E686EEC
:100AB000010E1F6E60EF05F0FFFF6868000E1F6EED
:100AC000FFFF17501B5C1D6E18501C581E6E1EBE7B
:100AD00072EF05F01E5009E11D04D8A072EF05F079
:100AE00075EF05F0FFFF7CEF05F0FFFF010E6A6E6A
:100AF000010E206E80EF05F0FFFF6A68000E206E89
:100B0000FFFF010E216E010E226ECA84000E5A6E86
:100B1000000E596EC80E666ED58EBCEF06F0FFFF54
:100B200059505A10D8B497EF05F09AEF05F0FFFF2F
:100B3000A1EF05F0FFFF000E5A6E040E596ED0EFC4
:100B400006F0FFFF1F04D8A4A8EF05F0ABEF05F0F7
:100B5000FFFFEAEF05F0FFFF79EC12F015501226C7
:100B6000165013221950125C1A501358D8A0BBEF1C
:100B700005F0BEEF05F0FFFFC4EF05F0FFFFFFFF3C
:100B8000000E216E28EF06F0FFFF2150D8B4CBEF06
:100B900005F0CEEF05F0FFFF28EF06F0FFFF6850ED
:100BA00067266750800A7C0FD8A0D9EF05F0DCEFEC
:100BB00005F0FFFFDFEF05F0FFFF000E676EFFFFA0
:100BC0008C0E6724D96EDA6A000EDA22DF50896E45
:100BD00028EF06F0FFFF1F50D8A4F1EF05F0F4EF67
:100BE00005F0FFFF28EF06F0FFFF79EC12F015C0CB
:100BF0001DF016C01EF012501D5E13501E5A1D50DF
:100C0000195C1E501A58D8A008EF06F00BEF06F03A
:100C1000FFFF0EEF06F0FFFFBFEF05F0FFFF2150D3
:100C2000D8B415EF06F018EF06F0FFFF28EF06F036
:100C3000FFFF6850672667BE23EF06F020EF06F03F
:100C4000FFFFDFEF05F0FFFF030E676EDFEF05F03C
:100C5000FFFF2004D8A42FEF06F032EF06F0FFFFCD
:100C600071EF06F0FFFF79EC12F0175012261850C2
:100C700013221B50125C1C501358D8A042EF06F0F0
:100C800045EF06F0FFFF4BEF06F0FFFFFFFF000E02
:100C9000226EAFEF06F0FFFF2250D8B452EF06F0FD
:100CA00055EF06F0FFFFAFEF06F0FFFF6A50692631
:100CB0006950800A7C0FD8A060EF06F063EF06F061
:100CC000FFFF66EF06F0FFFF000E696EFFFF880E64
:100CD0006924D96EDA6A000EDA22DF508A6EAFEF2D
:100CE00006F0FFFF2050D8A478EF06F07BEF06F067
:100CF000FFFFAFEF06F0FFFF79EC12F017C01DF019
:100D000018C01EF012501D5E13501E5A1D501B5C61
:100D10001E501C58D8A08FEF06F092EF06F0FFFF90
:100D200095EF06F0FFFF46EF06F0FFFF2250D8B424
:100D30009CEF06F09FEF06F0FFFFAFEF06F0FFFF1E
:100D40006A50692669BEAAEF06F0A7EF06F0FFFF1A
:100D500066EF06F0FFFF030E696E66EF06F0FFFF19
:100D600015EC12F012501310D8B4B9EF06F0BCEF26
:100D700006F0FFFFAFEF06F0FFFF2150D8A4C3EF4E
:100D800006F0C6EF06F0FFFF8FEF05F0FFFF2250E1
:100D9000D8A4CDEF06F0D0EF06F0FFFF8FEF05F0FF
:100DA000FFFFD59ECA9493EC12F031EC12F0000EC6
:100DB000D76E000ED66E000ECC6E98EC12F0595025
:100DC000FFFF1200FFFFFFFF51EC12F012C0EFF027
:100DD00013C0F0F095EF07F0FFFF4CC015F0166A56
:100DE0004DC017F0186A0D0EF66E060EF76E08006D
:100DF000FFFFF550196E1A6A0E0EF66E060EF76EAC
:100E00000800FFFFF5501B6E1C6A22EC05F0000184
:100E1000F16F0D0EF66E060EF76E0800FFFFF5CFB0
:100E20004CF00E0EF66E060EF76E0800FFFFF5CFC3
:100E30004DF0B9EF07F0FFFF4CC015F0166A4DC03A
:100E400017F0186A0B0EF66E060EF76E0800FFFF1D
:100E5000F550196E1A6A0C0EF66E060EF76E080043
:100E6000FFFFF5501B6E1C6A22EC05F00001F16FCC
:100E70000B0EF66E060EF76E0800FFFFF5CF4CF076
:100E80000C0EF66E060EF76E0800FFFFF5CF4DF064
:100E9000B9EF07F0FFFF4CC015F0166A4DC017F010
:100EA000186A090EF66E060EF76E0800FFFFF55081
:100EB000196E1A6A0A0EF66E060EF76E0800FFFF2C
:100EC000F5501B6E1C6A22EC05F00001F16F090E53
:100ED000F66E060EF76E0800FFFFF5CF4CF00A0E17
:100EE000F66E060EF76E0800FFFFF5CF4DF0B9EF76
:100EF00007F0FFFF4CC015F0166A4DC017F0186AD6
:100F000055C019F01A6A56C01BF01C6A22EC05F095
:100F10000001F16F55C04CF056C04DF0B9EF07F02D
:100F2000FFFF010EF16FB9EF07F0FFFFEFC0D9FF30
:100F3000F0C0DAFFDF500001ED6FEE6BEE51000AFA
:100F4000D8B4A5EF07F090EF07F0FFFFED51000ACE
:100F5000D8B4ECEF06F0010AD8B41BEF07F0030A8F
:100F6000D8B44AEF07F0FD0AD8B479EF07F090EF54
:100F700007F0FFFFF151D8A4C0EF07F0C3EF07F06F
:100F8000FFFFD1EF07F0FFFF52EC0EF00001F16F11
:100F9000F151D8B4CEEF07F0D1EF07F0FFFFD5EF56
:100FA00007F0FFFFF1515BEF08F0FFFFC8EC11F015
:100FB0004DEC10F00001F16FF151D8B4E2EF07F001
:100FC000E5EF07F0FFFFE8EF07F0FFFFD1EF07F0D5
:100FD000FFFF4CC015F0166A4DC017F0186A20EEDE
:100FE00001F0EF51D926F051DA22DF50ED6FED51CB
:100FF000196E1A6A20EE02F0EF51D926F051DA226A
:10100000DF50EE6FEE511B6E1C6A22EC05F0000102
:10101000F16FF151D8B40FEF08F012EF08F0FFFFB5
:1010200015EF08F0FFFFD1EF07F0FFFF20EE01F012
:10103000EF51D926F051DA22DF504C6E20EE02F04B
:10104000EF51D926F051DA22DF504D6E20EE03F039
:10105000EF51D926F051DA22DF50ED6FED51576E86
:10106000586A58BE39EF08F036EF08F0FFFF3EEF40
:1010700008F0FFFF680E5726010E5822FFFF575059
:10108000E0EC0FF0DCEC0EF00001F16FF151D8B4A0
:101090004CEF08F04FEF08F0FFFF52EF08F0FFFFB2
:1010A000D1EF07F0FFFFB0EC11F04DEC10F00001B4
:1010B000F16FD1EF07F0FFFF1200FFFFFFFF1A6E85
:1010C0001A50D8B466EF08F069EF08F0FFFF8EEF12
:1010D00008F0FFFF15BE72EF08F06FEF08F0FFFF9A
:1010E0008EEF08F0FFFF12C016F013C017F014C007
:1010F00018F015C019F0161E171E181E191E162AF4
:10110000000E17221822192216C01CF017C01DF05D
:1011100018C01EF019C01FF097EF08F0FFFF12C0B3
:101120001CF013C01DF014C01EF015C01FF0FFFF0F
:101130001250131014101510D8A4A1EF08F0A4EF4A
:1011400008F0FFFFAFEF08F0FFFF000E126E000E79
:10115000136E000E146E000E156E57EF09F0FFFFB0
:10116000960E1B6EBBEF08F0FFFF1B2AD8901F32B4
:101170001E321D321C32FFFF000E1C14166E000EB4
:101180001D14176E000E1E14186EFE0E1F14196E1D
:101190001650171018101910D8A4D1EF08F0D4EF7A
:1011A00008F0FFFFB4EF08F0FFFFE4EF08F0FFFFE7
:1011B0001B2A010E1C26000E1D221E221F22D89063
:1011C0001F321E321D321C32FFFF000E1C14166E21
:1011D000000E1D14176E000E1E14186EFF0E1F1445
:1011E000196E1650171018101910D8A4FAEF08F03D
:1011F000FDEF08F0FFFFD7EF08F0FFFF07EF09F062
:10120000FFFF1B06D8901C361D361E361F36FFFF0B
:101210001EBE0DEF09F010EF09F0FFFF1AEF09F005
:10122000FFFF020E1B6017EF09F01AEF09F0FFFF36
:1012300000EF09F0FFFF1BB020EF09F023EF09F0EA
:10124000FFFF25EF09F0FFFF1E9EFFFFD8901B3226
:101250001BC016F0176A186A196A16C019F0186AC6
:10126000176A166A16501C1217501D1218501E12BB
:1012700019501F121A50D8B440EF09F043EF09F08B
:10128000FFFF4EEF09F0FFFF15BE4CEF09F049EFED
:1012900009F0FFFF4EEF09F0FFFF1F8EFFFF1CC09C
:1012A00012F01DC013F01EC014F01FC015F0FFFF98
:1012B0001200FFFFFFFF68686A686C68010E156E18
:1012C000010E166E010E176ECA84000E5A6E000EC5
:1012D000596EC80E666ED58E1CEF0AF0FFFF98ECB3
:1012E00012F059505A10D8B478EF09F07BEF09F09A
:1012F000FFFF82EF09F0FFFF000E5A6E030E596EDA
:101300003AEF0AF0FFFF84B088EF09F08BEF09F0A5
:10131000FFFF95EF09F0FFFF1550D8A492EF09F0F9
:1013200095EF09F0FFFF9AEF09F0FFFF000E156E31
:10133000B1EF09F0FFFF6850672667BEA5EF09F01F
:10134000A2EF09F0FFFFA8EF09F0FFFF030E676EA1
:10135000FFFF8C0E6724D96EDA6A000EDA22DF50A6
:10136000896EFFFF84B2B7EF09F0BAEF09F0FFFF13
:10137000C4EF09F0FFFF1650D8A4C1EF09F0C4EF85
:1013800009F0FFFFC9EF09F0FFFF000E166EE0EF56
:1013900009F0FFFF6A50692669BED4EF09F0D1EF6A
:1013A00009F0FFFFD7EF09F0FFFF030E696EFFFFA3
:1013B000880E6924D96EDA6A000EDA22DF508A6E4E
:1013C000FFFF84B4E6EF09F0E9EF09F0FFFFF3EF68
:1013D00009F0FFFF1750D8A4F0EF09F0F3EF09F080
:1013E000FFFFF8EF09F0FFFF000E176E0FEF0AF096
:1013F000FFFF6C506B266BBE03EF0AF000EF0AF0A4
:10140000FFFF06EF0AF0FFFF030E6B6EFFFF840E77
:101410006B24D96EDA6A000EDA22DF508B6EFFFF82
:1014200015EC12F012501310D8B419EF0AF01CEF9B
:101430000AF0FFFF0FEF0AF0FFFF1550D8A423EFCB
:101440000AF026EF0AF0FFFF6EEF09F0FFFF1650DB
:10145000D8A42DEF0AF030EF0AF0FFFF6EEF09F08D
:10146000FFFF1750D8A437EF0AF03AEF0AF0FFFF5A
:101470006EEF09F0FFFFD59ECA9493EC12F031ECA9
:1014800012F0000ED76E000ED66E000ECC6E98ECE9
:1014900012F059501200FFFFFFFF92EC11F0E0EC48
:1014A00011F0F3EC11F006EC12F028EC12F043EC22
:1014B00012F0000E136E0A0E126E1FEC12F05AECB0
:1014C00009F00001F46FF451D8B469EF0AF06CEF41
:1014D0000AF0FFFF73EF0AF0FFFFF45136EC0DF056
:1014E000FFFF70EF0AF0FFFFAB88FFFFB4EC12F0D4
:1014F0000009D8B47EEF0AF081EF0AF0FFFF03EF96
:101500000BF0FFFF4AEC12F012C0F5F013C0F6F03A
:10151000000120EE02F0F551D926F651DA22DF5013
:10152000556E20EE03F0F551D926F651DA22DF5040
:10153000566EAB9820EE05F0F551D926F651DA2219
:101540001F0EDF60A6EF0AF0A9EF0AF0FFFFB9EF68
:101550000AF0FFFF20EE06F0F551D926F651DA2207
:10156000640EDF64B6EF0AF0B9EF0AF0FFFFBEEFDA
:101570000AF0FFFF050EF46FD2EF0AF0FFFF20EE36
:1015800005F0F551D926F651DA22DF5021EC0BF0A7
:10159000000120EE06F0F551D926F651DA22DF508F
:1015A00021EC0BF0FFFF0001F451D8A4DAEF0AF0B0
:1015B000DDEF0AF0FFFFFBEF0AF0FFFF000E21EC6A
:1015C0000BF0FF0E21EC0BF0000120EE04F0F551C2
:1015D000D926F651DA22DF50F26F20EE07F0F551EE
:1015E000D926F651DA22DF50F36FF251F35D21EC88
:1015F0000BF0FFEF0AF0FFFFF45136EC0DF0FFFFA8
:10160000AB887FEC12F0FFFFB0EC12F00009D8B409
:101610000CEF0BF00FEF0BF0FFFF75EF0AF0FFFF81
:10162000E3EC06F00001F46FF45136EC0DF058ECE9
:1016300012F0ACEC12F0EFEC10F075EF0AF0D2EF14
:1016400000F0FFFF1B6E430E5E24D96EDA6A000EB7
:10165000DA221BC0DFFF5E2A3DEF0BF0FFFF050E15
:101660006D6E58EF0BF0FFFF090E6D6E58EF0BF02B
:10167000FFFF010E6D6E58EF0BF0FFFF4350196E28
:101680001A6A1A50000AD8B448EF0BF058EF0BF062
:10169000FFFF1950000AD8B42EEF0BF0010AD8B49E
:1016A00033EF0BF0030AD8B438EF0BF058EF0BF020
:1016B000FFFF6D505E5CD8A060EF0BF063EF0BF0A6
:1016C000FFFFDBEF0BF0FFFF000E5E6EC0EF0BF0D5
:1016D000FFFF6150040DCA0EF324D96E000EF420F2
:1016E000DA6E44C0DFFF6150040DCB0EF324D96ED7
:1016F000000EF420DA6E4550050DF3CFDFFF615088
:10170000040DCC0EF324D96E000EF420DA6E465090
:10171000050DF3CFDFFF6150040DCD0EF324D96E1C
:10172000000EF420DA6E47C0DFFF612ADBEF0BF01A
:10173000FFFF44C0DEF045C0DFF04650050DF3CF9B
:10174000E0F04750050DF3CFE1F048C0E2F049501A
:10175000050DF3CFE3F04A50050DF3CFE4F04BC095
:10176000E5F0010E5F6EDBEF0BF0FFFF010E606E28
:10177000DBEF0BF0FFFF080E36EC0DF0DBEF0BF0AC
:10178000FFFF4350196E1A6A1A50000AD8B4CBEF03
:101790000BF0BAEF0BF0FFFF1950000AD8B468EF56
:1017A0000BF0010AD8B498EF0BF0030AD8B4B5EFE8
:1017B0000BF0BAEF0BF0FFFF1200FFFFFFFF0A6E06
:1017C000430E5E24D96EDA6A000EDA220AC0DFFF09
:1017D0005E2AFAEF0BF0FFFF050E6D6E15EF0CF0B1
:1017E000FFFF090E6D6E15EF0CF0FFFF010E6D6E21
:1017F00015EF0CF0FFFF4350086E096A0950000A0C
:10180000D8B405EF0CF015EF0CF0FFFF0850000AFC
:10181000D8B4EBEF0BF0010AD8B4F0EF0BF0030AE9
:10182000D8B4F5EF0BF015EF0CF0FFFF6D505E5CD8
:10183000D8A01DEF0CF020EF0CF0FFFF98EF0CF09C
:10184000FFFF000E5E6E7DEF0CF0FFFF6150040D98
:10185000CA0EF324D96E000EF420DA6E44C0DFFF06
:101860006150040DCB0EF324D96E000EF420DA6E15
:101870004550050DF3CFDFFF6150040DCC0EF3246E
:10188000D96E000EF420DA6E4650050DF3CFDFFF5F
:101890006150040DCD0EF324D96E000EF420DA6EE3
:1018A00047C0DFFF612A98EF0CF0FFFF44C0DEF075
:1018B00045C0DFF04650050DF3CFE0F04750050D71
:1018C000F3CFE1F048C0E2F04950050DF3CFE3F06B
:1018D0004A50050DF3CFE4F04BC0E5F0010E5F6E0A
:1018E00098EF0CF0FFFF010E606E98EF0CF0FFFF19
:1018F000080EC4EC0DF098EF0CF0FFFF4350086E9B
:10190000096A0950000AD8B488EF0CF077EF0CF0A0
:10191000FFFF0850000AD8B425EF0CF0010AD8B434
:1019200055EF0CF0030AD8B472EF0CF077EF0CF01F
:10193000FFFF1200FFFFFFFF3B343C34426E42507A
:10194000D8A4A5EF0CF0A8EF0CF0FFFFB4EF0CF05B
:10195000FFFFFFFF000E396E000E3A6E000E3B6E69
:10196000000E3C6E33EF0DF0FFFF39C03DF03AC082
:101970003EF03BC03FF03CC040F0200EC6EF0CF004
:10198000FFFFD89040323F323E323D32FFFFE82E1B
:10199000C0EF0CF03D50416E3B8EFF0E3916FF0E2E
:1019A0003A16FF0E3B16000E3C16960E425E42BEE5
:1019B000DFEF0CF0DCEF0CF0FFFFF9EF0CF0FFFFB6
:1019C0004250800A970FD8B0E8EF0CF0EBEF0CF024
:1019D000FFFFEEEF0CF0FFFFA9EF0CF0FFFFD89038
:1019E0003C323B323A323932423EEEEF0CF017EFE6
:1019F0000DF0FFFF1F0E426400EF0DF003EF0DF03E
:101A0000FFFF0DEF0DF0FFFFA9EF0CF0FFFFD890E7
:101A100039363A363B363C364206FFFF4250D8A4B0
:101A200014EF0DF017EF0DF0FFFF06EF0DF0FFFFC5
:101A30004150D8B41EEF0DF021EF0DF0FFFF2AEF5B
:101A40000DF0FFFF3C1E3B1E3A1E396C000E3A2281
:101A50003B223C22FFFF39C039F03AC03AF03BC08C
:101A60003BF03CC03CF0FFFF1200FFFFFFFF186E91
:101A700092EF0DF0FFFF940E126E000E136E1E0E0D
:101A8000146E1FEC11F0C1EF0DF0FFFF5E0E126E31
:101A9000010E136E290E146E1FEC11F0C1EF0DF044
:101AA000FFFF870E126E010E136E280E146E1FECD0
:101AB00011F0C1EF0DF0FFFF350E126E010E136E27
:101AC000290E146E1FEC11F0C1EF0DF0FFFFD60EC2
:101AD000126E010E136E210E146E1FEC11F0C1EF89
:101AE0000DF0FFFF000E126E010E136E350E146E18
:101AF0001FEC11F0C1EF0DF0FFFFAF0E126E010EE3
:101B0000136E270E146E1FEC11F0C1EF0DF0FFFFE6
:101B1000B20E126E000E136E180E146E1FEC11F042
:101B2000C1EF0DF0FFFF1850166E176A1750000A2C
:101B3000D8B49DEF0DF0C1EF0DF0FFFF1650010A74
:101B4000D8B43AEF0DF0030AD8B445EF0DF0010A0E
:101B5000D8B450EF0DF0070AD8B45BEF0DF0010ACE
:101B6000D8B466EF0DF0030AD8B471EF0DF0010A96
:101B7000D8B47CEF0DF00F0AD8B487EF0DF0C1EFA9
:101B80000DF0FFFF1200FFFFFFFF076E20EF0EF0CA
:101B9000FFFF940E016E000E026E1E0E036E46ECE9
:101BA00011F04FEF0EF0FFFF5E0E016E010E026EA0
:101BB000290E036E46EC11F04FEF0EF0FFFF870E7B
:101BC000016E010E026E280E036E46EC11F04FEF0F
:101BD0000EF0FFFF350E016E010E026E290E036E30
:101BE00046EC11F04FEF0EF0FFFFD60E016E010E26
:101BF000026E210E036E46EC11F04FEF0EF0FFFF68
:101C0000000E016E010E026E350E036E46EC11F0F1
:101C10004FEF0EF0FFFFAF0E016E010E026E270EAA
:101C2000036E46EC11F04FEF0EF0FFFFB20E016EA7
:101C3000000E026E180E036E46EC11F04FEF0EF020
:101C4000FFFF0750056E066A0650000AD8B42BEF56
:101C50000EF04FEF0EF0FFFF0550010AD8B4C8EFA9
:101C60000DF0030AD8B4D3EF0DF0010AD8B4DEEFBB
:101C70000DF0070AD8B4E9EF0DF0010AD8B4F4EF7B
:101C80000DF0030AD8B4FFEF0DF0010AD8B40AEF43
:101C90000EF00F0AD8B415EF0EF04FEF0EF0FFFF65
:101CA0001200FFFFFFFF010E6C6ECA84000E5A6E19
:101CB000000E596EC80E666ED58EFFFF84EC12F0D2
:101CC000A0EF0EF0FFFF98EC12F059505A10D8B464
:101CD0006CEF0EF06FEF0EF0FFFF76EF0EF0FFFFF0
:101CE000000E5A6E060E596EB6EF0EF0FFFF6C50E6
:101CF0006B266B50800A7C0FD8A081EF0EF084EF2A
:101D00000EF0FFFF87EF0EF0FFFF000E6B6EFFFF80
:101D1000840E6B24D96EDA6A000EDA22DF508B6EE5
:101D2000FFFF15EC12F012501310D8B49AEF0EF01A
:101D30009DEF0EF0FFFF90EF0EF0FFFF5DEF0EF056
:101D4000FFFF73EC12F012501310D8B4AAEF0EF08C
:101D5000ADEF0EF0FFFF62EF0EF0FFFF83BEB3EFBB
:101D60000EF0B6EF0EF0FFFF62EF0EF0FFFFB8ECE3
:101D700012F089EC12F0D59ECA9493EC12F031EC7B
:101D800012F0000ED76E000ED66E000ECC6E98ECE0
:101D900012F08EEC12F083AED0EF0EF0D3EF0EF017
:101DA000FFFFD8EF0EF0FFFF000E5A6E020E596EC5
:101DB000FFFF59501200FFFFFFFF010E6C6ECA8437
:101DC000000E5A6E000E596EC80E666ED58EFFFF5D
:101DD00084EC12F02AEF0FF0FFFF98EC12F059504C
:101DE0005A10D8B4F6EF0EF0F9EF0EF0FFFF00EF47
:101DF0000FF0FFFF000E5A6E060E596E40EF0FF007
:101E0000FFFF6C506B266B50800A7C0FD8A00BEF45
:101E10000FF00EEF0FF0FFFF11EF0FF0FFFF000EBE
:101E20006B6EFFFF840E6B24D96EDA6A000EDA2225
:101E3000DF508B6EFFFF15EC12F012501310D8B468
:101E400024EF0FF027EF0FF0FFFF1AEF0FF0FFFF67
:101E5000E7EF0EF0FFFF6DEC12F012501310D8B444
:101E600034EF0FF037EF0FF0FFFFECEF0EF0FFFF56
:101E700083BE3DEF0FF040EF0FF0FFFFECEF0EF0F1
:101E8000FFFFB8EC12F08EEC12F0D59ECA9493ECE2
:101E900012F031EC12F0000ED76E000ED66E000E6E
:101EA000CC6E98EC12F083AE58EF0FF05BEF0FF0B2
:101EB000FFFF60EF0FF0FFFF000E5A6E020E596E2B
:101EC000FFFF59501200FFFF4572726F722C207491
:101ED000696D6520657863656564656420746F204D
:101EE00072656163682074686520656E64206F6642
:101EF00020746865205A20417869730A004572721F
:101F00006F722C2074696D65206578636565646502
:101F10006420746F20726561636820746865207046
:101F20006F696E740A004572726F722C206E6F209A
:101F30006F626A6563742072656C6576617465644E
:101F400020616C6F6E67205A20417869730A0045E2
:101F500072726F722C2074696D6520657863656597
:101F600064656420746F20726573657420706F738C
:101F70006974696F6E0A00466174616C2045727203
:101F80006F722C20706C6561736520726573657467
:101F90002074686520646576696365210A0045726E
:101FA000726F722C20706F696E74206F7574736914
:0F1FB000646520626F756E6461726965730A0003
:101FC000FFFF0001E86FAC0E246EFF0E256EB30E0E
:101FD000266E3D0E276E0001E851126E136A146AD8
:101FE000156A010E5EEC08F012C020F013C021F05B
:101FF00014C022F015C023F009EC03F020C039F022
:1020000021C03AF022C03BF023C03CF09BEC0CF026
:1020100039C0E9F03AC0EAF0000E0001EC6F000EA2
:10202000EB6F39EF10F0FFFFC30E8C16030EEB15AC
:10203000E66F000EEC15E76F800EE625D96E000EF8
:10204000E721DA6EDF508C12CA84FFFF15EC12F024
:1020500012501310D8B42FEF10F032EF10F0FFFF32
:1020600025EF10F0FFFFCA94000ECC6E0001EB4B81
:10207000EC2BFFFFE951EB5DEA51EC59D8A043EF9F
:1020800010F046EF10F0FFFF13EF10F0FFFF31EC00
:1020900012F098EC12F01200FFFFFFFF6C68CA8488
:1020A000000E5A6E000E596EC80E666ED58E91EFF8
:1020B00010F0FFFF98EC12F059505A10D8B463EFAB
:1020C00010F066EF10F0FFFF6DEF10F0FFFF000E55
:1020D0005A6E060E596E9AEF10F0FFFF6C506B2689
:1020E0006BBE78EF10F075EF10F0FFFF7BEF10F094
:1020F000FFFF030E6B6EFFFF840E6B24D96EDA6A4E
:10210000000EDA22DF508B6EFFFF15EC12F012503A
:102110001310D8B48EEF10F091EF10F0FFFF84EFA2
:1021200010F0FFFF84A497EF10F09AEF10F0FFFF7C
:1021300059EF10F0FFFFD59ECA9493EC12F031ECEA
:1021400012F0000ED76E000ED66E000ECC6E98EC1C
:1021500012F059501200FFFFC80EF66E1E0EF76EF9
:10216000000EF86E01EE00F010EEF7F00900F5CF6A
:10217000EEFFE550E150FAE1DA0EF66E220EF76E50
:10218000000EF86E00EE80F010EE4AF00900F5CF78
:10219000EEFFE550E150FAE1900EF66E250EF76E77
:1021A000000EF86E00EE67F010EE07F00900F5CFB4
:1021B000EEFFE550E150FAE100EECAF01C0EEE6AC7
:1021C000E806FDE100EE43F0240EEE6AE806FDE1CC
:1021D0006E906E92000EF86E00014CEF0AF0FFFF59
:1021E000000E146EFFFF1450126E136AD890123650
:1021F0001336D89012361336CE0E1224D96E000E36
:102200001320DA6E1450040DCA0EF324E16E000E92
:10221000F420E26EDECFE6FFDECFE6FFDECFE6FFA4
:10222000DECFE6FF142A030E146419EF11F01CEF41
:1022300011F0FFFFF2EF10F0FFFF1200FFFFFFFFB2
:10224000010E156E38EF11F0FFFF12C0D9FF13C059
:10225000DAFFDF50AD6EFFFFACA231EF11F034EFCB
:1022600011F0FFFF2BEF11F0FFFF124A132A152A7E
:10227000FFFF1450155CD8A040EF11F043EF11F0B0
:10228000FFFF24EF11F0FFFF1200FFFFFFFF010E21
:10229000046E5FEF11F0FFFF01C0D9FF02C0DAFF4B
:1022A000DF50AD6EFFFFACA258EF11F05BEF11F005
:1022B000FFFF52EF11F0FFFF014A022A042AFFFF3D
:1022C0000350045CD8A067EF11F06AEF11F0FFFF34
:1022D0004BEF11F0FFFF1200FFFF240C1830090331
:1022E000060C11050C1822060C28650065004572C5
:1022F000726F722C2066656564206C696E65206E55
:102300006F7420646566696E65640A00436F6D6D65
:10231000616E64206E6F74207265636F676E697A98
:1023200065640A00FFFFF2BE98EF11F09BEF11F019
:10233000FFFF9DEF11F0FFFFF28EFFFFF2BCA3EF56
:1023400011F0A6EF11F0FFFFA8EF11F0FFFFF28CE4
:10235000FFFFD08EF28A9D809D829D8A1200FFFF32
:10236000FFFF8C92CA84FFFF15EC12F0125013107D
:10237000D8B4BDEF11F0C0EF11F0FFFFB3EF11F0D3
:10238000FFFFCA94000ECC6E31EC12F01200FFFF7A
:10239000FFFF8C82CA84FFFF15EC12F0125013105D
:1023A000D8B4D5EF11F0D8EF11F0FFFFCBEF11F05B
:1023B000FFFFCA94000ECC6E31EC12F01200FFFF4A
:1023C000FFFFC150F00B0609C16ED10E9216020E2E
:1023D0009316C00E9416C00E95169680968296841B
:1023E000958E1200FFFFFFFFC2503F0B4009C26EE7
:1023F000C18CC70EC216C294C290C19EC150F00BD0
:102400000E09C16E9D8C9F8C1200FFFFFFFF949CF4
:10241000948EAC9CAC8AAC98AC94AB8EAB9CAB98D5
:10242000AB96190EAF6E1200FFFFFFFF5BC014F0FA
:10243000000E5B6E14C012F0136A1200FFFFFFFF64
:10244000CA94CA8212C04FF013C050F01200FFFFAE
:10245000FFFFD59ED59CD59AD586070ED5121200C2
:10246000FFFFFFFF000E526E000E516E000E626EF7
:102470001200FFFFFFFF070EC4EC0DF0FFFF3EEF61
:1024800012F01200FFFFFFFF300ECD12CD92CD8073
:102490001200FFFFFFFFDE0E126E000E136E120021
:1024A000FFFFFFFFCA0E126E000E136E1200FFFF39
:1024B000FFFF000E5A6E000E596E1200FFFFFFFF65
:1024C000000E5A6E010E596E1200FFFFFFFF4FC043
:1024D00001F050C002F01200FFFFFFFF64C012F0D5
:1024E000136A1200FFFFFFFF65C012F0136A1200AB
:1024F000FFFFFFFF5CC012F0136A1200FFFFFFFF37
:10250000000E5F6E1200FFFFFFFFC280C284120048
:10251000FFFFFFFF000E656E1200FFFFFFFF000EC2
:10252000646E1200FFFFFFFF000E636E1200FFFFDC
:10253000FFFF000E5C6E1200FFFFFFFF010E5B6EDF
:102540001200FFFFFFFF010E656E1200FFFFFFFF8D
:10255000010E646E1200FFFFFFFF61061200FFFF15
:10256000FFFF61501200FFFFFFFF5F501200FFFFEF
:10257000FFFFC2901200FFFFFFFF66501200FFFF37
:10258000FFFF5C2A1200FFFFFFFF60501200FFFFF9
:07259000000100010001053C
:02259800FFFF43
:020000040020DA
:08000000FFFFFFFFFFFFFFFF00
:020000040030CA
:0E000000FF210D0EFF0080FF0FC00FE00F402C
:00000001FF
