:020000040000FA
:0600000000F0B5EF00F076
:10000800FFFF6E82D9CF0DF0DACF0EF0F3CF0FF0ED
:10001800F4CF10F0F2A413EF00F016EF00F0FFFF9A
:100028002CEF00F0FFFFF294632AC6EC12F00B6E7F
:100038000B50635CD8A023EF00F026EF00F0FFFF21
:100048002CEF00F0FFFFD59E000E636E6FEC12F0F0
:10005800FFFF9EA232EF00F035EF00F0FFFF63EFE5
:1000680000F0FFFF9E92514A522A76EC12F051504E
:10007800015C52500258D8B044EF00F047EF00F04E
:10008800FFFF63EF00F0FFFF622A6250D8B44FEF22
:1000980000F052EF00F0FFFF60EF00F0FFFF62B0EA
:1000A80058EF00F05BEF00F0FFFF60EF00F0FFFF9C
:1000B800000E626ECAEC12F0FFFFA3EC12F0FFFF15
:1000C8009EAC69EF00F06CEF00F0FFFF99EF00F0D5
:1000D800FFFF9E9CC3CF53F0546AC4500C6E0B6A4A
:1000E8000B5053120C5054125304040E5458D8A0F9
:1000F80080EF00F083EF00F0FFFF8AEF00F0FFFFD2
:10010800A8EC12F0ADEC12F099EF00F0FFFF5304E9
:10011800020E5458D8A093EF00F096EF00F0FFFFBE
:1001280099EF00F0FFFFA8EC12F0FFFF9EAA9FEFE7
:1001380000F0A2EF00F0FFFFA9EF00F0FFFF9E9A8A
:10014800AECF11F011502CEC0BF0FFFF10C0F4FFF4
:100158000FC0F3FF0EC0DAFF0DC0D9FF6E92110079
:06016800FFFF22EF10F082
:1006000000ACFFB33D0004000219190F0F050500EF
:10061000FFFF2350800B306E23502324376E22AE11
:1006200014EF03F017EF03F0FFFF19EF03F0FFFFE4
:100630003780FFFF3750D8B420EF03F023EF03F0EB
:10064000FFFF3CEF03F0FFFF3728D8A42AEF03F0A9
:100650002DEF03F0FFFF36EF03F0FFFF000E206EDB
:10066000000E216E000E226E000E236EFFFF228E02
:10067000000E236E45EF03F0FFFF000E206E000E0C
:10068000216E000E226E000E236EFFFF2750800B9E
:10069000301A27502724386E26AE51EF03F054EF5E
:1006A00003F0FFFF56EF03F0FFFF3880FFFF3850E5
:1006B000D8B45DEF03F060EF03F0FFFF79EF03F0D4
:1006C000FFFF3828D8A467EF03F06AEF03F0FFFFBD
:1006D00073EF03F0FFFF000E246E000E256E000E78
:1006E000266E000E276EFFFF268E000E276E82EF0D
:1006F00003F0FFFF000E246E000E256E000E266E26
:10070000000E276EFFFF2450251026102710D8A4B6
:100710008CEF03F08FEF03F0FFFFA9EF03F0FFFF73
:10072000000E206E000E216E000E226E000E236E53
:10073000800E22127F0E2312FFFF3050231220C0A2
:1007400020F021C021F022C022F023C023F01EEFB0
:1007500005F0FFFF3750D8A4B0EF03F0B3EF03F07C
:10076000FFFFBEEF03F0FFFF000E206E000E216EB4
:10077000000E226E000E236E1EEF05F0FFFF3850B4
:1007800037C028F0296A285E000E295A7F0E2824D7
:10079000316E000E2920326E20C02CF021C02DF0C9
:1007A00022C02EF023C02FF0000E206E000E216E0E
:1007B000000E226E000E236E000E336E000E346E9D
:1007C000000E356E000E366E000E386E2AEF04F005
:1007D000FFFF3850D8B4EFEF03F0F2EF03F0FFFF64
:1007E0000DEF04F0FFFFD8902C362D362E362F3625
:1007F000D890203621362236233636AE02EF04F06A
:1008000005EF04F0FFFF07EF04F0FFFF2080FFFF7C
:10081000D8903336343635363636FFFF24502C5CCC
:1008200025502D5826502E5827502F58D8A01BEF52
:1008300004F01EEF04F0FFFF28EF04F0FFFF368CFA
:1008400024502C5E25502D5A26502E5A27502F5AB0
:10085000FFFF382AFFFF190E386431EF04F034EF40
:1008600004F0FFFFE8EF03F0FFFF2C502D102E10D7
:100870002F10D8B43EEF04F041EF04F0FFFF5EEF1D
:1008800004F0FFFF33805EEF04F0FFFFD8902036C6
:1008900021362236233636AE50EF04F053EF04F003
:1008A000FFFF55EF04F0FFFF2080FFFFD8903336A5
:1008B0003436353636363106D8A03206FFFF22AE42
:1008C00064EF04F067EF04F0FFFF45EF04F0FFFF73
:1008D000000E386E36AE6FEF04F072EF04F0FFFFDB
:1008E0009DEF04F0FFFFFF0E3314286EFF0E34144B
:1008F000296EFF0E35142A6E7F0E36142B6E28508B
:1009000029102A102B10D8B488EF04F08BEF04F0D4
:10091000FFFF91EF04F0FFFFFFFF010E386E9DEF28
:1009200004F0FFFF20A097EF04F09AEF04F0FFFF20
:100930009DEF04F0FFFF8CEF04F0FFFF3850D8B4B8
:10094000A4EF04F0A7EF04F0FFFFCEEF04F0FFFFE9
:10095000010E2026000E21222222232223A0B3EF03
:1009600004F0B6EF04F0FFFFCEEF04F0FFFF20C06D
:1009700028F021C029F022C02AF023C02BF02B340C
:100980002B322A322932283228C020F029C021F007
:100990002AC022F02BC023F0314A322AFFFF32BE98
:1009A000DAEF04F0325009E13128D8A0DAEF04F090
:1009B000DDEF04F0FFFFE9EF04F0FFFF000E326E01
:1009C0003168000E206E000E216E000E226E000EA9
:1009D000236EFFFF32BEF8EF04F0325006E131041F
:1009E000D8B0F5EF04F0F8EF04F0FFFF07EF05F0E3
:1009F000FFFF000E326E000E316E000E206E000EF4
:100A0000216E000E226E000E236E000E306EFFFF70
:100A100031C037F037A00FEF05F012EF05F0FFFF00
:100A200016EF05F0FFFF228E18EF05F0FFFF229E64
:100A3000FFFFD8903730236E9CEF03F0FFFF1200CA
:100A4000FFFFFFFFE90E1A5C030E1B58D8B02BEF17
:100A500005F02EEF05F0FFFF3BEF05F0FFFFE90E7D
:100A60001C5C030E1D58D8A038EF05F03BEF05F0D5
:100A7000FFFF3FEF05F0FFFF050E7FEF06F0FFFFE2
:100A800016501A5C1E6E17501B581F6E1E501F10FA
:100A9000D8B44DEF05F050EF05F0FFFF5AEF05F029
:100AA000FFFF000E126E010ED9EC10F0010E226E47
:100AB00062EF05F0FFFF000E126E000ED9EC10F091
:100AC000000E226EFFFF18501C5C1E6E19501D5840
:100AD0001F6E1E501F10D8B470EF05F073EF05F0B5
:100AE000FFFF7DEF05F0FFFF010E126E010ED9EC46
:100AF00010F0010E236E85EF05F0FFFF010E126E60
:100B0000000ED9EC10F0000E236EFFFF010E206ED8
:100B1000010E216ECA84000E5C6E000E5B6E640EC8
:100B2000686ED58E5FEF06F0FFFF5B505C10D8B4A7
:100B30009CEF05F09FEF05F0FFFFA8EF05F0FFFF2A
:100B400089948A98000E5C6E040E5B6E73EF06F05B
:100B5000FFFF2204D8A4AFEF05F0B2EF05F0FFFFCE
:100B6000D0EF05F0FFFF89EC12F016501226175057
:100B700013221A50121807E11B501318D8A4C3EF00
:100B800005F0C6EF05F0FFFFCCEF05F0FFFFFFFF1C
:100B9000000E206EF7EF05F0FFFF8984F7EF05F0F8
:100BA000FFFF2250D8A4D7EF05F0DAEF05F0FFFFE2
:100BB000F7EF05F0FFFF89EC12F016C01EF017C02A
:100BC0001FF012501E5E13501F5A1A501E1807E1D4
:100BD0001B501F18D8A4EFEF05F0F2EF05F0FFFF50
:100BE000F5EF05F0FFFFC7EF05F0FFFF8984FFFF7A
:100BF0002304D8A4FEEF05F001EF06F0FFFF1FEF7E
:100C000006F0FFFF89EC12F018501226195013223B
:100C10001C50121807E11D501318D8A412EF06F04B
:100C200015EF06F0FFFF1BEF06F0FFFFFFFF000EC2
:100C3000216E42EF06F0FFFF8A8842EF06F0FFFFC9
:100C40002350D8A426EF06F029EF06F0FFFF42EF6D
:100C500006F0FFFF89EC12F01850122619501322EB
:100C60001C50121807E11D501318D8A43AEF06F0D3
:100C70003DEF06F0FFFF40EF06F0FFFF16EF06F036
:100C8000FFFF8A88FFFF47EC12F012501310D8B410
:100C90004CEF06F04FEF06F0FFFF42EF06F0FFFFCC
:100CA00089948A98FFFF47EC12F012501310D8B4C1
:100CB0005CEF06F05FEF06F0FFFF52EF06F0FFFF7C
:100CC0002050D8A466EF06F069EF06F0FFFF94EF1E
:100CD00005F0FFFF2150D8A470EF06F073EF06F087
:100CE000FFFF94EF05F0FFFFD59ECA94000ED76E6C
:100CF000000ED66E000ECC6E9EEC12F05B50FFFF25
:100D00001200FFFFFFFF61EC12F012C0D7F113C019
:100D1000D8F135EF07F0FFFF4EC016F0176A4FC04D
:100D200018F0196A0D0EF66E060EF76E0800FFFF3A
:100D3000F5501A6E1B6A0E0EF66E060EF76E080060
:100D4000FFFFF5501C6E1D6A21EC05F00101D66F06
:100D50000D0EF66E060EF76E0800FFFFF5CF4EF093
:100D60000E0EF66E060EF76E0800FFFFF5CF4FF081
:100D700058EF07F0FFFF4EC016F0176A4FC018F08B
:100D8000196A0B0EF66E060EF76E0800FFFFF5509F
:100D90001A6E1B6A0C0EF66E060EF76E0800FFFF49
:100DA000F5501C6E1D6A21EC05F00101D66F0B0E8B
:100DB000F66E060EF76E0800FFFFF5CF4EF00C0E34
:100DC000F66E060EF76E0800FFFFF5CF4FF058EFF6
:100DD00007F0FFFF4EC016F0176A4FC018F0196AEF
:100DE000090EF66E060EF76E0800FFFFF5501A6E3C
:100DF0001B6A0A0EF66E060EF76E0800FFFFF5502E
:100E00001C6E1D6A21EC05F00101D66F090EF66E0D
:100E1000060EF76E0800FFFFF5CF4EF00A0EF66ED5
:100E2000060EF76E0800FFFFF5CF4FF058EF07F002
:100E3000FFFF4EC016F0176A4FC018F0196A57C06E
:100E40001AF01B6A58C01CF01D6A21EC05F0010164
:100E5000D66F57C04EF058C04FF058EF07F0FFFF65
:100E6000010E0101D66F58EF07F0FFFFD7C1D9FF80
:100E7000D8C1DAFFDF50436E446A4450000AD8B448
:100E800044EF07F02FEF07F0FFFF4350000AD8B4FC
:100E90008BEF06F0010AD8B4BAEF06F0030AD8B413
:100EA000E9EF06F0FD0AD8B418EF07F02FEF07F0CE
:100EB000FFFFD651D8A45FEF07F062EF07F0FFFF06
:100EC000C5EF07F0FFFF0DEC0EF00101D66FF2EC5D
:100ED00011F0CAEC0FF00101D66F4EC016F0176A80
:100EE0004FC018F0196A20EE01F0D751D926D85119
:100EF000DA22DF50436E43501A6E1B6A20EE02F076
:100F0000D751D926D851DA22DF50446E44501C6E96
:100F10001D6A21EC05F0010120EE01F0D751D92620
:100F2000D851DA22DF504E6E20EE02F0D751D9268A
:100F3000D851DA22DF504F6E20EE03F0D751D92678
:100F4000D851DA22DF50436E5950435C596E5A50E3
:100F5000D8A05A285A6A5A5E5ABEB4EF07F0B1EFC9
:100F600007F0FFFFB9EF07F0FFFF680E5926010EEB
:100F70005A22FFFF595086EC0EF094EC0DF0DCEC99
:100F800011F0CAEC0FF00101D66FFFFFD65112002D
:100F9000FFFFFFFF1A6E1A50D8B4D1EF07F0D4EF5D
:100FA00007F0FFFFF9EF07F0FFFF15BEDDEF07F0D9
:100FB000DAEF07F0FFFFF9EF07F0FFFF12C016F0BE
:100FC00013C017F014C018F015C019F0161E171E24
:100FD000181E191E162A000E17221822192216C0D2
:100FE0001CF017C01DF018C01EF019C01FF002EF52
:100FF00008F0FFFF12C01CF013C01DF014C01EF05B
:1010000015C01FF0FFFF1250131014101510D8A4B4
:101010000CEF08F00FEF08F0FFFF1AEF08F0FFFFEA
:10102000000E126E000E136E000E146E000E156E82
:10103000C2EF08F0FFFF960E1B6E26EF08F0FFFFD1
:101040001B2AD8901F321E321D321C32FFFF000EA9
:101050001C14166E000E1D14176E000E1E14186E52
:10106000FE0E1F14196E1650171018101910D8A460
:101070003CEF08F03FEF08F0FFFF1FEF08F0FFFF25
:101080004FEF08F0FFFF1B2A010E1C26000E1D2249
:101090001E221F22D8901F321E321D321C32FFFF2B
:1010A000000E1C14166E000E1D14176E000E1E147A
:1010B000186EFF0E1F14196E165017101810191005
:1010C000D8A465EF08F068EF08F0FFFF42EF08F0E2
:1010D000FFFF72EF08F0FFFF1B06D8901C361D368D
:1010E0001E361F36FFFF1EBE78EF08F07BEF08F0BC
:1010F000FFFF85EF08F0FFFF020E1B6082EF08F094
:1011000085EF08F0FFFF6BEF08F0FFFF1BB08BEFE0
:1011100008F08EEF08F0FFFF90EF08F0FFFF1E9E33
:10112000FFFFD8901B321BC016F0176A186A196AA5
:1011300016C019F0186A176A166A16501C12175052
:101140001D1218501E1219501F121A50D8B4ABEFAE
:1011500008F0AEEF08F0FFFFB9EF08F0FFFF15BE93
:10116000B7EF08F0B4EF08F0FFFFB9EF08F0FFFFAA
:101170001F8EFFFF1CC012F01DC013F01EC014F024
:101180001FC015F0FFFF1200FFFFFFFF000E126EE1
:10119000000E5FEC0FF0000E126E010E5FEC0FF010
:1011A000000E126E020E5FEC0FF0000E126E000EBB
:1011B000D9EC10F0010E126E000ED9EC10F0020EF8
:1011C000126E000ED9EC10F0000E126E010E65ECDE
:1011D00010F0010E126E010E65EC10F0020E126E90
:1011E000010E65EC10F0000E126E000E9FEC10F078
:1011F000010E126E000E9FEC10F0020E126E000E29
:101200009FEC10F0010E166E010E176E010E186E97
:10121000CA84000E5C6E000E5B6E640E686ED58E26
:1012200093EF09F0FFFF5B505C10D8B41AEF09F0A0
:101230001DEF09F0FFFF27EF09F0FFFF89948A985F
:101240008B94000E5C6E030E5B6EB1EF09F0FFFF36
:1012500084B02DEF09F030EF09F0FFFF3AEF09F00D
:10126000FFFF1650D8A437EF09F03AEF09F0FFFF5F
:101270003FEF09F0FFFF000E166E41EF09F0FFFF90
:101280008984FFFF84B247EF09F04AEF09F0FFFFBE
:1012900054EF09F0FFFF1750D8A451EF09F054EFB5
:1012A00009F0FFFF59EF09F0FFFF000E176E5BEF2B
:1012B00009F0FFFF8A88FFFF84B461EF09F064EF53
:1012C00009F0FFFF6EEF09F0FFFF1850D8A46BEF95
:1012D00009F06EEF09F0FFFF73EF09F0FFFF000E5A
:1012E000186E75EF09F0FFFF8B84FFFF47EC12F0DB
:1012F00012501310D8B47FEF09F082EF09F0FFFF0E
:1013000075EF09F0FFFF89948A988B94FFFF47ECF3
:1013100012F012501310D8B490EF09F093EF09F0C7
:10132000FFFF86EF09F0FFFF1650D8A49AEF09F0EF
:101330009DEF09F0FFFF12EF09F0FFFF1750D8A44F
:10134000A4EF09F0A7EF09F0FFFF12EF09F0FFFF8C
:101350001850D8A4AEEF09F0B1EF09F0FFFF12EF7B
:1013600009F0FFFFD59ECA94000ED76E000ED66E10
:10137000000ECC6E9EEC12F05B501200FFFFFFFFE0
:10138000BFEC11F008EC12F01BEC12F02EEC12F096
:1013900051EC12F0000E136E0A0E126E3DEC12F0BC
:1013A000C5EC08F00101DB6FDB51D8B4DAEF09F0CE
:1013B000DDEF09F0FFFFE4EF09F0FFFFDB5178EC10
:1013C0000CF0FFFFE1EF09F0FFFFAB88FFFFBEEC81
:1013D00012F00009D8B4EFEF09F0F2EF09F0FFFFC7
:1013E00008EF0AF0FFFF000E126E010E9FEC10F0E6
:1013F000010E126E010E9FEC10F0020E126E010E25
:101400009FEC10F0070E78EC0CF0FFFF05EF0AF0F0
:10141000FFFFBAEC12F00009D8B411EF0AF014EF94
:101420000AF0FFFF5DEF0AF0FFFF5AEC12F012C066
:10143000DCF113C0DDF1010120EE02F0DC51D92610
:10144000DD51DA22DF50576E20EE03F0DC51D92651
:10145000DD51DA22DF50586EAB98000E7BEC0AF0BB
:10146000FF0E7BEC0AF0010120EE05F0DC51D926DD
:10147000DD51DA22DF507BEC0AF0010120EE06F0AC
:10148000DC51D926DD51DA22DF507BEC0AF0010174
:1014900020EE04F0DC51D926DD51DA22DF50D96F7D
:1014A00020EE07F0DC51D926DD51DA22DF50DA6F69
:1014B000D951DA5D7BEC0AF0AB88FFFFB6EC12F095
:1014C0000009D8B466EF0AF069EF0AF0FFFFE6EF13
:1014D00009F0FFFF82EC06F00101DB6FDB5178ECD5
:1014E0000CF068EC12F0B2EC12F013EC11F0E6EF35
:1014F00009F0B5EF00F0FFFF1B6E450E5E24D96EBC
:10150000DA6A000EDA221BC0DFFF5E2A97EF0AF0CC
:10151000FFFF050E6D6EB2EF0AF0FFFF090E6D6E54
:10152000B2EF0AF0FFFF010E6D6EB2EF0AF0FFFF9F
:101530004550196E1A6A1A50000AD8B4A2EF0AF080
:10154000B2EF0AF0FFFF1950000AD8B488EF0AF092
:10155000010AD8B48DEF0AF0030AD8B492EF0AF06A
:10156000B2EF0AF0FFFF6D505E5CD8A0BAEF0AF050
:10157000BDEF0AF0FFFF29EF0BF0FFFF000E5E6EDC
:101580000EEF0BF0FFFF6150040DDB0EF324D96E5C
:10159000000EF420DA6E46C0DFFF6150040DDC0E51
:1015A000F324D96E000EF420DA6E47C0DFFF6150DD
:1015B000040DDD0EF324D96E000EF420DA6E48C05F
:1015C000DFFF6150040DDE0EF324D96E000EF4200F
:1015D000DA6E49C0DFFF612A29EF0BF0FFFF46C03A
:1015E000EFF047C0F0F048C0F1F049C0F2F04AC057
:1015F000F3F04BC0F4F04CC0F5F04DC0F6F0010E26
:101600005F6E29EF0BF0FFFF010E606E29EF0BF00C
:10161000FFFF080E78EC0CF029EF0BF0FFFF4550B0
:10162000196E1A6A1A50000AD8B419EF0BF008EFB5
:101630000BF0FFFF1950000AD8B4C2EF0AF0010AFC
:10164000D8B4EEEF0AF0030AD8B403EF0BF008EFBA
:101650000BF0FFFF1200FFFFFFFF0A6E450E5E2436
:10166000D96EDA6A000EDA220AC0DFFF5E2A48EF7E
:101670000BF0FFFF050E6D6E63EF0BF0FFFF090E21
:101680006D6E63EF0BF0FFFF010E6D6E63EF0BF0FD
:10169000FFFF4550086E096A0950000AD8B453EF9D
:1016A0000BF063EF0BF0FFFF0850000AD8B439EFDE
:1016B0000BF0010AD8B43EEF0BF0030AD8B443EFA5
:1016C0000BF063EF0BF0FFFF6D505E5CD8A06BEF8B
:1016D0000BF06EEF0BF0FFFFDAEF0BF0FFFF000EE9
:1016E0005E6EBFEF0BF0FFFF6150040DDB0EF324C5
:1016F000D96E000EF420DA6E46C0DFFF6150040D93
:10170000DC0EF324D96E000EF420DA6E47C0DFFF42
:101710006150040DDD0EF324D96E000EF420DA6E54
:1017200048C0DFFF6150040DDE0EF324D96E000EB9
:10173000F420DA6E49C0DFFF612ADAEF0BF0FFFF19
:1017400046C0EFF047C0F0F048C0F1F049C0F2F0F9
:101750004AC0F3F04BC0F4F04CC0F5F04DC0F6F0C9
:10176000010E5F6EDAEF0BF0FFFF010E606EDAEF35
:101770000BF0FFFF080E06EC0DF0DAEF0BF0FFFFA9
:101780004550086E096A0950000AD8B4CAEF0BF038
:10179000B9EF0BF0FFFF0850000AD8B473EF0BF05D
:1017A000010AD8B49FEF0BF0030AD8B4B4EF0BF0E2
:1017B000B9EF0BF0FFFF1200FFFFFFFF3B343C349B
:1017C000426E4250D8A4E7EF0BF0EAEF0BF0FFFFB8
:1017D000F6EF0BF0FFFFFFFF000E396E000E3A6EC2
:1017E000000E3B6E000E3C6E75EF0CF0FFFF39C033
:1017F0003DF03AC03EF03BC03FF03CC040F0200E10
:1018000008EF0CF0FFFFD89040323F323E323D32BD
:10181000FFFFE82E02EF0CF03D50416E3B8EFF0EB5
:101820003916FF0E3A16FF0E3B16000E3C16960EAA
:10183000425E42BE21EF0CF01EEF0CF0FFFF3BEFCB
:101840000CF0FFFF4250800A970FD8B02AEF0CF03F
:101850002DEF0CF0FFFF30EF0CF0FFFFEBEF0BF084
:10186000FFFFD8903C323B323A323932423E30EFC1
:101870000CF059EF0CF0FFFF1F0E426442EF0CF02A
:1018800045EF0CF0FFFF4FEF0CF0FFFFEBEF0BF01D
:10189000FFFFD89039363A363B363C364206FFFFDA
:1018A0004250D8A456EF0CF059EF0CF0FFFF48EF70
:1018B0000CF0FFFF4150D8B460EF0CF063EF0CF078
:1018C000FFFF6CEF0CF0FFFF3C1E3B1E3A1E396C15
:1018D000000E3A223B223C22FFFF39C039F03AC0C9
:1018E0003AF03BC03BF03CC03CF0FFFF1200FFFF72
:1018F000FFFF186ED4EF0CF0FFFFA50E126E000E66
:10190000136E1E0E146E71EC11F003EF0DF0FFFF5D
:101910005E0E126E010E136E290E146E71EC11F034
:1019200003EF0DF0FFFF870E126E010E136E280EEF
:10193000146E71EC11F003EF0DF0FFFF350E126E17
:10194000010E136E290E146E71EC11F003EF0DF001
:10195000FFFF840E126E000E136E210E146E71ECDA
:1019600011F003EF0DF0FFFF000E126E010E136E6B
:10197000350E146E71EC11F003EF0DF0FFFFAF0E9A
:10198000126E010E136E270E146E71EC11F003EF40
:101990000DF0FFFFC30E126E000E136E180E146EC4
:1019A00071EC11F003EF0DF0FFFF1850166E176A7F
:1019B0001750000AD8B4DFEF0CF003EF0DF0FFFF73
:1019C0001650010AD8B47CEF0CF0030AD8B487EFA4
:1019D0000CF0010AD8B492EF0CF0070AD8B49DEFCE
:1019E0000CF0010AD8B4A8EF0CF0030AD8B4B3EF96
:1019F0000CF0010AD8B4BEEF0CF00F0AD8B4C9EF4E
:101A00000CF003EF0DF0FFFF1200FFFFFFFF076E6A
:101A100062EF0DF0FFFFA50E016E000E026E1E0EAE
:101A2000036E98EC11F091EF0DF0FFFF5E0E016E6A
:101A3000010E026E290E036E98EC11F091EF0DF07D
:101A4000FFFF870E016E010E026E280E036E98ECEA
:101A500011F091EF0DF0FFFF350E016E010E026ED9
:101A6000290E036E98EC11F091EF0DF0FFFF840E3C
:101A7000016E000E026E210E036E98EC11F091EFD4
:101A80000DF0FFFF000E016E010E026E350E036EAB
:101A900098EC11F091EF0DF0FFFFAF0E016E010E0B
:101AA000026E270E036E98EC11F091EF0DF0FFFF20
:101AB000C30E016E000E026E180E036E98EC11F04C
:101AC00091EF0DF0FFFF0750056E066A0650000A01
:101AD000D8B46DEF0DF091EF0DF0FFFF0550010A46
:101AE000D8B40AEF0DF0030AD8B415EF0DF0010ACF
:101AF000D8B420EF0DF0070AD8B42BEF0DF0010A8F
:101B0000D8B436EF0DF0030AD8B441EF0DF0010A56
:101B1000D8B44CEF0DF00F0AD8B457EF0DF091EF99
:101B20000DF0FFFF1200FFFFFFFF020E126E010E0D
:101B3000D9EC10F0CA84000E5C6E000E5B6E640E71
:101B4000686ED58E94EC12F0D7EF0DF0FFFF5B506E
:101B50005C10D8B4AEEF0DF0B1EF0DF0FFFFB9EFB0
:101B60000DF0FFFF8B94000E5C6E060E5B6EEDEFCA
:101B70000DF0FFFF8B84FFFF47EC12F012501310A3
:101B8000D8B4C5EF0DF0C8EF0DF0FFFFBBEF0DF0BF
:101B9000FFFF8B94FFFF47EC12F012501310D8B4E4
:101BA000D4EF0DF0D7EF0DF0FFFFCAEF0DF0FFFF00
:101BB0007DEC12F012501310D8B4E1EF0DF0E4EF09
:101BC0000DF0FFFFA6EF0DF0FFFF83BEEAEF0DF073
:101BD000EDEF0DF0FFFFA6EF0DF0FFFFC2EC12F0EE
:101BE0008FEC12F0D59ECA94000ED76E000ED66E02
:101BF000000ECC6E9EEC12F083AE01EF0EF004EFFF
:101C00000EF0FFFF09EF0EF0FFFF000E5C6E020EFC
:101C10005B6EFFFF5B501200FFFFFFFF020E126EB4
:101C2000010ED9EC10F0CA84000E5C6E000E5B6EE3
:101C3000640E686ED58E94EC12F050EF0EF0FFFF3C
:101C40005B505C10D8B427EF0EF02AEF0EF0FFFFC8
:101C500032EF0EF0FFFF8B94000E5C6E060E5B6E93
:101C600066EF0EF0FFFF8B84FFFF47EC12F012507F
:101C70001310D8B43EEF0EF041EF0EF0FFFF34EF3B
:101C80000EF0FFFF8B94FFFF47EC12F01250131081
:101C9000D8B44DEF0EF050EF0EF0FFFF43EF0EF013
:101CA000FFFF83EC12F012501310D8B45AEF0EF06D
:101CB0005DEF0EF0FFFF1FEF0EF0FFFF83BE63EF3F
:101CC0000EF066EF0EF0FFFF1FEF0EF0FFFFC2EC0D
:101CD00012F099EC12F0D59ECA94000ED76E000E49
:101CE000D66E000ECC6E9EEC12F083AE7AEF0EF044
:101CF0007DEF0EF0FFFF82EF0EF0FFFF000E5C6E37
:101D0000020E5B6EFFFF5B501200FFFFFFFF000142
:101D1000FA6FAC0E246EFF0E256EB30E266E3D0ECE
:101D2000276E0001FA51126E136A146A156A010EC9
:101D3000C9EC07F012C020F013C021F014C022F04B
:101D400015C023F008EC03F020C039F021C03AF0B0
:101D500022C03BF023C03CF0DDEC0BF039C0FBF0BF
:101D60003AC0FCF0000E0001FE6F000EFD6FE4EFC4
:101D70000EF0FFFFC30E8C16030EFD15F76F000E5D
:101D8000FE15F86F800EF725D96E000EF821DA6E79
:101D9000DF50F96FD890F937D890F9358C12CA8492
:101DA000FFFF47EC12F012501310D8B4DAEF0EF028
:101DB000DDEF0EF0FFFFD0EF0EF0FFFFCA84000E44
:101DC000CC6E0001FD4BFE2BFFFFFB51FD5DFC5176
:101DD000FE59D8A0EEEF0EF0F1EF0EF0FFFFB9EFD5
:101DE0000EF0FFFF1200FFFF4572726F722C20741D
:101DF000696D6520657863656564656420746F202E
:101E000072656163682074686520656E64206F6622
:101E100020746865205A20417869730A00457272FF
:101E20006F722C2074696D652065786365656465E3
:101E30006420746F20726561636820746865207027
:101E40006F696E740A004572726F722C206E6F207B
:101E50006F626A6563742072656C6576617465642F
:101E600020616C6F6E67205A20417869730A0045C3
:101E700072726F722C2074696D6520657863656578
:101E800064656420746F20726573657420706F736D
:101E90006974696F6E0A00466174616C20457272E4
:101EA0006F722C20706C6561736520726573657448
:101EB0002074686520646576696365210A00FFFF08
:101EC000156EACEF0FF0FFFF15C013F0010E1316E7
:101ED000133A134689501318DF0B1318896E15C077
:101EE00013F0020E13168A501318FE0B13188A6E85
:101EF000C7EF0FF0FFFF15C013F0010E1316133AD2
:101F0000134613468A501318BF0B13188A6E15C058
:101F100013F0020E1316133213328A5013187F0B6C
:101F200013188A6EC7EF0FF0FFFF15C013F0010EF4
:101F30001316133A8B501318EF0B13188B6E15C032
:101F400013F0020E1316133A13468B501318DF0BBF
:101F500013188B6EC7EF0FF0FFFF1250136E146A49
:101F60001450000AD8B4B7EF0FF0C7EF0FF0FFFF1F
:101F70001350000AD8B463EF0FF0010AD8B47AEF17
:101F80000FF0030AD8B494EF0FF0C7EF0FF0FFFF84
:101F90001200FFFFFFFF020E126E000ED9EC10F0D0
:101FA000CA84000E5C6E000E5B6E640E686ED58E89
:101FB0000BEF10F0FFFF5B505C10D8B4E2EF0FF0B6
:101FC000E5EF0FF0FFFFEDEF0FF0FFFF8B94000E3A
:101FD0005C6E060E5B6E14EF10F0FFFF8B84FFFF4C
:101FE00047EC12F012501310D8B4F9EF0FF0FCEFD9
:101FF0000FF0FFFFEFEF0FF0FFFF8B94FFFF47ECB9
:1020000012F012501310D8B408EF10F00BEF10F0CC
:10201000FFFFFEEF0FF0FFFF84A411EF10F014EFAD
:1020200010F0FFFFDAEF0FF0FFFFD59ECA94000E0D
:10203000D76E000ED66E000ECC6E9EEC12F05B508A
:102040001200FFFFE80EF66E1D0EF76E000EF86E22
:1020500001EE00F010EED6F00900F5CFEEFFE550EE
:10206000E150FAE1860EF66E220EF76E000EF86E63
:1020700000EE80F010EE5BF00900F5CFEEFFE550CA
:10208000E150FAE19C0EF66E250EF76E000EF86E2A
:1020900000EE69F010EE05F00900F5CFEEFFE55017
:1020A000E150FAE100EEDBF01C0EEE6AE806FDE11D
:1020B00000EE45F0240EEE6AE806FDE16E906E92A9
:1020C000000EF86E0001BFEF09F0FFFF156E81EF03
:1020D00010F0FFFF15B002D08A9401D08A849CEFE3
:1020E00010F0FFFF15B002D08B9001D08B809CEFD9
:1020F00010F0FFFF15B002D08C9001D08C809CEFC7
:1021000010F0FFFF1250136E146A1450000AD8B476
:102110008CEF10F09CEF10F0FFFF1350000AD8B4C2
:1021200069EF10F0010AD8B471EF10F0030AD8B4C7
:1021300079EF10F09CEF10F0FFFF1200FFFFFFFFA0
:10214000156EBBEF10F0FFFF15B002D0899601D0DD
:102150008986D6EF10F0FFFF15B002D08A9A01D021
:102160008A8AD6EF10F0FFFF15B002D08B9601D00F
:102170008B86D6EF10F0FFFF1250136E146A1450C6
:10218000000AD8B4C6EF10F0D6EF10F0FFFF1350DE
:10219000000AD8B4A3EF10F0010AD8B4ABEF10F0E6
:1021A000030AD8B4B3EF10F0D6EF10F0FFFF12001F
:1021B000FFFFFFFF156EF5EF10F0FFFF15B002D027
:1021C000899201D0898210EF11F0FFFF15B002D083
:1021D0008A9601D08A8610EF11F0FFFF15B002D069
:1021E0008B9201D08B8210EF11F0FFFF1250136E13
:1021F000146A1450000AD8B400EF11F010EF11F077
:10220000FFFF1350000AD8B4DDEF10F0010AD8B474
:10221000E5EF10F0030AD8B4EDEF10F010EF11F075
:10222000FFFF1200FFFFFFFF000E146EFFFF1450B0
:10223000126E136AD89012361336D89012361336AF
:10224000DF0E1224D96E000E1320DA6E1450040D26
:10225000DB0EF324E16E000EF420E26EDECFE6FF2B
:10226000DECFE6FFDECFE6FFDECFE6FF142A030E69
:1022700014643DEF11F040EF11F0FFFF16EF11F085
:10228000FFFF1200FFFF0903060C4572726F722CEC
:1022900020706F696E74206F757473696465206255
:1022A0006F756E6461726965730A004572726F7250
:1022B0002C2066656564206C696E65206E6F7420E5
:1022C000646566696E65640A00436F6D6D616E6476
:1022D000206E6F74207265636F676E697A65640A39
:0122E00000FD
:1022E200FFFF010E156E8AEF11F0FFFF12C0D9FF3A
:1022F20013C0DAFFDF50AD6EFFFFACA283EF11F027
:1023020086EF11F0FFFF7DEF11F0FFFF124A132A53
:10231200152AFFFF1450155CD8A092EF11F095EF2B
:1023220011F0FFFF76EF11F0FFFF1200FFFFFFFF3A
:10233200010E046EB1EF11F0FFFF01C0D9FF02C020
:10234200DAFFDF50AD6EFFFFACA2AAEF11F0ADEFE6
:1023520011F0FFFFA4EF11F0FFFF014A022A042A45
:10236200FFFF0350045CD8A0B9EF11F0BCEF11F0ED
:10237200FFFF9DEF11F0FFFF1200FFFFFFFFF2BE14
:10238200C5EF11F0C8EF11F0FFFFCAEF11F0FFFF28
:10239200F28EFFFFF2BCD0EF11F0D3EF11F0FFFF8E
:1023A200D5EF11F0FFFFF28CFFFFD08EF28A9D82F3
:1023B2009D8A1200FFFFFFFF8C92CA84FFFF47EC49
:1023C20012F012501310D8B4E9EF11F0ECEF11F043
:1023D200FFFFDFEF11F0FFFFCA84000ECC6E120088
:1023E200FFFFFFFF8C82CA84FFFF47EC12F01250FE
:1023F2001310D8B4FFEF11F002EF12F0FFFFF5EF68
:1024020011F0FFFFCA84000ECC6E1200FFFFFFFF27
:10241200C150F00B0609C16ED10E9216020E931630
:10242200C00E9416C00E9516968096829684958E4E
:102432001200FFFFFFFFC2503F0B4009C26EC18C6A
:10244200C70EC216C294C290C19EC150F00B0E09B3
:10245200C16E9D8C9F8C1200FFFFFFFF949C948E97
:10246200AC9CAC8AAC98AC94AB8EAB9CAB98AB9664
:10247200190EAF6E1200FFFFFFFFCA94030ECA12BD
:1024820012C055F013C056F01200FFFFFFFF66C0E6
:1024920014F0000E666E14C012F0136A1200FFFFF1
:1024A200FFFFD59ED59CD59AD586070ED512120070
:1024B200FFFFFFFFEF0E126E000E136E1200FFFF02
:1024C200FFFFDB0E126E000E136E1200FFFFFFFF06
:1024D200000E5C6E000E5B6E1200FFFFFFFF000E2F
:1024E2005C6E010E5B6E1200FFFFFFFF55C001F034
:1024F20056C002F01200FFFFFFFF64C012F0136A21
:102502001200FFFFFFFF65C012F0136A1200FFFF07
:10251200FFFF67C012F0136A1200FFFFFFFF000EF9
:10252200646E1200FFFFFFFFC280C2841200FFFF31
:10253200FFFF000E656E1200FFFFFFFF000E676EC9
:102542001200FFFFFFFF010E666E1200FFFFFFFF8A
:10255200010E656E1200FFFFFFFF010E646E120096
:10256200FFFFFFFF61061200FFFFFFFF6150120035
:10257200FFFFFFFF5F501200FFFFFFFF60501200DE
:10258200FFFFFFFFC2901200FFFFFFFF6850120023
:0F259200FFFFFFFF672A1200FFFFE803E80305C2
:0225A200FFFF39
:020000040020DA
:08000000FFFFFFFFFFFFFFFF00
:020000040030CA
:0E000000FF210D0EFF0080FF0FC00FE00F402C
:00000001FF
