:020000040000FA
:0600000000F0B5EF00F076
:10000800FFFF6E82D9CF0DF0DACF0EF0F3CF0FF0ED
:10001800F4CF10F0F2A413EF00F016EF00F0FFFF9A
:100028002CEF00F0FFFFF294632A18EC12F00B6E2D
:100038000B50635CD8A023EF00F026EF00F0FFFF21
:100048002CEF00F0FFFFD59E000E636EB5EC11F0AB
:10005800FFFF9EA232EF00F035EF00F0FFFF63EFE5
:1000680000F0FFFF9E92514A522ABCEC11F0515009
:10007800015C52500258D8B044EF00F047EF00F04E
:10008800FFFF63EF00F0FFFF622A6250D8B44FEF22
:1000980000F052EF00F0FFFF60EF00F0FFFF62B0EA
:1000A80058EF00F05BEF00F0FFFF60EF00F0FFFF9C
:1000B800000E626E1CEC12F0FFFFE9EC11F0FFFF7E
:1000C8009EAC69EF00F06CEF00F0FFFF99EF00F0D5
:1000D800FFFF9E9CC3CF53F0546AC4500C6E0B6A4A
:1000E8000B5053120C5054125304040E5458D8A0F9
:1000F80080EF00F083EF00F0FFFF8AEF00F0FFFFD2
:10010800EEEC11F0F3EC11F099EF00F0FFFF53045F
:10011800020E5458D8A093EF00F096EF00F0FFFFBE
:1001280099EF00F0FFFFEEEC11F0FFFF9EAA9FEFA2
:1001380000F0A2EF00F0FFFFA9EF00F0FFFF9E9A8A
:10014800AECF11F01150B3EC0AF0FFFF10C0F4FF6E
:100158000FC0F3FF0EC0DAFF0DC0D9FF6E92110079
:06016800FFFF96EF0FF00F
:1006000000ACFFB33D0004000219190F0F050500EF
:10061000FFFF2350800B306E23502324376E22AE11
:1006200014EF03F017EF03F0FFFF19EF03F0FFFFE4
:100630003780FFFF3750D8B420EF03F023EF03F0EB
:10064000FFFF3CEF03F0FFFF3728D8A42AEF03F0A9
:100650002DEF03F0FFFF36EF03F0FFFF000E206EDB
:10066000000E216E000E226E000E236EFFFF228E02
:10067000000E236E45EF03F0FFFF000E206E000E0C
:10068000216E000E226E000E236EFFFF2750800B9E
:10069000301A27502724386E26AE51EF03F054EF5E
:1006A00003F0FFFF56EF03F0FFFF3880FFFF3850E5
:1006B000D8B45DEF03F060EF03F0FFFF79EF03F0D4
:1006C000FFFF3828D8A467EF03F06AEF03F0FFFFBD
:1006D00073EF03F0FFFF000E246E000E256E000E78
:1006E000266E000E276EFFFF268E000E276E82EF0D
:1006F00003F0FFFF000E246E000E256E000E266E26
:10070000000E276EFFFF2450251026102710D8A4B6
:100710008CEF03F08FEF03F0FFFFA9EF03F0FFFF73
:10072000000E206E000E216E000E226E000E236E53
:10073000800E22127F0E2312FFFF3050231220C0A2
:1007400020F021C021F022C022F023C023F01EEFB0
:1007500005F0FFFF3750D8A4B0EF03F0B3EF03F07C
:10076000FFFFBEEF03F0FFFF000E206E000E216EB4
:10077000000E226E000E236E1EEF05F0FFFF3850B4
:1007800037C028F0296A285E000E295A7F0E2824D7
:10079000316E000E2920326E20C02CF021C02DF0C9
:1007A00022C02EF023C02FF0000E206E000E216E0E
:1007B000000E226E000E236E000E336E000E346E9D
:1007C000000E356E000E366E000E386E2AEF04F005
:1007D000FFFF3850D8B4EFEF03F0F2EF03F0FFFF64
:1007E0000DEF04F0FFFFD8902C362D362E362F3625
:1007F000D890203621362236233636AE02EF04F06A
:1008000005EF04F0FFFF07EF04F0FFFF2080FFFF7C
:10081000D8903336343635363636FFFF24502C5CCC
:1008200025502D5826502E5827502F58D8A01BEF52
:1008300004F01EEF04F0FFFF28EF04F0FFFF368CFA
:1008400024502C5E25502D5A26502E5A27502F5AB0
:10085000FFFF382AFFFF190E386431EF04F034EF40
:1008600004F0FFFFE8EF03F0FFFF2C502D102E10D7
:100870002F10D8B43EEF04F041EF04F0FFFF5EEF1D
:1008800004F0FFFF33805EEF04F0FFFFD8902036C6
:1008900021362236233636AE50EF04F053EF04F003
:1008A000FFFF55EF04F0FFFF2080FFFFD8903336A5
:1008B0003436353636363106D8A03206FFFF22AE42
:1008C00064EF04F067EF04F0FFFF45EF04F0FFFF73
:1008D000000E386E36AE6FEF04F072EF04F0FFFFDB
:1008E0009DEF04F0FFFFFF0E3314286EFF0E34144B
:1008F000296EFF0E35142A6E7F0E36142B6E28508B
:1009000029102A102B10D8B488EF04F08BEF04F0D4
:10091000FFFF91EF04F0FFFFFFFF010E386E9DEF28
:1009200004F0FFFF20A097EF04F09AEF04F0FFFF20
:100930009DEF04F0FFFF8CEF04F0FFFF3850D8B4B8
:10094000A4EF04F0A7EF04F0FFFFCEEF04F0FFFFE9
:10095000010E2026000E21222222232223A0B3EF03
:1009600004F0B6EF04F0FFFFCEEF04F0FFFF20C06D
:1009700028F021C029F022C02AF023C02BF02B340C
:100980002B322A322932283228C020F029C021F007
:100990002AC022F02BC023F0314A322AFFFF32BE98
:1009A000DAEF04F0325009E13128D8A0DAEF04F090
:1009B000DDEF04F0FFFFE9EF04F0FFFF000E326E01
:1009C0003168000E206E000E216E000E226E000EA9
:1009D000236EFFFF32BEF8EF04F0325006E131041F
:1009E000D8B0F5EF04F0F8EF04F0FFFF07EF05F0E3
:1009F000FFFF000E326E000E316E000E206E000EF4
:100A0000216E000E226E000E236E000E306EFFFF70
:100A100031C037F037A00FEF05F012EF05F0FFFF00
:100A200016EF05F0FFFF228E18EF05F0FFFF229E64
:100A3000FFFFD8903730236E9CEF03F0FFFF1200CA
:100A4000FFFFFFFFA7EC11F012C0FCF013C0FDF098
:100A5000D4EF05F0FFFF4EC016F0176A4FC018F034
:100A6000196A0D0EF66E060EF76E0800FFFFF550C0
:100A70001A6E1B6A0E0EF66E060EF76E0800FFFF6A
:100A8000F5501C6E1D6A5AEC08F00001FB6F0D0E4C
:100A9000F66E060EF76E0800FFFFF5CF4EF00E0E55
:100AA000F66E060EF76E0800FFFFF5CF4FF0F7EF7A
:100AB00005F0FFFF4EC016F0176A4FC018F0196A14
:100AC0000B0EF66E060EF76E0800FFFFF5501A6E5D
:100AD0001B6A0C0EF66E060EF76E0800FFFFF5504F
:100AE0001C6E1D6A5AEC08F00001FB6F0B0EF66ECF
:100AF000060EF76E0800FFFFF5CF4EF00C0EF66EF7
:100B0000060EF76E0800FFFFF5CF4FF0F7EF05F088
:100B1000FFFF4EC016F0176A4FC018F0196A090E91
:100B2000F66E060EF76E0800FFFFF5501A6E1B6A90
:100B30000A0EF66E060EF76E0800FFFFF5501C6EEB
:100B40001D6A5AEC08F00001FB6F090EF66E060EE6
:100B5000F76E0800FFFFF5CF4EF00A0EF66E060E98
:100B6000F76E0800FFFFF5CF4FF0F7EF05F0FFFF3E
:100B70004EC016F0176A4FC018F0196A57C01AF025
:100B80001B6A58C01CF01D6A5AEC08F00001FB6F8C
:100B900057C04EF058C04FF0F7EF05F0FFFF010EC1
:100BA0000001FB6FF7EF05F0FFFFFCC0D9FFFDC0B0
:100BB000DAFFDF50436E446A4450000AD8B4E3EFD2
:100BC00005F0CEEF05F0FFFF4350300AD8B42AEF0E
:100BD00005F0010AD8B459EF05F0030AD8B488EF3C
:100BE00005F0CD0AD8B4B7EF05F0CEEF05F0FFFF62
:100BF000FB51D8A4FEEF05F001EF06F0FFFF61EF17
:100C000006F0FFFF94EC0DF014EC12F03EEC0FF048
:100C10004EC016F0176A4FC018F0196A000120EE96
:100C200001F0FC51D926FD51DA22DF50436E4350CA
:100C30001A6E1B6A20EE02F0FC51D926FD51DA2211
:100C4000DF50446E44501C6E1D6A5AEC08F00001DF
:100C500020EE01F0FC51D926FD51DA22DF504E6E14
:100C600020EE02F0FC51D926FD51DA22DF504F6E02
:100C700020EE03F0FC51D926FD51DA22DF50436EFD
:100C80005950435C596E5A50D8A05A285A6A5A5E35
:100C90005ABE50EF06F04DEF06F0FFFF55EF06F09D
:100CA000FFFF680E5926010E5A22FFFF5950E1EC52
:100CB0000EF01BEC0DF010EC12F03EEC0FF000010A
:100CC000FB6FFFFFFB511200FFFFFFFF1A6E1A5070
:100CD000D8B46DEF06F070EF06F0FFFF95EF06F069
:100CE000FFFF15BE79EF06F076EF06F0FFFF95EFF8
:100CF00006F0FFFF12C016F013C017F014C018F072
:100D000015C019F0161E171E181E191E162A000EE1
:100D100017221822192216C01CF017C01DF018C087
:100D20001EF019C01FF09EEF06F0FFFF12C01CF06E
:100D300013C01DF014C01EF015C01FF0FFFF1250AD
:100D4000131014101510D8A4A8EF06F0ABEF06F09E
:100D5000FFFFB6EF06F0FFFF000E126E000E136EDF
:100D6000000E146E000E156E5EEF07F0FFFF960E7C
:100D70001B6EC2EF06F0FFFF1B2AD8901F321E32F7
:100D80001D321C32FFFF000E1C14166E000E1D14C7
:100D9000176E000E1E14186EFE0E1F14196E1650DC
:100DA000171018101910D8A4D8EF06F0DBEF06F0D2
:100DB000FFFFBBEF06F0FFFFEBEF06F0FFFF1B2A84
:100DC000010E1C26000E1D221E221F22D8901F324B
:100DD0001E321D321C32FFFF000E1C14166E000E58
:100DE0001D14176E000E1E14186EFF0E1F14196EC0
:100DF0001650171018101910D8A401EF07F004EFBF
:100E000007F0FFFFDEEF06F0FFFF0EEF07F0FFFF3A
:100E10001B06D8901C361D361E361F36FFFF1EBE21
:100E200014EF07F017EF07F0FFFF21EF07F0FFFFC8
:100E3000020E1B601EEF07F021EF07F0FFFF07EF28
:100E400007F0FFFF1BB027EF07F02AEF07F0FFFFC7
:100E50002CEF07F0FFFF1E9EFFFFD8901B321BC038
:100E600016F0176A186A196A16C019F0186A176A14
:100E7000166A16501C1217501D1218501E121950C7
:100E80001F121A50D8B447EF07F04AEF07F0FFFFE0
:100E900055EF07F0FFFF15BE53EF07F050EF07F0D7
:100EA000FFFF55EF07F0FFFF1F8EFFFF1CC012F082
:100EB0001DC013F01EC014F01FC015F0FFFF12007C
:100EC000FFFFFFFF000E126E000E0DEC0EF0000E85
:100ED000126E010E0DEC0EF0000E126E020E0DECF5
:100EE0000EF0000E126E000E4DEC10F0010E126EA0
:100EF000000E4DEC10F0020E126E000E4DEC10F0D4
:100F0000000E126E010ED9EC0FF0010E126E010EE2
:100F1000D9EC0FF0020E126E010ED9EC0FF0000E9C
:100F2000126E000E13EC10F0010E126E000E13EC98
:100F300010F0020E126E000E13EC10F0010E166E81
:100F4000010E176E010E186ECA84000E5C6E000E44
:100F50005B6EC80E686ED58E2FEF08F0FFFF5B50FA
:100F60005C10D8B4B6EF07F0B9EF07F0FFFFC3EF9E
:100F700007F0FFFF89948A988B94000E5C6E030E35
:100F80005B6E4DEF08F0FFFF84B0C9EF07F0CCEFC8
:100F900007F0FFFFD6EF07F0FFFF1650D8A4D3EFFE
:100FA00007F0D6EF07F0FFFFDBEF07F0FFFF000EC3
:100FB000166EDDEF07F0FFFF8984FFFF84B2E3EFD9
:100FC00007F0E6EF07F0FFFFF0EF07F0FFFF175025
:100FD000D8A4EDEF07F0F0EF07F0FFFFF5EF07F013
:100FE000FFFF000E176EF7EF07F0FFFF8A88FFFF85
:100FF00084B4FDEF07F000EF08F0FFFF0AEF08F000
:10100000FFFF1850D8A407EF08F00AEF08F0FFFF21
:101010000FEF08F0FFFF000E186E11EF08F0FFFF52
:101020008B84FFFF8DEC11F012501310D8B41BEF1E
:1010300008F01EEF08F0FFFF11EF08F0FFFF8994A2
:101040008A988B94FFFF8DEC11F012501310D8B4D6
:101050002CEF08F02FEF08F0FFFF22EF08F0FFFF62
:101060001650D8A436EF08F039EF08F0FFFFAEEFC6
:1010700007F0FFFF1750D8A440EF08F043EF08F047
:10108000FFFFAEEF07F0FFFF1850D8A44AEF08F0BB
:101090004DEF08F0FFFFAEEF07F0FFFFD59ECA94BB
:1010A000000ED76E000ED66E000ECC6EE4EC11F082
:1010B0001200FFFFFFFFE90E1A5C030E1B58D8B0A9
:1010C00064EF08F067EF08F0FFFF74EF08F0FFFF30
:1010D000E90E1C5C030E1D58D8A071EF08F074EFE8
:1010E00008F0FFFF78EF08F0FFFF050E4CEF09F066
:1010F000FFFF16501A5C1E6E17501B581F6E1E50B5
:101100001F10D8B486EF08F089EF08F0FFFF91EFC9
:1011100008F0FFFF000E126E010E4DEC10F097EF7D
:1011200008F0FFFF000E126E000E4DEC10F0FFFFF6
:1011300018501C5C1E6E19501D581F6E1E501F103B
:10114000D8B4A5EF08F0A8EF08F0FFFFB0EF08F063
:10115000FFFF010E126E010E4DEC10F0B6EF08F01D
:10116000FFFF010E126E000E4DEC10F0FFFF010E9E
:10117000206E010E216ECA84000E5C6E000E5B6E46
:10118000C80E686ED58E2CEF09F0FFFF5B505C1027
:10119000D8B4CDEF08F0D0EF08F0FFFFD9EF08F09A
:1011A000FFFF89948A98000E5C6E040E5B6E40EF20
:1011B00009F0FFFFCFEC11F0165012261750132242
:1011C0001A50121807E11B501318D8A4EAEF08F0C0
:1011D000EDEF08F0FFFFF2EF08F0FFFF000E206ECA
:1011E000F4EF08F0FFFF8984FFFFCFEC11F01850F7
:1011F0001226195013221C50121807E11D50131803
:10120000D8A405EF09F008EF09F0FFFF0DEF09F092
:10121000FFFF000E216E0FEF09F0FFFF8A88FFFF2E
:101220008DEC11F012501310D8B419EF09F01CEF27
:1012300009F0FFFF0FEF09F0FFFF89948A98FFFF85
:101240008DEC11F012501310D8B429EF09F02CEFE7
:1012500009F0FFFF1FEF09F0FFFF2050D8A433EF84
:1012600009F036EF09F0FFFFC5EF08F0FFFF21504E
:10127000D8A43DEF09F040EF09F0FFFFC5EF08F0FB
:10128000FFFFD59ECA94000ED76E000ED66E000EDC
:10129000CC6EE4EC11F05B50FFFF1200FFFFFFFF8C
:1012A00031EC11F04EEC11F061EC11F097EC11F013
:1012B000000E136E0A0E126E83EC11F061EC07F053
:1012C00074EC11F0AB88FFFF04EC12F00009D8B405
:1012D0006CEF09F06FEF09F0FFFF85EF09F0FFFFFA
:1012E000000E126E010E13EC10F0010E126E010EC4
:1012F00013EC10F0020E126E010E13EC10F0070E3C
:10130000FFEC0BF0FFFF82EF09F0FFFF00EC12F0A3
:101310000009D8B48EEF09F091EF09F0FFFFE1EF7B
:1013200009F0FFFFA0EC11F012C0D2F113C0D3F10D
:10133000010120EE02F0D251D926D351DA22DF503A
:10134000576E20EE03F0D251D926D351DA22DF5066
:10135000586EAB98000E02EC0AF0FF0E02EC0AF099
:10136000010120EE05F0D251D926D351DA22DF5007
:1013700002EC0AF0010120EE06F0D251D926D35139
:10138000DA22DF5002EC0AF0010120EE04F0D25123
:10139000D926D351DA22DF500001FE6F010120EE81
:1013A00007F0D251D926D351DA22DF500001FF6F66
:1013B000FE51FF5D02EC0AF0AB88D5EC11F063EF53
:1013C00009F0FFFFFCEC11F00009D8B4EAEF09F0D6
:1013D000EDEF09F0FFFFFDEF09F0FFFF21EC05F055
:1013E0000101D16FD151FFEC0BF0AEEC11F0F8EC34
:1013F00011F087EC10F063EF09F0FFFF63EF09F0E5
:10140000B5EF00F0FFFF1B6E450E5E24D96EDA6A61
:10141000000EDA221BC0DFFF5E2A1EEF0AF0FFFF7C
:10142000050E6D6E39EF0AF0FFFF090E6D6E39EF94
:101430000AF0FFFF010E6D6E39EF0AF0FFFF455015
:10144000196E1A6A1A50000AD8B429EF0AF039EF57
:101450000AF0FFFF1950000AD8B40FEF0AF0010A92
:10146000D8B414EF0AF0030AD8B419EF0AF039EF30
:101470000AF0FFFF6D505E5CD8A041EF0AF044EF28
:101480000AF0FFFFB0EF0AF0FFFF000E5E6E95EF6F
:101490000AF0FFFF6150040DD80EF324D96E000E40
:1014A000F420DA6E46C0DFFF6150040DD90EF3243C
:1014B000D96E000EF420DA6E47C0DFFF6150040DD4
:1014C000DA0EF324D96E000EF420DA6E48C0DFFF86
:1014D0006150040DDB0EF324D96E000EF420DA6E99
:1014E00049C0DFFF612AB0EF0AF0FFFF46C0ECF011
:1014F00047C0EDF048C0EEF049C0EFF04AC0F0F050
:101500004BC0F1F04CC0F2F04DC0F3F0010E5F6E35
:10151000B0EF0AF0FFFF010E606EB0EF0AF0FFFFC0
:10152000080EFFEC0BF0B0EF0AF0FFFF4550196E0C
:101530001A6A1A50000AD8B4A0EF0AF08FEF0AF026
:10154000FFFF1950000AD8B449EF0AF0010AD8B4D5
:1015500075EF0AF0030AD8B48AEF0AF08FEF0AF0A9
:10156000FFFF1200FFFFFFFF0A6E450E5E24D96EDB
:10157000DA6A000EDA220AC0DFFF5E2ACFEF0AF035
:10158000FFFF050E6D6EEAEF0AF0FFFF090E6D6EAC
:10159000EAEF0AF0FFFF010E6D6EEAEF0AF0FFFFBF
:1015A0004550086E096A0950000AD8B4DAEF0AF00B
:1015B000EAEF0AF0FFFF0850000AD8B4C0EF0AF0C3
:1015C000010AD8B4C5EF0AF0030AD8B4CAEF0AF08A
:1015D000EAEF0AF0FFFF6D505E5CD8A0F2EF0AF070
:1015E000F5EF0AF0FFFF61EF0BF0FFFF000E5E6EFC
:1015F00046EF0BF0FFFF6150040DD80EF324D96EB7
:10160000000EF420DA6E46C0DFFF6150040DD90EE3
:10161000F324D96E000EF420DA6E47C0DFFF61506C
:10162000040DDA0EF324D96E000EF420DA6E48C0F1
:10163000DFFF6150040DDB0EF324D96E000EF420A1
:10164000DA6E49C0DFFF612A61EF0BF0FFFF46C091
:10165000ECF047C0EDF048C0EEF049C0EFF04AC0F2
:10166000F0F04BC0F1F04CC0F2F04DC0F3F0010EC1
:101670005F6E61EF0BF0FFFF010E606E61EF0BF02C
:10168000FFFF080E8DEC0CF061EF0BF0FFFF4550F3
:10169000086E096A0950000AD8B451EF0BF040EF08
:1016A0000BF0FFFF0850000AD8B4FAEF0AF0010A65
:1016B000D8B426EF0BF0030AD8B43BEF0BF040EFA1
:1016C0000BF0FFFF1200FFFFFFFF3B343C34426E84
:1016D0004250D8A46EEF0BF071EF0BF0FFFF7DEFDF
:1016E0000BF0FFFFFFFF000E396E000E3A6E000E8A
:1016F0003B6E000E3C6EFCEF0BF0FFFF39C03DF07F
:101700003AC03EF03BC03FF03CC040F0200E8FEFAF
:101710000BF0FFFFD89040323F323E323D32FFFFA8
:10172000E82E89EF0BF03D50416E3B8EFF0E3916CF
:10173000FF0E3A16FF0E3B16000E3C16960E425E4A
:1017400042BEA8EF0BF0A5EF0BF0FFFFC2EF0BF0CE
:10175000FFFF4250800A970FD8B0B1EF0BF0B4EF03
:101760000BF0FFFFB7EF0BF0FFFF72EF0BF0FFFF87
:10177000D8903C323B323A323932423EB7EF0BF02E
:10178000E0EF0BF0FFFF1F0E4264C9EF0BF0CCEF50
:101790000BF0FFFFD6EF0BF0FFFF72EF0BF0FFFF38
:1017A000D89039363A363B363C364206FFFF425037
:1017B000D8A4DDEF0BF0E0EF0BF0FFFFCFEF0BF065
:1017C000FFFF4150D8B4E7EF0BF0EAEF0BF0FFFF5B
:1017D000F3EF0BF0FFFF3C1E3B1E3A1E396C000E70
:1017E0003A223B223C22FFFF39C039F03AC03AF09E
:1017F0003BC03BF03CC03CF0FFFF1200FFFFFFFF8F
:10180000186E5BEF0CF0FFFFA40E126E000E136E4D
:101810001D0E146EE3EC10F08AEF0CF0FFFF5C0E6F
:10182000126E010E136E280E146EE3EC10F08AEFA8
:101830000CF0FFFF840E126E010E136E270E146E55
:10184000E3EC10F08AEF0CF0FFFF340E126E010E85
:10185000136E280E146EE3EC10F08AEF0CF0FFFF0D
:10186000840E126E000E136E200E146EE3EC10F058
:101870008AEF0CF0FFFF000E126E010E136E340E95
:10188000146EE3EC10F08AEF0CF0FFFFAB0E126E5B
:10189000010E136E260E146EE3EC10F08AEF0CF0BE
:1018A000FFFFC10E126E000E136E170E146EE3ECE6
:1018B00010F08AEF0CF0FFFF1850166E176A1750E1
:1018C000000AD8B466EF0CF08AEF0CF0FFFF165058
:1018D000010AD8B403EF0CF0030AD8B40EEF0CF0F1
:1018E000010AD8B419EF0CF0070AD8B424EF0CF0B1
:1018F000010AD8B42FEF0CF0030AD8B43AEF0CF079
:10190000010AD8B445EF0CF00F0AD8B450EF0CF030
:101910008AEF0CF0FFFF1200FFFFFFFF076EE9EFF9
:101920000CF0FFFFA40E016E000E026E1D0E036E82
:101930000AEC11F018EF0DF0FFFF5C0E016E010EC6
:10194000026E280E036E0AEC11F018EF0DF0FFFF87
:10195000840E016E010E026E270E036E0AEC11F06A
:1019600018EF0DF0FFFF340E016E010E026E280E0F
:10197000036E0AEC11F018EF0DF0FFFF840E016EFC
:10198000000E026E200E036E0AEC11F018EF0DF03F
:10199000FFFF000E016E010E026E340E036E0AECA4
:1019A00011F018EF0DF0FFFFAB0E016E010E026E8D
:1019B000260E036E0AEC11F018EF0DF0FFFFC10EBA
:1019C000016E000E026E170E036E0AEC11F018EF96
:1019D0000DF0FFFF0750056E066A0650000AD8B4E6
:1019E000F4EF0CF018EF0DF0FFFF0550010AD8B42A
:1019F00091EF0CF0030AD8B49CEF0CF0010AD8B4B4
:101A0000A7EF0CF0070AD8B4B2EF0CF0010AD8B473
:101A1000BDEF0CF0030AD8B4C8EF0CF0010AD8B43B
:101A2000D3EF0CF00F0AD8B4DEEF0CF018EF0DF086
:101A3000FFFF1200FFFFFFFF020E126E010E4DECC2
:101A400010F0CA84000E5C6E000E5B6EC80E686EED
:101A5000D58E0CEC12F05EEF0DF0FFFF5B505C10CA
:101A6000D8B435EF0DF038EF0DF0FFFF40EF0DF07B
:101A7000FFFF8B94000E5C6E060E5B6E74EF0DF034
:101A8000FFFF8B84FFFF8DEC11F012501310D8B4C0
:101A90004CEF0DF04FEF0DF0FFFF42EF0DF0FFFFA9
:101AA0008B94FFFF8DEC11F012501310D8B45BEF44
:101AB0000DF05EEF0DF0FFFF51EF0DF0FFFFC3ECF7
:101AC00011F012501310D8B468EF0DF06BEF0DF059
:101AD000FFFF2DEF0DF0FFFF83BE71EF0DF074EFF0
:101AE0000DF0FFFF2DEF0DF0FFFF08EC12F0DAEC28
:101AF00011F0D59ECA94000ED76E000ED66E000E61
:101B0000CC6EE4EC11F083AE88EF0DF08BEF0DF0AE
:101B1000FFFF90EF0DF0FFFF000E5C6E020E5B6E9C
:101B2000FFFF5B501200FFFFFFFF020E126E010E5F
:101B30004DEC10F0CA84000E5C6E000E5B6EC80E99
:101B4000686ED58E0CEC12F0D7EF0DF0FFFF5B50F6
:101B50005C10D8B4AEEF0DF0B1EF0DF0FFFFB9EFB0
:101B60000DF0FFFF8B94000E5C6E060E5B6EEDEFCA
:101B70000DF0FFFF8B84FFFF8DEC11F0125013105E
:101B8000D8B4C5EF0DF0C8EF0DF0FFFFBBEF0DF0BF
:101B9000FFFF8B94FFFF8DEC11F012501310D8B49F
:101BA000D4EF0DF0D7EF0DF0FFFFCAEF0DF0FFFF00
:101BB000C9EC11F012501310D8B4E1EF0DF0E4EFBE
:101BC0000DF0FFFFA6EF0DF0FFFF83BEEAEF0DF073
:101BD000EDEF0DF0FFFFA6EF0DF0FFFF08EC12F0A8
:101BE000DFEC11F0D59ECA94000ED76E000ED66EB3
:101BF000000ECC6EE4EC11F083AE01EF0EF004EFBA
:101C00000EF0FFFF09EF0EF0FFFF000E5C6E020EFC
:101C10005B6EFFFF5B501200FFFFFFFF156E5AEF78
:101C20000EF0FFFF15C013F0010E1316133A134602
:101C300089501318DF0B1318896E15C013F0020EAC
:101C400013168A501318FE0B13188A6E75EF0EF0D8
:101C5000FFFF15C013F0010E1316133A1346134677
:101C60008A501318BF0B13188A6E15C013F0020E9A
:101C70001316133213328A5013187F0B13188A6EFF
:101C800075EF0EF0FFFF15C013F0010E1316133A97
:101C90008B501318EF0B13188B6E15C013F0020E38
:101CA0001316133A13468B501318DF0B13188B6E51
:101CB00075EF0EF0FFFF1250136E146A1450000AF5
:101CC000D8B465EF0EF075EF0EF0FFFF1350000A69
:101CD000D8B411EF0EF0010AD8B428EF0EF0030AC1
:101CE000D8B442EF0EF075EF0EF0FFFF1200FFFFC9
:101CF0004572726F722C2074696D6520657863651A
:101D00006564656420746F2072656163682074681F
:101D10006520656E64206F6620746865205A2041D6
:101D2000786973004572726F722C2074696D65203A
:101D3000657863656564656420746F2072656163AE
:101D4000682074686520706F696E74004572726FE8
:101D5000722C206E6F206F626A6563742072656CEE
:101D600065766174656420616C6F6E67205A2041EE
:101D7000786973004572726F722C2074696D6520EA
:101D8000657863656564656420746F20726573654A
:101D90007420706F736974696F6E00466174616C52
:101DA000204572726F722C20706C656173652072B1
:101DB0006573657420746865206465766963652160
:011DC0000022
:101DC200FFFF0001F76FAC0E246EFF0E256EB30EFF
:101DD200266E3D0E276E0001F751126E136A146AC9
:101DE200156A010E65EC06F012C020F013C021F056
:101DF20014C022F015C023F008EC03F020C039F023
:101E020021C03AF022C03BF023C03CF064EC0BF05E
:101E120039C0F8F03AC0F9F0000E0001FA6F27EF6E
:101E22000FF0FFFFC30E8C16FA51030BF46FF56B24
:101E3200800EF425D96E000EF521DA6EDF50F66FB2
:101E4200D890F637D890F6358C12FA2BFFFFFA515C
:101E5200F46FF56BF851F45DF551800AF66FF951A4
:101E6200800AF659D8A038EF0FF03BEF0FF0FFFFD2
:101E720012EF0FF0FFFF1200FFFFFFFF020E126EC4
:101E8200000E4DEC10F0CA84000E5C6E000E5B6E0C
:101E9200C80E686ED58E7FEF0FF0FFFF5B505C10AF
:101EA200D8B456EF0FF059EF0FF0FFFF61EF0FF0CC
:101EB200FFFF8B94000E5C6E060E5B6E88EF0FF0D8
:101EC200FFFF8B84FFFF8DEC11F012501310D8B47A
:101ED2006DEF0FF070EF0FF0FFFF63EF0FF0FFFFFA
:101EE2008B94FFFF8DEC11F012501310D8B47CEFDD
:101EF2000FF07FEF0FF0FFFF72EF0FF0FFFF84A4F0
:101F020085EF0FF088EF0FF0FFFF4EEF0FF0FFFFAE
:101F1200D59ECA94000ED76E000ED66E000ECC6E01
:101F2200E4EC11F05B501200FFFFF00EF66E1C0E97
:101F3200F76E000EF86E01EE00F010EED1F009001F
:101F4200F5CFEEFFE550E150FAE16E0EF66E210E8E
:101F5200F76E000EF86E00EE80F010EE58F00900F9
:101F6200F5CFEEFFE550E150FAE1400EF66E240E99
:101F7200F76E000EF86E00EE69F010EE05F0090043
:101F8200F5CFEEFFE550E150FAE100EED8F01C0E7D
:101F9200EE6AE806FDE100EE45F0240EEE6AE80680
:101FA200FDE16E906E92000EF86E00014FEF09F0A7
:101FB200FFFF156EF5EF0FF0FFFF15B002D08A9408
:101FC20001D08A8410EF10F0FFFF15B002D08B9081
:101FD20001D08B8010EF10F0FFFF15B002D08C9073
:101FE20001D08C8010EF10F0FFFF1250136E146AB4
:101FF2001450000AD8B400EF10F010EF10F0FFFFF9
:102002001350000AD8B4DDEF0FF0010AD8B4E5EF9F
:102012000FF0030AD8B4EDEF0FF010EF10F0FFFF4E
:102022001200FFFFFFFF156E2FEF10F0FFFF15B03C
:1020320002D0899601D089864AEF10F0FFFF15B0D1
:1020420002D08A9A01D08A8A4AEF10F0FFFF15B0B7
:1020520002D08B9601D08B864AEF10F0FFFF125010
:10206200136E146A1450000AD8B43AEF10F04AEF13
:1020720010F0FFFF1350000AD8B417EF10F0010A56
:10208200D8B41FEF10F0030AD8B427EF10F04AEFCC
:1020920010F0FFFF1200FFFFFFFF156E69EF10F057
:1020A200FFFF15B002D0899201D0898284EF10F02F
:1020B200FFFF15B002D08A9601D08A8684EF10F015
:1020C200FFFF15B002D08B9201D08B8284EF10F00B
:1020D200FFFF1250136E146A1450000AD8B474EF42
:1020E20010F084EF10F0FFFF1350000AD8B451EF44
:1020F20010F0010AD8B459EF10F0030AD8B461EF16
:1021020010F084EF10F0FFFF1200FFFFFFFF000E40
:10211200146EFFFF1450126E136AD89012361336E3
:10212200D89012361336DC0E1224D96E000E13200C
:10213200DA6E1450040DD80EF324E16E000EF42072
:10214200E26EDECFE6FFDECFE6FFDECFE6FFDECFDA
:10215200E6FF142A030E1464B1EF10F0B4EF10F08E
:10216200FFFF8AEF10F0FFFF1200FFFF0903060CCA
:102172004572726F722C20706F696E74206F757465
:102182007369646520626F756E646172696573005C
:102192004572726F722C2066656564206C696E658B
:1021A200206E6F7420646566696E656400436F6DAE
:1021B2006D616E64206E6F74207265636F676E6905
:1021C2007A656400FFFF010E156EFCEF10F0FFFF51
:1021D20012C0D9FF13C0DAFFDF50AD6EFFFFACA211
:1021E200F5EF10F0F8EF10F0FFFFEFEF10F0FFFF48
:1021F200124A132A152AFFFF1450155CD8A004EFC7
:1022020011F007EF11F0FFFFE8EF10F0FFFF1200EF
:10221200FFFFFFFF010E046E23EF11F0FFFF01C06D
:10222200D9FF02C0DAFFDF50AD6EFFFFACA21CEF98
:1022320011F01FEF11F0FFFF16EF11F0FFFF014A3F
:10224200022A042AFFFF0350045CD8A02BEF11F0EE
:102252002EEF11F0FFFF0FEF11F0FFFF1200FFFF53
:10226200FFFFF2BE37EF11F03AEF11F0FFFF3CEF44
:1022720011F0FFFFF28EFFFFF2BC42EF11F045EFCB
:1022820011F0FFFF47EF11F0FFFFF28CFFFFD08E3E
:10229200F28A9D829D8A1200FFFFFFFFC150F00B60
:1022A2000609C16ED10E9216020E9316C00E941636
:1022B200C00E9516968096829684958E1200FFFF28
:1022C200FFFFC2503F0B4009C26EC18CC70EC2163F
:1022D200C294C290C19EC150F00B0E09C16E9D8C7A
:1022E2009F8C1200FFFFFFFF949C948EAC9CAC8AE3
:1022F200AC98AC94AB8EAB9CAB98AB96190EAF6E10
:102302001200FFFFFFFFCA94030ECA1212C055F05B
:1023120013C056F01200FFFFFFFF66C014F0000E5C
:10232200666E14C012F0136A1200FFFFFFFFD59E03
:10233200D59CD59AD586070ED5121200FFFFFFFF56
:10234200EC0E126E000E136E1200FFFFFFFFD80E8E
:10235200126E000E136E1200FFFFFFFF000E5C6E86
:10236200000E5B6E1200FFFFFFFF000E5C6E010E9F
:102372005B6E1200FFFFFFFF55C001F056C002F076
:102382001200FFFFFFFF64C012F0136A1200FFFF8A
:10239200FFFF65C012F0136A1200FFFFFFFF67C064
:1023A20012F0136A1200FFFFFFFF000E5F6E1200B1
:1023B200FFFFFFFF000E646E1200FFFFFFFF000E23
:1023C200656E1200FFFFFFFF000E676E1200FFFF37
:1023D200FFFF010E666E1200FFFFFFFF010E656E2A
:1023E2001200FFFFFFFF010E646E1200FFFFFFFFEE
:1023F20061061200FFFFFFFF61501200FFFFFFFFA7
:102402005F501200FFFFFFFF60501200FFFFFFFF4F
:10241200C2901200FFFFFFFFC2801200FFFFFFFF0A
:102422008C921200FFFFFFFF8C821200FFFFFFFF62
:1024320068501200FFFFFFFF672A1200FFFFE80348
:03244200E80305A7
:02244600FFFF96
:020000040020DA
:08000000FFFFFFFFFFFFFFFF00
:020000040030CA
:0E000000FF210D0EFF0080FF0FC00FE00F402C
:00000001FF
