:020000040000FA
:0600000000F0D2EF00F059
:10000800FFFF6E82D9CF0DF0DACF0EF0F3CF0FF0ED
:10001800F4CF10F0F2A413EF00F016EF00F0FFFF9A
:100028002CEF00F0FFFFF294632A9CEC12F00B6EA9
:100038000B50635CD8A023EF00F026EF00F0FFFF21
:100048002CEF00F0FFFFD59E000E636E44EC12F01B
:10005800FFFF9EA032EF00F035EF00F0FFFF45EF05
:1000680000F0FFFF9E90A4EC12F00009D8B43FEF17
:1000780000F042EF00F0FFFF45EF00F0FFFF1FEC3C
:1000880012F0FFFF9EA24BEF00F04EEF00F0FFFFD3
:1000980080EF00F0FFFF9E92514A522A4BEC12F07B
:1000A8005150015C52500258D8B05DEF00F060EF3B
:1000B80000F0FFFF80EF00F0FFFF000E526E000E11
:1000C800516E622A6250D8B46CEF00F06FEF00F006
:1000D800FFFF7DEF00F0FFFF62B075EF00F078EFF3
:1000E80000F0FFFF7DEF00F0FFFF000E626EA0EC56
:1000F80012F0FFFF7DEC12F0FFFF9EAC86EF00F0E0
:1001080089EF00F0FFFFB6EF00F0FFFF9E9CC3CF22
:1001180053F0546AC4500C6E0B6A0B5053120C50B7
:1001280054125304040E5458D8A09DEF00F0A0EFC9
:1001380000F0FFFFA7EF00F0FFFF82EC12F087EC62
:1001480012F0B6EF00F0FFFF5304020E5458D8A087
:10015800B0EF00F0B3EF00F0FFFFB6EF00F0FFFFE5
:1001680082EC12F0FFFF9EAABCEF00F0BFEF00F098
:10017800FFFFC6EF00F0FFFF9E9AAECF11F01150BF
:10018800DBEC0BF0FFFF10C0F4FF0FC0F3FF0EC055
:10019800DAFF0DC0D9FF6E921100FFFF9DEF10F03E
:1006000000ACFFB33D000400021E961E641E32C8FB
:100610003C00FFFF2350800B306E23502324376EA5
:1006200022AE15EF03F018EF03F0FFFF1AEF03F00F
:10063000FFFF3780FFFF3750D8B421EF03F024EFDE
:1006400003F0FFFF3DEF03F0FFFF3728D8A42BEFA7
:1006500003F02EEF03F0FFFF37EF03F0FFFF000E74
:10066000206E000E216E000E226E000E236EFFFF24
:10067000228E000E236E46EF03F0FFFF000E206E69
:10068000000E216E000E226E000E236EFFFF27501B
:10069000800B301A27502724386E26AE52EF03F015
:1006A00055EF03F0FFFF57EF03F0FFFF3880FFFF28
:1006B0003850D8B45EEF03F061EF03F0FFFF7AEF3C
:1006C00003F0FFFF3828D8A468EF03F06BEF03F0C6
:1006D000FFFF74EF03F0FFFF000E246E000E256E87
:1006E000000E266E000E276EFFFF268E000E276E70
:1006F00083EF03F0FFFF000E246E000E256E000E48
:10070000266E000E276EFFFF24502510261027109E
:10071000D8A48DEF03F090EF03F0FFFFAAEF03F0F2
:10072000FFFF000E206E000E216E000E226E000EE6
:10073000236E800E22127F0E2312FFFF30502312F1
:1007400020C020F021C021F022C022F023C023F0DD
:100750001FEF05F0FFFF3750D8A4B1EF03F0B4EF5F
:1007600003F0FFFFBFEF03F0FFFF000E206E000E4F
:10077000216E000E226E000E236E1FEF05F0FFFFAC
:10078000385037C028F0296A285E000E295A7F0E9B
:100790002824316E000E2920326E20C02CF021C09A
:1007A0002DF022C02EF023C02FF0000E206E000E80
:1007B000216E000E226E000E236E000E336E000EB0
:1007C000346E000E356E000E366E000E386E2BEF56
:1007D00004F0FFFF3850D8B4F0EF03F0F3EF03F06C
:1007E000FFFF0EEF04F0FFFFD8902C362D362E368B
:1007F0002F36D890203621362236233636AE03EFF8
:1008000004F006EF04F0FFFF08EF04F0FFFF208084
:10081000FFFFD8903336343635363636FFFF245056
:100820002C5C25502D5826502E5827502F58D8A0D4
:100830001CEF04F01FEF04F0FFFF29EF04F0FFFFAF
:10084000368C24502C5E25502D5A26502E5A275077
:100850002F5AFFFF382AFFFF190E386432EF04F0D9
:1008600035EF04F0FFFFE9EF03F0FFFF2C502D10F0
:100870002E102F10D8B43FEF04F042EF04F0FFFF2A
:100880005FEF04F0FFFF33805FEF04F0FFFFD890CD
:10089000203621362236233636AE51EF04F054EF9F
:1008A00004F0FFFF56EF04F0FFFF2080FFFFD89019
:1008B00033363436353636363106D8A03206FFFFA9
:1008C00022AE65EF04F068EF04F0FFFF46EF04F09E
:1008D000FFFF000E386E36AE70EF04F073EF04F0D9
:1008E000FFFF9EEF04F0FFFFFF0E3314286EFF0E94
:1008F0003414296EFF0E35142A6E7F0E36142B6EBB
:10090000285029102A102B10D8B489EF04F08CEF4E
:1009100004F0FFFF92EF04F0FFFFFFFF010E386EBF
:100920009EEF04F0FFFF20A098EF04F09BEF04F08F
:10093000FFFF9EEF04F0FFFF8DEF04F0FFFF385044
:10094000D8B4A5EF04F0A8EF04F0FFFFCFEF04F058
:10095000FFFF010E2026000E21222222232223A0A7
:10096000B4EF04F0B7EF04F0FFFFCFEF04F0FFFFA8
:1009700020C028F021C029F022C02AF023C02BF08B
:100980002B342B322A322932283228C020F029C0B9
:1009900021F02AC022F02BC023F0314A322AFFFF77
:1009A00032BEDBEF04F0325009E13128D8A0DBEF92
:1009B00004F0DEEF04F0FFFFEAEF04F0FFFF000EAB
:1009C000326E3168000E206E000E216E000E226E17
:1009D000000E236EFFFF32BEF9EF04F0325006E145
:1009E0003104D8B0F6EF04F0F9EF04F0FFFF08EFA0
:1009F00005F0FFFF000E326E000E316E000E206E0D
:100A0000000E216E000E226E000E236E000E306E60
:100A1000FFFF31C037F037A010EF05F013EF05F0FE
:100A2000FFFF17EF05F0FFFF228E19EF05F0FFFF24
:100A3000229EFFFFD8903730236E9DEF03F0FFFF1B
:100A40001200FFFFFFFF1A5007E1CA0E195CD8B071
:100A50002CEF05F02FEF05F0FFFF3CEF05F0FFFF57
:100A60001C500AE1CA0E1B5CD8A039EF05F03CEF20
:100A700005F0FFFF40EF05F0FFFF050EDCEF06F08D
:100A8000FFFF1550195C1D6E16501A581E6E1EBEC3
:100A900052EF05F01E5009E11D04D8A052EF05F0F9
:100AA00055EF05F0FFFF5CEF05F0FFFF010E686EEC
:100AB000010E1F6E60EF05F0FFFF6868000E1F6EED
:100AC000FFFF17501B5C1D6E18501C581E6E1EBE7B
:100AD00072EF05F01E5009E11D04D8A072EF05F079
:100AE00075EF05F0FFFF7CEF05F0FFFF010E6A6E6A
:100AF000010E206E80EF05F0FFFF6C68000E206E87
:100B0000FFFF010E216E010E226ECA84000E5A6E86
:100B1000000E596E640E666ED58EBCEF06F0FFFFB8
:100B200059505A10D8B497EF05F09AEF05F0FFFF2F
:100B3000A1EF05F0FFFF000E5A6E040E596ED0EFC4
:100B400006F0FFFF1F04D8A4A8EF05F0ABEF05F0F7
:100B5000FFFFEAEF05F0FFFF5EEC12F015501226E2
:100B6000165013221950125C1A501358D8A0BBEF1C
:100B700005F0BEEF05F0FFFFC4EF05F0FFFFFFFF3C
:100B8000000E216E28EF06F0FFFF2150D8B4CBEF06
:100B900005F0CEEF05F0FFFF28EF06F0FFFF6850ED
:100BA00067266750800A7C0FD8A0D9EF05F0DCEFEC
:100BB00005F0FFFFDFEF05F0FFFF000E676EFFFFA0
:100BC0008C0E6724D96EDA6A000EDA22DF50896E45
:100BD00028EF06F0FFFF1F50D8A4F1EF05F0F4EF67
:100BE00005F0FFFF28EF06F0FFFF5EEC12F015C0E6
:100BF0001DF016C01EF012501D5E13501E5A1D50DF
:100C0000195C1E501A58D8A008EF06F00BEF06F03A
:100C1000FFFF0EEF06F0FFFFBFEF05F0FFFF2150D3
:100C2000D8B415EF06F018EF06F0FFFF28EF06F036
:100C3000FFFF6850672667BE23EF06F020EF06F03F
:100C4000FFFFDFEF05F0FFFF030E676EDFEF05F03C
:100C5000FFFF2004D8A42FEF06F032EF06F0FFFFCD
:100C600071EF06F0FFFF5EEC12F0175012261850DD
:100C700013221B50125C1C501358D8A042EF06F0F0
:100C800045EF06F0FFFF4BEF06F0FFFFFFFF000E02
:100C9000226EAFEF06F0FFFF2250D8B452EF06F0FD
:100CA00055EF06F0FFFFAFEF06F0FFFF6A50692631
:100CB0006950800A7C0FD8A060EF06F063EF06F061
:100CC000FFFF66EF06F0FFFF000E696EFFFF880E64
:100CD0006924D96EDA6A000EDA22DF508A6EAFEF2D
:100CE00006F0FFFF2050D8A478EF06F07BEF06F067
:100CF000FFFFAFEF06F0FFFF5EEC12F017C01DF034
:100D000018C01EF012501D5E13501E5A1D501B5C61
:100D10001E501C58D8A08FEF06F092EF06F0FFFF90
:100D200095EF06F0FFFF46EF06F0FFFF2250D8B424
:100D30009CEF06F09FEF06F0FFFFAFEF06F0FFFF1E
:100D40006A50692669BEAAEF06F0A7EF06F0FFFF1A
:100D500066EF06F0FFFF030E696E66EF06F0FFFF19
:100D60000CEC12F012501310D8B4B9EF06F0BCEF2F
:100D700006F0FFFFAFEF06F0FFFF2150D8A4C3EF4E
:100D800006F0C6EF06F0FFFF8FEF05F0FFFF2250E1
:100D9000D8A4CDEF06F0D0EF06F0FFFF8FEF05F0FF
:100DA000FFFFD59ECA94000ED76E000ED66E000EC1
:100DB000CC6E78EC12F05950FFFF1200FFFFFFFFDE
:100DC00036EC12F012C0EFF013C0F0F091EF07F024
:100DD000FFFF4CC015F0166A4DC017F0186A0D0ED3
:100DE000F66E060EF76E0800FFFFF550196E1A6AD0
:100DF0000E0EF66E060EF76E0800FFFFF5501B6E26
:100E00001C6A22EC05F00001F16F0D0EF66E060E65
:100E1000F76E0800FFFFF5CF4CF00E0EF66E060ED3
:100E2000F76E0800FFFFF5CF4DF0B5EF07F0FFFFBD
:100E30004CC015F0166A4DC017F0186A0B0EF66E0E
:100E4000060EF76E0800FFFFF550196E1A6A0C0EB9
:100E5000F66E060EF76E0800FFFFF5501B6E1C6A5B
:100E600022EC05F00001F16F0B0EF66E060EF76E28
:100E70000800FFFFF5CF4CF00C0EF66E060EF76E75
:100E80000800FFFFF5CF4DF0B5EF07F0FFFF4CC0B6
:100E900015F0166A4DC017F0186A090EF66E060EA8
:100EA000F76E0800FFFFF550196E1A6A0A0EF66E0B
:100EB000060EF76E0800FFFFF5501B6E1C6A22EC51
:100EC00005F00001F16F090EF66E060EF76E0800D0
:100ED000FFFFF5CF4CF00A0EF66E060EF76E080017
:100EE000FFFFF5CF4DF0B5EF07F0FFFF4CC015F059
:100EF000166A4DC017F0186A55C019F01A6A56C024
:100F00001BF01C6A22EC05F00001F16F55C04CF09B
:100F100056C04DF0B5EF07F0FFFF010EF16FB5EFD2
:100F200007F0FFFFEFC0D9FFF0C0DAFFDF5000018C
:100F3000ED6FEE6BEE51000AD8B4A1EF07F08CEF25
:100F400007F0FFFFED51000AD8B4E8EF06F0010A00
:100F5000D8B417EF07F0030AD8B446EF07F0FD0A3C
:100F6000D8B475EF07F08CEF07F0FFFFF151D8A46C
:100F7000BCEF07F0BFEF07F0FFFFCDEF07F0FFFF7B
:100F80004FEC0EF00001F16FF151D8B4CAEF07F049
:100F9000CDEF07F0FFFFD1EF07F0FFFFF1515CEF5E
:100FA00008F0FFFFB7EC11F042EC10F00001F16F18
:100FB000F151D8B4DEEF07F0E1EF07F0FFFFE4EF07
:100FC00007F0FFFFCDEF07F0FFFF4CC015F0166AEA
:100FD0004DC017F0186A20EE01F0EF51D926F051FC
:100FE000DA22DF50ED6FED51196E1A6A20EE02F031
:100FF000EF51D926F051DA22DF50EE6FEE511B6E21
:101000001C6A22EC05F00001F16FF151D8B40BEF2E
:1010100008F00EEF08F0FFFF11EF08F0FFFFCDEF33
:1010200007F0FFFF20EE01F0EF51D926F051DA2250
:10103000DF504C6E20EE02F0EF51D926F051DA224B
:10104000DF504D6E20EE03F0EF51D926F051DA2239
:10105000DF50ED6F5750ED5D576E5850D8A05828AF
:10106000586A585E58BE3AEF08F037EF08F0FFFFB5
:101070003FEF08F0FFFF680E5726010E5822FFFFD2
:101080005750D5EC0FF0D5EC0EF00001F16FF15197
:10109000D8B44DEF08F050EF08F0FFFF53EF08F021
:1010A000FFFFCDEF07F0FFFFA1EC11F042EC10F0D5
:1010B0000001F16FCDEF07F0FFFF1200FFFFFFFF10
:1010C0001A6E1A50D8B467EF08F06AEF08F0FFFF05
:1010D0008FEF08F0FFFF15BE73EF08F070EF08F018
:1010E000FFFF8FEF08F0FFFF12C016F013C017F0DC
:1010F00014C018F015C019F0161E171E181E191E60
:10110000162A000E17221822192216C01CF017C02A
:101110001DF018C01EF019C01FF098EF08F0FFFF77
:1011200012C01CF013C01DF014C01EF015C01FF03B
:10113000FFFF1250131014101510D8A4A2EF08F0DE
:10114000A5EF08F0FFFFB0EF08F0FFFF000E126EF2
:10115000000E136E000E146E000E156E58EF09F09F
:10116000FFFF960E1B6EBCEF08F0FFFF1B2AD89006
:101170001F321E321D321C32FFFF000E1C14166E71
:10118000000E1D14176E000E1E14186EFE0E1F1496
:10119000196E1650171018101910D8A4D2EF08F0B5
:1011A000D5EF08F0FFFFB5EF08F0FFFFE5EF08F01F
:1011B000FFFF1B2A010E1C26000E1D221E221F22CD
:1011C000D8901F321E321D321C32FFFF000E1C143D
:1011D000166E000E1D14176E000E1E14186EFF0EF4
:1011E0001F14196E1650171018101910D8A4FBEF01
:1011F00008F0FEEF08F0FFFFD8EF08F0FFFF08EF60
:1012000009F0FFFF1B06D8901C361D361E361F3610
:10121000FFFF1EBE0EEF09F011EF09F0FFFF1BEFFD
:1012200009F0FFFF020E1B6018EF09F01BEF09F039
:10123000FFFF01EF09F0FFFF1BB021EF09F024EFE2
:1012400009F0FFFF26EF09F0FFFF1E9EFFFFD89079
:101250001B321BC016F0176A186A196A16C019F0FB
:10126000186A176A166A16501C1217501D12185069
:101270001E1219501F121A50D8B441EF09F044EF52
:1012800009F0FFFF4FEF09F0FFFF15BE4DEF09F02A
:101290004AEF09F0FFFF4FEF09F0FFFF1F8EFFFF3E
:1012A0001CC012F01DC013F01EC014F01FC015F0BA
:1012B000FFFF1200FFFFFFFF68686A686C68010E9D
:1012C000156E010E166E010E176ECA84000E5A6E50
:1012D000000E596E640E666ED58E1DEF0AF0FFFF8C
:1012E00078EC12F059505A10D8B479EF09F07CEF2D
:1012F00009F0FFFF83EF09F0FFFF000E5A6E030EA7
:10130000596E3BEF0AF0FFFF84B089EF09F08CEFD4
:1013100009F0FFFF96EF09F0FFFF1550D8A493EFF7
:1013200009F096EF09F0FFFF9BEF09F0FFFF000EB9
:10133000156EB2EF09F0FFFF6850672667BEA6EF93
:1013400009F0A3EF09F0FFFFA9EF09F0FFFF030E7B
:10135000676EFFFF8C0E6724D96EDA6A000EDA2200
:10136000DF50896EFFFF84B2B8EF09F0BBEF09F0E0
:10137000FFFFC5EF09F0FFFF1650D8A4C2EF09F038
:10138000C5EF09F0FFFFCAEF09F0FFFF000E166E70
:10139000E1EF09F0FFFF6A50692669BED5EF09F059
:1013A000D2EF09F0FFFFD8EF09F0FFFF030E696EDF
:1013B000FFFF880E6924D96EDA6A000EDA22DF5048
:1013C0008A6EFFFF84B4E7EF09F0EAEF09F0FFFF50
:1013D000F4EF09F0FFFF1750D8A4F1EF09F0F4EF94
:1013E00009F0FFFFF9EF09F0FFFF000E176E10EF95
:1013F0000AF0FFFF6C506B266BBE04EF0AF001EFA2
:101400000AF0FFFF07EF0AF0FFFF030E6B6EFFFF0E
:10141000840E6B24D96EDA6A000EDA22DF508B6EEE
:10142000FFFF0CEC12F012501310D8B41AEF0AF0B0
:101430001DEF0AF0FFFF10EF0AF0FFFF1550D8A4D0
:1014400024EF0AF027EF0AF0FFFF6FEF09F0FFFF2C
:101450001650D8A42EEF0AF031EF0AF0FFFF6FEF1D
:1014600009F0FFFF1750D8A438EF0AF03BEF0AF05D
:10147000FFFF6FEF09F0FFFFD59ECA94000ED76EF5
:10148000000ED66E000ECC6E78EC12F059501200A1
:10149000FFFFFFFF83EC11F0CDEC11F0E0EC11F059
:1014A000F3EC11F016EC12F028EC12F0000E136EB3
:1014B0000A0E126E02EC12F05BEC09F00001F46F00
:1014C000F451D8B466EF0AF069EF0AF0FFFF70EF4D
:1014D0000AF0FFFFF45133EC0DF0FFFF6DEF0AF05F
:1014E000FFFFAB88FFFF94EC12F00009D8B47BEF4C
:1014F0000AF07EEF0AF0FFFF00EF0BF0FFFF2FEC8A
:1015000012F012C0F5F013C0F6F0000120EE02F068
:10151000F551D926F651DA22DF50556E20EE03F050
:10152000F551D926F651DA22DF50566EAB9820EEEF
:1015300005F0F551D926F651DA223D0EDF60A3EF12
:101540000AF0A6EF0AF0FFFFB6EF0AF0FFFF20EE69
:1015500006F0F551D926F651DA22C80EDF64B3EF52
:101560000AF0B6EF0AF0FFFFBBEF0AF0FFFF050E2F
:10157000F46FCFEF0AF0FFFF20EE05F0F551D9260A
:10158000F651DA22DF501EEC0BF0000120EE06F0DF
:10159000F551D926F651DA22DF501EEC0BF0FFFF91
:1015A0000001F451D8A4D7EF0AF0DAEF0AF0FFFFF8
:1015B000F8EF0AF0FFFF000E1EEC0BF0FF0E1EEC22
:1015C0000BF0000120EE04F0F551D926F651DA2295
:1015D000DF50F26F20EE07F0F551D926F651DA22EE
:1015E000DF50F36FF251F35D1EEC0BF0FCEF0AF0ED
:1015F000FFFFF45133EC0DF0FFFFAB8864EC12F009
:10160000FFFF90EC12F00009D8B409EF0BF00CEFDB
:101610000BF0FFFF72EF0AF0FFFFDFEC06F00001B6
:10162000F46FF45133EC0DF03DEC12F08CEC12F051
:10163000E0EC10F072EF0AF0D2EF00F0FFFF1B6E4B
:10164000430E5E24D96EDA6A000EDA221BC0DFFF79
:101650005E2A3AEF0BF0FFFF050E6D6E55EF0BF0B3
:10166000FFFF090E6D6E55EF0BF0FFFF010E6D6E63
:1016700055EF0BF0FFFF4350196E1A6A1A50000A1B
:10168000D8B445EF0BF055EF0BF0FFFF1950000AEF
:10169000D8B42BEF0BF0010AD8B430EF0BF0030AEB
:1016A000D8B435EF0BF055EF0BF0FFFF6D505E5CDB
:1016B000D8A05DEF0BF060EF0BF0FFFFD8EF0BF061
:1016C000FFFF000E5E6EBDEF0BF0FFFF6150040DDB
:1016D000CA0EF324D96E000EF420DA6E44C0DFFF88
:1016E0006150040DCB0EF324D96E000EF420DA6E97
:1016F00045500A0DF3CFDFFF6150040DCC0EF324EB
:10170000D96E000EF420DA6E46500A0DF3CFDFFFDB
:101710006150040DCD0EF324D96E000EF420DA6E64
:1017200047C0DFFF612AD8EF0BF0FFFF44C0DEF0B7
:1017300045C0DFF046500A0DF3CFE0F047500A0DE8
:10174000F3CFE1F048C0E2F049500A0DF3CFE3F0E7
:101750004A500A0DF3CFE4F04BC0E5F0010E5F6E86
:10176000D8EF0BF0FFFF010E606ED8EF0BF0FFFF1C
:10177000080E33EC0DF0D8EF0BF0FFFF4350196E5D
:101780001A6A1A50000AD8B4C8EF0BF0B7EF0BF082
:10179000FFFF1950000AD8B465EF0BF0010AD8B466
:1017A00095EF0BF0030AD8B4B2EF0BF0B7EF0BF0E4
:1017B000FFFF1200FFFFFFFF0A6E430E5E24D96E8B
:1017C000DA6A000EDA220AC0DFFF5E2AF7EF0BF0BA
:1017D000FFFF050E6D6E12EF0CF0FFFF090E6D6E30
:1017E00012EF0CF0FFFF010E6D6E12EF0CF0FFFF19
:1017F0004350086E096A0950000AD8B402EF0CF091
:1018000012EF0CF0FFFF0850000AD8B4E8EF0BF01D
:10181000010AD8B4EDEF0BF0030AD8B4F2EF0BF0E5
:1018200012EF0CF0FFFF6D505E5CD8A01AEF0CF0C9
:101830001DEF0CF0FFFF95EF0CF0FFFF000E5E6E4A
:101840007AEF0CF0FFFF6150040DCA0EF324D96E3D
:10185000000EF420DA6E44C0DFFF6150040DCB0EA1
:10186000F324D96E000EF420DA6E45500A0DF3CF42
:10187000DFFF6150040DCC0EF324D96E000EF4206E
:10188000DA6E46500A0DF3CFDFFF6150040DCD0E26
:10189000F324D96E000EF420DA6E47C0DFFF612A10
:1018A00095EF0CF0FFFF44C0DEF045C0DFF046507E
:1018B0000A0DF3CFE0F047500A0DF3CFE1F048C036
:1018C000E2F049500A0DF3CFE3F04A500A0DF3CF8E
:1018D000E4F04BC0E5F0010E5F6E95EF0CF0FFFFFA
:1018E000010E606E95EF0CF0FFFF080EC1EC0DF0DD
:1018F00095EF0CF0FFFF4350086E096A0950000A8B
:10190000D8B485EF0CF074EF0CF0FFFF0850000A1C
:10191000D8B422EF0CF0010AD8B452EF0CF0030A4D
:10192000D8B46FEF0CF074EF0CF0FFFF1200FFFF64
:10193000FFFF3B343C34426E4250D8A4A2EF0CF07F
:10194000A5EF0CF0FFFFB1EF0CF0FFFFFFFF000E63
:10195000396E000E3A6E000E3B6E000E3C6E30EF9C
:101960000DF0FFFF39C03DF03AC03EF03BC03FF004
:101970003CC040F0200EC3EF0CF0FFFFD890403287
:101980003F323E323D32FFFFE82EBDEF0CF03D50BE
:10199000416E3B8EFF0E3916FF0E3A16FF0E3B16B8
:1019A000000E3C16960E425E42BEDCEF0CF0D9EF04
:1019B0000CF0FFFFF6EF0CF0FFFF4250800A970F8C
:1019C000D8B0E5EF0CF0E8EF0CF0FFFFEBEF0CF018
:1019D000FFFFA6EF0CF0FFFFD8903C323B323A32CB
:1019E0003932423EEBEF0CF014EF0DF0FFFF1F0E0B
:1019F0004264FDEF0CF000EF0DF0FFFF0AEF0DF079
:101A0000FFFFA6EF0CF0FFFFD89039363A363B3691
:101A10003C364206FFFF4250D8A411EF0DF014EF00
:101A20000DF0FFFF03EF0DF0FFFF4150D8B41BEFA7
:101A30000DF01EEF0DF0FFFF27EF0DF0FFFF3C1E36
:101A40003B1E3A1E396C000E3A223B223C22FFFF1D
:101A500039C039F03AC03AF03BC03BF03CC03CF0F2
:101A6000FFFF1200FFFFFFFF186E8FEF0DF0FFFF6B
:101A7000940E126E000E136E1E0E146E10EC11F00A
:101A8000BEEF0DF0FFFF5E0E126E010E136E290EFB
:101A9000146E10EC11F0BEEF0DF0FFFF870E126E0A
:101AA000010E136E280E146E10EC11F0BEEF0DF047
:101AB000FFFF350E126E010E136E290E146E10EC20
:101AC00011F0BEEF0DF0FFFFD60E126E010E136E79
:101AD000210E146E10EC11F0BEEF0DF0FFFF000EA2
:101AE000126E010E136E350E146E10EC11F0BEEF77
:101AF0000DF0FFFFAF0E126E010E136E270E146E67
:101B000010EC11F0BEEF0DF0FFFFB20E126E000EE2
:101B1000136E180E146E10EC11F0BEEF0DF0FFFFF7
:101B20001850166E176A1750000AD8B49AEF0DF0C5
:101B3000BEEF0DF0FFFF1650010AD8B437EF0DF0DD
:101B4000030AD8B442EF0DF0010AD8B44DEF0DF0FE
:101B5000070AD8B458EF0DF0010AD8B463EF0DF0BE
:101B6000030AD8B46EEF0DF0010AD8B479EF0DF086
:101B70000F0AD8B484EF0DF0BEEF0DF0FFFF120096
:101B8000FFFFFFFF076E1DEF0EF0FFFF940E016ECB
:101B9000000E026E1E0E036E37EC11F04CEF0EF0CD
:101BA000FFFF5E0E016E010E026E290E036E37EC12
:101BB00011F04CEF0EF0FFFF870E016E010E026E6A
:101BC000280E036E37EC11F04CEF0EF0FFFF350ED0
:101BD000016E010E026E290E036E37EC11F04CEF10
:101BE0000EF0FFFFD60E016E010E026E210E036E87
:101BF00037EC11F04CEF0EF0FFFF000E016E010EFE
:101C0000026E350E036E37EC11F04CEF0EF0FFFF55
:101C1000AF0E016E010E026E270E036E37EC11F04F
:101C20004CEF0EF0FFFFB20E016E000E026E180EAA
:101C3000036E37EC11F04CEF0EF0FFFF0750056E0E
:101C4000066A0650000AD8B428EF0EF04CEF0EF0EA
:101C5000FFFF0550010AD8B4C5EF0DF0030AD8B450
:101C6000D0EF0DF0010AD8B4DBEF0DF0070AD8B4BD
:101C7000E6EF0DF0010AD8B4F1EF0DF0030AD8B485
:101C8000FCEF0DF0010AD8B407EF0EF00F0AD8B43C
:101C900012EF0EF04CEF0EF0FFFF1200FFFFFFFF00
:101CA000010E6C6ECA84000E5A6E000E596E320E12
:101CB000666ED58EFFFF69EC12F09DEF0EF0FFFF10
:101CC00078EC12F059505A10D8B469EF0EF06CEF5E
:101CD0000EF0FFFF73EF0EF0FFFF000E5A6E060EC0
:101CE000596EB3EF0EF0FFFF6C506B266B50800AFD
:101CF0007C0FD8A07EEF0EF081EF0EF0FFFF84EF97
:101D00000EF0FFFF000E6B6EFFFF840E6B24D96E8A
:101D1000DA6A000EDA22DF508B6EFFFF0CEC12F055
:101D200012501310D8B497EF0EF09AEF0EF0FFFF99
:101D30008DEF0EF0FFFF5AEF0EF0FFFF58EC12F0A0
:101D400012501310D8B4A7EF0EF0AAEF0EF0FFFF59
:101D50005FEF0EF0FFFF83BEB0EF0EF0B3EF0EF0BB
:101D6000FFFF5FEF0EF0FFFF98EC12F06EEC12F049
:101D7000D59ECA94000ED76E000ED66E000ECC6EA5
:101D800078EC12F073EC12F083AEC9EF0EF0CCEFEA
:101D90000EF0FFFFD1EF0EF0FFFF000E5A6E020EA5
:101DA000596EFFFF59501200FFFFFFFF010E6C6ECE
:101DB000CA84000E5A6E000E596E320E666ED58EB3
:101DC000FFFF69EC12F023EF0FF0FFFF78EC12F049
:101DD00059505A10D8B4EFEF0EF0F2EF0EF0FFFFAB
:101DE000F9EF0EF0FFFF000E5A6E060E596E39EF36
:101DF0000FF0FFFF6C506B266B50800A7C0FD8A051
:101E000004EF0FF007EF0FF0FFFF0AEF0FF0FFFFF7
:101E1000000E6B6EFFFF840E6B24D96EDA6A000E23
:101E2000DA22DF508B6EFFFF0CEC12F01250131011
:101E3000D8B41DEF0FF020EF0FF0FFFF13EF0FF0FE
:101E4000FFFFE0EF0EF0FFFF52EC12F01250131004
:101E5000D8B42DEF0FF030EF0FF0FFFFE5EF0EF0ED
:101E6000FFFF83BE36EF0FF039EF0FF0FFFFE5EF16
:101E70000EF0FFFF98EC12F073EC12F0D59ECA94AE
:101E8000000ED76E000ED66E000ECC6E78EC12F0FF
:101E900083AE4DEF0FF050EF0FF0FFFF55EF0FF057
:101EA000FFFF000E5A6E020E596EFFFF59501200CE
:101EB000FFFF4572726F722C2074696D6520657822
:101EC00063656564656420746F2072656163682072
:101ED00074686520656E64206F6620746865205A9A
:101EE00020417869730A004572726F722C20746900
:101EF0006D6520657863656564656420746F207224
:101F0000656163682074686520706F696E740A008B
:101F10004572726F722C206E6F206F626A656374F7
:101F20002072656C65766174656420616C6F6E67A4
:101F3000205A20417869730A004572726F722C2012
:101F400074696D6520657863656564656420746F88
:101F500020726573657420706F736974696F6E0A9F
:101F600000466174616C204572726F722C20706C37
:101F7000656173652072657365742074686520649B
:101F80006576696365210A004572726F722C207054
:101F90006F696E74206F75747369646520626F7504
:091FA0006E6461726965730A0048
:101FAA00FFFF0001E86FAC0E246EFF0E256EB30E24
:101FBA00266E3D0E276E0001E851126E136A146AEE
:101FCA00156A010E5FEC08F012C020F013C021F070
:101FDA0014C022F015C023F009EC03F020C039F038
:101FEA0021C03AF022C03BF023C03CF098EC0CF040
:101FFA0039C0E9F03AC0EAF0000E0001EC6F000EB9
:10200A00EB6F2EEF10F0FFFFC30E8C16030EEB15CD
:10201A00E66F000EEC15E76F800EE625D96E000E0E
:10202A00E721DA6EDF508C12CA84FFFF0CEC12F043
:10203A0012501310D8B424EF10F027EF10F0FFFF5E
:10204A001AEF10F0FFFFCA94000ECC6E0001EB4BA2
:10205A00EC2BFFFFE951EB5DEA51EC59D8A038EFC0
:10206A0010F03BEF10F0FFFF08EF10F0FFFF000E3B
:10207A00CC6E78EC12F01200FFFFFFFF6C68CA8486
:10208A00000E5A6E000E596E320E666ED58E86EFAF
:10209A0010F0FFFF78EC12F059505A10D8B458EFEC
:1020AA0010F05BEF10F0FFFF62EF10F0FFFF000E81
:1020BA005A6E060E596E8FEF10F0FFFF6C506B26AA
:1020CA006BBE6DEF10F06AEF10F0FFFF70EF10F0CB
:1020DA00FFFF030E6B6EFFFF840E6B24D96EDA6A64
:1020EA00000EDA22DF508B6EFFFF0CEC12F012505A
:1020FA001310D8B483EF10F086EF10F0FFFF79EFDA
:10210A0010F0FFFF84A48CEF10F08FEF10F0FFFFA8
:10211A004EEF10F0FFFFD59ECA94000ED76E000E48
:10212A00D66E000ECC6E78EC12F059501200FFFFFA
:10213A00B20EF66E1E0EF76E000EF86E01EE00F08D
:10214A0010EEF7F00900F5CFEEFFE550E150FAE1A5
:10215A00BC0EF66E220EF76E000EF86E00EE80F0E0
:10216A0010EE4AF00900F5CFEEFFE550E150FAE132
:10217A00500EF66E250EF76E000EF86E00EE67F042
:10218A0010EE07F00900F5CFEEFFE550E150FAE155
:10219A0000EECAF01C0EEE6AE806FDE100EE43F01E
:1021AA00240EEE6AE806FDE16E906E92000EF86E5D
:1021BA00000149EF0AF0FFFF000E146EFFFF1450F2
:1021CA00126E136AD89012361336D8901236133616
:1021DA00CE0E1224D96E000E1320DA6E1450040D9E
:1021EA00CA0EF324E16E000EF420E26EDECFE6FFA3
:1021FA00DECFE6FFDECFE6FFDECFE6FF142A030ED0
:10220A0014640AEF11F00DEF11F0FFFFE3EF10F085
:10221A00FFFF1200FFFFFFFF010E156E29EF11F0FD
:10222A00FFFF12C0D9FF13C0DAFFDF50AD6EFFFF08
:10223A00ACA222EF11F025EF11F0FFFF1CEF11F015
:10224A00FFFF124A132A152AFFFF1450155CD8A063
:10225A0031EF11F034EF11F0FFFF15EF11F0FFFF2E
:10226A001200FFFFFFFF010E046E50EF11F0FFFF97
:10227A0001C0D9FF02C0DAFFDF50AD6EFFFFACA28A
:10228A0049EF11F04CEF11F0FFFF43EF11F0FFFFA0
:10229A00014A022A042AFFFF0350045CD8A058EF1F
:1022AA0011F05BEF11F0FFFF3CEF11F0FFFF12009E
:1022BA00FFFF240C18300903060C11050C1822061E
:1022CA000C28C900C9004572726F722C20666565B8
:1022DA0064206C696E65206E6F7420646566696E31
:1022EA0065640A00436F6D6D616E64206E6F7420C1
:1022FA007265636F676E697A65640A00FFFFF2BEF2
:10230A0089EF11F08CEF11F0FFFF8EEF11F0FFFF54
:10231A00F28EFFFFF2BC94EF11F097EF11F0FFFF7E
:10232A0099EF11F0FFFFF28CFFFFD08EF28A9D80A9
:10233A009D829D8A1200FFFFFFFF8C92CA84FFFFD5
:10234A000CEC12F012501310D8B4AEEF11F0B1EF3A
:10235A0011F0FFFFA4EF11F0FFFFCA94000ECC6E3C
:10236A001200FFFFFFFF8C82CA84FFFF0CEC12F001
:10237A0012501310D8B4C4EF11F0C7EF11F0FFFFD9
:10238A00BAEF11F0FFFFCA94000ECC6E1200FFFFE5
:10239A00FFFFC150F00B0609C16ED10E9216020E54
:1023AA009316C00E9416C00E951696809682968441
:1023BA00958E1200FFFFFFFFC2503F0B4009C26E0D
:1023CA00C18CC70EC216C294C290C19EC150F00BF6
:1023DA000E09C16E9D8C9F8C1200FFFFFFFF949C1B
:1023EA00948EAC9CAC8AAC98AC94AB8EAB9CAB98FC
:1023FA00AB96190EAF6E1200FFFFFFFFCA94FC0ED8
:10240A00CA1612C04FF013C050F01200FFFFFFFFB0
:10241A005BC014F0000E5B6E14C012F0136A120057
:10242A00FFFFFFFFD59ED59CD59AD586070ED512FC
:10243A001200FFFFFFFF070EC1EC0DF0FFFF23EFB5
:10244A0012F01200FFFFFFFF300ECD12CD92CD80A9
:10245A001200FFFFFFFFDE0E126E000E136E120057
:10246A00FFFFFFFFCA0E126E000E136E1200FFFF6F
:10247A00FFFF000E5A6E000E596E1200FFFFFFFF9B
:10248A00000E5A6E010E596E1200FFFFFFFF4FC079
:10249A0001F050C002F01200FFFFFFFF64C012F00B
:1024AA00136A1200FFFFFFFF65C012F0136A1200E1
:1024BA00FFFFFFFF5CC012F0136A1200FFFFFFFF6D
:1024CA00000E5F6E1200FFFFFFFFC280C28412007F
:1024DA00FFFFFFFF000E656E1200FFFFFFFF000EF9
:1024EA00646E1200FFFFFFFF000E5C6E1200FFFF1A
:1024FA00FFFF010E5B6E1200FFFFFFFF010E656E0C
:10250A001200FFFFFFFF010E646E1200FFFFFFFFC4
:10251A0061061200FFFFFFFF61501200FFFFFFFF7D
:10252A005F501200FFFFFFFFC2901200FFFFFFFF84
:10253A0066501200FFFFFFFF5C2A1200FFFFFFFF39
:0D254A0060501200FFFF00010001000105BC
:02255800FFFF83
:020000040020DA
:08000000FFFFFFFFFFFFFFFF00
:020000040030CA
:0E000000FF210D0EFF0080FF0FC00FE00F402C
:00000001FF
