:020000040000FA
:0600000000F0CEEF00F05D
:10000800FFFF6E82D9CF0DF0DACF0EF0F3CF0FF0ED
:10001800F4CF10F0F2A413EF00F016EF00F0FFFF9A
:100028002CEF00F0FFFFF294652A6FEC13F00B6ED3
:100038000B50655CD8A023EF00F026EF00F0FFFF1F
:100048002CEF00F0FFFFD59E000E656E17EC13F045
:10005800FFFF9EA032EF00F035EF00F0FFFF45EF05
:1000680000F0FFFF9E9077EC13F00009D8B43FEF43
:1000780000F042EF00F0FFFF45EF00F0FFFF63ECF8
:1000880012F0FFFF9EA24BEF00F04EEF00F0FFFFD3
:100098007CEF00F0FFFF9E92534A542A1EEC13F0A7
:1000A8005350015C54500258D8B05DEF00F060EF37
:1000B80000F0FFFF7CEF00F0FFFF642A6450D8B423
:1000C80068EF00F06BEF00F0FFFF79EF00F0FFFF43
:1000D80064B071EF00F074EF00F0FFFF79EF00F00B
:1000E800FFFF000E646E73EC13F0FFFF50EC13F08B
:1000F800FFFF9EAC82EF00F085EF00F0FFFFB2EF4C
:1001080000F0FFFF9E9CC3CF55F0566AC4500C6E9A
:100118000B6A0B5055120C5056125504040E5658C3
:10012800D8A099EF00F09CEF00F0FFFFA3EF00F0DC
:10013800FFFF55EC13F05AEC13F0B2EF00F0FFFF9D
:100148005504020E5658D8A0ACEF00F0AFEF00F0FF
:10015800FFFFB2EF00F0FFFF55EC13F0FFFF9EAA80
:10016800B8EF00F0BBEF00F0FFFFC2EF00F0FFFFB9
:100178009E9AAECF11F0115078EC0BF0FFFF10C033
:10018800F4FF0FC0F3FF0EC0DAFF0DC0D9FF6E9267
:080198001100FFFF6EEF10F0F3
:1006000000ACFFB33D000400020FC80F960F32FA92
:100610001900FFFF2350800B306E23502324376EC8
:1006200022AE15EF03F018EF03F0FFFF1AEF03F00F
:10063000FFFF3780FFFF3750D8B421EF03F024EFDE
:1006400003F0FFFF3DEF03F0FFFF3728D8A42BEFA7
:1006500003F02EEF03F0FFFF37EF03F0FFFF000E74
:10066000206E000E216E000E226E000E236EFFFF24
:10067000228E000E236E46EF03F0FFFF000E206E69
:10068000000E216E000E226E000E236EFFFF27501B
:10069000800B301A27502724386E26AE52EF03F015
:1006A00055EF03F0FFFF57EF03F0FFFF3880FFFF28
:1006B0003850D8B45EEF03F061EF03F0FFFF7AEF3C
:1006C00003F0FFFF3828D8A468EF03F06BEF03F0C6
:1006D000FFFF74EF03F0FFFF000E246E000E256E87
:1006E000000E266E000E276EFFFF268E000E276E70
:1006F00083EF03F0FFFF000E246E000E256E000E48
:10070000266E000E276EFFFF24502510261027109E
:10071000D8A48DEF03F090EF03F0FFFFAAEF03F0F2
:10072000FFFF000E206E000E216E000E226E000EE6
:10073000236E800E22127F0E2312FFFF30502312F1
:1007400020C020F021C021F022C022F023C023F0DD
:100750001FEF05F0FFFF3750D8A4B1EF03F0B4EF5F
:1007600003F0FFFFBFEF03F0FFFF000E206E000E4F
:10077000216E000E226E000E236E1FEF05F0FFFFAC
:10078000385037C028F0296A285E000E295A7F0E9B
:100790002824316E000E2920326E20C02CF021C09A
:1007A0002DF022C02EF023C02FF0000E206E000E80
:1007B000216E000E226E000E236E000E336E000EB0
:1007C000346E000E356E000E366E000E386E2BEF56
:1007D00004F0FFFF3850D8B4F0EF03F0F3EF03F06C
:1007E000FFFF0EEF04F0FFFFD8902C362D362E368B
:1007F0002F36D890203621362236233636AE03EFF8
:1008000004F006EF04F0FFFF08EF04F0FFFF208084
:10081000FFFFD8903336343635363636FFFF245056
:100820002C5C25502D5826502E5827502F58D8A0D4
:100830001CEF04F01FEF04F0FFFF29EF04F0FFFFAF
:10084000368C24502C5E25502D5A26502E5A275077
:100850002F5AFFFF382AFFFF190E386432EF04F0D9
:1008600035EF04F0FFFFE9EF03F0FFFF2C502D10F0
:100870002E102F10D8B43FEF04F042EF04F0FFFF2A
:100880005FEF04F0FFFF33805FEF04F0FFFFD890CD
:10089000203621362236233636AE51EF04F054EF9F
:1008A00004F0FFFF56EF04F0FFFF2080FFFFD89019
:1008B00033363436353636363106D8A03206FFFFA9
:1008C00022AE65EF04F068EF04F0FFFF46EF04F09E
:1008D000FFFF000E386E36AE70EF04F073EF04F0D9
:1008E000FFFF9EEF04F0FFFFFF0E3314286EFF0E94
:1008F0003414296EFF0E35142A6E7F0E36142B6EBB
:10090000285029102A102B10D8B489EF04F08CEF4E
:1009100004F0FFFF92EF04F0FFFFFFFF010E386EBF
:100920009EEF04F0FFFF20A098EF04F09BEF04F08F
:10093000FFFF9EEF04F0FFFF8DEF04F0FFFF385044
:10094000D8B4A5EF04F0A8EF04F0FFFFCFEF04F058
:10095000FFFF010E2026000E21222222232223A0A7
:10096000B4EF04F0B7EF04F0FFFFCFEF04F0FFFFA8
:1009700020C028F021C029F022C02AF023C02BF08B
:100980002B342B322A322932283228C020F029C0B9
:1009900021F02AC022F02BC023F0314A322AFFFF77
:1009A00032BEDBEF04F0325009E13128D8A0DBEF92
:1009B00004F0DEEF04F0FFFFEAEF04F0FFFF000EAB
:1009C000326E3168000E206E000E216E000E226E17
:1009D000000E236EFFFF32BEF9EF04F0325006E145
:1009E0003104D8B0F6EF04F0F9EF04F0FFFF08EFA0
:1009F00005F0FFFF000E326E000E316E000E206E0D
:100A0000000E216E000E226E000E236E000E306E60
:100A1000FFFF31C037F037A010EF05F013EF05F0FE
:100A2000FFFF17EF05F0FFFF228E19EF05F0FFFF24
:100A3000229EFFFFD8903730236E9DEF03F0FFFF1B
:100A40001200FFFFFFFF1B5007E1FB0E1A5CD8B03E
:100A50002CEF05F02FEF05F0FFFF3CEF05F0FFFF57
:100A60001D500AE1FB0E1C5CD8A039EF05F03CEFED
:100A700005F0FFFF40EF05F0FFFF050EB2EF06F0B7
:100A8000FFFF16501A5C1E6E17501B581F6E1FBEBC
:100A900052EF05F01F5009E11E04D8A052EF05F0F7
:100AA00055EF05F0FFFF5FEF05F0FFFF000E126E40
:100AB000010E25EC11F0010E216E67EF05F0FFFF2E
:100AC000000E126E000E25EC11F0000E216EFFFFDD
:100AD00018501C5C1E6E19501D581F6E1FBE79EFFA
:100AE00005F01F5009E11E04D8A079EF05F07CEF56
:100AF00005F0FFFF86EF05F0FFFF010E126E010EFD
:100B000025EC11F0010E226E8EEF05F0FFFF010EB5
:100B1000126E000E25EC11F0000E226EFFFF010E8A
:100B2000236E010E206ECA84000E5C6E000E5B6E9A
:100B3000FA0E686ED58E92EF06F0FFFF5B505C10E8
:100B4000D8B4A5EF05F0A8EF05F0FFFFB1EF05F071
:100B5000FFFF89948A98000E5C6E040E5B6EA6EF10
:100B600006F0FFFF2104D8A4B8EF05F0BBEF05F0B5
:100B7000FFFFE2EF05F0FFFF31EC13F016501226F5
:100B8000175013221A50125C1B501358D8A0CBEFE9
:100B900005F0CEEF05F0FFFFD4EF05F0FFFFFFFFFC
:100BA000000E236E12EF06F0FFFF2350D8A4DBEFF8
:100BB00005F0DEEF05F0FFFF12EF06F0FFFF89847E
:100BC00012EF06F0FFFF2150D8A4E9EF05F0ECEF9B
:100BD00005F0FFFF12EF06F0FFFF31EC13F016C037
:100BE0001EF017C01FF012501E5E13501F5A1E50E9
:100BF0001A5C1F501B58D8A000EF06F003EF06F058
:100C0000FFFF06EF06F0FFFFCFEF05F0FFFF2350D9
:100C1000D8A40DEF06F010EF06F0FFFF12EF06F07C
:100C2000FFFF8984FFFF2204D8A419EF06F01CEF10
:100C300006F0FFFF43EF06F0FFFF31EC13F0185012
:100C40001226195013221C50125C1D501358D8A0A4
:100C50002CEF06F02FEF06F0FFFF35EF06F0FFFF59
:100C6000FFFF000E206E75EF06F0FFFF2350D8A4A3
:100C70003CEF06F03FEF06F0FFFF75EF06F0FFFFD9
:100C80008A8875EF06F0FFFF2250D8A44AEF06F0DD
:100C90004DEF06F0FFFF75EF06F0FFFF31EC13F0AC
:100CA00018C01EF019C01FF012501E5E13501F5ABC
:100CB0001E501C5C1F501D58D8A061EF06F064EF59
:100CC00006F0FFFF67EF06F0FFFF30EF06F0FFFFD3
:100CD0002350D8A46EEF06F071EF06F0FFFF75EF1A
:100CE00006F0FFFF8A8875EF06F0FFFFE8EC12F0D0
:100CF00012501310D8B47FEF06F082EF06F0FFFF1A
:100D000075EF06F0FFFF89948A98FFFFE8EC12F078
:100D100012501310D8B48FEF06F092EF06F0FFFFD9
:100D200085EF06F0FFFF2350D8A499EF06F09CEF63
:100D300006F0FFFF9DEF05F0FFFF2050D8A4A3EFC2
:100D400006F0A6EF06F0FFFF9DEF05F0FFFFD59E32
:100D5000CA94000ED76E000ED66E000ECC6E4BEC11
:100D600013F05B50FFFF1200FFFFFFFF09EC13F0D1
:100D700012C0D7F113C0D8F168EF07F0FFFF4EC0E3
:100D800016F0176A4FC018F0196A0D0EF66E060EAF
:100D9000F76E0800FFFFF5501A6E1B6A0E0EF66E16
:100DA000060EF76E0800FFFFF5501C6E1D6A22EC60
:100DB00005F00101D66F0D0EF66E060EF76E0800F7
:100DC000FFFFF5CF4EF00E0EF66E060EF76E080022
:100DD000FFFFF5CF4FF08BEF07F0FFFF4EC016F08F
:100DE000176A4FC018F0196A0B0EF66E060EF76EF2
:100DF0000800FFFFF5501A6E1B6A0C0EF66E060E09
:100E0000F76E0800FFFFF5501C6E1D6A22EC05F01E
:100E10000101D66F0B0EF66E060EF76E0800FFFF8F
:100E2000F5CF4EF00C0EF66E060EF76E0800FFFFC3
:100E3000F5CF4FF08BEF07F0FFFF4EC016F0176AAB
:100E40004FC018F0196A090EF66E060EF76E08000C
:100E5000FFFFF5501A6E1B6A0A0EF66E060EF76E4D
:100E60000800FFFFF5501C6E1D6A22EC05F0010121
:100E7000D66F090EF66E060EF76E0800FFFFF5CF6F
:100E80004EF00A0EF66E060EF76E0800FFFFF5CF65
:100E90004FF08BEF07F0FFFF4EC016F0176A4FC000
:100EA00018F0196A57C01AF01B6A58C01CF01D6A66
:100EB00022EC05F00101D66F57C04EF058C04FF03C
:100EC0008BEF07F0FFFF010E0101D66F8BEF07F0EC
:100ED000FFFFD7C1D9FFD8C1DAFFDF50436E446AA4
:100EE0004450000AD8B477EF07F062EF07F0FFFF35
:100EF0004350000AD8B4BEEF06F0010AD8B4EDEFB3
:100F000006F0030AD8B41CEF07F0FD0AD8B44BEF83
:100F100007F062EF07F0FFFFD651D8A492EF07F079
:100F200095EF07F0FFFFF8EF07F0FFFF59EC0EF029
:100F30000101D66F91EC12F016EC10F00101D66FA2
:100F40004EC016F0176A4FC018F0196A20EE01F073
:100F5000D751D926D851DA22DF50436E43501A6E4A
:100F60001B6A20EE02F0D751D926D851DA22DF5081
:100F7000446E44501C6E1D6A22EC05F0010120EE07
:100F800001F0D751D926D851DA22DF504E6E20EE2B
:100F900002F0D751D926D851DA22DF504F6E20EE19
:100FA00003F0D751D926D851DA22DF50436E595079
:100FB000435C596E5A50D8A05A285A6A5A5E5ABE93
:100FC000E7EF07F0E4EF07F0FFFFECEF07F0FFFFBC
:100FD000680E5926010E5A22FFFF5950D2EC0EF02E
:100FE000E0EC0DF07BEC12F016EC10F00101D66F86
:100FF000FFFFD6511200FFFFFFFF1A6E1A50D8B440
:1010000004EF08F007EF08F0FFFF2CEF08F0FFFFF8
:1010100015BE10EF08F00DEF08F0FFFF2CEF08F001
:10102000FFFF12C016F013C017F014C018F015C05F
:1010300019F0161E171E181E191E162A000E17224A
:101040001822192216C01CF017C01DF018C01EF07F
:1010500019C01FF035EF08F0FFFF12C01CF013C0DD
:101060001DF014C01EF015C01FF0FFFF125013102A
:1010700014101510D8A43FEF08F042EF08F0FFFF5E
:101080004DEF08F0FFFF000E126E000E136E000E03
:10109000146E000E156EF5EF08F0FFFF960E1B6E36
:1010A00059EF08F0FFFF1B2AD8901F321E321D3265
:1010B0001C32FFFF000E1C14166E000E1D14176E5E
:1010C000000E1E14186EFE0E1F14196E1650171007
:1010D00018101910D8A46FEF08F072EF08F0FFFF96
:1010E00052EF08F0FFFF82EF08F0FFFF1B2A010E0E
:1010F0001C26000E1D221E221F22D8901F321E32D7
:101100001D321C32FFFF000E1C14166E000E1D1443
:10111000176E000E1E14186EFF0E1F14196E165057
:10112000171018101910D8A498EF08F09BEF08F0CA
:10113000FFFF75EF08F0FFFFA5EF08F0FFFF1B06AC
:10114000D8901C361D361E361F36FFFF1EBEABEF75
:1011500008F0AEEF08F0FFFFB8EF08F0FFFF020E57
:101160001B60B5EF08F0B8EF08F0FFFF9EEF08F046
:10117000FFFF1BB0BEEF08F0C1EF08F0FFFFC3EFA9
:1011800008F0FFFF1E9EFFFFD8901B321BC016F019
:10119000176A186A196A16C019F0186A176A166A67
:1011A00016501C1217501D1218501E1219501F12E3
:1011B0001A50D8B4DEEF08F0E1EF08F0FFFFECEFD3
:1011C00008F0FFFF15BEEAEF08F0E7EF08F0FFFFB9
:1011D000ECEF08F0FFFF1F8EFFFF1CC012F01DC0D8
:1011E00013F01EC014F01FC015F0FFFF1200FFFF28
:1011F000FFFF000E126E000EABEC0FF0000E126E31
:10120000010EABEC0FF0000E126E020EABEC0FF005
:10121000000E126E000E25EC11F0010E126E000E83
:1012200025EC11F0020E126E000E25EC11F0000EEE
:10123000126E010EB1EC10F0010E126E010EB1EC47
:1012400010F0020E126E010EB1EC10F0000E126ED4
:10125000000EEBEC10F0010E126E000EEBEC10F035
:10126000020E126E000EEBEC10F0010E166E010E67
:10127000176E010E186ECA84000E5C6E000E5B6E57
:10128000FA0E686ED58EC6EF09F0FFFF5B505C105A
:10129000D8B44DEF09F050EF09F0FFFF5AEF09F015
:1012A000FFFF89948A988B94000E5C6E030E5B6E30
:1012B000E4EF09F0FFFF84B060EF09F063EF09F09D
:1012C000FFFF6DEF09F0FFFF1650D8A46AEF09F099
:1012D0006DEF09F0FFFF72EF09F0FFFF000E166ED1
:1012E00074EF09F0FFFF8984FFFF84B27AEF09F001
:1012F0007DEF09F0FFFF87EF09F0FFFF1750D8A43B
:1013000084EF09F087EF09F0FFFF8CEF09F0FFFF92
:10131000000E176E8EEF09F0FFFF8A88FFFF84B47E
:1013200094EF09F097EF09F0FFFFA1EF09F0FFFF3D
:101330001850D8A49EEF09F0A1EF09F0FFFFA6EF27
:1013400009F0FFFF000E186EA8EF09F0FFFF8B8475
:10135000FFFFE8EC12F012501310D8B4B2EF09F00E
:10136000B5EF09F0FFFFA8EF09F0FFFF89948A9815
:101370008B94FFFFE8EC12F012501310D8B4C3EFB7
:1013800009F0C6EF09F0FFFFB9EF09F0FFFF1650B3
:10139000D8A4CDEF09F0D0EF09F0FFFF45EF09F039
:1013A000FFFF1750D8A4D7EF09F0DAEF09F0FFFFDD
:1013B00045EF09F0FFFF1850D8A4E1EF09F0E4EF82
:1013C00009F0FFFF45EF09F0FFFFD59ECA94000E1C
:1013D000D76E000ED66E000ECC6E4BEC13F05B5049
:1013E0001200FFFFFFFF45EC12F0A7EC12F0BAEC81
:1013F00012F0CDEC12F0F2EC12F0FBEC12F0000E59
:10140000136E0A0E126EDCEC12F0F8EC08F001011B
:10141000DB6FDB51D8B40FEF0AF012EF0AF0FFFFD9
:1014200019EF0AF0FFFFDB51C4EC0CF0FFFF16EFE1
:101430000AF0FFFFAB88FFFF67EC13F00009D8B498
:1014400024EF0AF027EF0AF0FFFFA9EF0AF0FFFFF1
:1014500002EC13F012C0DCF113C0DDF1010120EE4B
:1014600002F0DC51D926DD51DA22DF50576E20EE32
:1014700003F0DC51D926DD51DA22DF50586EAB98EB
:1014800020EE05F0DC51D926DD51DA221A0EDF609C
:101490004CEF0AF04FEF0AF0FFFF5FEF0AF0FFFF9B
:1014A00020EE06F0DC51D926DD51DA22FA0EDF6497
:1014B0005CEF0AF05FEF0AF0FFFF64EF0AF0FFFF56
:1014C000050EDB6F78EF0AF0FFFF20EE05F0DC5130
:1014D000D926DD51DA22DF50C7EC0AF0010120EEF7
:1014E00006F0DC51D926DD51DA22DF50C7EC0AF0D4
:1014F000FFFF0101DB51D8A480EF0AF083EF0AF06F
:10150000FFFFA1EF0AF0FFFF000EC7EC0AF0FF0E8D
:10151000C7EC0AF0010120EE04F0DC51D926DD51C0
:10152000DA22DF50D96F20EE07F0DC51D926DD51E9
:10153000DA22DF50DA6FD951DA5DC7EC0AF0A5EF95
:101540000AF0FFFFDB51C4EC0CF0FFFFAB8837EC77
:1015500013F0FFFF63EC13F00009D8B4B2EF0AF008
:10156000B5EF0AF0FFFF1BEF0AF0FFFFB5EC06F046
:101570000101DB6FDB51C4EC0CF010EC13F05FECFD
:1015800013F099EC11F01BEF0AF0CEEF00F0FFFF23
:101590001B6E450E6024D96EDA6A000EDA221BC07B
:1015A000DFFF602AE3EF0AF0FFFF050E6D6EFEEF2E
:1015B0000AF0FFFF090E6D6EFEEF0AF0FFFF010E4D
:1015C0006D6EFEEF0AF0FFFF4550196E1A6A1A5051
:1015D000000AD8B4EEEF0AF0FEEF0AF0FFFF195050
:1015E000000AD8B4D4EF0AF0010AD8B4D9EF0AF04F
:1015F000030AD8B4DEEF0AF0FEEF0AF0FFFF6D50E9
:10160000605CD8A006EF0BF009EF0BF0FFFF75EF61
:101610000BF0FFFF000E606E5AEF0BF0FFFF635000
:10162000040DDB0EF324D96E000EF420DA6E46C0F2
:10163000DFFF6350040DDC0EF324D96E000EF4209E
:10164000DA6E47C0DFFF6350040DDD0EF324D96E60
:10165000000EF420DA6E48C0DFFF6350040DDE0E8A
:10166000F324D96E000EF420DA6E49C0DFFF632A3E
:1016700075EF0BF0FFFF46C0EFF047C0F0F048C039
:10168000F1F049C0F2F04AC0F3F04BC0F4F04CC0A6
:10169000F5F04DC0F6F0010E616E75EF0BF0FFFF37
:1016A000010E626E75EF0BF0FFFF080EC4EC0CF03C
:1016B00075EF0BF0FFFF4550196E1A6A1A50000AB9
:1016C000D8B465EF0BF054EF0BF0FFFF1950000A90
:1016D000D8B40EEF0BF0010AD8B43AEF0BF0030ABE
:1016E000D8B44FEF0BF054EF0BF0FFFF1200FFFFE9
:1016F000FFFF0A6E450E6024D96EDA6A000EDA2208
:101700000AC0DFFF602A94EF0BF0FFFF050E6D6E3D
:10171000AFEF0BF0FFFF090E6D6EAFEF0BF0FFFFA9
:10172000010E6D6EAFEF0BF0FFFF4550086E096ABA
:101730000950000AD8B49FEF0BF0AFEF0BF0FFFF9A
:101740000850000AD8B485EF0BF0010AD8B48AEF2C
:101750000BF0030AD8B48FEF0BF0AFEF0BF0FFFFE5
:101760006D50605CD8A0B7EF0BF0BAEF0BF0FFFF45
:1017700026EF0CF0FFFF000E606E0BEF0CF0FFFF8A
:101780006350040DDB0EF324D96E000EF420DA6EE4
:1017900046C0DFFF6350040DDC0EF324D96E000E4B
:1017A000F420DA6E47C0DFFF6350040DDD0EF32432
:1017B000D96E000EF420DA6E48C0DFFF6350040DCE
:1017C000DE0EF324D96E000EF420DA6E49C0DFFF7E
:1017D000632A26EF0CF0FFFF46C0EFF047C0F0F0A1
:1017E00048C0F1F049C0F2F04AC0F3F04BC0F4F049
:1017F0004CC0F5F04DC0F6F0010E616E26EF0CF016
:10180000FFFF010E626E26EF0CF0FFFF080E52EC98
:101810000DF026EF0CF0FFFF4550086E096A0950E5
:10182000000AD8B416EF0CF005EF0CF0FFFF0850DB
:10183000000AD8B4BFEF0BF0010AD8B4EBEF0BF0FD
:10184000030AD8B400EF0CF005EF0CF0FFFF120014
:10185000FFFFFFFF3B343C34426E4250D8A433EFCD
:101860000CF036EF0CF0FFFF42EF0CF0FFFFFFFF34
:10187000000E396E000E3A6E000E3B6E000E3C6E8E
:10188000C1EF0CF0FFFF39C03DF03AC03EF03BC065
:101890003FF03CC040F0200E54EF0CF0FFFFD8901A
:1018A00040323F323E323D32FFFFE82E4EEF0CF029
:1018B0003D50416E3B8EFF0E3916FF0E3A16FF0E5D
:1018C0003B16000E3C16960E425E42BE6DEF0CF0CB
:1018D0006AEF0CF0FFFF87EF0CF0FFFF4250800A29
:1018E000970FD8B076EF0CF079EF0CF0FFFF7CEF9C
:1018F0000CF0FFFF37EF0CF0FFFFD8903C323B328B
:101900003A323932423E7CEF0CF0A5EF0CF0FFFF8B
:101910001F0E42648EEF0CF091EF0CF0FFFF9BEF77
:101920000CF0FFFF37EF0CF0FFFFD89039363A3656
:101930003B363C364206FFFF4250D8A4A2EF0CF0E3
:10194000A5EF0CF0FFFF94EF0CF0FFFF4150D8B46F
:10195000ACEF0CF0AFEF0CF0FFFFB8EF0CF0FFFFB7
:101960003C1E3B1E3A1E396C000E3A223B223C22A2
:10197000FFFF39C039F03AC03AF03BC03BF03CC001
:101980003CF0FFFF1200FFFFFFFF186E20EF0DF08D
:10199000FFFFA50E126E000E136E1E0E146EF7ECF6
:1019A00011F04FEF0DF0FFFF5E0E126E010E136E81
:1019B000290E146EF7EC11F04FEF0DF0FFFF870EBC
:1019C000126E010E136E280E146EF7EC11F04FEF2D
:1019D0000DF0FFFF350E126E010E136E290E146E00
:1019E000F7EC11F04FEF0DF0FFFF840E126E000EBA
:1019F000136E210E146EF7EC11F04FEF0DF0FFFF98
:101A0000000E126E010E136E350E146EF7EC11F00F
:101A10004FEF0DF0FFFFAF0E126E010E136E270E8B
:101A2000146EF7EC11F04FEF0DF0FFFFC30E126EC6
:101A3000000E136E180E146EF7EC11F04FEF0DF050
:101A4000FFFF1850166E176A1750000AD8B42BEF14
:101A50000DF04FEF0DF0FFFF1650010AD8B4C8EF9C
:101A60000CF0030AD8B4D3EF0CF0010AD8B4DEEFBF
:101A70000CF0070AD8B4E9EF0CF0010AD8B4F4EF7F
:101A80000CF0030AD8B4FFEF0CF0010AD8B40AEF47
:101A90000DF00F0AD8B415EF0DF04FEF0DF0FFFF6A
:101AA0001200FFFFFFFF076EAEEF0DF0FFFFA50E68
:101AB000016E000E026E1E0E036E1EEC12F0DDEFC4
:101AC0000DF0FFFF5E0E016E010E026E290E036E19
:101AD0001EEC12F0DDEF0DF0FFFF870E016E010E20
:101AE000026E280E036E1EEC12F0DDEF0DF0FFFF0C
:101AF000350E016E010E026E290E036E1EEC12F001
:101B0000DDEF0DF0FFFF840E016E000E026E210E60
:101B1000036E1EEC12F0DDEF0DF0FFFF000E016E04
:101B2000010E026E350E036E1EEC12F0DDEF0DF0AD
:101B3000FFFFAF0E016E010E026E270E036E1EEC4C
:101B400012F0DDEF0DF0FFFFC30E016E000E026E0E
:101B5000180E036E1EEC12F0DDEF0DF0FFFF0750C4
:101B6000056E066A0650000AD8B4B9EF0DF0DDEF35
:101B70000DF0FFFF0550010AD8B456EF0DF0030A2F
:101B8000D8B461EF0DF0010AD8B46CEF0DF0070A7C
:101B9000D8B477EF0DF0010AD8B482EF0DF0030A44
:101BA000D8B48DEF0DF0010AD8B498EF0DF00F0AFC
:101BB000D8B4A3EF0DF0DDEF0DF0FFFF1200FFFF33
:101BC000FFFF020E126E010E25EC11F0CA84000E0A
:101BD0005C6E000E5B6EFA0E686ED58E41EC13F0F3
:101BE00023EF0EF0FFFF5B505C10D8B4FAEF0DF05E
:101BF000FDEF0DF0FFFF05EF0EF0FFFF8B94000EE1
:101C00005C6E060E5B6E39EF0EF0FFFF8B84FFFFFC
:101C1000E8EC12F012501310D8B411EF0EF014EFDC
:101C20000EF0FFFF07EF0EF0FFFF8B94FFFFE8ECD5
:101C300012F012501310D8B420EF0EF023EF0EF074
:101C4000FFFF16EF0EF0FFFF25EC13F012501310FC
:101C5000D8B42DEF0EF030EF0EF0FFFFF2EF0DF0E5
:101C6000FFFF83BE36EF0EF039EF0EF0FFFFF2EF0D
:101C70000DF0FFFF6BEC13F03CEC13F0D59ECA9413
:101C8000000ED76E000ED66E000ECC6E4BEC13F02D
:101C900083AE4DEF0EF050EF0EF0FFFF55EF0EF05C
:101CA000FFFF000E5C6E020E5B6EFFFF5B501200CA
:101CB000FFFFFFFF020E126E010E25EC11F0CA8429
:101CC000000E5C6E000E5B6EFA0E686ED58E41ECF7
:101CD00013F09CEF0EF0FFFF5B505C10D8B473EF75
:101CE0000EF076EF0EF0FFFF7EEF0EF0FFFF8B940D
:101CF000000E5C6E060E5B6EB2EF0EF0FFFF8B8483
:101D0000FFFFE8EC12F012501310D8B48AEF0EF077
:101D10008DEF0EF0FFFF80EF0EF0FFFF8B94FFFFC3
:101D2000E8EC12F012501310D8B499EF0EF09CEFBB
:101D30000EF0FFFF8FEF0EF0FFFF2BEC13F01250B1
:101D40001310D8B4A6EF0EF0A9EF0EF0FFFF6BEF63
:101D50000EF0FFFF83BEAFEF0EF0B2EF0EF0FFFF0D
:101D60006BEF0EF0FFFF6BEC13F046EC13F0D59E1B
:101D7000CA94000ED76E000ED66E000ECC6E4BECE1
:101D800013F083AEC6EF0EF0C9EF0EF0FFFFCEEFFB
:101D90000EF0FFFF000E5C6E020E5B6EFFFF5B50ED
:101DA0001200FFFFFFFF0001FA6FAC0E246EFF0E62
:101DB000256EB30E266E3D0E276E0001FA51126E8F
:101DC000136A146A156A010EFCEC07F012C020F0C9
:101DD00013C021F014C022F015C023F009EC03F069
:101DE00020C039F021C03AF022C03BF023C03CF0C3
:101DF00029EC0CF039C0FBF03AC0FCF0000E0001F9
:101E0000FE6F000EFD6F30EF0FF0FFFFC30E8C165C
:101E1000030EFD15F76F000EFE15F86F800EF72507
:101E2000D96E000EF821DA6EDF50F96FD890F937CD
:101E3000D890F9358C12CA84FFFFE8EC12F01250EA
:101E40001310D8B426EF0FF029EF0FF0FFFF1CEFAF
:101E50000FF0FFFFCA84000ECC6E0001FD4BFE2B7D
:101E6000FFFFFB51FD5DFC51FE59D8A03AEF0FF08A
:101E70003DEF0FF0FFFF05EF0FF0FFFF1200FFFF38
:101E80004572726F722C2074696D65206578636588
:101E90006564656420746F2072656163682074688E
:101EA0006520656E64206F6620746865205A204145
:101EB0007869730A004572726F722C2074696D65BF
:101EC00020657863656564656420746F2072656160
:101ED00063682074686520706F696E740A004572CB
:101EE000726F722C206E6F206F626A65637420724D
:101EF000656C65766174656420616C6F6E67205AED
:101F000020417869730A004572726F722C207469DF
:101F10006D6520657863656564656420746F207203
:101F20006573657420706F736974696F6E0A00461B
:101F30006174616C204572726F722C20706C6561E7
:101F400073652072657365742074686520646576B6
:101F5000696365210A00FFFF156EF8EF0FF0FFFFC0
:101F600015C013F0010E1316133A134689501318B7
:101F7000DF0B1318896E15C013F0020E13168A506A
:101F80001318FE0B13188A6E13EF10F0FFFF15C025
:101F900013F0010E1316133A134613468A50131802
:101FA000BF0B13188A6E15C013F0020E13161332EE
:101FB00013328A5013187F0B13188A6E13EF10F028
:101FC000FFFF15C013F0010E1316133A8B501318B0
:101FD000EF0B13188B6E15C013F0020E1316133A85
:101FE00013468B501318DF0B13188B6E13EF10F082
:101FF000FFFF1250136E146A1450000AD8B403EF96
:1020000010F013EF10F0FFFF1350000AD8B4AFEF39
:102010000FF0010AD8B4C6EF0FF0030AD8B4E0EF0E
:102020000FF013EF10F0FFFF1200FFFFFFFF020E93
:10203000126E000E25EC11F0CA84000E5C6E000ECC
:102040005B6EFA0E686ED58E57EF10F0FFFF5B5097
:102050005C10D8B42EEF10F031EF10F0FFFF39EF25
:1020600010F0FFFF8B94000E5C6E060E5B6E60EF4F
:1020700010F0FFFF8B84FFFFE8EC12F012501310FA
:10208000D8B445EF10F048EF10F0FFFF3BEF10F031
:10209000FFFF8B94FFFFE8EC12F012501310D8B43E
:1020A00054EF10F057EF10F0FFFF4AEF10F0FFFF72
:1020B00084A45DEF10F060EF10F0FFFF26EF10F04A
:1020C000FFFFD59ECA94000ED76E000ED66E000E8E
:1020D000CC6E4BEC13F05B501200FFFF800EF66EDF
:1020E0001E0EF76E000EF86E01EE00F010EED6F048
:1020F0000900F5CFEEFFE550E150FAE1920EF66EE1
:10210000230EF76E000EF86E00EE80F010EE5BF01E
:102110000900F5CFEEFFE550E150FAE1F60EF66E5C
:10212000260EF76E000EF86E00EE69F010EE05F068
:102130000900F5CFEEFFE550E150FAE100EEDBF0EB
:102140001C0EEE6AE806FDE100EE45F0240EEE6A94
:10215000E806FDE16E906E92000EF86E0001F2EF5F
:1021600009F0FFFF156ECDEF10F0FFFF15B002D0A4
:102170008A9401D08A84E8EF10F0FFFF15B002D0F6
:102180008B9001D08B80E8EF10F0FFFF15B002D0EC
:102190008C9001D08C80E8EF10F0FFFF1250136E8E
:1021A000146A1450000AD8B4D8EF10F0E8EF10F019
:1021B000FFFF1350000AD8B4B5EF10F0010AD8B4ED
:1021C000BDEF10F0030AD8B4C5EF10F0E8EF10F03F
:1021D000FFFF1200FFFFFFFF156E07EF11F0FFFF7B
:1021E00015B002D0899601D0898622EF11F0FFFF49
:1021F00015B002D08A9A01D08A8A22EF11F0FFFF2F
:1022000015B002D08B9601D08B8622EF11F0FFFF24
:102210001250136E146A1450000AD8B412EF11F061
:1022200022EF11F0FFFF1350000AD8B4EFEF10F0C7
:10223000010AD8B4F7EF10F0030AD8B4FFEF10F09A
:1022400022EF11F0FFFF1200FFFFFFFF156E41EFBD
:1022500011F0FFFF15B002D0899201D089825CEFA6
:1022600011F0FFFF15B002D08A9601D08A865CEF8C
:1022700011F0FFFF15B002D08B9201D08B825CEF82
:1022800011F0FFFF1250136E146A1450000AD8B4F4
:102290004CEF11F05CEF11F0FFFF1350000AD8B4BF
:1022A00029EF11F0010AD8B431EF11F0030AD8B4C4
:1022B00039EF11F05CEF11F0FFFF1200FFFFFFFF9D
:1022C000046E7BEF11F0FFFF04B002D0899601D0BD
:1022D000898696EF11F0FFFF04B002D08A9A01D0F0
:1022E0008A8A96EF11F0FFFF04B002D08B9601D0DE
:1022F0008B8696EF11F0FFFF0150026E036A0350C8
:10230000000AD8B486EF11F096EF11F0FFFF0250EB
:10231000000AD8B463EF11F0010AD8B46BEF11F0E2
:10232000030AD8B473EF11F096EF11F0FFFF12001B
:10233000FFFFFFFF000E146EFFFF1450126E136AB2
:10234000D89012361336D89012361336DF0E122478
:10235000D96E000E1320DA6E1450040DDB0EF32438
:10236000E16E000EF420E26EDECFE6FFDECFE6FF88
:10237000DECFE6FFDECFE6FF142A030E1464C3EFC0
:1023800011F0C6EF11F0FFFF9CEF11F0FFFF1200FC
:10239000FFFF0903060C4572726F722C20706F6983
:1023A0006E74206F75747369646520626F756E64F6
:1023B00061726965730A004572726F722C206665DE
:1023C0006564206C696E65206E6F74206465666953
:1023D0006E65640A00436F6D6D616E64206E6F748C
:0D23E000207265636F676E697A65640A009C
:1023EE00FFFF010E156E10EF12F0FFFF12C0D9FFA6
:1023FE0013C0DAFFDF50AD6EFFFFACA209EF12F093
:10240E000CEF12F0FFFF03EF12F0FFFF124A132A38
:10241E00152AFFFF1450155CD8A018EF12F01BEF11
:10242E0012F0FFFFFCEF11F0FFFF1200FFFFFFFFA6
:10243E00010E046E37EF12F0FFFF01C0D9FF02C08C
:10244E00DAFFDF50AD6EFFFFACA230EF12F033EFCC
:10245E0012F0FFFF2AEF12F0FFFF014A022A042AB0
:10246E00FFFF0350045CD8A03FEF12F042EF12F0D2
:10247E00FFFF23EF12F0FFFF1200FFFFFFFFF2BE80
:10248E004BEF12F04EEF12F0FFFF50EF12F0FFFF86
:10249E00F28EFFFFF2BC56EF12F059EF12F0FFFF73
:1024AE005BEF12F0FFFFF28CFFFFD08EF28A9D8061
:1024BE009D829D8A1200FFFFFFFF000E016E010E2E
:1024CE005FEC11F0010E016E010E5FEC11F0020EC9
:1024DE00016E010E5FEC11F0070E52EC0DF0FFFFD6
:1024EE0076EF12F01200FFFFFFFF8C92CA84FFFFFF
:1024FE00E8EC12F012501310D8B488EF12F08BEFF4
:10250E0012F0FFFF7EEF12F0FFFFCA84000ECC6EBA
:10251E001200FFFFFFFF8C82CA84FFFFE8EC12F06F
:10252E0012501310D8B49EEF12F0A1EF12F0FFFF6D
:10253E0094EF12F0FFFFCA84000ECC6E1200FFFF64
:10254E00FFFFC150F00B0609C16ED10E9216020E9E
:10255E009316C00E9416C00E95169680968296848B
:10256E00958E1200FFFFFFFFC2503F0B4009C26E57
:10257E00C18CC70EC216C294C290C19EC150F00B40
:10258E000E09C16E9D8C9F8C1200FFFFFFFF949C65
:10259E00948EAC9CAC8AAC98AC94AB8EAB9CAB9846
:1025AE00AB96190EAF6E1200FFFFFFFFCA94CA5012
:1025BE00FC0B0109CA6E12C051F013C052F012008A
:1025CE00FFFFFFFF5DC014F0000E5D6E14C012F031
:1025DE00136A1200FFFFFFFFD59ED59CD59AD586B4
:1025EE00070ED5121200FFFFFFFF300ECD12CD9257
:1025FE00CD801200FFFFFFFFEF0E126E000E136E66
:10260E001200FFFFFFFFDB0E126E000E136E1200A4
:10261E00FFFFFFFF000E5C6E000E5B6E1200FFFFF1
:10262E00FFFF000E5C6E010E5B6E1200FFFFFFFFE0
:10263E0051C001F052C002F01200FFFFFFFF66C052
:10264E0012F0136A1200FFFFFFFF67C012F0136A49
:10265E001200FFFFFFFF5EC012F0136A1200FFFFB1
:10266E00FFFF000E616E1200FFFFFFFF000E666E91
:10267E001200FFFFFFFFC280C2841200FFFFFFFFA8
:10268E00000E676E1200FFFFFFFF000E5E6E12005F
:10269E00FFFFFFFF010E5D6E1200FFFFFFFF010E39
:1026AE00676E1200FFFFFFFF010E666E1200FFFF46
:1026BE00FFFF63061200FFFFFFFF63501200FFFFD4
:1026CE00FFFF61501200FFFFFFFFC2901200FFFFDD
:1026DE00FFFF68501200FFFFFFFF5E2A1200FFFF90
:0D26EE00FFFF62501200FFFFFA00FA000526
:0226FC00FFFFDE
:020000040020DA
:08000000FFFFFFFFFFFFFFFF00
:020000040030CA
:0E000000FF210D0EFF0080FF0FC00FE00F402C
:00000001FF
