:020000040000FA
:0600000000F0CEEF00F05D
:10000800FFFF6E82D9CF0DF0DACF0EF0F3CF0FF0ED
:10001800F4CF10F0F2A413EF00F016EF00F0FFFF9A
:100028002CEF00F0FFFFF294652A37EC13F00B6E0B
:100038000B50655CD8A023EF00F026EF00F0FFFF1F
:100048002CEF00F0FFFFD59E000E656EDFEC12F07E
:10005800FFFF9EA032EF00F035EF00F0FFFF45EF05
:1000680000F0FFFF9E903FEC13F00009D8B43FEF7B
:1000780000F042EF00F0FFFF45EF00F0FFFF2BEC30
:1000880012F0FFFF9EA24BEF00F04EEF00F0FFFFD3
:100098007CEF00F0FFFF9E92534A542AE6EC12F0E0
:1000A8005350015C54500258D8B05DEF00F060EF37
:1000B80000F0FFFF7CEF00F0FFFF642A6450D8B423
:1000C80068EF00F06BEF00F0FFFF79EF00F0FFFF43
:1000D80064B071EF00F074EF00F0FFFF79EF00F00B
:1000E800FFFF000E646E3BEC13F0FFFF18EC13F0FB
:1000F800FFFF9EAC82EF00F085EF00F0FFFFB2EF4C
:1001080000F0FFFF9E9CC3CF55F0566AC4500C6E9A
:100118000B6A0B5055120C5056125504040E5658C3
:10012800D8A099EF00F09CEF00F0FFFFA3EF00F0DC
:10013800FFFF1DEC13F022EC13F0B2EF00F0FFFF0D
:100148005504020E5658D8A0ACEF00F0AFEF00F0FF
:10015800FFFFB2EF00F0FFFF1DEC13F0FFFF9EAAB8
:10016800B8EF00F0BBEF00F0FFFFC2EF00F0FFFFB9
:100178009E9AAECF11F01150A2EC0AF0FFFF10C00A
:10018800F4FF0FC0F3FF0EC0DAFF0DC0D9FF6E9267
:080198001100FFFF36EF10F02B
:1006000000ACFFB33D0004000219190F0F050500EF
:10061000FFFF2350800B306E23502324376E22AE11
:1006200014EF03F017EF03F0FFFF19EF03F0FFFFE4
:100630003780FFFF3750D8B420EF03F023EF03F0EB
:10064000FFFF3CEF03F0FFFF3728D8A42AEF03F0A9
:100650002DEF03F0FFFF36EF03F0FFFF000E206EDB
:10066000000E216E000E226E000E236EFFFF228E02
:10067000000E236E45EF03F0FFFF000E206E000E0C
:10068000216E000E226E000E236EFFFF2750800B9E
:10069000301A27502724386E26AE51EF03F054EF5E
:1006A00003F0FFFF56EF03F0FFFF3880FFFF3850E5
:1006B000D8B45DEF03F060EF03F0FFFF79EF03F0D4
:1006C000FFFF3828D8A467EF03F06AEF03F0FFFFBD
:1006D00073EF03F0FFFF000E246E000E256E000E78
:1006E000266E000E276EFFFF268E000E276E82EF0D
:1006F00003F0FFFF000E246E000E256E000E266E26
:10070000000E276EFFFF2450251026102710D8A4B6
:100710008CEF03F08FEF03F0FFFFA9EF03F0FFFF73
:10072000000E206E000E216E000E226E000E236E53
:10073000800E22127F0E2312FFFF3050231220C0A2
:1007400020F021C021F022C022F023C023F01EEFB0
:1007500005F0FFFF3750D8A4B0EF03F0B3EF03F07C
:10076000FFFFBEEF03F0FFFF000E206E000E216EB4
:10077000000E226E000E236E1EEF05F0FFFF3850B4
:1007800037C028F0296A285E000E295A7F0E2824D7
:10079000316E000E2920326E20C02CF021C02DF0C9
:1007A00022C02EF023C02FF0000E206E000E216E0E
:1007B000000E226E000E236E000E336E000E346E9D
:1007C000000E356E000E366E000E386E2AEF04F005
:1007D000FFFF3850D8B4EFEF03F0F2EF03F0FFFF64
:1007E0000DEF04F0FFFFD8902C362D362E362F3625
:1007F000D890203621362236233636AE02EF04F06A
:1008000005EF04F0FFFF07EF04F0FFFF2080FFFF7C
:10081000D8903336343635363636FFFF24502C5CCC
:1008200025502D5826502E5827502F58D8A01BEF52
:1008300004F01EEF04F0FFFF28EF04F0FFFF368CFA
:1008400024502C5E25502D5A26502E5A27502F5AB0
:10085000FFFF382AFFFF190E386431EF04F034EF40
:1008600004F0FFFFE8EF03F0FFFF2C502D102E10D7
:100870002F10D8B43EEF04F041EF04F0FFFF5EEF1D
:1008800004F0FFFF33805EEF04F0FFFFD8902036C6
:1008900021362236233636AE50EF04F053EF04F003
:1008A000FFFF55EF04F0FFFF2080FFFFD8903336A5
:1008B0003436353636363106D8A03206FFFF22AE42
:1008C00064EF04F067EF04F0FFFF45EF04F0FFFF73
:1008D000000E386E36AE6FEF04F072EF04F0FFFFDB
:1008E0009DEF04F0FFFFFF0E3314286EFF0E34144B
:1008F000296EFF0E35142A6E7F0E36142B6E28508B
:1009000029102A102B10D8B488EF04F08BEF04F0D4
:10091000FFFF91EF04F0FFFFFFFF010E386E9DEF28
:1009200004F0FFFF20A097EF04F09AEF04F0FFFF20
:100930009DEF04F0FFFF8CEF04F0FFFF3850D8B4B8
:10094000A4EF04F0A7EF04F0FFFFCEEF04F0FFFFE9
:10095000010E2026000E21222222232223A0B3EF03
:1009600004F0B6EF04F0FFFFCEEF04F0FFFF20C06D
:1009700028F021C029F022C02AF023C02BF02B340C
:100980002B322A322932283228C020F029C021F007
:100990002AC022F02BC023F0314A322AFFFF32BE98
:1009A000DAEF04F0325009E13128D8A0DAEF04F090
:1009B000DDEF04F0FFFFE9EF04F0FFFF000E326E01
:1009C0003168000E206E000E216E000E226E000EA9
:1009D000236EFFFF32BEF8EF04F0325006E131041F
:1009E000D8B0F5EF04F0F8EF04F0FFFF07EF05F0E3
:1009F000FFFF000E326E000E316E000E206E000EF4
:100A0000216E000E226E000E236E000E306EFFFF70
:100A100031C037F037A00FEF05F012EF05F0FFFF00
:100A200016EF05F0FFFF228E18EF05F0FFFF229E64
:100A3000FFFFD8903730236E9CEF03F0FFFF1200CA
:100A4000FFFFFFFFE90E1A5C030E1B58D8B02BEF17
:100A500005F02EEF05F0FFFF3BEF05F0FFFFE90E7D
:100A60001C5C030E1D58D8A038EF05F03BEF05F0D5
:100A7000FFFF3FEF05F0FFFF050EB1EF06F0FFFFB0
:100A800016501A5C1E6E17501B581F6E1FBE51EF7A
:100A900005F01F5009E11E04D8A051EF05F054EFF6
:100AA00005F0FFFF5EEF05F0FFFF000E126E010E76
:100AB000EDEC10F0010E216E66EF05F0FFFF000E69
:100AC000126E000EEDEC10F0000E216EFFFF1850BC
:100AD0001C5C1E6E19501D581F6E1FBE78EF05F06E
:100AE0001F5009E11E04D8A078EF05F07BEF05F058
:100AF000FFFF85EF05F0FFFF010E126E010EEDEC1A
:100B000010F0010E226E8DEF05F0FFFF010E126E48
:100B1000000EEDEC10F0000E226EFFFF010E236EB2
:100B2000010E206ECA84000E5C6E000E5B6EFA0E23
:100B3000686ED58E91EF06F0FFFF5B505C10D8B465
:100B4000A4EF05F0A7EF05F0FFFFB0EF05F0FFFF02
:100B500089948A98000E5C6E040E5B6EA5EF06F019
:100B6000FFFF2104D8A4B7EF05F0BAEF05F0FFFFAF
:100B7000E1EF05F0FFFFF9EC12F0165012261750C6
:100B800013221A50125C1B501358D8A0CAEF05F05C
:100B9000CDEF05F0FFFFD3EF05F0FFFFFFFF000EE5
:100BA000236E11EF06F0FFFF2350D8A4DAEF05F013
:100BB000DDEF05F0FFFF11EF06F0FFFF898411EF75
:100BC00006F0FFFF2150D8A4E8EF05F0EBEF05F0A9
:100BD000FFFF11EF06F0FFFFF9EC12F016C01EF058
:100BE00017C01FF012501E5E13501F5A1E501A5C81
:100BF0001F501B58D8A0FFEF05F002EF06F0FFFFD3
:100C000005EF06F0FFFFCEEF05F0FFFF2350D8A45D
:100C10000CEF06F00FEF06F0FFFF11EF06F0FFFFFD
:100C20008984FFFF2204D8A418EF06F01BEF06F01A
:100C3000FFFF42EF06F0FFFFF9EC12F0185012260A
:100C4000195013221C50125C1D501358D8A02BEFC2
:100C500006F02EEF06F0FFFF34EF06F0FFFFFFFF78
:100C6000000E206E74EF06F0FFFF2350D8A43BEF78
:100C700006F03EEF06F0FFFF74EF06F0FFFF8A88F4
:100C800074EF06F0FFFF2250D8A449EF06F04CEFB6
:100C900006F0FFFF74EF06F0FFFFF9EC12F018C04A
:100CA0001EF019C01FF012501E5E13501F5A1E5026
:100CB0001C5C1F501D58D8A060EF06F063EF06F0D3
:100CC000FFFF66EF06F0FFFF2FEF06F0FFFF235058
:100CD000D8A46DEF06F070EF06F0FFFF74EF06F09A
:100CE000FFFF8A8874EF06F0FFFFB0EC12F012509D
:100CF0001310D8B47EEF06F081EF06F0FFFF74EF1B
:100D000006F0FFFF89948A98FFFFB0EC12F01250B2
:100D10001310D8B48EEF06F091EF06F0FFFF84EFCA
:100D200006F0FFFF2350D8A498EF06F09BEF06F0E3
:100D3000FFFF9CEF05F0FFFF2050D8A4A2EF06F0C4
:100D4000A5EF06F0FFFF9CEF05F0FFFFD59ECA94CC
:100D5000000ED76E000ED66E000ECC6E13EC13F0A4
:100D60005B50FFFF1200FFFFFFFFD1EC12F012C03B
:100D7000D7F113C0D8F167EF07F0FFFF4EC016F0B0
:100D8000176A4FC018F0196A0D0EF66E060EF76E50
:100D90000800FFFFF5501A6E1B6A0E0EF66E060E67
:100DA000F76E0800FFFFF5501C6E1D6A21EC05F080
:100DB0000101D66F0D0EF66E060EF76E0800FFFFEE
:100DC000F5CF4EF00E0EF66E060EF76E0800FFFF22
:100DD000F5CF4FF08AEF07F0FFFF4EC016F0176A0D
:100DE0004FC018F0196A0B0EF66E060EF76E08006B
:100DF000FFFFF5501A6E1B6A0C0EF66E060EF76EAC
:100E00000800FFFFF5501C6E1D6A21EC05F0010182
:100E1000D66F0B0EF66E060EF76E0800FFFFF5CFCD
:100E20004EF00C0EF66E060EF76E0800FFFFF5CFC3
:100E30004FF08AEF07F0FFFF4EC016F0176A4FC061
:100E400018F0196A090EF66E060EF76E0800FFFF1D
:100E5000F5501A6E1B6A0A0EF66E060EF76E080043
:100E6000FFFFF5501C6E1D6A21EC05F00101D66FE5
:100E7000090EF66E060EF76E0800FFFFF5CF4EF076
:100E80000A0EF66E060EF76E0800FFFFF5CF4FF064
:100E90008AEF07F0FFFF4EC016F0176A4FC018F038
:100EA000196A57C01AF01B6A58C01CF01D6A21EC61
:100EB00005F00101D66F57C04EF058C04FF08AEFD1
:100EC00007F0FFFF010E0101D66F8AEF07F0FFFF69
:100ED000D7C1D9FFD8C1DAFFDF50436E446A44500E
:100EE000000AD8B476EF07F061EF07F0FFFF435038
:100EF000000AD8B4BDEF06F0010AD8B4ECEF06F052
:100F0000030AD8B41BEF07F0FD0AD8B44AEF07F084
:100F100061EF07F0FFFFD651D8A491EF07F094EFEF
:100F200007F0FFFFF7EF07F0FFFF21EC0EF00101E4
:100F3000D66F59EC12F0DEEC0FF00101D66F4EC007
:100F400016F0176A4FC018F0196A20EE01F0D75159
:100F5000D926D851DA22DF50436E43501A6E1B6AED
:100F600020EE02F0D751D926D851DA22DF50446E54
:100F700044501C6E1D6A21EC05F0010120EE01F0C9
:100F8000D751D926D851DA22DF504E6E20EE02F02A
:100F9000D751D926D851DA22DF504F6E20EE03F018
:100FA000D751D926D851DA22DF50436E5950435CCD
:100FB000596E5A50D8A05A285A6A5A5E5ABEE6EF5D
:100FC00007F0E3EF07F0FFFFEBEF07F0FFFF680E1E
:100FD0005926010E5A22FFFF59509AEC0EF0A8EC48
:100FE0000DF043EC12F0DEEC0FF00101D66FFFFFC5
:100FF000D6511200FFFFFFFF1A6E1A50D8B403EF4C
:1010000008F006EF08F0FFFF2BEF08F0FFFF15BE1A
:101010000FEF08F00CEF08F0FFFF2BEF08F0FFFFD9
:1010200012C016F013C017F014C018F015C019F054
:10103000161E171E181E191E162A000E1722182219
:10104000192216C01CF017C01DF018C01EF019C0E0
:101050001FF034EF08F0FFFF12C01CF013C01DF0AA
:1010600014C01EF015C01FF0FFFF12501310141013
:101070001510D8A43EEF08F041EF08F0FFFF4CEF49
:1010800008F0FFFF000E126E000E136E000E146EBD
:10109000000E156EF4EF08F0FFFF960E1B6E58EF72
:1010A00008F0FFFF1B2AD8901F321E321D321C325F
:1010B000FFFF000E1C14166E000E1D14176E000E9E
:1010C0001E14186EFE0E1F14196E165017101810ED
:1010D0001910D8A46EEF08F071EF08F0FFFF51EF80
:1010E00008F0FFFF81EF08F0FFFF1B2A010E1C260E
:1010F000000E1D221E221F22D8901F321E321D32CA
:101100001C32FFFF000E1C14166E000E1D14176E0D
:10111000000E1E14186EFF0E1F14196E16501710B5
:1011200018101910D8A497EF08F09AEF08F0FFFFF5
:1011300074EF08F0FFFFA4EF08F0FFFF1B06D89044
:101140001C361D361E361F36FFFF1EBEAAEF08F0E6
:10115000ADEF08F0FFFFB7EF08F0FFFF020E1B60D6
:10116000B4EF08F0B7EF08F0FFFF9DEF08F0FFFFC6
:101170001BB0BDEF08F0C0EF08F0FFFFC2EF08F0B2
:10118000FFFF1E9EFFFFD8901B321BC016F0176A90
:10119000186A196A16C019F0186A176A166A165082
:1011A0001C1217501D1218501E1219501F121A50DF
:1011B000D8B4DDEF08F0E0EF08F0FFFFEBEF08F048
:1011C000FFFF15BEE9EF08F0E6EF08F0FFFFEBEFD9
:1011D00008F0FFFF1F8EFFFF1CC012F01DC013F0B0
:1011E0001EC014F01FC015F0FFFF1200FFFFFFFF2D
:1011F000000E126E000E73EC0FF0000E126E010E58
:1012000073EC0FF0000E126E020E73EC0FF0000E76
:10121000126E000EEDEC10F0010E126E000EEDECF1
:1012200010F0020E126E000EEDEC10F0000E126EB9
:10123000010E79EC10F0010E126E010E79EC10F037
:10124000020E126E010E79EC10F0000E126E000EFE
:10125000B3EC10F0010E126E000EB3EC10F0020EA3
:10126000126E000EB3EC10F0010E166E010E176E2A
:10127000010E186ECA84000E5C6E000E5B6EFA0ED4
:10128000686ED58EC5EF09F0FFFF5B505C10D8B4D7
:101290004CEF09F04FEF09F0FFFF59EF09F0FFFFA6
:1012A00089948A988B94000E5C6E030E5B6EE3EF5C
:1012B00009F0FFFF84B05FEF09F062EF09F0FFFF74
:1012C0006CEF09F0FFFF1650D8A469EF09F06CEF3E
:1012D00009F0FFFF71EF09F0FFFF000E166E73EFCC
:1012E00009F0FFFF8984FFFF84B279EF09F07CEFFA
:1012F00009F0FFFF86EF09F0FFFF1750D8A483EF36
:1013000009F086EF09F0FFFF8BEF09F0FFFF000EF9
:10131000176E8DEF09F0FFFF8A88FFFF84B493EF0B
:1013200009F096EF09F0FFFFA0EF09F0FFFF18505A
:10133000D8A49DEF09F0A0EF09F0FFFFA5EF09F099
:10134000FFFF000E186EA7EF09F0FFFF8B84FFFF71
:10135000B0EC12F012501310D8B4B1EF09F0B4EFA2
:1013600009F0FFFFA7EF09F0FFFF89948A988B949B
:10137000FFFFB0EC12F012501310D8B4C2EF09F016
:10138000C5EF09F0FFFFB8EF09F0FFFF1650D8A432
:10139000CCEF09F0CFEF09F0FFFF44EF09F0FFFFBA
:1013A0001750D8A4D6EF09F0D9EF09F0FFFF44EFAA
:1013B00009F0FFFF1850D8A4E0EF09F0E3EF09F0BF
:1013C000FFFF44EF09F0FFFFD59ECA94000ED76ED1
:1013D000000ED66E000ECC6E13EC13F05B501200B4
:1013E000FFFFFFFF1B6E450E6024D96EDA6A000E08
:1013F000DA221BC0DFFF602A0DEF0AF0FFFF050EA7
:101400006D6E28EF0AF0FFFF090E6D6E28EF0AF0EF
:10141000FFFF010E6D6E28EF0AF0FFFF4550196EB9
:101420001A6A1A50000AD8B418EF0AF028EF0AF026
:10143000FFFF1950000AD8B4FEEF09F0010AD8B432
:1014400003EF0AF0030AD8B408EF0AF028EF0AF015
:10145000FFFF6D50605CD8A030EF0AF033EF0AF068
:10146000FFFF9FEF0AF0FFFF000E606E84EF0AF0AF
:10147000FFFF6350040DDB0EF324D96E000EF42041
:10148000DA6E46C0DFFF6350040DDC0EF324D96E24
:10149000000EF420DA6E47C0DFFF6350040DDD0E4E
:1014A000F324D96E000EF420DA6E48C0DFFF6350DB
:1014B000040DDE0EF324D96E000EF420DA6E49C05E
:1014C000DFFF632A9FEF0AF0FFFF46C0EFF047C03F
:1014D000F0F048C0F1F049C0F2F04AC0F3F04BC060
:1014E000F4F04CC0F5F04DC0F6F0010E616E9FEFC8
:1014F0000AF0FFFF010E626E9FEF0AF0FFFF080E79
:101500008CEC0CF09FEF0AF0FFFF4550196E1A6A41
:101510001A50000AD8B48FEF0AF07EEF0AF0FFFFEE
:101520001950000AD8B438EF0AF0010AD8B464EFB1
:101530000AF0030AD8B479EF0AF07EEF0AF0FFFF51
:101540001200FFFFFFFF0A6E450E6024D96EDA6AB3
:10155000000EDA220AC0DFFF602ABEEF0AF0FFFFAA
:10156000050E6D6ED9EF0AF0FFFF090E6D6ED9EF13
:101570000AF0FFFF010E6D6ED9EF0AF0FFFF455034
:10158000086E096A0950000AD8B4C9EF0AF0D9EF09
:101590000AF0FFFF0850000AD8B4AFEF0AF0010AC2
:1015A000D8B4B4EF0AF0030AD8B4B9EF0AF0D9EF0F
:1015B0000AF0FFFF6D50605CD8A0E1EF0AF0E4EFA5
:1015C0000AF0FFFF50EF0BF0FFFF000E606E35EFEB
:1015D0000BF0FFFF6350040DDB0EF324D96E000EF9
:1015E000F420DA6E46C0DFFF6350040DDC0EF324F6
:1015F000D96E000EF420DA6E47C0DFFF6350040D91
:10160000DD0EF324D96E000EF420DA6E48C0DFFF41
:101610006350040DDE0EF324D96E000EF420DA6E52
:1016200049C0DFFF632A50EF0BF0FFFF46C0EFF029
:1016300047C0F0F048C0F1F049C0F2F04AC0F3F002
:101640004BC0F4F04CC0F5F04DC0F6F0010E616EE9
:1016500050EF0BF0FFFF010E626E50EF0BF0FFFF3B
:10166000080E1AEC0DF050EF0BF0FFFF4550086E1E
:10167000096A0950000AD8B440EF0BF02FEF0BF0C5
:10168000FFFF0850000AD8B4E9EF0AF0010AD8B405
:1016900015EF0BF0030AD8B42AEF0BF02FEF0BF085
:1016A000FFFF1200FFFFFFFF0DEC12F06FEC12F0D6
:1016B00082EC12F095EC12F0BAEC12F0C3EC12F0DE
:1016C000000E136E0A0E126EA4EC12F0F7EC08F086
:1016D0000101DB6FDB51D8B470EF0BF073EF0BF04F
:1016E000FFFF7AEF0BF0FFFFDB518CEC0CF0FFFFFC
:1016F00077EF0BF0FFFFAB88FFFF2FEC13F0000933
:10170000D8B485EF0BF088EF0BF0FFFFD3EF0BF0B1
:10171000FFFFCAEC12F012C0DCF113C0DDF10101D1
:1017200020EE02F0DC51D926DD51DA22DF50576E6F
:1017300020EE03F0DC51D926DD51DA22DF50586E5D
:10174000AB98000EF1EC09F0FF0EF1EC09F001018D
:1017500020EE05F0DC51D926DD51DA22DF50F1EC24
:1017600009F0010120EE06F0DC51D926DD51DA2224
:10177000DF50F1EC09F0010120EE04F0DC51D92634
:10178000DD51DA22DF50D96F20EE07F0DC51D92687
:10179000DD51DA22DF50DA6FD951DA5DF1EC09F070
:1017A000AB88FFEC12F0FFFF2BEC13F00009D8B46C
:1017B000DCEF0BF0DFEF0BF0FFFF7CEF0BF0FFFF38
:1017C000B4EC06F00101DB6FDB518CEC0CF0D8ECD3
:1017D00012F027EC13F061EC11F07CEF0BF0CEEF80
:1017E00000F0FFFF3B343C34426E4250D8A4FBEF84
:1017F0000BF0FEEF0BF0FFFF0AEF0CF0FFFFFFFF17
:10180000000E396E000E3A6E000E3B6E000E3C6EFE
:1018100089EF0CF0FFFF39C03DF03AC03EF03BC00D
:101820003FF03CC040F0200E1CEF0CF0FFFFD890C2
:1018300040323F323E323D32FFFFE82E16EF0CF0D1
:101840003D50416E3B8EFF0E3916FF0E3A16FF0ECD
:101850003B16000E3C16960E425E42BE35EF0CF073
:1018600032EF0CF0FFFF4FEF0CF0FFFF4250800A09
:10187000970FD8B03EEF0CF041EF0CF0FFFF44EFB4
:101880000CF0FFFFFFEF0BF0FFFFD8903C323B3234
:101890003A323932423E44EF0CF06DEF0CF0FFFF6C
:1018A0001F0E426456EF0CF059EF0CF0FFFF63EF90
:1018B0000CF0FFFFFFEF0BF0FFFFD89039363A3600
:1018C0003B363C364206FFFF4250D8A46AEF0CF08C
:1018D0006DEF0CF0FFFF5CEF0CF0FFFF4150D8B450
:1018E00074EF0CF077EF0CF0FFFF80EF0CF0FFFFD0
:1018F0003C1E3B1E3A1E396C000E3A223B223C2213
:10190000FFFF39C039F03AC03AF03BC03BF03CC071
:101910003CF0FFFF1200FFFFFFFF186EE8EF0CF036
:10192000FFFFA50E126E000E136E1E0E146EBFEC9E
:1019300011F017EF0DF0FFFF5E0E126E010E136E29
:10194000290E146EBFEC11F017EF0DF0FFFF870E9C
:10195000126E010E136E280E146EBFEC11F017EF0D
:101960000DF0FFFF350E126E010E136E290E146E70
:10197000BFEC11F017EF0DF0FFFF840E126E000E9A
:10198000136E210E146EBFEC11F017EF0DF0FFFF78
:10199000000E126E010E136E350E146EBFEC11F0B8
:1019A00017EF0DF0FFFFAF0E126E010E136E270E34
:1019B000146EBFEC11F017EF0DF0FFFFC30E126EA7
:1019C000000E136E180E146EBFEC11F017EF0DF031
:1019D000FFFF1850166E176A1750000AD8B4F3EFBD
:1019E0000CF017EF0DF0FFFF1650010AD8B490EF7E
:1019F0000CF0030AD8B49BEF0CF0010AD8B4A6EFA0
:101A00000CF0070AD8B4B1EF0CF0010AD8B4BCEF5F
:101A10000CF0030AD8B4C7EF0CF0010AD8B4D2EF27
:101A20000CF00F0AD8B4DDEF0CF017EF0DF0FFFF4C
:101A30001200FFFFFFFF076E76EF0DF0FFFFA50E10
:101A4000016E000E026E1E0E036EE6EC11F0A5EFA5
:101A50000DF0FFFF5E0E016E010E026E290E036E89
:101A6000E6EC11F0A5EF0DF0FFFF870E016E010E01
:101A7000026E280E036EE6EC11F0A5EF0DF0FFFFED
:101A8000350E016E010E026E290E036EE6EC11F0AA
:101A9000A5EF0DF0FFFF840E016E000E026E210E09
:101AA000036EE6EC11F0A5EF0DF0FFFF000E016EE6
:101AB000010E026E350E036EE6EC11F0A5EF0DF08F
:101AC000FFFFAF0E016E010E026E270E036EE6ECF5
:101AD00011F0A5EF0DF0FFFFC30E016E000E026EB8
:101AE000180E036EE6EC11F0A5EF0DF0FFFF0750A6
:101AF000056E066A0650000AD8B481EF0DF0A5EF16
:101B00000DF0FFFF0550010AD8B41EEF0DF0030AD7
:101B1000D8B429EF0DF0010AD8B434EF0DF0070A5C
:101B2000D8B43FEF0DF0010AD8B44AEF0DF0030A24
:101B3000D8B455EF0DF0010AD8B460EF0DF00F0ADC
:101B4000D8B46BEF0DF0A5EF0DF0FFFF1200FFFF13
:101B5000FFFF020E126E010EEDEC10F0CA84000EB3
:101B60005C6E000E5B6EFA0E686ED58E09EC13F09B
:101B7000EBEF0DF0FFFF5B505C10D8B4C2EF0DF03F
:101B8000C5EF0DF0FFFFCDEF0DF0FFFF8B94000EC2
:101B90005C6E060E5B6E01EF0EF0FFFF8B84FFFFA5
:101BA000B0EC12F012501310D8B4D9EF0DF0DCEFF6
:101BB0000DF0FFFFCFEF0DF0FFFF8B94FFFFB0ECB8
:101BC00012F012501310D8B4E8EF0DF0EBEF0DF057
:101BD000FFFFDEEF0DF0FFFFEDEC12F012501310DF
:101BE000D8B4F5EF0DF0F8EF0DF0FFFFBAEF0DF000
:101BF000FFFF83BEFEEF0DF001EF0EF0FFFFBAEF27
:101C00000DF0FFFF33EC13F004EC13F0D59ECA94F3
:101C1000000ED76E000ED66E000ECC6E13EC13F0D5
:101C200083AE15EF0EF018EF0EF0FFFF1DEF0EF074
:101C3000FFFF000E5C6E020E5B6EFFFF5B5012003A
:101C4000FFFFFFFF020E126E010EEDEC10F0CA84D2
:101C5000000E5C6E000E5B6EFA0E686ED58E09EC9F
:101C600013F064EF0EF0FFFF5B505C10D8B43BEF55
:101C70000EF03EEF0EF0FFFF46EF0EF0FFFF8B94ED
:101C8000000E5C6E060E5B6E7AEF0EF0FFFF8B842B
:101C9000FFFFB0EC12F012501310D8B452EF0EF058
:101CA00055EF0EF0FFFF48EF0EF0FFFF8B94FFFFA4
:101CB000B0EC12F012501310D8B461EF0EF064EFD4
:101CC0000EF0FFFF57EF0EF0FFFFF3EC12F0125093
:101CD0001310D8B46EEF0EF071EF0EF0FFFF33EF7C
:101CE0000EF0FFFF83BE77EF0EF07AEF0EF0FFFFEE
:101CF00033EF0EF0FFFF33EC13F00EEC13F0D59E34
:101D0000CA94000ED76E000ED66E000ECC6E13EC89
:101D100013F083AE8EEF0EF091EF0EF0FFFF96EF13
:101D20000EF0FFFF000E5C6E020E5B6EFFFF5B505D
:101D30001200FFFFFFFF0001FA6FAC0E246EFF0ED2
:101D4000256EB30E266E3D0E276E0001FA51126EFF
:101D5000136A146A156A010EFBEC07F012C020F03A
:101D600013C021F014C022F015C023F008EC03F0DA
:101D700020C039F021C03AF022C03BF023C03CF033
:101D8000F1EC0BF039C0FBF03AC0FCF0000E0001A2
:101D9000FE6F000EFD6FF8EF0EF0FFFFC30E8C1606
:101DA000030EFD15F76F000EFE15F86F800EF72578
:101DB000D96E000EF821DA6EDF50F96FD890F9373E
:101DC000D890F9358C12CA84FFFFB0EC12F0125093
:101DD0001310D8B4EEEF0EF0F1EF0EF0FFFFE4EFCA
:101DE0000EF0FFFFCA84000ECC6E0001FD4BFE2BEF
:101DF000FFFFFB51FD5DFC51FE59D8A002EF0FF033
:101E000005EF0FF0FFFFCDEF0EF0FFFF1200FFFF19
:101E10004572726F722C2074696D652065786365F8
:101E20006564656420746F207265616368207468FE
:101E30006520656E64206F6620746865205A2041B5
:101E40007869730A004572726F722C2074696D652F
:101E500020657863656564656420746F20726561D0
:101E600063682074686520706F696E740A0045723B
:101E7000726F722C206E6F206F626A6563742072BD
:101E8000656C65766174656420616C6F6E67205A5D
:101E900020417869730A004572726F722C20746950
:101EA0006D6520657863656564656420746F207274
:101EB0006573657420706F736974696F6E0A00468C
:101EC0006174616C204572726F722C20706C656158
:101ED0007365207265736574207468652064657627
:101EE000696365210A00FFFF156EC0EF0FF0FFFF69
:101EF00015C013F0010E1316133A13468950131828
:101F0000DF0B1318896E15C013F0020E13168A50DA
:101F10001318FE0B13188A6EDBEF0FF0FFFF15C0CE
:101F200013F0010E1316133A134613468A50131872
:101F3000BF0B13188A6E15C013F0020E131613325E
:101F400013328A5013187F0B13188A6EDBEF0FF0D1
:101F5000FFFF15C013F0010E1316133A8B50131820
:101F6000EF0B13188B6E15C013F0020E1316133AF5
:101F700013468B501318DF0B13188B6EDBEF0FF02B
:101F8000FFFF1250136E146A1450000AD8B4CBEF3E
:101F90000FF0DBEF0FF0FFFF1350000AD8B477EF1C
:101FA0000FF0010AD8B48EEF0FF0030AD8B4A8EFEF
:101FB0000FF0DBEF0FF0FFFF1200FFFFFFFF020E3D
:101FC000126E000EEDEC10F0CA84000E5C6E000E76
:101FD0005B6EFA0E686ED58E1FEF10F0FFFF5B5040
:101FE0005C10D8B4F6EF0FF0F9EF0FF0FFFF01EF40
:101FF00010F0FFFF8B94000E5C6E060E5B6E28EFF8
:1020000010F0FFFF8B84FFFFB0EC12F012501310A2
:10201000D8B40DEF10F010EF10F0FFFF03EF10F049
:10202000FFFF8B94FFFFB0EC12F012501310D8B4E6
:102030001CEF10F01FEF10F0FFFF12EF10F0FFFF8A
:1020400084A425EF10F028EF10F0FFFFEEEF0FF063
:10205000FFFFD59ECA94000ED76E000ED66E000EFE
:10206000CC6E13EC13F05B501200FFFF100EF66EF7
:102070001E0EF76E000EF86E01EE00F010EED6F0B8
:102080000900F5CFEEFFE550E150FAE1220EF66EC1
:10209000230EF76E000EF86E00EE80F010EE5BF08F
:1020A0000900F5CFEEFFE550E150FAE1860EF66E3D
:1020B000260EF76E000EF86E00EE69F010EE05F0D9
:1020C0000900F5CFEEFFE550E150FAE100EEDBF05C
:1020D0001C0EEE6AE806FDE100EE45F0240EEE6A05
:1020E000E806FDE16E906E92000EF86E000153EF6F
:1020F0000BF0FFFF156E95EF10F0FFFF15B002D04B
:102100008A9401D08A84B0EF10F0FFFF15B002D09E
:102110008B9001D08B80B0EF10F0FFFF15B002D094
:102120008C9001D08C80B0EF10F0FFFF1250136E36
:10213000146A1450000AD8B4A0EF10F0B0EF10F0F9
:10214000FFFF1350000AD8B47DEF10F0010AD8B495
:1021500085EF10F0030AD8B48DEF10F0B0EF10F057
:10216000FFFF1200FFFFFFFF156ECFEF10F0FFFF24
:1021700015B002D0899601D08986EAEF10F0FFFFF2
:1021800015B002D08A9A01D08A8AEAEF10F0FFFFD8
:1021900015B002D08B9601D08B86EAEF10F0FFFFCE
:1021A0001250136E146A1450000AD8B4DAEF10F00B
:1021B000EAEF10F0FFFF1350000AD8B4B7EF10F0A9
:1021C000010AD8B4BFEF10F0030AD8B4C7EF10F07B
:1021D000EAEF10F0FFFF1200FFFFFFFF156E09EF9F
:1021E00011F0FFFF15B002D0899201D0898224EF4F
:1021F00011F0FFFF15B002D08A9601D08A8624EF35
:1022000011F0FFFF15B002D08B9201D08B8224EF2A
:1022100011F0FFFF1250136E146A1450000AD8B464
:1022200014EF11F024EF11F0FFFF1350000AD8B49F
:10223000F1EF10F0010AD8B4F9EF10F0030AD8B4A6
:1022400001EF11F024EF11F0FFFF1200FFFFFFFF7D
:10225000046E43EF11F0FFFF04B002D0899601D065
:1022600089865EEF11F0FFFF04B002D08A9A01D098
:102270008A8A5EEF11F0FFFF04B002D08B9601D086
:102280008B865EEF11F0FFFF0150026E036A035070
:10229000000AD8B44EEF11F05EEF11F0FFFF0250CC
:1022A000000AD8B42BEF11F0010AD8B433EF11F0C3
:1022B000030AD8B43BEF11F05EEF11F0FFFF1200FC
:1022C000FFFFFFFF000E146EFFFF1450126E136A23
:1022D000D89012361336D89012361336DF0E1224E9
:1022E000D96E000E1320DA6E1450040DDB0EF324A9
:1022F000E16E000EF420E26EDECFE6FFDECFE6FFF9
:10230000DECFE6FFDECFE6FF142A030E14648BEF68
:1023100011F08EEF11F0FFFF64EF11F0FFFF1200DC
:10232000FFFF0903060C4572726F722C20706F69F3
:102330006E74206F75747369646520626F756E6466
:1023400061726965730A004572726F722C2066654E
:102350006564206C696E65206E6F742064656669C3
:102360006E65640A00436F6D6D616E64206E6F74FC
:0D237000207265636F676E697A65640A000C
:10237E00FFFF010E156ED8EF11F0FFFF12C0D9FF4F
:10238E0013C0DAFFDF50AD6EFFFFACA2D1EF11F03C
:10239E00D4EF11F0FFFFCBEF11F0FFFF124A132A1B
:1023AE00152AFFFF1450155CD8A0E0EF11F0E3EFF3
:1023BE0011F0FFFFC4EF11F0FFFF1200FFFFFFFF50
:1023CE00010E046EFFEF11F0FFFF01C0D9FF02C036
:1023DE00DAFFDF50AD6EFFFFACA2F8EF11F0FBEFAE
:1023EE0011F0FFFFF2EF11F0FFFF014A022A042A5B
:1023FE00FFFF0350045CD8A007EF12F00AEF12F0B3
:10240E00FFFFEBEF11F0FFFF1200FFFFFFFFF2BE29
:10241E0013EF12F016EF12F0FFFF18EF12F0FFFF9E
:10242E00F28EFFFFF2BC1EEF12F021EF12F0FFFF53
:10243E0023EF12F0FFFFF28CFFFFD08EF28A9D8009
:10244E009D829D8A1200FFFFFFFF000E016E010E9E
:10245E0027EC11F0010E016E010E27EC11F0020EA9
:10246E00016E010E27EC11F0070E1AEC0DF0FFFFB6
:10247E003EEF12F01200FFFFFFFF8C92CA84FFFFA7
:10248E00B0EC12F012501310D8B450EF12F053EF0C
:10249E0012F0FFFF46EF12F0FFFFCA84000ECC6E63
:1024AE001200FFFFFFFF8C82CA84FFFFB0EC12F018
:1024BE0012501310D8B466EF12F069EF12F0FFFF4E
:1024CE005CEF12F0FFFFCA84000ECC6E1200FFFF0D
:1024DE00FFFFC150F00B0609C16ED10E9216020E0F
:1024EE009316C00E9416C00E9516968096829684FC
:1024FE00958E1200FFFFFFFFC2503F0B4009C26EC8
:10250E00C18CC70EC216C294C290C19EC150F00BB0
:10251E000E09C16E9D8C9F8C1200FFFFFFFF949CD5
:10252E00948EAC9CAC8AAC98AC94AB8EAB9CAB98B6
:10253E00AB96190EAF6E1200FFFFFFFFCA94CA5082
:10254E00FC0B0109CA6E12C051F013C052F01200FA
:10255E00FFFFFFFF5DC014F0000E5D6E14C012F0A1
:10256E00136A1200FFFFFFFFD59ED59CD59AD58624
:10257E00070ED5121200FFFFFFFF300ECD12CD92C7
:10258E00CD801200FFFFFFFFEF0E126E000E136ED6
:10259E001200FFFFFFFFDB0E126E000E136E120015
:1025AE00FFFFFFFF000E5C6E000E5B6E1200FFFF62
:1025BE00FFFF000E5C6E010E5B6E1200FFFFFFFF51
:1025CE0051C001F052C002F01200FFFFFFFF66C0C3
:1025DE0012F0136A1200FFFFFFFF67C012F0136ABA
:1025EE001200FFFFFFFF5EC012F0136A1200FFFF22
:1025FE00FFFF000E616E1200FFFFFFFF000E666E02
:10260E001200FFFFFFFFC280C2841200FFFFFFFF18
:10261E00000E676E1200FFFFFFFF000E5E6E1200CF
:10262E00FFFFFFFF010E5D6E1200FFFFFFFF010EA9
:10263E00676E1200FFFFFFFF010E666E1200FFFFB6
:10264E00FFFF63061200FFFFFFFF63501200FFFF44
:10265E00FFFF61501200FFFFFFFFC2901200FFFF4D
:10266E00FFFF68501200FFFFFFFF5E2A1200FFFF00
:0D267E00FFFF62501200FFFFE803E80305B4
:02268C00FFFF4E
:020000040020DA
:08000000FFFFFFFFFFFFFFFF00
:020000040030CA
:0E000000FF210D0EFF0080FF0FC00FE00F402C
:00000001FF
