:020000040000FA
:0600000000F0D2EF00F059
:10000800FFFF6E82D9CF0DF0DACF0EF0F3CF0FF0ED
:10001800F4CF10F0F2A413EF00F016EF00F0FFFF9A
:100028002CEF00F0FFFFF294632A82EC13F00B6EC2
:100038000B50635CD8A023EF00F026EF00F0FFFF21
:100048002CEF00F0FFFFD59E000E636E25EC13F039
:10005800FFFF9EA032EF00F035EF00F0FFFF45EF05
:1000680000F0FFFF9E908AEC13F00009D8B43FEF30
:1000780000F042EF00F0FFFF45EF00F0FFFF00EC5B
:1000880013F0FFFF9EA24BEF00F04EEF00F0FFFFD2
:1000980080EF00F0FFFF9E92514A522A2CEC13F099
:1000A8005150015C52500258D8B05DEF00F060EF3B
:1000B80000F0FFFF80EF00F0FFFF000E526E000E11
:1000C800516E622A6250D8B46CEF00F06FEF00F006
:1000D800FFFF7DEF00F0FFFF62B075EF00F078EFF3
:1000E80000F0FFFF7DEF00F0FFFF000E626E86EC70
:1000F80013F0FFFF63EC13F0FFFF9EAC86EF00F0F8
:1001080089EF00F0FFFFB6EF00F0FFFF9E9CC3CF22
:1001180053F0546AC4500C6E0B6A0B5053120C50B7
:1001280054125304040E5458D8A09DEF00F0A0EFC9
:1001380000F0FFFFA7EF00F0FFFF68EC13F06DEC95
:1001480013F0B6EF00F0FFFF5304020E5458D8A086
:10015800B0EF00F0B3EF00F0FFFFB6EF00F0FFFFE5
:1001680068EC13F0FFFF9EAABCEF00F0BFEF00F0B1
:10017800FFFFC6EF00F0FFFF9E9AAECF11F01150BF
:1001880085EC09F0FFFF10C0F4FF0FC0F3FF0EC0AD
:10019800DAFF0DC0D9FF6E921100FFFF74EF11F066
:10060000000000004065006500000400020F500F6C
:10061000320F14641E00FFFF2350800B306E2350F6
:100620002324376E22AE17EF03F01AEF03F0FFFF1B
:100630001CEF03F0FFFF3780FFFF3750D8B423EFE4
:1006400003F026EF03F0FFFF3FEF03F0FFFF372833
:10065000D8A42DEF03F030EF03F0FFFF39EF03F0E4
:10066000FFFF000E206E000E216E000E226E000EA7
:10067000236EFFFF228E000E236E48EF03F0FFFF74
:10068000000E206E000E216E000E226E000E236EF4
:10069000FFFF2750800B301A27502724386E26AED4
:1006A00054EF03F057EF03F0FFFF59EF03F0FFFFA4
:1006B0003880FFFF3850D8B460EF03F063EF03F0E9
:1006C000FFFF7CEF03F0FFFF3828D8A46AEF03F0A8
:1006D0006DEF03F0FFFF76EF03F0FFFF000E246ED7
:1006E000000E256E000E266E000E276EFFFF268E72
:1006F000000E276E85EF03F0FFFF000E246E000E44
:10070000256E000E266E000E276EFFFF245025106A
:1007100026102710D8A48FEF03F092EF03F0FFFF0D
:10072000ACEF03F0FFFF000E206E000E216E000EF6
:10073000226E000E236E800E22127F0E2312FFFF08
:100740003050231220C020F021C021F022C022F01E
:1007500023C023F021EF05F0FFFF3750D8A4B3EFFB
:1007600003F0B6EF03F0FFFFC1EF03F0FFFF000E51
:10077000206E000E216E000E226E000E236E21EF01
:1007800005F0FFFF385037C028F0296A285E000EB8
:10079000295A7F0E2824316E000E2920326E20C087
:1007A0002CF021C02DF022C02EF023C02FF0000E1F
:1007B000206E000E216E000E226E000E236E000EC3
:1007C000336E000E346E000E356E000E366E000E67
:1007D000386E2DEF04F0FFFF3850D8B4F2EF03F07D
:1007E000F5EF03F0FFFF10EF04F0FFFFD8902C3679
:1007F0002D362E362F36D890203621362236233607
:1008000036AE05EF04F008EF04F0FFFF0AEF04F046
:10081000FFFF2080FFFFD89033363436353636362A
:10082000FFFF24502C5C25502D5826502E58275061
:100830002F58D8A01EEF04F021EF04F0FFFF2BEF9C
:1008400004F0FFFF368C24502C5E25502D5A265084
:100850002E5A27502F5AFFFF382AFFFF190E3864EF
:1008600034EF04F037EF04F0FFFFEBEF03F0FFFF8E
:100870002C502D102E102F10D8B441EF04F044EF5F
:1008800004F0FFFF61EF04F0FFFF338061EF04F03D
:10089000FFFFD890203621362236233636AE53EF6E
:1008A00004F056EF04F0FFFF58EF04F0FFFF208044
:1008B000FFFFD89033363436353636363106D8A079
:1008C0003206FFFF22AE67EF04F06AEF04F0FFFF8D
:1008D00048EF04F0FFFF000E386E36AE72EF04F002
:1008E00075EF04F0FFFFA0EF04F0FFFFFF0E3314DD
:1008F000286EFF0E3414296EFF0E35142A6E7F0EFB
:1009000036142B6E285029102A102B10D8B48BEFD8
:1009100004F08EEF04F0FFFF94EF04F0FFFFFFFF01
:10092000010E386EA0EF04F0FFFF20A09AEF04F054
:100930009DEF04F0FFFFA0EF04F0FFFF8FEF04F046
:10094000FFFF3850D8B4A7EF04F0AAEF04F0FFFF80
:10095000D1EF04F0FFFF010E2026000E21222222FB
:10096000232223A0B6EF04F0B9EF04F0FFFFD1EF8C
:1009700004F0FFFF20C028F021C029F022C02AF097
:1009800023C02BF02B342B322A322932283228C0B4
:1009900020F029C021F02AC022F02BC023F0314AD8
:1009A000322AFFFF32BEDDEF04F0325009E1312878
:1009B000D8A0DDEF04F0E0EF04F0FFFFECEF04F06F
:1009C000FFFF000E326E3168000E206E000E216EA9
:1009D000000E226E000E236EFFFF32BEFBEF04F00E
:1009E000325006E13104D8B0F8EF04F0FBEF04F028
:1009F000FFFF0AEF05F0FFFF000E326E000E316EB2
:100A0000000E206E000E216E000E226E000E236E70
:100A1000000E306EFFFF31C037F037A012EF05F047
:100A200015EF05F0FFFF19EF05F0FFFF228E1BEF1A
:100A300005F0FFFF229EFFFFD8903730236E9FEF17
:100A400003F0FFFF1200FFFFFFFF1550195C1D6E42
:100A500016501A581E6E1EBE36EF05F01E5009E1E4
:100A60001D04D8A036EF05F039EF05F0FFFF40EF89
:100A700005F0FFFF010E686E010E1F6E44EF05F0DA
:100A8000FFFF6868000E1F6EFFFF17501B5C1D6E96
:100A900018501C581E6E1EBE56EF05F01E5009E180
:100AA0001D04D8A056EF05F059EF05F0FFFF60EFE9
:100AB00005F0FFFF010E6A6E010E206E64EF05F077
:100AC000FFFF6A68000E206EFFFF010E216E010E0F
:100AD000226ECA84000E5A6E000E596EC80E666EE3
:100AE000D58EA0EF06F0FFFF59505A10D8B47BEF17
:100AF00005F07EEF05F0FFFF85EF05F0FFFF000E2C
:100B00005A6E040E596EB4EF06F0FFFF1F04D8A40E
:100B10008CEF05F08FEF05F0FFFFCEEF05F0FFFF44
:100B20003FEC13F015501226165013221950125C88
:100B30001A501358D8A09FEF05F0A2EF05F0FFFF61
:100B4000A8EF05F0FFFFFFFF000E216E0CEF06F08F
:100B5000FFFF2150D8B4AFEF05F0B2EF05F0FFFF73
:100B60000CEF06F0FFFF685067266750800A7C0F85
:100B7000D8A0BDEF05F0C0EF05F0FFFFC3EF05F013
:100B8000FFFF000E676EFFFF8C0E6724D96EDA6AD6
:100B9000000EDA22DF50896E0CEF06F0FFFF1F50C7
:100BA000D8A4D5EF05F0D8EF05F0FFFF0CEF06F065
:100BB000FFFF3FEC13F015C01DF016C01EF01250E1
:100BC0001D5E13501E5A1D50195C1E501A58D8A095
:100BD000ECEF05F0EFEF05F0FFFFF2EF05F0FFFFA0
:100BE000A3EF05F0FFFF2150D8B4F9EF05F0FCEFBB
:100BF00005F0FFFF0CEF06F0FFFF6850672667BEA9
:100C000007EF06F004EF06F0FFFFC3EF05F0FFFF6C
:100C1000030E676EC3EF05F0FFFF2004D8A413EFA7
:100C200006F016EF06F0FFFF55EF06F0FFFF3FEC72
:100C300013F017501226185013221B50125C1C5030
:100C40001358D8A026EF06F029EF06F0FFFF2FEF8C
:100C500006F0FFFFFFFF000E226E93EF06F0FFFF8E
:100C60002250D8B436EF06F039EF06F0FFFF93EFCD
:100C700006F0FFFF6A5069266950800A7C0FD8A0F1
:100C800044EF06F047EF06F0FFFF4AEF06F0FFFFE4
:100C9000000E696EFFFF880E6924D96EDA6A000EB5
:100CA000DA22DF508A6E93EF06F0FFFF2050D8A4BF
:100CB0005CEF06F05FEF06F0FFFF93EF06F0FFFF3B
:100CC0003FEC13F017C01DF018C01EF012501D5E4F
:100CD00013501E5A1D501B5C1E501C58D8A073EF99
:100CE00006F076EF06F0FFFF79EF06F0FFFF2AEF40
:100CF00006F0FFFF2250D8B480EF06F083EF06F035
:100D0000FFFF93EF06F0FFFF6A50692669BE8EEF82
:100D100006F08BEF06F0FFFF4AEF06F0FFFF030E31
:100D2000696E4AEF06F0FFFFDBEC12F01250131071
:100D3000D8B49DEF06F0A0EF06F0FFFF93EF06F0AA
:100D4000FFFF2150D8A4A7EF06F0AAEF06F0FFFF9F
:100D500073EF05F0FFFF2250D8A4B1EF06F0B4EF17
:100D600006F0FFFF73EF05F0FFFFD59ECA9459EC24
:100D700013F0F7EC12F0000ED76E000ED66E000ED8
:100D8000CC6E5EEC13F059501200FFFFFFFF17EC22
:100D900013F012C0EBF013C0ECF078EF07F0FFFF98
:100DA0004CC015F0166A4DC017F0186A110EF66E99
:100DB000060EF76E0800FFFFF550196E1A6A120E44
:100DC000F66E060EF76E0800FFFFF5501B6E1C6AEC
:100DD00024EC05F00001ED6F110EF66E060EF76EB5
:100DE0000800FFFFF5CF4CF0120EF66E060EF76E00
:100DF0000800FFFFF5CF4DF09CEF07F0FFFF4CC060
:100E000015F0166A4DC017F0186A0F0EF66E060E32
:100E1000F76E0800FFFFF550196E1A6A100EF66E95
:100E2000060EF76E0800FFFFF5501B6E1C6A24ECDF
:100E300005F00001ED6F0F0EF66E060EF76E08005E
:100E4000FFFFF5CF4CF0100EF66E060EF76E0800A1
:100E5000FFFFF5CF4DF09CEF07F0FFFF4CC015F002
:100E6000166A4DC017F0186A0D0EF66E060EF76E74
:100E70000800FFFFF550196E1A6A0E0EF66E060E88
:100E8000F76E0800FFFFF5501B6E1C6A24EC05F09E
:100E90000001ED6F0D0EF66E060EF76E0800FFFFF7
:100EA000F5CF4CF00E0EF66E060EF76E0800FFFF43
:100EB000F5CF4DF09CEF07F0FFFF4CC015F0166A20
:100EC0004DC017F0186A55C019F01A6A56C01BF0C9
:100ED0001C6A24EC05F00001ED6F55C04CF056C0C3
:100EE0004DF09CEF07F0FFFF010EED6F9CEF07F058
:100EF000FFFFEBC0D9FFECC0DAFFDF500001E96F64
:100F0000EA6BEA51000AD8B488EF07F073EF07F0F4
:100F1000FFFFE951000AD8B4CFEF06F0010AD8B4B8
:100F2000FEEF06F0030AD8B42DEF07F0FD0AD8B49F
:100F30005CEF07F073EF07F0FFFFED51D8A4A3EFCC
:100F400007F0A6EF07F0FFFFB4EF07F0FFFF93EC09
:100F50000FF00001ED6FED51D8B4B1EF07F0B4EF31
:100F600007F0FFFFB8EF07F0FFFFED513EEF08F08D
:100F7000FFFF8EEC12F015EC11F00001ED6FED515A
:100F8000D8B4C5EF07F0C8EF07F0FFFFCBEF07F0CD
:100F9000FFFFB4EF07F0FFFF4CC015F0166A4DC01D
:100FA00017F0186A20EE01F0EB51D926EC51DA2245
:100FB000DF50E96FE951196E1A6A20EE02F0EB5129
:100FC000D926EC51DA22DF50EA6FEA511B6E1C6A17
:100FD00024EC05F00001ED6FED51D8B4F2EF07F00D
:100FE000F5EF07F0FFFFF8EF07F0FFFFB4EF07F0B2
:100FF000FFFF20EE01F0EB51D926EC51DA22DF5051
:101000004C6E20EE02F0EB51D926EC51DA22DF5083
:101010004D6E20EE03F0EB51D926EC51DA22DF5071
:10102000E96FE951576E586A58BE1CEF08F019EF86
:1010300008F0FFFF21EF08F0FFFF680E5726010EB2
:101040005822FFFF57501CEC10F00AEC0FF0000183
:10105000ED6FED51D8B42FEF08F032EF08F0FFFF3D
:1010600035EF08F0FFFFB4EF07F0FFFF76EC12F06A
:1010700015EC11F00001ED6FB4EF07F0FFFF120067
:10108000FFFFFFFF1B6E430E5E24D96EDA6A000E6F
:10109000DA221BC0DFFF5E2A6AEF08F0FFFF050EB1
:1010A0006D6E000E5D6E85EF08F0FFFF090E6D6E30
:1010B000000E5D6E85EF08F0FFFF010E6D6E000EF5
:1010C0005D6E85EF08F0FFFF010E5D6E000E5E6E37
:1010D00085EF08F0FFFF4350196E1A6A1A50000A94
:1010E000D8B475EF08F063EF08F0FFFF1950010A5C
:1010F000D8B44EEF08F0030AD8B455EF08F0010A4F
:10110000D8B45CEF08F063EF08F0FFFF6D505E1895
:10111000D8A48DEF08F090EF08F0FFFF82EF09F000
:10112000FFFF5D50D8A497EF08F09AEF08F0FFFF9B
:1011300082EF09F0FFFF000E5E6E64EF09F0FFFF23
:101140006150040DC60EF324D96E000EF420DA6E41
:1011500044C0DFFF6150040DC70EF324D96E000EAA
:10116000F420DA6E4550050DF3CFDFFF6150040D1A
:10117000C80EF324D96E000EF420DA6E4650050D29
:10118000F3CFDFFF6150040DC90EF324D96E000EBA
:10119000F420DA6E47C0DFFF6150040DC70EF32460
:1011A000D96E000EF420DA6E660EDF60DAEF08F01A
:1011B000DDEF08F0FFFFEFEF08F0FFFF6150040DD7
:1011C000C80EF324D96E000EF420DA6E650EDF64CB
:1011D000ECEF08F0EFEF08F0FFFF07EF09F0FFFF7B
:1011E0006150040DC60EF324D96E000EF420DA6EA1
:1011F000DE28D8B4FEEF08F001EF09F0FFFF07EF9B
:1012000009F0FFFF050EEEEC0DF07FEF09F0FFFF98
:10121000612A7FEF09F0FFFF44C0DAF045C0DBF040
:101220004650050DF3CFDCF04750050DF3CFDDF050
:1012300048C0DEF04950050DF3CFDFF04A50050DF0
:10124000F3CFE0F04BC0E1F01F0E0001DC612BEFAB
:1012500009F02EEF09F0FFFF4CEF09F0FFFF660EDB
:10126000DF6135EF09F038EF09F0FFFF4CEF09F0CF
:10127000FFFF650EDD613FEF09F042EF09F0FFFF70
:101280004CEF09F0FFFF650EE06549EF09F04CEF08
:1012900009F0FFFF54EF09F0FFFF000E5F6E050E2F
:1012A000EEEC0DF07FEF09F0FFFF010E5F6E7FEFB8
:1012B00009F0FFFF010E606E7FEF09F0FFFF080EDF
:1012C000EEEC0DF07FEF09F0FFFF4350196E1A6A44
:1012D0001A50000AD8B46FEF09F05EEF09F0FFFF73
:1012E0001950010AD8B49FEF08F0030AD8B40BEFE5
:1012F00009F0010AD8B459EF09F05EEF09F0FFFFD9
:10130000000E436EFFFF1200FFFFFFFF0A6E430E49
:101310005E24D96EDA6A000EDA220AC0DFFF5E2A86
:10132000AEEF09F0FFFF050E6D6E000E5D6EC9EFAA
:1013300009F0FFFF090E6D6E000E5D6EC9EF09F03A
:10134000FFFF010E6D6E000E5D6EC9EF09F0FFFF2D
:10135000010E5D6E000E5E6EC9EF09F0FFFF435097
:10136000086E096A0950000AD8B4B9EF09F0A7EF6E
:1013700009F0FFFF0850010AD8B492EF09F0030A00
:10138000D8B499EF09F0010AD8B4A0EF09F0A7EF9B
:1013900009F0FFFF6D505E18D8A4D1EF09F0D4EF2B
:1013A00009F0FFFFC6EF0AF0FFFF5D50D8A4DBEFA6
:1013B00009F0DEEF09F0FFFFC6EF0AF0FFFF000EB5
:1013C0005E6EA8EF0AF0FFFF6150040DC60EF32415
:1013D000D96E000EF420DA6E44C0DFFF6150040DB8
:1013E000C70EF324D96E000EF420DA6E4550050DB9
:1013F000F3CFDFFF6150040DC80EF324D96E000E49
:10140000F420DA6E4650050DF3CFDFFF6150040D76
:10141000C90EF324D96E000EF420DA6E47C0DFFF48
:101420006150040DC70EF324D96E000EF420DA6E5D
:10143000660EDF601EEF0AF021EF0AF0FFFF33EFC8
:101440000AF0FFFF6150040DC80EF324D96E000EA0
:10145000F420DA6E650EDF6430EF0AF033EF0AF045
:10146000FFFF4BEF0AF0FFFF6150040DC60EF3249F
:10147000D96E000EF420DA6EDE28D8B442EF0AF0FE
:1014800045EF0AF0FFFF4BEF0AF0FFFF050E7CEC83
:101490000EF0C3EF0AF0FFFF612AC3EF0AF0FFFF6F
:1014A00044C0DAF045C0DBF04650050DF3CFDCF068
:1014B0004750050DF3CFDDF048C0DEF04950050D73
:1014C000F3CFDFF04A50050DF3CFE0F04BC0E1F071
:1014D0001F0E0001DC616FEF0AF072EF0AF0FFFFF0
:1014E00090EF0AF0FFFF660EDF6179EF0AF07CEF04
:1014F0000AF0FFFF90EF0AF0FFFF650EDD6183EF5A
:101500000AF086EF0AF0FFFF90EF0AF0FFFF650E8A
:10151000E0658DEF0AF090EF0AF0FFFF98EF0AF018
:10152000FFFF000E5F6E050E7CEC0EF0C3EF0AF0BD
:10153000FFFF010E5F6EC3EF0AF0FFFF010E606E4A
:10154000C3EF0AF0FFFF080E7CEC0EF0C3EF0AF0C9
:10155000FFFF4350086E096A0950000AD8B4B3EF80
:101560000AF0A2EF0AF0FFFF0850010AD8B4E3EF37
:1015700009F0030AD8B44FEF0AF0010AD8B49DEF7E
:101580000AF0A2EF0AF0FFFF000E436EFFFF120009
:10159000FFFFFFFF1A6E1A50D8B4D1EF0AF0D4EF54
:1015A0000AF0FFFFF9EF0AF0FFFF15BEDDEF0AF0CA
:1015B000DAEF0AF0FFFFF9EF0AF0FFFF12C016F0B2
:1015C00013C017F014C018F015C019F0161E171E1E
:1015D000181E191E162A000E17221822192216C0CC
:1015E0001CF017C01DF018C01EF019C01FF002EF4C
:1015F0000BF0FFFF12C01CF013C01DF014C01EF052
:1016000015C01FF0FFFF1250131014101510D8A4AE
:101610000CEF0BF00FEF0BF0FFFF1AEF0BF0FFFFDB
:10162000000E126E000E136E000E146E000E156E7C
:10163000C2EF0BF0FFFF960E1B6E26EF0BF0FFFFC5
:101640001B2AD8901F321E321D321C32FFFF000EA3
:101650001C14166E000E1D14176E000E1E14186E4C
:10166000FE0E1F14196E1650171018101910D8A45A
:101670003CEF0BF03FEF0BF0FFFF1FEF0BF0FFFF16
:101680004FEF0BF0FFFF1B2A010E1C26000E1D2240
:101690001E221F22D8901F321E321D321C32FFFF25
:1016A000000E1C14166E000E1D14176E000E1E1474
:1016B000186EFF0E1F14196E1650171018101910FF
:1016C000D8A465EF0BF068EF0BF0FFFF42EF0BF0D3
:1016D000FFFF72EF0BF0FFFF1B06D8901C361D3684
:1016E0001E361F36FFFF1EBE78EF0BF07BEF0BF0B0
:1016F000FFFF85EF0BF0FFFF020E1B6082EF0BF088
:1017000085EF0BF0FFFF6BEF0BF0FFFF1BB08BEFD4
:101710000BF08EEF0BF0FFFF90EF0BF0FFFF1E9E24
:10172000FFFFD8901B321BC016F0176A186A196A9F
:1017300016C019F0186A176A166A16501C1217504C
:101740001D1218501E1219501F121A50D8B4ABEFA8
:101750000BF0AEEF0BF0FFFFB9EF0BF0FFFF15BE84
:10176000B7EF0BF0B4EF0BF0FFFFB9EF0BF0FFFF9B
:101770001F8EFFFF1CC012F01DC013F01EC014F01E
:101780001FC015F0FFFF1200FFFFFFFF68686A68C7
:101790006C68010E156E010E166E010E176ECA846E
:1017A000000E5A6E000E596EC80E666ED58E87EF0B
:1017B0000CF0FFFF5EEC13F059505A10D8B4E3EF71
:1017C0000BF0E6EF0BF0FFFFEDEF0BF0FFFF000E6D
:1017D0005A6E030E596EA5EF0CF0FFFF84B0F3EFC5
:1017E0000BF0F6EF0BF0FFFF00EF0CF0FFFF1550D2
:1017F000D8A4FDEF0BF000EF0CF0FFFF05EF0CF0AD
:10180000FFFF000E156E1CEF0CF0FFFF68506726FF
:1018100067BE10EF0CF00DEF0CF0FFFF13EF0CF0B4
:10182000FFFF030E676EFFFF8C0E6724D96EDA6A26
:10183000000EDA22DF50896EFFFF84B222EF0CF037
:1018400025EF0CF0FFFF2FEF0CF0FFFF1650D8A490
:101850002CEF0CF02FEF0CF0FFFF34EF0CF0FFFF3C
:10186000000E166E4BEF0CF0FFFF6A50692669BE42
:101870003FEF0CF03CEF0CF0FFFF42EF0CF0FFFFEE
:10188000030E696EFFFF880E6924D96EDA6A000EB6
:10189000DA22DF508A6EFFFF84B451EF0CF054EF70
:1018A0000CF0FFFF5EEF0CF0FFFF1750D8A45BEFCA
:1018B0000CF05EEF0CF0FFFF63EF0CF0FFFF000E8B
:1018C000176E7AEF0CF0FFFF6C506B266BBE6EEF5D
:1018D0000CF06BEF0CF0FFFF71EF0CF0FFFF030E4D
:1018E0006B6EFFFF840E6B24D96EDA6A000EDA226B
:1018F000DF508B6EFFFFDBEC12F012501310D8B4E8
:1019000084EF0CF087EF0CF0FFFF7AEF0CF0FFFF95
:101910001550D8A48EEF0CF091EF0CF0FFFFD9EF2B
:101920000BF0FFFF1650D8A498EF0CF09BEF0CF0D3
:10193000FFFFD9EF0BF0FFFF1750D8A4A2EF0CF078
:10194000A5EF0CF0FFFFD9EF0BF0FFFFD59ECA9477
:1019500059EC13F0F7EC12F0000ED76E000ED66EB5
:10196000000ECC6E5EEC13F059501200FFFFFFFF2B
:1019700058EC12F0A6EC12F0B9EC12F0CCEC12F02C
:10198000EEEC12F009EC13F0000E136E0A0E126E5C
:10199000E5EC12F0C5EC0BF00001F06FF051D8B49B
:1019A000D4EF0CF0D7EF0CF0FFFFDEEF0CF0FFFFF1
:1019B000F051EEEC0DF0FFFFDBEF0CF0FFFFAB881A
:1019C000FFFF7AEC13F00009D8B4E9EF0CF0ECEF6C
:1019D0000CF0FFFF35EF0DF0FFFF10EC13F012C01D
:1019E000F1F013C0F2F0000120EE02F0F151D9261F
:1019F000F251DA22DF50556E20EE03F0F151D92674
:101A0000F251DA22DF50566E010E41EC08F0FF0E63
:101A100041EC08F0000120EE05F0F151D926F25119
:101A2000DA22DF5041EC08F0000120EE06F0F1511F
:101A3000D926F251DA22DF5041EC08F0000120EE05
:101A400004F0F151D926F251DA22DF50EE6F20EE88
:101A500007F0F151D926F251DA22DF50EF6FEE5143
:101A6000EF5D41EC08F045EC13F0FFFF76EC13F06E
:101A70000009D8B43EEF0DF041EF0DF0FFFFE0EFAD
:101A80000CF0FFFFC6EC06F00001F06FF051EEEC39
:101A90000DF01EEC13F072EC13F0B7EC11F0E0EF68
:101AA0000CF0D2EF00F0FFFF3B343C34426E42506A
:101AB000D8A45DEF0DF060EF0DF0FFFF6CEF0DF0BF
:101AC000FFFFFFFF000E396E000E3A6E000E3B6EF8
:101AD000000E3C6EEBEF0DF0FFFF39C03DF03AC059
:101AE0003EF03BC03FF03CC040F0200E7EEF0DF0DA
:101AF000FFFFD89040323F323E323D32FFFFE82EAA
:101B000078EF0DF03D50416E3B8EFF0E3916FF0E03
:101B10003A16FF0E3B16000E3C16960E425E42BE73
:101B200097EF0DF094EF0DF0FFFFB1EF0DF0FFFF19
:101B30004250800A970FD8B0A0EF0DF0A3EF0DF040
:101B4000FFFFA6EF0DF0FFFF61EF0DF0FFFFD89054
:101B50003C323B323A323932423EA6EF0DF0CFEF03
:101B60000DF0FFFF1F0E4264B8EF0DF0BBEF0DF05C
:101B7000FFFFC5EF0DF0FFFF61EF0DF0FFFFD89005
:101B800039363A363B363C364206FFFF4250D8A43F
:101B9000CCEF0DF0CFEF0DF0FFFFBEEF0DF0FFFF2C
:101BA0004150D8B4D6EF0DF0D9EF0DF0FFFFE2EFC2
:101BB0000DF0FFFF3C1E3B1E3A1E396C000E3A2210
:101BC0003B223C22FFFF39C039F03AC03AF03BC01B
:101BD0003BF03CC03CF0FFFF1200FFFFFFFF186E20
:101BE0004AEF0EF0FFFF900E126E000E136E1E0EE7
:101BF000146EE7EC11F079EF0EF0FFFF5E0E126E3F
:101C0000010E136E290E146EE7EC11F079EF0EF051
:101C1000FFFF870E126E010E136E280E146EE7EC96
:101C200011F079EF0EF0FFFF350E126E010E136EFC
:101C3000290E146EE7EC11F079EF0EF0FFFFD60ECF
:101C4000126E010E136E210E146EE7EC11F079EF97
:101C50000EF0FFFF000E126E010E136E350E146EA5
:101C6000E7EC11F079EF0EF0FFFFAF0E126E010EF0
:101C7000136E270E146EE7EC11F079EF0EF0FFFFF4
:101C8000AE0E126E000E136E180E146EE7EC11F00D
:101C900079EF0EF0FFFF1850166E176A1750000A02
:101CA000D8B455EF0EF079EF0EF0FFFF1650010A91
:101CB000D8B4F2EF0DF0030AD8B4FDEF0DF0010A2D
:101CC000D8B408EF0EF0070AD8B413EF0EF0010AEB
:101CD000D8B41EEF0EF0030AD8B429EF0EF0010AB3
:101CE000D8B434EF0EF00F0AD8B43FEF0EF079EF0E
:101CF0000EF0FFFF1200FFFFFFFF076ED8EF0EF0A0
:101D0000FFFF900E016E000E026E1E0E036E0EECB3
:101D100012F007EF0FF0FFFF5E0E016E010E026E74
:101D2000290E036E0EEC12F007EF0FF0FFFF870E87
:101D3000016E010E026E280E036E0EEC12F007EF1C
:101D40000FF0FFFF350E016E010E026E290E036EBD
:101D50000EEC12F007EF0FF0FFFFD60E016E010E32
:101D6000026E210E036E0EEC12F007EF0FF0FFFF74
:101D7000000E016E010E026E350E036E0EEC12F0B7
:101D800007EF0FF0FFFFAF0E016E010E026E270E80
:101D9000036E0EEC12F007EF0FF0FFFFAE0E016EB8
:101DA000000E026E180E036E0EEC12F007EF0FF02D
:101DB000FFFF0750056E066A0650000AD8B4E3EF2D
:101DC0000EF007EF0FF0FFFF0550010AD8B480EFC7
:101DD0000EF0030AD8B48BEF0EF0010AD8B496EFD8
:101DE0000EF0070AD8B4A1EF0EF0010AD8B4ACEF98
:101DF0000EF0030AD8B4B7EF0EF0010AD8B4C2EF60
:101E00000EF00F0AD8B4CDEF0EF007EF0FF0FFFF82
:101E10001200FFFFFFFF010E6C6ECA84000E5A6EA7
:101E2000000E596EC80E666ED58E4AEC13F04FEC5C
:101E300013F054EC13F05BEF0FF0FFFF5EEC13F0C8
:101E400059505A10D8B427EF0FF02AEF0FF0FFFFC8
:101E500031EF0FF0FFFF000E5A6E060E596E71EF54
:101E60000FF0FFFF6C506B266B50800A7C0FD8A0E0
:101E70003CEF0FF03FEF0FF0FFFF42EF0FF0FFFFDF
:101E8000000E6B6EFFFF840E6B24D96EDA6A000EB3
:101E9000DA22DF508B6EFFFFDBEC12F012501310D2
:101EA000D8B455EF0FF058EF0FF0FFFF4BEF0FF0E6
:101EB000FFFF4AEC13F0FFFF33EC13F01250131046
:101EC000D8B465EF0FF068EF0FF0FFFF1DEF0FF0D4
:101ED000FFFF83BE6EEF0FF071EF0FF0FFFF1DEFFE
:101EE0000FF0FFFF7EEC13F0D59ECA9459EC13F06F
:101EF000F7EC12F0000ED76E000ED66E000ECC6E10
:101F00005EEC13F083AE87EF0FF08AEF0FF0FFFF68
:101F10008FEF0FF0FFFF000E5A6E020E596EFFFF9B
:101F200059501200FFFFFFFF010E6C6ECA84000EB5
:101F30005A6E000E596EC80E666ED58E4AEC13F0BE
:101F40004FEC13F054EC13F0E4EF0FF0FFFF5EECF6
:101F500013F059505A10D8B4B0EF0FF0B3EF0FF0A0
:101F6000FFFFBAEF0FF0FFFF000E5A6E060E596E1C
:101F7000FAEF0FF0FFFF6C506B266B50800A7C0F5E
:101F8000D8A0C5EF0FF0C8EF0FF0FFFFCBEF0FF0B9
:101F9000FFFF000E6B6EFFFF840E6B24D96EDA6AB2
:101FA000000EDA22DF508B6EFFFFDBEC12F01250D6
:101FB0001310D8B4DEEF0FF0E1EF0FF0FFFFD4EF16
:101FC0000FF0FFFF4AEC13F0FFFF39EC13F0125053
:101FD0001310D8B4EEEF0FF0F1EF0FF0FFFFA6EF04
:101FE0000FF0FFFF83BEF7EF0FF0FAEF0FF0FFFFE8
:101FF000A6EF0FF0FFFF7EEC13F0D59ECA9459ECCC
:1020000013F0F7EC12F0000ED76E000ED66E000E35
:10201000CC6E5EEC13F083AE10EF10F013EF10F007
:10202000FFFF18EF10F0FFFF000E5A6E020E596E00
:10203000FFFF59501200FFFFFFFF0001E26F000E8B
:102040000001E86F000EE76F000E246E000E256E93
:10205000000E266E400E276EE251126E136A146A4D
:10206000156A010EC9EC0AF012C020F013C021F06D
:1020700014C022F015C023F00BEC03F020C039F09F
:1020800021C03AF022C03BF023C03CF053EC0DF0ED
:1020900039C0E3F03AC0E4F0000E0001E66F000E34
:1020A000E56F85EF10F0FFFF800EE725D96E000E7B
:1020B000E821DA6EDF508C6EE74BE82BE8510AE13D
:1020C000040EE75DD8A067EF10F06AEF10F0FFFF95
:1020D0006FEF10F0FFFF000EE86F000EE76FFFFFDD
:1020E000CA84FFFFDBEC12F012501310D8B47BEF60
:1020F00010F07EEF10F0FFFF71EF10F0FFFFCA94B9
:10210000000ECC6E0001E54BE62BFFFFE351E55DD1
:10211000E451E659D8A08FEF10F092EF10F0FFFFD6
:1021200053EF10F0FFFFF7EC12F05EEC13F012002B
:10213000FFFF4572726F722C2074696D652065789F
:1021400063656564656420746F20726561636820EF
:1021500074686520656E64206F6620746865205A17
:1021600020417869730A004572726F722C2074697D
:102170006D6520657863656564656420746F2072A1
:10218000656163682074686520706F696E740A0009
:102190004572726F722C206E6F206F626A65637475
:1021A0002072656C65766174656420616C6F6E6722
:1021B000205A20417869730A004572726F722C2090
:1021C00074696D6520657863656564656420746F06
:1021D00020726573657420706F736974696F6E0A1D
:1021E00000466174616C204572726F722C20706CB5
:1021F0006561736520726573657420746865206419
:102200006576696365210A004572726F722C2070D1
:102210006F696E74206F75747369646520626F7581
:092220006E6461726965730A00C5
:10222A00FFFF6C68CA84000E5A6E000E596EC80E03
:10223A00666ED58E59EF11F0FFFF5EEC13F0595020
:10224A005A10D8B42BEF11F02EEF11F0FFFF35EF33
:10225A0011F0FFFF000E5A6E060E596E62EF11F072
:10226A00FFFF6C506B266BBE40EF11F03DEF11F093
:10227A00FFFF43EF11F0FFFF030E6B6EFFFF840EAB
:10228A006B24D96EDA6A000EDA22DF508B6EFFFFFA
:10229A00DBEC12F012501310D8B456EF11F059EFCC
:1022AA0011F0FFFF4CEF11F0FFFF84A45FEF11F074
:1022BA0062EF11F0FFFF21EF11F0FFFFD59ECA94E4
:1022CA0059EC13F0F7EC12F0000ED76E000ED66E32
:1022DA00000ECC6E5EEC13F059501200FFFF320E66
:1022EA00F66E210EF76E000EF86E01EE00F010EE9B
:1022FA00F7F00900F5CFEEFFE550E150FAE16A0E7A
:10230A00F66E240EF76E000EF86E00EE80F010EEF8
:10231A0046F00900F5CFEEFFE550E150FAE11C0E58
:10232A00F66E270EF76E000EF86E00EE67F010EEEE
:10233A0007F00900F5CFEEFFE550E150FAE100EEB3
:10234A00C6F01C0EEE6AE806FDE100EE43F0240E2C
:10235A00EE6AE806FDE16E906E92000EF86E0001DC
:10236A00B7EF0CF0FFFF000E146EFFFF1450126E51
:10237A00136AD89012361336D89012361336CA0E0C
:10238A001224D96E000E1320DA6E1450040DC60EF4
:10239A00F324E16E000EF420E26EDECFE6FFDECF1C
:1023AA00E6FFDECFE6FFDECFE6FF142A030E146453
:1023BA00E1EF11F0E4EF11F0FFFFBAEF11F0FFFFC8
:1023CA001200FFFFFFFF010E156E00EF12F0FFFF74
:1023DA0012C0D9FF13C0DAFFDF50AD6EFFFFACA207
:1023EA00F9EF11F0FCEF11F0FFFFF3EF11F0FFFF2F
:1023FA00124A132A152AFFFF1450155CD8A008EFB9
:10240A0012F00BEF12F0FFFFECEF11F0FFFF1200DA
:10241A00FFFFFFFF010E046E27EF12F0FFFF01C05E
:10242A00D9FF02C0DAFFDF50AD6EFFFFACA220EF8A
:10243A0012F023EF12F0FFFF1AEF12F0FFFF014A2A
:10244A00022A042AFFFF0350045CD8A02FEF12F0DF
:10245A0032EF12F0FFFF13EF12F0FFFF1200FFFF3F
:10246A00240C18300903060C11050C1822060C2836
:10247A004572726F722C2066656564206C696E65A0
:10248A00206E6F7420646566696E65640A00436F26
:10249A006D6D616E64206E6F74207265636F676E16
:1024AA00697A65640A00FFFFF2BE5EEF12F061EF1F
:1024BA0012F0FFFF63EF12F0FFFFF28EFFFFF2BC94
:1024CA0069EF12F06CEF12F0FFFF6EEF12F0FFFFF0
:1024DA00F28CFFFFD08EF28A9D809D829D8A120027
:1024EA00FFFFFFFF8C92CA84FFFFDBEC12F0125051
:1024FA001310D8B483EF12F086EF12F0FFFF79EFD2
:10250A0012F0FFFFCA94000ECC6EF7EC12F0120024
:10251A00FFFFFFFF8C82CA84FFFFDBEC12F0125030
:10252A001310D8B49BEF12F09EEF12F0FFFF91EF59
:10253A0012F0FFFFCA94000ECC6EF7EC12F01200F4
:10254A00FFFFFFFFC150F00B0609C16ED10E9216B4
:10255A00020E9316C00E9416C00E95169680968299
:10256A009684958E1200FFFFFFFFC2503F0B400971
:10257A00C26EC18CC70EC216C294C290C19EC1500F
:10258A00F00B0E09C16E9D8C9F8C1200FFFFFFFF9E
:10259A00949C948EAC9CAC8AAC98AC94AB8EAB9C5D
:1025AA00AB98AB96190EAF6E1200FFFFFFFF5BC030
:1025BA0014F0000E5B6E14C012F0136A1200FFFFD3
:1025CA00FFFFCA94CA8212C04FF013C050F0120023
:1025DA00FFFFFFFFD59ED59CD59AD586070ED5124B
:1025EA001200FFFFFFFF000E526E000E516E000E2A
:1025FA00626E1200FFFFFFFF070E7CEC0EF0FFFF7A
:10260A0004EF13F01200FFFFFFFF300ECD12CD9240
:10261A00CD801200FFFFFFFFDA0E126E000E136E5E
:10262A001200FFFFFFFFC60E126E000E136E12009D
:10263A00FFFFFFFF000E5A6E000E596E1200FFFFD9
:10264A00FFFF000E5A6E010E596E1200FFFFFFFFC8
:10265A004FC001F050C002F01200FFFFFFFF64C03C
:10266A0012F0136A1200FFFFFFFF65C012F0136A2F
:10267A001200FFFFFFFF5CC012F0136A1200FFFF97
:10268A00FFFF000E5F6E1200FFFFFFFFC280C284D1
:10269A001200FFFFFFFF000E656E1200FFFFFFFF33
:1026AA00000E646E1200FFFFFFFF000E636E120041
:1026BA00FFFFFFFF000E5C6E1200FFFFFFFF010E1F
:1026CA005B6E1200FFFFFFFF010E656E1200FFFF37
:1026DA00FFFF010E646E1200FFFFFFFF610612008A
:1026EA00FFFFFFFF61501200FFFFFFFF5F50120064
:1026FA00FFFFFFFFC2901200FFFFFFFF66501200AC
:10270A00FFFFFFFF5C2A1200FFFFFFFF605012006D
:09271A00FFFF00010001000105B0
:02272400FFFFB5
:020000040020DA
:08000000FFFFFFFFFFFFFFFF00
:020000040030CA
:0E000000FF210D0EFF0080FF0FC00FE00F402C
:00000001FF
