:020000040000FA
:0600000000F0CEEF00F05D
:10000800FFFF6E82D9CF0DF0DACF0EF0F3CF0FF0ED
:10001800F4CF10F0F2A413EF00F016EF00F0FFFF9A
:100028002CEF00F0FFFFF294632A03EC13F00B6E41
:100038000B50635CD8A023EF00F026EF00F0FFFF21
:100048002CEF00F0FFFFD59E000E636EABEC12F0B4
:10005800FFFF9EA032EF00F035EF00F0FFFF45EF05
:1000680000F0FFFF9E900BEC13F00009D8B43FEFAF
:1000780000F042EF00F0FFFF45EF00F0FFFFF8EC63
:1000880011F0FFFF9EA24BEF00F04EEF00F0FFFFD4
:100098007CEF00F0FFFF9E92514A522AB2EC12F018
:1000A8005150015C52500258D8B05DEF00F060EF3B
:1000B80000F0FFFF7CEF00F0FFFF622A6250D8B427
:1000C80068EF00F06BEF00F0FFFF79EF00F0FFFF43
:1000D80062B071EF00F074EF00F0FFFF79EF00F00D
:1000E800FFFF000E626E07EC13F0FFFFE4EC12F066
:1000F800FFFF9EAC82EF00F085EF00F0FFFFB2EF4C
:1001080000F0FFFF9E9CC3CF53F0546AC4500C6E9E
:100118000B6A0B5053120C5054125304040E5458CB
:10012800D8A099EF00F09CEF00F0FFFFA3EF00F0DC
:10013800FFFFE9EC12F0EEEC12F0B2EF00F0FFFF77
:100148005304020E5458D8A0ACEF00F0AFEF00F003
:10015800FFFFB2EF00F0FFFFE9EC12F0FFFF9EAAED
:10016800B8EF00F0BBEF00F0FFFFC2EF00F0FFFFB9
:100178009E9AAECF11F0115070EC0AF0FFFF10C03C
:10018800F4FF0FC0F3FF0EC0DAFF0DC0D9FF6E9267
:080198001100FFFF04EF10F05D
:1006000000ACFFB33D0004000219190F0F050500EF
:10061000FFFF2350800B306E23502324376E22AE11
:1006200014EF03F017EF03F0FFFF19EF03F0FFFFE4
:100630003780FFFF3750D8B420EF03F023EF03F0EB
:10064000FFFF3CEF03F0FFFF3728D8A42AEF03F0A9
:100650002DEF03F0FFFF36EF03F0FFFF000E206EDB
:10066000000E216E000E226E000E236EFFFF228E02
:10067000000E236E45EF03F0FFFF000E206E000E0C
:10068000216E000E226E000E236EFFFF2750800B9E
:10069000301A27502724386E26AE51EF03F054EF5E
:1006A00003F0FFFF56EF03F0FFFF3880FFFF3850E5
:1006B000D8B45DEF03F060EF03F0FFFF79EF03F0D4
:1006C000FFFF3828D8A467EF03F06AEF03F0FFFFBD
:1006D00073EF03F0FFFF000E246E000E256E000E78
:1006E000266E000E276EFFFF268E000E276E82EF0D
:1006F00003F0FFFF000E246E000E256E000E266E26
:10070000000E276EFFFF2450251026102710D8A4B6
:100710008CEF03F08FEF03F0FFFFA9EF03F0FFFF73
:10072000000E206E000E216E000E226E000E236E53
:10073000800E22127F0E2312FFFF3050231220C0A2
:1007400020F021C021F022C022F023C023F01EEFB0
:1007500005F0FFFF3750D8A4B0EF03F0B3EF03F07C
:10076000FFFFBEEF03F0FFFF000E206E000E216EB4
:10077000000E226E000E236E1EEF05F0FFFF3850B4
:1007800037C028F0296A285E000E295A7F0E2824D7
:10079000316E000E2920326E20C02CF021C02DF0C9
:1007A00022C02EF023C02FF0000E206E000E216E0E
:1007B000000E226E000E236E000E336E000E346E9D
:1007C000000E356E000E366E000E386E2AEF04F005
:1007D000FFFF3850D8B4EFEF03F0F2EF03F0FFFF64
:1007E0000DEF04F0FFFFD8902C362D362E362F3625
:1007F000D890203621362236233636AE02EF04F06A
:1008000005EF04F0FFFF07EF04F0FFFF2080FFFF7C
:10081000D8903336343635363636FFFF24502C5CCC
:1008200025502D5826502E5827502F58D8A01BEF52
:1008300004F01EEF04F0FFFF28EF04F0FFFF368CFA
:1008400024502C5E25502D5A26502E5A27502F5AB0
:10085000FFFF382AFFFF190E386431EF04F034EF40
:1008600004F0FFFFE8EF03F0FFFF2C502D102E10D7
:100870002F10D8B43EEF04F041EF04F0FFFF5EEF1D
:1008800004F0FFFF33805EEF04F0FFFFD8902036C6
:1008900021362236233636AE50EF04F053EF04F003
:1008A000FFFF55EF04F0FFFF2080FFFFD8903336A5
:1008B0003436353636363106D8A03206FFFF22AE42
:1008C00064EF04F067EF04F0FFFF45EF04F0FFFF73
:1008D000000E386E36AE6FEF04F072EF04F0FFFFDB
:1008E0009DEF04F0FFFFFF0E3314286EFF0E34144B
:1008F000296EFF0E35142A6E7F0E36142B6E28508B
:1009000029102A102B10D8B488EF04F08BEF04F0D4
:10091000FFFF91EF04F0FFFFFFFF010E386E9DEF28
:1009200004F0FFFF20A097EF04F09AEF04F0FFFF20
:100930009DEF04F0FFFF8CEF04F0FFFF3850D8B4B8
:10094000A4EF04F0A7EF04F0FFFFCEEF04F0FFFFE9
:10095000010E2026000E21222222232223A0B3EF03
:1009600004F0B6EF04F0FFFFCEEF04F0FFFF20C06D
:1009700028F021C029F022C02AF023C02BF02B340C
:100980002B322A322932283228C020F029C021F007
:100990002AC022F02BC023F0314A322AFFFF32BE98
:1009A000DAEF04F0325009E13128D8A0DAEF04F090
:1009B000DDEF04F0FFFFE9EF04F0FFFF000E326E01
:1009C0003168000E206E000E216E000E226E000EA9
:1009D000236EFFFF32BEF8EF04F0325006E131041F
:1009E000D8B0F5EF04F0F8EF04F0FFFF07EF05F0E3
:1009F000FFFF000E326E000E316E000E206E000EF4
:100A0000216E000E226E000E236E000E306EFFFF70
:100A100031C037F037A00FEF05F012EF05F0FFFF00
:100A200016EF05F0FFFF228E18EF05F0FFFF229E64
:100A3000FFFFD8903730236E9CEF03F0FFFF1200CA
:100A4000FFFFFFFFE90E1A5C030E1B58D8B02BEF17
:100A500005F02EEF05F0FFFF3BEF05F0FFFFE90E7D
:100A60001C5C030E1D58D8A038EF05F03BEF05F0D5
:100A7000FFFF3FEF05F0FFFF050E7FEF06F0FFFFE2
:100A800016501A5C1E6E17501B581F6E1E501F10FA
:100A9000D8B44DEF05F050EF05F0FFFF5AEF05F029
:100AA000FFFF000E126E010EBBEC10F0010E226E65
:100AB00062EF05F0FFFF000E126E000EBBEC10F0AF
:100AC000000E226EFFFF18501C5C1E6E19501D5840
:100AD0001F6E1E501F10D8B470EF05F073EF05F0B5
:100AE000FFFF7DEF05F0FFFF010E126E010EBBEC64
:100AF00010F0010E236E85EF05F0FFFF010E126E60
:100B0000000EBBEC10F0000E236EFFFF010E206EF6
:100B1000010E216ECA84000E5C6E000E5B6E640EC8
:100B2000686ED58E5FEF06F0FFFF5B505C10D8B4A7
:100B30009CEF05F09FEF05F0FFFFA8EF05F0FFFF2A
:100B400089948A98000E5C6E040E5B6E73EF06F05B
:100B5000FFFF2204D8A4AFEF05F0B2EF05F0FFFFCE
:100B6000D0EF05F0FFFFC5EC12F01650122617501B
:100B700013221A50121807E11B501318D8A4C3EF00
:100B800005F0C6EF05F0FFFFCCEF05F0FFFFFFFF1C
:100B9000000E206EF7EF05F0FFFF8984F7EF05F0F8
:100BA000FFFF2250D8A4D7EF05F0DAEF05F0FFFFE2
:100BB000F7EF05F0FFFFC5EC12F016C01EF017C0EE
:100BC0001FF012501E5E13501F5A1A501E1807E1D4
:100BD0001B501F18D8A4EFEF05F0F2EF05F0FFFF50
:100BE000F5EF05F0FFFFC7EF05F0FFFF8984FFFF7A
:100BF0002304D8A4FEEF05F001EF06F0FFFF1FEF7E
:100C000006F0FFFFC5EC12F01850122619501322FF
:100C10001C50121807E11D501318D8A412EF06F04B
:100C200015EF06F0FFFF1BEF06F0FFFFFFFF000EC2
:100C3000216E42EF06F0FFFF8A8842EF06F0FFFFC9
:100C40002350D8A426EF06F029EF06F0FFFF42EF6D
:100C500006F0FFFFC5EC12F01850122619501322AF
:100C60001C50121807E11D501318D8A43AEF06F0D3
:100C70003DEF06F0FFFF40EF06F0FFFF16EF06F036
:100C8000FFFF8A88FFFF7BEC12F012501310D8B4DC
:100C90004CEF06F04FEF06F0FFFF42EF06F0FFFFCC
:100CA00089948A98FFFF7BEC12F012501310D8B48D
:100CB0005CEF06F05FEF06F0FFFF52EF06F0FFFF7C
:100CC0002050D8A466EF06F069EF06F0FFFF94EF1E
:100CD00005F0FFFF2150D8A470EF06F073EF06F087
:100CE000FFFF94EF05F0FFFFD59ECA94000ED76E6C
:100CF000000ED66E000ECC6EDFEC12F05B50FFFFE4
:100D00001200FFFFFFFF9DEC12F012C0D7F113C0DD
:100D1000D8F135EF07F0FFFF4EC016F0176A4FC04D
:100D200018F0196A0D0EF66E060EF76E0800FFFF3A
:100D3000F5501A6E1B6A0E0EF66E060EF76E080060
:100D4000FFFFF5501C6E1D6A21EC05F00101D66F06
:100D50000D0EF66E060EF76E0800FFFFF5CF4EF093
:100D60000E0EF66E060EF76E0800FFFFF5CF4FF081
:100D700058EF07F0FFFF4EC016F0176A4FC018F08B
:100D8000196A0B0EF66E060EF76E0800FFFFF5509F
:100D90001A6E1B6A0C0EF66E060EF76E0800FFFF49
:100DA000F5501C6E1D6A21EC05F00101D66F0B0E8B
:100DB000F66E060EF76E0800FFFFF5CF4EF00C0E34
:100DC000F66E060EF76E0800FFFFF5CF4FF058EFF6
:100DD00007F0FFFF4EC016F0176A4FC018F0196AEF
:100DE000090EF66E060EF76E0800FFFFF5501A6E3C
:100DF0001B6A0A0EF66E060EF76E0800FFFFF5502E
:100E00001C6E1D6A21EC05F00101D66F090EF66E0D
:100E1000060EF76E0800FFFFF5CF4EF00A0EF66ED5
:100E2000060EF76E0800FFFFF5CF4FF058EF07F002
:100E3000FFFF4EC016F0176A4FC018F0196A57C06E
:100E40001AF01B6A58C01CF01D6A21EC05F0010164
:100E5000D66F57C04EF058C04FF058EF07F0FFFF65
:100E6000010E0101D66F58EF07F0FFFFD7C1D9FF80
:100E7000D8C1DAFFDF50436E446A4450000AD8B448
:100E800044EF07F02FEF07F0FFFF4350000AD8B4FC
:100E90008BEF06F0010AD8B4BAEF06F0030AD8B413
:100EA000E9EF06F0FD0AD8B418EF07F02FEF07F0CE
:100EB000FFFFD651D8A45FEF07F062EF07F0FFFF06
:100EC000C5EF07F0FFFFEFEC0DF00101D66F26EC48
:100ED00012F0ACEC0FF00101D66F4EC016F0176A9D
:100EE0004FC018F0196A20EE01F0D751D926D85119
:100EF000DA22DF50436E43501A6E1B6A20EE02F076
:100F0000D751D926D851DA22DF50446E44501C6E96
:100F10001D6A21EC05F0010120EE01F0D751D92620
:100F2000D851DA22DF504E6E20EE02F0D751D9268A
:100F3000D851DA22DF504F6E20EE03F0D751D92678
:100F4000D851DA22DF50436E5950435C596E5A50E3
:100F5000D8A05A285A6A5A5E5ABEB4EF07F0B1EFC9
:100F600007F0FFFFB9EF07F0FFFF680E5926010EEB
:100F70005A22FFFF595068EC0EF076EC0DF010ECA1
:100F800012F0ACEC0FF00101D66FFFFFD65112004A
:100F9000FFFFFFFF1A6E1A50D8B4D1EF07F0D4EF5D
:100FA00007F0FFFFF9EF07F0FFFF15BEDDEF07F0D9
:100FB000DAEF07F0FFFFF9EF07F0FFFF12C016F0BE
:100FC00013C017F014C018F015C019F0161E171E24
:100FD000181E191E162A000E17221822192216C0D2
:100FE0001CF017C01DF018C01EF019C01FF002EF52
:100FF00008F0FFFF12C01CF013C01DF014C01EF05B
:1010000015C01FF0FFFF1250131014101510D8A4B4
:101010000CEF08F00FEF08F0FFFF1AEF08F0FFFFEA
:10102000000E126E000E136E000E146E000E156E82
:10103000C2EF08F0FFFF960E1B6E26EF08F0FFFFD1
:101040001B2AD8901F321E321D321C32FFFF000EA9
:101050001C14166E000E1D14176E000E1E14186E52
:10106000FE0E1F14196E1650171018101910D8A460
:101070003CEF08F03FEF08F0FFFF1FEF08F0FFFF25
:101080004FEF08F0FFFF1B2A010E1C26000E1D2249
:101090001E221F22D8901F321E321D321C32FFFF2B
:1010A000000E1C14166E000E1D14176E000E1E147A
:1010B000186EFF0E1F14196E165017101810191005
:1010C000D8A465EF08F068EF08F0FFFF42EF08F0E2
:1010D000FFFF72EF08F0FFFF1B06D8901C361D368D
:1010E0001E361F36FFFF1EBE78EF08F07BEF08F0BC
:1010F000FFFF85EF08F0FFFF020E1B6082EF08F094
:1011000085EF08F0FFFF6BEF08F0FFFF1BB08BEFE0
:1011100008F08EEF08F0FFFF90EF08F0FFFF1E9E33
:10112000FFFFD8901B321BC016F0176A186A196AA5
:1011300016C019F0186A176A166A16501C12175052
:101140001D1218501E1219501F121A50D8B4ABEFAE
:1011500008F0AEEF08F0FFFFB9EF08F0FFFF15BE93
:10116000B7EF08F0B4EF08F0FFFFB9EF08F0FFFFAA
:101170001F8EFFFF1CC012F01DC013F01EC014F024
:101180001FC015F0FFFF1200FFFFFFFF000E126EE1
:10119000000E41EC0FF0000E126E010E41EC0FF04C
:1011A000000E126E020E41EC0FF0000E126E000ED9
:1011B000BBEC10F0010E126E000EBBEC10F0020E34
:1011C000126E000EBBEC10F0000E126E010E47EC1A
:1011D00010F0010E126E010E47EC10F0020E126EAE
:1011E000010E47EC10F0000E126E000E81EC10F0B4
:1011F000010E126E000E81EC10F0020E126E000E47
:1012000081EC10F0010E166E010E176E010E186EB5
:10121000CA84000E5C6E000E5B6E640E686ED58E26
:1012200093EF09F0FFFF5B505C10D8B41AEF09F0A0
:101230001DEF09F0FFFF27EF09F0FFFF89948A985F
:101240008B94000E5C6E030E5B6EB1EF09F0FFFF36
:1012500084B02DEF09F030EF09F0FFFF3AEF09F00D
:10126000FFFF1650D8A437EF09F03AEF09F0FFFF5F
:101270003FEF09F0FFFF000E166E41EF09F0FFFF90
:101280008984FFFF84B247EF09F04AEF09F0FFFFBE
:1012900054EF09F0FFFF1750D8A451EF09F054EFB5
:1012A00009F0FFFF59EF09F0FFFF000E176E5BEF2B
:1012B00009F0FFFF8A88FFFF84B461EF09F064EF53
:1012C00009F0FFFF6EEF09F0FFFF1850D8A46BEF95
:1012D00009F06EEF09F0FFFF73EF09F0FFFF000E5A
:1012E000186E75EF09F0FFFF8B84FFFF7BEC12F0A7
:1012F00012501310D8B47FEF09F082EF09F0FFFF0E
:1013000075EF09F0FFFF89948A988B94FFFF7BECBF
:1013100012F012501310D8B490EF09F093EF09F0C7
:10132000FFFF86EF09F0FFFF1650D8A49AEF09F0EF
:101330009DEF09F0FFFF12EF09F0FFFF1750D8A44F
:10134000A4EF09F0A7EF09F0FFFF12EF09F0FFFF8C
:101350001850D8A4AEEF09F0B1EF09F0FFFF12EF7B
:1013600009F0FFFFD59ECA94000ED76E000ED66E10
:10137000000ECC6EDFEC12F05B501200FFFFFFFF9F
:101380001B6E450E5E24D96EDA6A000EDA221BC08F
:10139000DFFF5E2ADBEF09F0FFFF050E6D6EF6EF53
:1013A00009F0FFFF090E6D6EF6EF09F0FFFF010E69
:1013B0006D6EF6EF09F0FFFF4550196E1A6A1A506C
:1013C000000AD8B4E6EF09F0F6EF09F0FFFF195074
:1013D000000AD8B4CCEF09F0010AD8B4D1EF09F073
:1013E000030AD8B4D6EF09F0F6EF09F0FFFF6D500D
:1013F0005E5CD8A0FEEF09F001EF0AF0FFFF6DEF91
:101400000AF0FFFF000E5E6E52EF0AF0FFFF615020
:10141000040DDB0EF324D96E000EF420DA6E46C004
:10142000DFFF6150040DDC0EF324D96E000EF420B2
:10143000DA6E47C0DFFF6150040DDD0EF324D96E74
:10144000000EF420DA6E48C0DFFF6150040DDE0E9E
:10145000F324D96E000EF420DA6E49C0DFFF612A52
:101460006DEF0AF0FFFF46C0EFF047C0F0F048C054
:10147000F1F049C0F2F04AC0F3F04BC0F4F04CC0B8
:10148000F5F04DC0F6F0010E5F6E6DEF0AF0FFFF54
:10149000010E606E6DEF0AF0FFFF080E5AEC0CF0C3
:1014A0006DEF0AF0FFFF4550196E1A6A1A50000AD4
:1014B000D8B45DEF0AF04CEF0AF0FFFF1950000AB4
:1014C000D8B406EF0AF0010AD8B432EF0AF0030AE2
:1014D000D8B447EF0AF04CEF0AF0FFFF1200FFFF0D
:1014E000FFFF0A6E450E5E24D96EDA6A000EDA221C
:1014F0000AC0DFFF5E2A8CEF0AF0FFFF050E6D6E5B
:10150000A7EF0AF0FFFF090E6D6EA7EF0AF0FFFFCD
:10151000010E6D6EA7EF0AF0FFFF4550086E096AD5
:101520000950000AD8B497EF0AF0A7EF0AF0FFFFBE
:101530000850000AD8B47DEF0AF0010AD8B482EF4F
:101540000AF0030AD8B487EF0AF0A7EF0AF0FFFF0A
:101550006D505E5CD8A0AFEF0AF0B2EF0AF0FFFF6B
:101560001EEF0BF0FFFF000E5E6E03EF0BF0FFFFB0
:101570006150040DDB0EF324D96E000EF420DA6EF8
:1015800046C0DFFF6150040DDC0EF324D96E000E5F
:10159000F420DA6E47C0DFFF6150040DDD0EF32446
:1015A000D96E000EF420DA6E48C0DFFF6150040DE2
:1015B000DE0EF324D96E000EF420DA6E49C0DFFF90
:1015C000612A1EEF0BF0FFFF46C0EFF047C0F0F0BE
:1015D00048C0F1F049C0F2F04AC0F3F04BC0F4F05B
:1015E0004CC0F5F04DC0F6F0010E5F6E1EEF0BF033
:1015F000FFFF010E606E1EEF0BF0FFFF080EE8EC20
:101600000CF01EEF0BF0FFFF4550086E096A095001
:10161000000AD8B40EEF0BF0FDEF0AF0FFFF085000
:10162000000AD8B4B7EF0AF0010AD8B4E3EF0AF021
:10163000030AD8B4F8EF0AF0FDEF0AF0FFFF12003A
:10164000FFFFFFFFDBEC11F03CEC12F04FEC12F06F
:1016500062EC12F085EC12F08EEC12F0000E136EBC
:101660000A0E126E71EC12F0C5EC08F00101DB6F8E
:10167000DB51D8B43EEF0BF041EF0BF0FFFF48EF2A
:101680000BF0FFFFDB515AEC0CF0FFFF45EF0BF0C6
:10169000FFFFAB88FFFFFBEC12F00009D8B453EF5B
:1016A0000BF056EF0BF0FFFFA1EF0BF0FFFF96ECF6
:1016B00012F012C0DCF113C0DDF1010120EE02F0E6
:1016C000DC51D926DD51DA22DF50576E20EE03F0CF
:1016D000DC51D926DD51DA22DF50586EAB98000E6E
:1016E000BFEC09F0FF0EBFEC09F0010120EE05F0A0
:1016F000DC51D926DD51DA22DF50BFEC09F00101BF
:1017000020EE06F0DC51D926DD51DA22DF50BFECA5
:1017100009F0010120EE04F0DC51D926DD51DA2276
:10172000DF50D96F20EE07F0DC51D926DD51DA22E7
:10173000DF50DA6FD951DA5DBFEC09F0AB88CBEC42
:1017400012F0FFFFF7EC12F00009D8B4AAEF0BF08B
:10175000ADEF0BF0FFFF4AEF0BF0FFFF82EC06F05E
:101760000101DB6FDB515AEC0CF0A4EC12F0F3EC4E
:1017700012F02FEC11F04AEF0BF0CEEF00F0FFFF6C
:101780003B343C34426E4250D8A4C9EF0BF0CCEF4E
:101790000BF0FFFFD8EF0BF0FFFFFFFF000E396EDD
:1017A000000E3A6E000E3B6E000E3C6E57EF0CF0D2
:1017B000FFFF39C03DF03AC03EF03BC03FF03CC0B7
:1017C00040F0200EEAEF0BF0FFFFD89040323F329E
:1017D0003E323D32FFFFE82EE4EF0BF03D50416E0C
:1017E0003B8EFF0E3916FF0E3A16FF0E3B16000E0B
:1017F0003C16960E425E42BE03EF0CF000EF0CF07A
:10180000FFFF1DEF0CF0FFFF4250800A970FD8B08A
:101810000CEF0CF00FEF0CF0FFFF12EF0CF0FFFFDE
:10182000CDEF0BF0FFFFD8903C323B323A323932E9
:10183000423E12EF0CF03BEF0CF0FFFF1F0E426434
:1018400024EF0CF027EF0CF0FFFF31EF0CF0FFFF5F
:10185000CDEF0BF0FFFFD89039363A363B363C36A9
:101860004206FFFF4250D8A438EF0CF03BEF0CF0DB
:10187000FFFF2AEF0CF0FFFF4150D8B442EF0CF00D
:1018800045EF0CF0FFFF4EEF0CF0FFFF3C1E3B1E40
:101890003A1E396C000E3A223B223C22FFFF39C02F
:1018A00039F03AC03AF03BC03BF03CC03CF0FFFF9F
:1018B0001200FFFFFFFF186EB6EF0CF0FFFFA50E42
:1018C000126E000E136E1E0E146E8DEC11F0E5EF0D
:1018D0000CF0FFFF5E0E126E010E136E290E146ED9
:1018E0008DEC11F0E5EF0CF0FFFF870E126E010E8C
:1018F000136E280E146E8DEC11F0E5EF0CF0FFFF67
:10190000350E126E010E136E290E146E8DEC11F051
:10191000E5EF0CF0FFFF840E126E000E136E210E29
:10192000146E8DEC11F0E5EF0CF0FFFF000E126E5F
:10193000010E136E350E146E8DEC11F0E5EF0CF008
:10194000FFFFAF0E126E010E136E270E146E8DEC9C
:1019500011F0E5EF0CF0FFFFC30E126E000E136ED8
:10196000180E146E8DEC11F0E5EF0CF0FFFF18501F
:10197000166E176A1750000AD8B4C1EF0CF0E5EFE5
:101980000CF0FFFF1650010AD8B45EEF0CF0030A0A
:10199000D8B469EF0CF0010AD8B474EF0CF0070A60
:1019A000D8B47FEF0CF0010AD8B48AEF0CF0030A28
:1019B000D8B495EF0CF0010AD8B4A0EF0CF00F0AE0
:1019C000D8B4ABEF0CF0E5EF0CF0FFFF1200FFFF17
:1019D000FFFF076E44EF0DF0FFFFA50E016E000E36
:1019E000026E1E0E036EB4EC11F073EF0DF0FFFFEC
:1019F0005E0E016E010E026E290E036EB4EC11F044
:101A000073EF0DF0FFFF870E016E010E026E280EC0
:101A1000036EB4EC11F073EF0DF0FFFF350E016EA5
:101A2000010E026E290E036EB4EC11F073EF0DF08F
:101A3000FFFF840E016E000E026E210E036EB4ECE9
:101A400011F073EF0DF0FFFF000E016E010E026E3C
:101A5000350E036EB4EC11F073EF0DF0FFFFAF0E17
:101A6000016E010E026E270E036EB4EC11F073EFDF
:101A70000DF0FFFFC30E016E000E026E180E036E16
:101A8000B4EC11F073EF0DF0FFFF0750056E066A1E
:101A90000650000AD8B44FEF0DF073EF0DF0FFFFC2
:101AA0000550010AD8B4ECEF0CF0030AD8B4F7EFF4
:101AB0000CF0010AD8B402EF0DF0070AD8B40DEF0C
:101AC0000DF0010AD8B418EF0DF0030AD8B423EFD3
:101AD0000DF0010AD8B42EEF0DF00F0AD8B439EF8B
:101AE0000DF073EF0DF0FFFF1200FFFFFFFF020E7E
:101AF000126E010EBBEC10F0CA84000E5C6E000E7C
:101B00005B6E640E686ED58ED5EC12F0B9EF0DF0F9
:101B1000FFFF5B505C10D8B490EF0DF093EF0DF029
:101B2000FFFF9BEF0DF0FFFF8B94000E5C6E060E27
:101B30005B6ECFEF0DF0FFFF8B84FFFF7BEC12F0AD
:101B400012501310D8B4A7EF0DF0AAEF0DF0FFFF5D
:101B50009DEF0DF0FFFF8B94FFFF7BEC12F0125016
:101B60001310D8B4B6EF0DF0B9EF0DF0FFFFACEFE6
:101B70000DF0FFFFB9EC12F012501310D8B4C3EF00
:101B80000DF0C6EF0DF0FFFF88EF0DF0FFFF83BEF5
:101B9000CCEF0DF0CFEF0DF0FFFF88EF0DF0FFFF62
:101BA000FFEC12F0D0EC12F0D59ECA94000ED76E66
:101BB000000ED66E000ECC6EDFEC12F083AEE3EFBB
:101BC0000DF0E6EF0DF0FFFFEBEF0DF0FFFF000E65
:101BD0005C6E020E5B6EFFFF5B501200FFFFFFFFAB
:101BE000020E126E010EBBEC10F0CA84000E5C6E89
:101BF000000E5B6E640E686ED58ED5EC12F032EF7F
:101C00000EF0FFFF5B505C10D8B409EF0EF00CEF44
:101C10000EF0FFFF14EF0EF0FFFF8B94000E5C6ED2
:101C2000060E5B6E48EF0EF0FFFF8B84FFFF7BEC30
:101C300012F012501310D8B420EF0EF023EF0EF074
:101C4000FFFF16EF0EF0FFFF8B94FFFF7BEC12F00F
:101C500012501310D8B42FEF0EF032EF0EF0FFFF3A
:101C600025EF0EF0FFFFBFEC12F012501310D8B4A6
:101C70003CEF0EF03FEF0EF0FFFF01EF0EF0FFFF25
:101C800083BE45EF0EF048EF0EF0FFFF01EF0EF0C0
:101C9000FFFFFFEC12F0DAEC12F0D59ECA94000EB2
:101CA000D76E000ED66E000ECC6EDFEC12F083AE57
:101CB0005CEF0EF05FEF0EF0FFFF64EF0EF0FFFF42
:101CC000000E5C6E020E5B6EFFFF5B501200FFFFAA
:101CD000FFFF0001FA6FAC0E246EFF0E256EB30EEF
:101CE000266E3D0E276E0001FA51126E136A146AB9
:101CF000156A010EC9EC07F012C020F013C021F0E4
:101D000014C022F015C023F008EC03F020C039F015
:101D100021C03AF022C03BF023C03CF0BFEC0BF0F6
:101D200039C0FBF03AC0FCF0000E0001FE6F000E5F
:101D3000FD6FC6EF0EF0FFFFC30E8C16030EFD15F0
:101D4000F76F000EFE15F86F800EF725D96E000EA6
:101D5000F821DA6EDF50F96FD890F937D890F9355D
:101D60008C12CA84FFFF7BEC12F012501310D8B40F
:101D7000BCEF0EF0BFEF0EF0FFFFB2EF0EF0FFFF73
:101D8000CA84000ECC6E0001FD4BFE2BFFFFFB5101
:101D9000FD5DFC51FE59D8A0D0EF0EF0D3EF0EF050
:101DA000FFFF9BEF0EF0FFFF1200FFFF4572726F07
:101DB000722C2074696D652065786365656465645F
:101DC00020746F2072656163682074686520656E99
:101DD00064206F6620746865205A20417869730A10
:101DE000004572726F722C2074696D65206578638E
:101DF000656564656420746F207265616368207432
:101E0000686520706F696E740A004572726F722C7B
:101E1000206E6F206F626A6563742072656C6576F0
:101E20006174656420616C6F6E67205A2041786927
:101E3000730A004572726F722C2074696D6520659B
:101E40007863656564656420746F2072657365747A
:101E500020706F736974696F6E0A00466174616CFB
:101E6000204572726F722C20706C656173652072F0
:101E7000657365742074686520646576696365219F
:101E80000A00FFFF156E8EEF0FF0FFFF15C013F075
:101E9000010E1316133A134689501318DF0B13184B
:101EA000896E15C013F0020E13168A501318FE0B1C
:101EB00013188A6EA9EF0FF0FFFF15C013F0010E83
:101EC0001316133A134613468A501318BF0B1318F0
:101ED0008A6E15C013F0020E1316133213328A5095
:101EE00013187F0B13188A6EA9EF0FF0FFFF15C0B0
:101EF00013F0010E1316133A8B501318EF0B13182F
:101F00008B6E15C013F0020E1316133A13468B5046
:101F10001318DF0B13188B6EA9EF0FF0FFFF125091
:101F2000136E146A1450000AD8B499EF0FF0A9EF99
:101F30000FF0FFFF1350000AD8B445EF0FF0010A6D
:101F4000D8B45CEF0FF0030AD8B476EF0FF0A9EF26
:101F50000FF0FFFF1200FFFFFFFF020E126E000ED8
:101F6000BBEC10F0CA84000E5C6E000E5B6E640E5B
:101F7000686ED58EEDEF0FF0FFFF5B505C10D8B4AC
:101F8000C4EF0FF0C7EF0FF0FFFFCFEF0FF0FFFF31
:101F90008B94000E5C6E060E5B6EF6EF0FF0FFFF8B
:101FA0008B84FFFF7BEC12F012501310D8B4DBEFE0
:101FB0000FF0DEEF0FF0FFFFD1EF0FF0FFFF8B947C
:101FC000FFFF7BEC12F012501310D8B4EAEF0FF0C1
:101FD000EDEF0FF0FFFFE0EF0FF0FFFF84A4F3EF52
:101FE0000FF0F6EF0FF0FFFFBCEF0FF0FFFFD59EF5
:101FF000CA94000ED76E000ED66E000ECC6EDFECCB
:1020000012F05B501200FFFFAC0EF66E1D0EF76E65
:10201000000EF86E01EE00F010EED6F00900F5CFDC
:10202000EEFFE550E150FAE1BE0EF66E220EF76EBD
:10203000000EF86E00EE80F010EE5BF00900F5CFB8
:10204000EEFFE550E150FAE11E0EF66E260EF76E39
:10205000000EF86E00EE69F010EE05F00900F5CF05
:10206000EEFFE550E150FAE100EEDBF01C0EEE6A07
:10207000E806FDE100EE45F0240EEE6AE806FDE11B
:102080006E906E92000EF86E000121EF0BF0FFFFD4
:10209000156E63EF10F0FFFF15B002D08A9401D0E7
:1020A0008A847EEF10F0FFFF15B002D08B9001D034
:1020B0008B807EEF10F0FFFF15B002D08C9001D026
:1020C0008C807EEF10F0FFFF1250136E146A1450D4
:1020D000000AD8B46EEF10F07EEF10F0FFFF13503F
:1020E000000AD8B44BEF10F0010AD8B453EF10F047
:1020F000030AD8B45BEF10F07EEF10F0FFFF120080
:10210000FFFFFFFF156E9DEF10F0FFFF15B002D02F
:10211000899601D08986B8EF10F0FFFF15B002D084
:102120008A9A01D08A8AB8EF10F0FFFF15B002D06A
:102130008B9601D08B86B8EF10F0FFFF1250136E14
:10214000146A1450000AD8B4A8EF10F0B8EF10F0D9
:10215000FFFF1350000AD8B485EF10F0010AD8B47D
:102160008DEF10F0030AD8B495EF10F0B8EF10F02F
:10217000FFFF1200FFFFFFFF156ED7EF10F0FFFF0C
:1021800015B002D0899201D08982F2EF10F0FFFFE2
:1021900015B002D08A9601D08A86F2EF10F0FFFFC8
:1021A00015B002D08B9201D08B82F2EF10F0FFFFBE
:1021B0001250136E146A1450000AD8B4E2EF10F0F3
:1021C000F2EF10F0FFFF1350000AD8B4BFEF10F089
:1021D000010AD8B4C7EF10F0030AD8B4CFEF10F05B
:1021E000F2EF10F0FFFF1200FFFFFFFF046E11EF90
:1021F00011F0FFFF04B002D0899601D089862CEF40
:1022000011F0FFFF04B002D08A9A01D08A8A2CEF25
:1022100011F0FFFF04B002D08B9601D08B862CEF1B
:1022200011F0FFFF0150026E036A0350000AD8B498
:102230001CEF11F02CEF11F0FFFF0250000AD8B490
:10224000F9EF10F0010AD8B401EF11F0030AD8B485
:1022500009EF11F02CEF11F0FFFF1200FFFFFFFF5D
:10226000000E146EFFFF1450126E136AD8901236CF
:102270001336D89012361336DF0E1224D96E000EA4
:102280001320DA6E1450040DDB0EF324E16E000E01
:10229000F420E26EDECFE6FFDECFE6FFDECFE6FF24
:1022A000DECFE6FF142A030E146459EF11F05CEF41
:1022B00011F0FFFF32EF11F0FFFF1200FFFF0903E3
:1022C000060C4572726F722C20706F696E74206FED
:1022D00075747369646520626F756E646172696597
:1022E000730A004572726F722C2066656564206CFB
:1022F000696E65206E6F7420646566696E65640A38
:1023000000436F6D6D616E64206E6F742072656343
:092310006F676E697A65640A00CA
:10231A00FFFF010E156EA6EF11F0FFFF12C0D9FFE5
:10232A0013C0DAFFDF50AD6EFFFFACA29FEF11F0D2
:10233A00A2EF11F0FFFF99EF11F0FFFF124A132AE3
:10234A00152AFFFF1450155CD8A0AEEF11F0B1EFBB
:10235A0011F0FFFF92EF11F0FFFF1200FFFFFFFFE6
:10236A00010E046ECDEF11F0FFFF01C0D9FF02C0CC
:10237A00DAFFDF50AD6EFFFFACA2C6EF11F0C9EF76
:10238A0011F0FFFFC0EF11F0FFFF014A022A042AF1
:10239A00FFFF0350045CD8A0D5EF11F0D8EF11F07D
:1023AA00FFFFB9EF11F0FFFF1200FFFFFFFFF2BEC0
:1023BA00E1EF11F0E4EF11F0FFFFE6EF11F0FFFF9C
:1023CA00F28EFFFFF2BCECEF11F0EFEF11F0FFFF1E
:1023DA00F1EF11F0FFFFF28CFFFFD08EF28A9D829F
:1023EA009D8A1200FFFFFFFF000E016E010EF5EC41
:1023FA0010F0010E016E010EF5EC10F0020E016EE6
:10240A00010EF5EC10F0070EE8EC0CF0FFFF0BEFF5
:10241A0012F01200FFFFFFFF8C92CA84FFFF7BECD1
:10242A0012F012501310D8B41DEF12F020EF12F070
:10243A00FFFF13EF12F0FFFFCA84000ECC6E1200EA
:10244A00FFFFFFFF8C82CA84FFFF7BEC12F0125061
:10245A001310D8B433EF12F036EF12F0FFFF29EF62
:10246A0012F0FFFFCA84000ECC6E1200FFFFFFFFBE
:10247A00C150F00B0609C16ED10E9216020E9316C8
:10248A00C00E9416C00E9516968096829684958EE6
:10249A001200FFFFFFFFC2503F0B4009C26EC18C02
:1024AA00C70EC216C294C290C19EC150F00B0E094B
:1024BA00C16E9D8C9F8C1200FFFFFFFF949C948E2F
:1024CA00AC9CAC8AAC98AC94AB8EAB9CAB98AB96FC
:1024DA00190EAF6E1200FFFFFFFFCA94030ECA1255
:1024EA0012C055F013C056F01200FFFFFFFF66C07E
:1024FA0014F0000E666E14C012F0136A1200FFFF89
:10250A00FFFFD59ED59CD59AD586070ED512120007
:10251A00FFFFFFFF300ECD12CD929D80CD801200BD
:10252A00FFFFFFFFEF0E126E000E136E1200FFFF89
:10253A00FFFFDB0E126E000E136E1200FFFFFFFF8D
:10254A00000E5C6E000E5B6E1200FFFFFFFF000EB6
:10255A005C6E010E5B6E1200FFFFFFFF55C001F0BB
:10256A0056C002F01200FFFFFFFF64C012F0136AA8
:10257A001200FFFFFFFF65C012F0136A1200FFFF8F
:10258A00FFFF67C012F0136A1200FFFFFFFF000E81
:10259A005F6E1200FFFFFFFF000E646E1200FFFF66
:1025AA00FFFFC280C2841200FFFFFFFF000E656EAC
:1025BA001200FFFFFFFF000E676E1200FFFFFFFF12
:1025CA00010E666E1200FFFFFFFF010E656E12001C
:1025DA00FFFFFFFF010E646E1200FFFFFFFF61069F
:1025EA001200FFFFFFFF61501200FFFFFFFF5F5065
:1025FA001200FFFFFFFFC2901200FFFFFFFF6850AB
:10260A001200FFFFFFFF672A1200FFFFFFFF605063
:09261A001200FFFFE803E80305CC
:02262400FFFFB6
:020000040020DA
:08000000FFFFFFFFFFFFFFFF00
:020000040030CA
:0E000000FF210D0EFF0080FF0FC00FE00F402C
:00000001FF
