:020000040000FA
:0600000000F0D2EF00F059
:10000800FFFF6E82D9CF0DF0DACF0EF0F3CF0FF0ED
:10001800F4CF10F0F2A413EF00F016EF00F0FFFF9A
:100028002CEF00F0FFFFF294632AF1EC14F00B6E52
:100038000B50635CD8A023EF00F026EF00F0FFFF21
:100048002CEF00F0FFFFD59E000E636E94EC14F0C9
:10005800FFFF9EA032EF00F035EF00F0FFFF45EF05
:1000680000F0FFFF9E90F9EC14F00009D8B43FEFC0
:1000780000F042EF00F0FFFF45EF00F0FFFF6FECEC
:1000880014F0FFFF9EA24BEF00F04EEF00F0FFFFD1
:1000980080EF00F0FFFF9E92514A522A9BEC14F029
:1000A8005150015C52500258D8B05DEF00F060EF3B
:1000B80000F0FFFF80EF00F0FFFF000E526E000E11
:1000C800516E622A6250D8B46CEF00F06FEF00F006
:1000D800FFFF7DEF00F0FFFF62B075EF00F078EFF3
:1000E80000F0FFFF7DEF00F0FFFF000E626EF5EC01
:1000F80014F0FFFFD2EC14F0FFFF9EAC86EF00F087
:1001080089EF00F0FFFFB6EF00F0FFFF9E9CC3CF22
:1001180053F0546AC4500C6E0B6A0B5053120C50B7
:1001280054125304040E5458D8A09DEF00F0A0EFC9
:1001380000F0FFFFA7EF00F0FFFFD7EC14F0DCECB6
:1001480014F0B6EF00F0FFFF5304020E5458D8A085
:10015800B0EF00F0B3EF00F0FFFFB6EF00F0FFFFE5
:10016800D7EC14F0FFFF9EAABCEF00F0BFEF00F041
:10017800FFFFC6EF00F0FFFF9E9AAECF11F01150BF
:10018800AAEC09F0FFFF10C0F4FF0FC0F3FF0EC088
:10019800DAFF0DC0D9FF6E921100FFFFC4EF12F015
:10060000000000004065006500000400020F500F6C
:10061000320F14641E00FFFF2350800B306E2350F6
:100620002324376E22AE17EF03F01AEF03F0FFFF1B
:100630001CEF03F0FFFF3780FFFF3750D8B423EFE4
:1006400003F026EF03F0FFFF3FEF03F0FFFF372833
:10065000D8A42DEF03F030EF03F0FFFF39EF03F0E4
:10066000FFFF000E206E000E216E000E226E000EA7
:10067000236EFFFF228E000E236E48EF03F0FFFF74
:10068000000E206E000E216E000E226E000E236EF4
:10069000FFFF2750800B301A27502724386E26AED4
:1006A00054EF03F057EF03F0FFFF59EF03F0FFFFA4
:1006B0003880FFFF3850D8B460EF03F063EF03F0E9
:1006C000FFFF7CEF03F0FFFF3828D8A46AEF03F0A8
:1006D0006DEF03F0FFFF76EF03F0FFFF000E246ED7
:1006E000000E256E000E266E000E276EFFFF268E72
:1006F000000E276E85EF03F0FFFF000E246E000E44
:10070000256E000E266E000E276EFFFF245025106A
:1007100026102710D8A48FEF03F092EF03F0FFFF0D
:10072000ACEF03F0FFFF000E206E000E216E000EF6
:10073000226E000E236E800E22127F0E2312FFFF08
:100740003050231220C020F021C021F022C022F01E
:1007500023C023F021EF05F0FFFF3750D8A4B3EFFB
:1007600003F0B6EF03F0FFFFC1EF03F0FFFF000E51
:10077000206E000E216E000E226E000E236E21EF01
:1007800005F0FFFF385037C028F0296A285E000EB8
:10079000295A7F0E2824316E000E2920326E20C087
:1007A0002CF021C02DF022C02EF023C02FF0000E1F
:1007B000206E000E216E000E226E000E236E000EC3
:1007C000336E000E346E000E356E000E366E000E67
:1007D000386E2DEF04F0FFFF3850D8B4F2EF03F07D
:1007E000F5EF03F0FFFF10EF04F0FFFFD8902C3679
:1007F0002D362E362F36D890203621362236233607
:1008000036AE05EF04F008EF04F0FFFF0AEF04F046
:10081000FFFF2080FFFFD89033363436353636362A
:10082000FFFF24502C5C25502D5826502E58275061
:100830002F58D8A01EEF04F021EF04F0FFFF2BEF9C
:1008400004F0FFFF368C24502C5E25502D5A265084
:100850002E5A27502F5AFFFF382AFFFF190E3864EF
:1008600034EF04F037EF04F0FFFFEBEF03F0FFFF8E
:100870002C502D102E102F10D8B441EF04F044EF5F
:1008800004F0FFFF61EF04F0FFFF338061EF04F03D
:10089000FFFFD890203621362236233636AE53EF6E
:1008A00004F056EF04F0FFFF58EF04F0FFFF208044
:1008B000FFFFD89033363436353636363106D8A079
:1008C0003206FFFF22AE67EF04F06AEF04F0FFFF8D
:1008D00048EF04F0FFFF000E386E36AE72EF04F002
:1008E00075EF04F0FFFFA0EF04F0FFFFFF0E3314DD
:1008F000286EFF0E3414296EFF0E35142A6E7F0EFB
:1009000036142B6E285029102A102B10D8B48BEFD8
:1009100004F08EEF04F0FFFF94EF04F0FFFFFFFF01
:10092000010E386EA0EF04F0FFFF20A09AEF04F054
:100930009DEF04F0FFFFA0EF04F0FFFF8FEF04F046
:10094000FFFF3850D8B4A7EF04F0AAEF04F0FFFF80
:10095000D1EF04F0FFFF010E2026000E21222222FB
:10096000232223A0B6EF04F0B9EF04F0FFFFD1EF8C
:1009700004F0FFFF20C028F021C029F022C02AF097
:1009800023C02BF02B342B322A322932283228C0B4
:1009900020F029C021F02AC022F02BC023F0314AD8
:1009A000322AFFFF32BEDDEF04F0325009E1312878
:1009B000D8A0DDEF04F0E0EF04F0FFFFECEF04F06F
:1009C000FFFF000E326E3168000E206E000E216EA9
:1009D000000E226E000E236EFFFF32BEFBEF04F00E
:1009E000325006E13104D8B0F8EF04F0FBEF04F028
:1009F000FFFF0AEF05F0FFFF000E326E000E316EB2
:100A0000000E206E000E216E000E226E000E236E70
:100A1000000E306EFFFF31C037F037A012EF05F047
:100A200015EF05F0FFFF19EF05F0FFFF228E1BEF1A
:100A300005F0FFFF229EFFFFD8903730236E9FEF17
:100A400003F0FFFF1200FFFFFFFF1550195C1D6E42
:100A500016501A581E6E1EBE36EF05F01E5009E1E4
:100A60001D04D8A036EF05F039EF05F0FFFF40EF89
:100A700005F0FFFF010E686E010E1F6E44EF05F0DA
:100A8000FFFF6868000E1F6EFFFF17501B5C1D6E96
:100A900018501C581E6E1EBE56EF05F01E5009E180
:100AA0001D04D8A056EF05F059EF05F0FFFF60EFE9
:100AB00005F0FFFF010E6A6E010E206E64EF05F077
:100AC000FFFF6A68000E206EFFFF010E216E010E0F
:100AD000226ECA84000E5A6E000E596EC80E666EE3
:100AE000D58EA0EF06F0FFFF59505A10D8B47BEF17
:100AF00005F07EEF05F0FFFF85EF05F0FFFF000E2C
:100B00005A6E040E596EB4EF06F0FFFF1F04D8A40E
:100B10008CEF05F08FEF05F0FFFFCEEF05F0FFFF44
:100B2000AEEC14F015501226165013221950125C18
:100B30001A501358D8A09FEF05F0A2EF05F0FFFF61
:100B4000A8EF05F0FFFFFFFF000E216E0CEF06F08F
:100B5000FFFF2150D8B4AFEF05F0B2EF05F0FFFF73
:100B60000CEF06F0FFFF685067266750800A7C0F85
:100B7000D8A0BDEF05F0C0EF05F0FFFFC3EF05F013
:100B8000FFFF000E676EFFFF8C0E6724D96EDA6AD6
:100B9000000EDA22DF50896E0CEF06F0FFFF1F50C7
:100BA000D8A4D5EF05F0D8EF05F0FFFF0CEF06F065
:100BB000FFFFAEEC14F015C01DF016C01EF0125071
:100BC0001D5E13501E5A1D50195C1E501A58D8A095
:100BD000ECEF05F0EFEF05F0FFFFF2EF05F0FFFFA0
:100BE000A3EF05F0FFFF2150D8B4F9EF05F0FCEFBB
:100BF00005F0FFFF0CEF06F0FFFF6850672667BEA9
:100C000007EF06F004EF06F0FFFFC3EF05F0FFFF6C
:100C1000030E676EC3EF05F0FFFF2004D8A413EFA7
:100C200006F016EF06F0FFFF55EF06F0FFFFAEEC03
:100C300014F017501226185013221B50125C1C502F
:100C40001358D8A026EF06F029EF06F0FFFF2FEF8C
:100C500006F0FFFFFFFF000E226E93EF06F0FFFF8E
:100C60002250D8B436EF06F039EF06F0FFFF93EFCD
:100C700006F0FFFF6A5069266950800A7C0FD8A0F1
:100C800044EF06F047EF06F0FFFF4AEF06F0FFFFE4
:100C9000000E696EFFFF880E6924D96EDA6A000EB5
:100CA000DA22DF508A6E93EF06F0FFFF2050D8A4BF
:100CB0005CEF06F05FEF06F0FFFF93EF06F0FFFF3B
:100CC000AEEC14F017C01DF018C01EF012501D5EDF
:100CD00013501E5A1D501B5C1E501C58D8A073EF99
:100CE00006F076EF06F0FFFF79EF06F0FFFF2AEF40
:100CF00006F0FFFF2250D8B480EF06F083EF06F035
:100D0000FFFF93EF06F0FFFF6A50692669BE8EEF82
:100D100006F08BEF06F0FFFF4AEF06F0FFFF030E31
:100D2000696E4AEF06F0FFFF4AEC14F01250131000
:100D3000D8B49DEF06F0A0EF06F0FFFF93EF06F0AA
:100D4000FFFF2150D8A4A7EF06F0AAEF06F0FFFF9F
:100D500073EF05F0FFFF2250D8A4B1EF06F0B4EF17
:100D600006F0FFFF73EF05F0FFFFD59ECA94C8ECB5
:100D700014F066EC14F0000ED76E000ED66E000E66
:100D8000CC6ECDEC14F059501200FFFFFFFF86EC43
:100D900014F012C0D6F213C0D7F2000EDCEC0CF047
:100DA000010EDCEC0CF07FEF07F0FFFF4CC015F0FC
:100DB000166A4DC017F0186A110EF66E060EF76E21
:100DC0000800FFFFF550196E1A6A120EF66E060E35
:100DD000F76E0800FFFFF5501B6E1C6A24EC05F04F
:100DE0000201D86F110EF66E060EF76E0800FFFFB7
:100DF000F5CF4CF0120EF66E060EF76E0800FFFFF0
:100E0000F5CF4DF0A3EF07F0FFFF4CC015F0166AC9
:100E10004DC017F0186A0F0EF66E060EF76E08003A
:100E2000FFFFF550196E1A6A100EF66E060EF76E79
:100E30000800FFFFF5501B6E1C6A24EC05F0020150
:100E4000D86F0F0EF66E060EF76E0800FFFFF5CF97
:100E50004CF0100EF66E060EF76E0800FFFFF5CF91
:100E60004DF0A3EF07F0FFFF4CC015F0166A4DC020
:100E700017F0186A0D0EF66E060EF76E0800FFFFEB
:100E8000F550196E1A6A0E0EF66E060EF76E080011
:100E9000FFFFF5501B6E1C6A24EC05F00201D86FB1
:100EA0000D0EF66E060EF76E0800FFFFF5CF4CF044
:100EB0000E0EF66E060EF76E0800FFFFF5CF4DF032
:100EC000A3EF07F0FFFF4CC015F0166A4DC017F0F6
:100ED000186A55C019F01A6A56C01BF01C6A24EC37
:100EE00005F00201D86F55C04CF056C04DF0A3EF8D
:100EF00007F0FFFF010E0201D86FA3EF07F0FFFF1D
:100F0000D6C2D9FFD7C2DAFFDF500101FD6FFE6BF9
:100F1000FE51000AD8B48FEF07F079EF07F0FFFF1A
:100F2000FD51000AD8B4D5EF06F0010AD8B404EF99
:100F300007F0030AD8B433EF07F0FD0AD8B462EF24
:100F400007F079EF07F0FFFFD851D8A4AAEF07F018
:100F5000ADEF07F0FFFFBEEF07F0FFFF020EDCEC86
:100F60000CF079EC10F00201D86FD851D8B4BBEF77
:100F700007F0BEEF07F0FFFFC2EF07F0FFFFD85109
:100F800063EF08F0FFFF030EDCEC0CF0FDEC13F058
:100F9000040EDCEC0CF065EC12F00201D86FD851B5
:100FA000D8B4D5EF07F0D8EF07F0FFFFDBEF07F07D
:100FB000FFFFBEEF07F0FFFF050EDCEC0CF04CC0AE
:100FC00015F0166A4DC017F0186A020120EE01F004
:100FD000D651D926D751DA22DF500101FD6FFD51DC
:100FE000196E1A6A020120EE02F0D651D926D751A5
:100FF000DA22DF500101FE6FFE511B6E1C6A24ECE9
:1010000005F00201D86FD851D8B409EF08F00CEF01
:1010100008F0FFFF0FEF08F0FFFFBEEF07F0FFFF44
:1010200020EE01F0D651D926D751DA22DF504C6E8E
:1010300020EE02F0D651D926D751DA22DF504D6E7C
:10104000060EDCEC0CF0020120EE03F0D651D9269E
:10105000D751DA22DF500101FD6FFD51576E586AFA
:1010600058BE38EF08F035EF08F0FFFF3DEF08F00D
:10107000FFFF680E5726010E5822FFFF575002EC63
:1010800011F0070EDCEC0CF0F0EC0FF00201D86F61
:10109000D851D8B44EEF08F051EF08F0FFFF54EFED
:1010A00008F0FFFFBEEF07F0FFFF080EDCEC0CF0CE
:1010B000E5EC13F0040EDCEC0CF065EC12F0020130
:1010C000D86FBEEF07F0FFFF1200FFFFFFFF1B6EA0
:1010D000430E5E24D96EDA6A000EDA221BC0DFFFEF
:1010E0005E2A8FEF08F0FFFF050E6D6E000E5D6E3D
:1010F000AAEF08F0FFFF090E6D6E000E5D6EAAEFFD
:1011000008F0FFFF010E6D6E000E5D6EAAEF08F095
:10111000FFFF010E5D6E000E5E6EAAEF08F0FFFF8E
:101120004350196E1A6A1A50000AD8B49AEF08F0A0
:1011300088EF08F0FFFF1950010AD8B473EF08F0E8
:10114000030AD8B47AEF08F0010AD8B481EF08F0A6
:1011500088EF08F0FFFF6D505E18D8A4B2EF08F0DA
:10116000B5EF08F0FFFFA7EF09F0FFFF5D50D8A42F
:10117000BCEF08F0BFEF08F0FFFFA7EF09F0FFFF9B
:10118000000E5E6E89EF09F0FFFF6150040DE40E62
:10119000F324D96E000EF420DA6E44C0DFFF6150F4
:1011A000040DE50EF324D96E000EF420DA6E4550DE
:1011B000050DF3CFDFFF6150040DE60EF324D96E69
:1011C000000EF420DA6E4650050DF3CFDFFF6150BC
:1011D000040DE70EF324D96E000EF420DA6E47C03A
:1011E000DFFF6150040DE50EF324D96E000EF420EC
:1011F000DA6E660EDF60FFEF08F002EF09F0FFFF26
:1012000014EF09F0FFFF6150040DE60EF324D96ED0
:10121000000EF420DA6E650EDF6411EF09F014EFB2
:1012200009F0FFFF2CEF09F0FFFF6150040DE40E01
:10123000F324D96E000EF420DA6EDE28D8B423EF42
:1012400009F026EF09F0FFFF2CEF09F0FFFF050E74
:10125000D4EC0EF0A4EF09F0FFFF612AA4EF09F02F
:10126000FFFF44C0F8F045C0F9F04650050DF3CF3C
:10127000FAF04750050DF3CFFBF048C0FCF04950A1
:10128000050DF3CFFDF04A50050DF3CFFEF04BC036
:10129000FFF01F0E0001FA6150EF09F053EF09F063
:1012A000FFFF71EF09F0FFFF660EFD615AEF09F0D5
:1012B0005DEF09F0FFFF71EF09F0FFFF650EFB61C5
:1012C00064EF09F067EF09F0FFFF71EF09F0FFFF2E
:1012D000650EFE656EEF09F071EF09F0FFFF79EF23
:1012E00009F0FFFF000E5F6E050ED4EC0EF0A4EFC8
:1012F00009F0FFFF010E5F6EA4EF09F0FFFF010E82
:10130000606EA4EF09F0FFFF080ED4EC0EF0A4EF1E
:1013100009F0FFFF4350196E1A6A1A50000AD8B438
:1013200094EF09F083EF09F0FFFF1950010AD8B4D8
:10133000C4EF08F0030AD8B430EF09F0010AD8B4BA
:101340007EEF09F083EF09F0FFFF000E436EFFFF11
:101350001200FFFFFFFF0A6E430E5E24D96EDA6AA9
:10136000000EDA220AC0DFFF5E2AD3EF09F0FFFF8A
:10137000050E6D6E000E5D6EEEEF09F0FFFF090EBB
:101380006D6E000E5D6EEEEF09F0FFFF010E6D6EEB
:10139000000E5D6EEEEF09F0FFFF010E5D6E000EB8
:1013A0005E6EEEEF09F0FFFF4350086E096A0950C8
:1013B000000AD8B4DEEF09F0CCEF09F0FFFF0850C7
:1013C000010AD8B4B7EF09F0030AD8B4BEEF09F0A8
:1013D000010AD8B4C5EF09F0CCEF09F0FFFF6D505A
:1013E0005E18D8A4F6EF09F0F9EF09F0FFFFEBEF74
:1013F0000AF0FFFF5D50D8A400EF0AF003EF0AF0F7
:10140000FFFFEBEF0AF0FFFF000E5E6ECDEF0AF07C
:10141000FFFF6150040DE40EF324D96E000EF4209A
:10142000DA6E44C0DFFF6150040DE50EF324D96E7F
:10143000000EF420DA6E4550050DF3CFDFFF61504A
:10144000040DE60EF324D96E000EF420DA6E465039
:10145000050DF3CFDFFF6150040DE70EF324D96EC5
:10146000000EF420DA6E47C0DFFF6150040DE50E78
:10147000F324D96E000EF420DA6E660EDF6043EFBF
:101480000AF046EF0AF0FFFF58EF0AF0FFFF615045
:10149000040DE60EF324D96E000EF420DA6E650E0C
:1014A000DF6455EF0AF058EF0AF0FFFF70EF0AF023
:1014B000FFFF6150040DE40EF324D96E000EF420FA
:1014C000DA6EDE28D8B467EF0AF06AEF0AF0FFFFA1
:1014D00070EF0AF0FFFF050E62EC0FF0E8EF0AF084
:1014E000FFFF612AE8EF0AF0FFFF44C0F8F045C0B3
:1014F000F9F04650050DF3CFFAF04750050DF3CF44
:10150000FBF048C0FCF04950050DF3CFFDF04A5008
:10151000050DF3CFFEF04BC0FFF01F0E0001FA6186
:1015200094EF0AF097EF0AF0FFFFB5EF0AF0FFFF24
:10153000660EFD619EEF0AF0A1EF0AF0FFFFB5EF26
:101540000AF0FFFF650EFB61A8EF0AF0ABEF0AF0AF
:10155000FFFFB5EF0AF0FFFF650EFE65B2EF0AF080
:10156000B5EF0AF0FFFFBDEF0AF0FFFF000E5F6E60
:10157000050E62EC0FF0E8EF0AF0FFFF010E5F6E60
:10158000E8EF0AF0FFFF010E606EE8EF0AF0FFFFE0
:10159000080E62EC0FF0E8EF0AF0FFFF4350086E10
:1015A000096A0950000AD8B4D8EF0AF0C7EF0AF068
:1015B000FFFF0850010AD8B408EF0AF0030AD8B4B4
:1015C00074EF0AF0010AD8B4C2EF0AF0C7EF0AF0CC
:1015D000FFFF000E436EFFFF1200FFFFFFFF1A6EBA
:1015E0001A50D8B4F6EF0AF0F9EF0AF0FFFF1EEF39
:1015F0000BF0FFFF15BE02EF0BF0FFEF0AF0FFFF4D
:101600001EEF0BF0FFFF12C016F013C017F014C04E
:1016100018F015C019F0161E171E181E191E162ACE
:10162000000E17221822192216C01CF017C01DF038
:1016300018C01EF019C01FF027EF0BF0FFFF12C0FB
:101640001CF013C01DF014C01EF015C01FF0FFFFEA
:101650001250131014101510D8A431EF0BF034EF02
:101660000BF0FFFF3FEF0BF0FFFF000E126E000EBE
:10167000136E000E146E000E156EE7EF0BF0FFFFF9
:10168000960E1B6E4BEF0BF0FFFF1B2AD8901F32FC
:101690001E321D321C32FFFF000E1C14166E000E8F
:1016A0001D14176E000E1E14186EFE0E1F14196EF8
:1016B0001650171018101910D8A461EF0BF064EF32
:1016C0000BF0FFFF44EF0BF0FFFF74EF0BF0FFFF99
:1016D0001B2A010E1C26000E1D221E221F22D8903E
:1016E0001F321E321D321C32FFFF000E1C14166EFC
:1016F000000E1D14176E000E1E14186EFF0E1F1420
:10170000196E1650171018101910D8A48AEF0BF084
:101710008DEF0BF0FFFF67EF0BF0FFFF97EF0BF084
:10172000FFFF1B06D8901C361D361E361F36FFFFE6
:101730001EBE9DEF0BF0A0EF0BF0FFFFAAEF0BF02A
:10174000FFFF020E1B60A7EF0BF0AAEF0BF0FFFFED
:1017500090EF0BF0FFFF1BB0B0EF0BF0B3EF0BF00F
:10176000FFFFB5EF0BF0FFFF1E9EFFFFD8901B326F
:101770001BC016F0176A186A196A16C019F0186AA1
:10178000176A166A16501C1217501D1218501E1296
:1017900019501F121A50D8B4D0EF0BF0D3EF0BF042
:1017A000FFFFDEEF0BF0FFFF15BEDCEF0BF0D9EF14
:1017B0000BF0FFFFDEEF0BF0FFFF1F8EFFFF1CC0E3
:1017C00012F01DC013F01EC014F01FC015F0FFFF73
:1017D0001200FFFFFFFF68686A686C68010E156EF3
:1017E000010E166E010E176ECA84000E5A6E000EA0
:1017F000596EC80E666ED58EACEF0CF0FFFFCDECC7
:1018000014F059505A10D8B408EF0CF00BEF0CF04C
:10181000FFFF12EF0CF0FFFF000E5A6E030E596E21
:10182000CAEF0CF0FFFF84B018EF0CF01BEF0CF0C8
:10183000FFFF25EF0CF0FFFF1550D8A422EF0CF0AE
:1018400025EF0CF0FFFF2AEF0CF0FFFF000E156EE6
:1018500041EF0CF0FFFF6850672667BE35EF0CF0D4
:1018600032EF0CF0FFFF38EF0CF0FFFF030E676E56
:10187000FFFF8C0E6724D96EDA6A000EDA22DF5081
:10188000896EFFFF84B247EF0CF04AEF0CF0FFFFC8
:1018900054EF0CF0FFFF1650D8A451EF0CF054EFAA
:1018A0000CF0FFFF59EF0CF0FFFF000E166E70EF0B
:1018B0000CF0FFFF6A50692669BE64EF0CF061EF1F
:1018C0000CF0FFFF67EF0CF0FFFF030E696EFFFFE8
:1018D000880E6924D96EDA6A000EDA22DF508A6E29
:1018E000FFFF84B476EF0CF079EF0CF0FFFF83EF8D
:1018F0000CF0FFFF1750D8A480EF0CF083EF0CF032
:10190000FFFF88EF0CF0FFFF000E176E9FEF0CF04B
:10191000FFFF6C506B266BBE93EF0CF090EF0CF05A
:10192000FFFF96EF0CF0FFFF030E6B6EFFFF840EC0
:101930006B24D96EDA6A000EDA22DF508B6EFFFF5D
:101940004AEC14F012501310D8B4A9EF0CF0ACEF1D
:101950000CF0FFFF9FEF0CF0FFFF1550D8A4B3EF82
:101960000CF0B6EF0CF0FFFFFEEF0BF0FFFF165090
:10197000D8A4BDEF0CF0C0EF0CF0FFFFFEEF0BF0B2
:10198000FFFF1750D8A4C7EF0CF0CAEF0CF0FFFF11
:10199000FEEF0BF0FFFFD59ECA94C8EC14F066EC86
:1019A00014F0000ED76E000ED66E000ECC6ECDEC8D
:1019B00014F059501200FFFFFFFF186E59EF0DF0A1
:1019C000FFFF9A0E126E010E136E1B0E146E79EC51
:1019D00013F094EF0DF0FFFF7D0E126E010E136EEB
:1019E0001D0E146E79EC13F094EF0DF0FFFF900EC6
:1019F000126E000E136E140E146E79EC13F094EF49
:101A00000DF0FFFFD50E126E000E136E0F0E146E4A
:101A100079EC13F094EF0DF0FFFFB50E126E000E8F
:101A2000136E110E146E79EC13F094EF0DF0FFFFAE
:101A30005F0E126E010E136E1E0E146E79EC13F013
:101A400094EF0DF0FFFFCD0E126E010E136E150E0A
:101A5000146E79EC13F094EF0DF0FFFFE20E126EAE
:101A6000010E136E140E146E79EC13F094EF0DF05A
:101A7000FFFFA40E126E000E136E110E146E79ECA1
:101A800013F094EF0DF0FFFF210E126E010E136E96
:101A9000200E146E79EC13F094EF0DF0FFFFC60EDC
:101AA000126E000E136E0F0E146E79EC13F094EF9D
:101AB0000DF0FFFF1850166E176A1750000AD8B4C1
:101AC00064EF0DF094EF0DF0FFFF1650000AD8B44C
:101AD000E0EF0CF0010AD8B4EBEF0CF0030AD8B435
:101AE000F6EF0CF0010AD8B401EF0DF0070AD8B4F4
:101AF0000CEF0DF0010AD8B417EF0DF0030AD8B4BB
:101B000022EF0DF0010AD8B42DEF0DF00F0AD8B472
:101B100038EF0DF0010AD8B443EF0DF0030AD8B442
:101B20004EEF0DF094EF0DF0FFFF1200FFFFFFFFEF
:101B3000C7EC13F015EC14F028EC14F03BEC14F0A7
:101B40005DEC14F078EC14F0000E136E0A0E126EB9
:101B500054EC14F0090EDCEC0CF0EAEC0BF0020192
:101B6000DB6FDB51D8B4B7EF0DF0BAEF0DF0FFFF2C
:101B7000C1EF0DF0FFFFDB51D4EC0EF0FFFFBEEF25
:101B80000DF0FFFF0A0EDCEC0CF0AB88FFFFE9EC78
:101B900014F00009D8B4CFEF0DF0D2EF0DF0FFFF35
:101BA0001BEF0EF0FFFF7FEC14F012C0DCF213C04D
:101BB000DDF2020120EE02F0DC51D926DD51DA22FD
:101BC000DF50556E20EE03F0DC51D926DD51DA22CC
:101BD000DF50566E010E66EC08F0FF0E66EC08F062
:101BE000020120EE05F0DC51D926DD51DA22DF506A
:101BF00066EC08F0020120EE06F0DC51D926DD513A
:101C0000DA22DF5066EC08F0020120EE04F0DC512D
:101C1000D926DD51DA22DF50D96F20EE07F0DC51F2
:101C2000D926DD51DA22DF50DA6FD951DA5D66EC60
:101C300008F0B4EC14F0FFFFE5EC14F00009D8B4A0
:101C400024EF0EF027EF0EF0FFFFC6EF0DF0FFFFC1
:101C5000C6EC06F00201DB6FDB51D4EC0EF08DEC2C
:101C600014F0E1EC14F049EC13F0C6EF0DF0D2EFF4
:101C700000F0FFFF3B343C34426E4250D8A443EFA7
:101C80000EF046EF0EF0FFFF52EF0EF0FFFFFFFFEA
:101C9000000E396E000E3A6E000E3B6E000E3C6E6A
:101CA000D1EF0EF0FFFF39C03DF03AC03EF03BC02F
:101CB0003FF03CC040F0200E64EF0EF0FFFFD890E4
:101CC00040323F323E323D32FFFFE82E5EEF0EF0F3
:101CD0003D50416E3B8EFF0E3916FF0E3A16FF0E39
:101CE0003B16000E3C16960E425E42BE7DEF0EF095
:101CF0007AEF0EF0FFFF97EF0EF0FFFF4250800AE1
:101D0000970FD8B086EF0EF089EF0EF0FFFF8CEF43
:101D10000EF0FFFF47EF0EF0FFFFD8903C323B3252
:101D20003A323932423E8CEF0EF0B5EF0EF0FFFF43
:101D30001F0E42649EEF0EF0A1EF0EF0FFFFABEF1F
:101D40000EF0FFFF47EF0EF0FFFFD89039363A361E
:101D50003B363C364206FFFF4250D8A4B2EF0EF0AD
:101D6000B5EF0EF0FFFFA4EF0EF0FFFF4150D8B427
:101D7000BCEF0EF0BFEF0EF0FFFFC8EF0EF0FFFF5D
:101D80003C1E3B1E3A1E396C000E3A223B223C227E
:101D9000FFFF39C039F03AC03AF03BC03BF03CC0DD
:101DA0003CF0FFFF1200FFFFFFFF186E30EF0FF057
:101DB000FFFF410E126E010E136E1E0E146E79ECB3
:101DC00013F05FEF0FF0FFFF5E0E126E020E136E48
:101DD000290E146E79EC13F05FEF0FF0FFFF870E02
:101DE000126E020E136E280E146E79EC13F05FEF74
:101DF0000FF0FFFF350E126E020E136E290E146ED9
:101E000079EC13F05FEF0FF0FFFF000E126E010E82
:101E1000136E210E146E79EC13F05FEF0FF0FFFFDD
:101E2000000E126E020E136E350E146E79EC13F066
:101E30005FEF0FF0FFFFAF0E126E020E136E270E54
:101E4000146E79EC13F05FEF0FF0FFFFB50E126E1A
:101E5000010E136E180E146E79EC13F05FEF0FF095
:101E6000FFFF1850166E176A1750000AD8B43BEFE0
:101E70000FF05FEF0FF0FFFF1650010AD8B4D8EF54
:101E80000EF0030AD8B4E3EF0EF0010AD8B4EEEF77
:101E90000EF0070AD8B4F9EF0EF0010AD8B404EF37
:101EA0000FF0030AD8B40FEF0FF0010AD8B41AEFFD
:101EB0000FF00F0AD8B425EF0FF05FEF0FF0FFFF20
:101EC0001200FFFFFFFF076EBEEF0FF0FFFF410E96
:101ED000016E010E026E1E0E036EA0EC13F0EDEF0C
:101EE0000FF0FFFF5E0E016E020E026E290E036EF2
:101EF000A0EC13F0EDEF0FF0FFFF870E016E020E66
:101F0000026E280E036EA0EC13F0EDEF0FF0FFFF52
:101F1000350E016E020E026E290E036EA0EC13F058
:101F2000EDEF0FF0FFFF000E016E010E026E210EAD
:101F3000036EA0EC13F0EDEF0FF0FFFF000E016E4B
:101F4000020E026E350E036EA0EC13F0EDEF0FF0F3
:101F5000FFFFAF0E016E020E026E270E036EA0ECA5
:101F600013F0EDEF0FF0FFFFB50E016E010E026EE4
:101F7000180E036EA0EC13F0EDEF0FF0FFFF07500B
:101F8000056E066A0650000AD8B4C9EF0FF0EDEFEF
:101F90000FF0FFFF0550010AD8B466EF0FF0030AF7
:101FA000D8B471EF0FF0010AD8B47CEF0FF0070A34
:101FB000D8B487EF0FF0010AD8B492EF0FF0030AFC
:101FC000D8B49DEF0FF0010AD8B4A8EF0FF00F0AB4
:101FD000D8B4B3EF0FF0EDEF0FF0FFFF1200FFFFEB
:101FE000FFFF010E6C6ECA84000E5A6E000E596E11
:101FF000C80E666ED58EB9EC14F0BEEC14F0C3ECCE
:1020000014F041EF10F0FFFFCDEC14F059505A10CE
:10201000D8B40DEF10F010EF10F0FFFF17EF10F035
:10202000FFFF000E5A6E060E596E57EF10F0FFFFBD
:102030006C506B266B50800A7C0FD8A022EF10F0FA
:1020400025EF10F0FFFF28EF10F0FFFF000E6B6E82
:10205000FFFF840E6B24D96EDA6A000EDA22DF509D
:102060008B6EFFFF4AEC14F012501310D8B43BEF04
:1020700010F03EEF10F0FFFF31EF10F0FFFFB9EC72
:1020800014F0FFFFA2EC14F012501310D8B44BEF71
:1020900010F04EEF10F0FFFF03EF10F0FFFF83BED4
:1020A00054EF10F057EF10F0FFFF03EF10F0FFFFB9
:1020B000EDEC14F0D59ECA94C8EC14F066EC14F064
:1020C000000ED76E000ED66E000ECC6ECDEC14F066
:1020D00083AE6DEF10F070EF10F0FFFF75EF10F0B2
:1020E000FFFF000E5A6E020E596EFFFF595012008C
:1020F000FFFFFFFF010E6C6ECA84000E5A6E000EC9
:10210000596EC80E666ED58EB9EC14F0BEEC14F0A4
:10211000C3EC14F0CAEF10F0FFFFCDEC14F05950EF
:102120005A10D8B496EF10F099EF10F0FFFFA0EF1F
:1021300010F0FFFF000E5A6E060E596EE0EF10F021
:10214000FFFF6C506B266B50800A7C0FD8A0ABEF62
:1021500010F0AEEF10F0FFFFB1EF10F0FFFF000E38
:102160006B6EFFFF840E6B24D96EDA6A000EDA22E2
:10217000DF508B6EFFFF4AEC14F012501310D8B4EE
:10218000C4EF10F0C7EF10F0FFFFBAEF10F0FFFF41
:10219000B9EC14F0FFFFA8EC14F012501310D8B4EF
:1021A000D4EF10F0D7EF10F0FFFF8CEF10F0FFFF2F
:1021B00083BEDDEF10F0E0EF10F0FFFF8CEF10F0CA
:1021C000FFFFEDEC14F0D59ECA94C8EC14F066EC59
:1021D00014F0000ED76E000ED66E000ECC6ECDEC55
:1021E00014F083AEF6EF10F0F9EF10F0FFFFFEEF02
:1021F00010F0FFFF000E5A6E020E596EFFFF59508D
:102200001200FFFFFFFF0101F66F000E0101FC6FDE
:10221000000EFB6F000E246E000E256E000E266E63
:10222000400E276EF651126E136A146A156A010E7B
:10223000EEEC0AF012C020F013C021F014C022F01E
:1022400015C023F00BEC03F020C039F021C03AF0A8
:1022500022C03BF023C03CF039EC0EF039C0F7F15E
:102260003AC0F8F1000E0101FA6F000EF96F6BEF42
:1022700011F0FFFF800EFB25D96E000EFC21DA6EF7
:10228000DF508C6EFB4BFC2BFC510AE1040EFB5D16
:10229000D8A04DEF11F050EF11F0FFFF55EF11F006
:1022A000FFFF000EFC6F000EFB6FFFFFCA84FFFFF5
:1022B0004AEC14F012501310D8B461EF11F064EF2F
:1022C00011F0FFFF57EF11F0FFFFCA94000ECC6E24
:1022D0000101F94BFA2BFFFFF751F95DF851FA595B
:1022E000D8A075EF11F078EF11F0FFFF39EF11F082
:1022F000FFFF66EC14F0CDEC14F01200FFFF457206
:10230000726F722C20706F696E74206F75747369B0
:10231000646520626F756E6461726965730A00524C
:102320006573657474696E672074686520696E6989
:102330007469616C20706F736974696F6E0A00450F
:1023400072726F722C2066656564206C696E652000
:102350006E6F7420646566696E65640A004D6F7601
:10236000696E6720746F2074686520706C616365A6
:1023700020706F736974696F6E0A004D6F76696EB5
:102380006720746F20746865207069636B20706FBC
:10239000736974696F6E0A005374617274696E6751
:1023A0002074686520506E502073657175656E638A
:1023B000650A00436F6D6D616E64206E6F742072EC
:1023C00065636F676E697A65640A00526F74617441
:1023D000696E6720746865206F626A6563740A00BD
:1023E000506C6163696E6720746865206F626A650E
:1023F00063740A004572726F722C2074696D6520D7
:10240000657863656564656420746F2072656163D7
:10241000682074686520656E64206F662074686546
:10242000205A20417869730A004572726F722C201D
:1024300074696D6520657863656564656420746F93
:102440002072656163682074686520706F696E74BE
:102450000A004572726F722C206E6F206F626A657F
:1024600063742072656C65766174656420616C6F5D
:102470006E67205A20417869730A004572726F7244
:102480002C2074696D6520657863656564656420DA
:10249000746F20726573657420706F736974696FEF
:1024A0006E0A00466174616C204572726F722C2056
:1024B000706C6561736520726573657420746865FE
:1024C00020646576696365210A00FFFF6C68CA8431
:1024D000000E5A6E000E596EC80E666ED58EA9EFAC
:1024E00012F0FFFFCDEC14F059505A10D8B47BEF26
:1024F00012F07EEF12F0FFFF85EF12F0FFFF000EEB
:102500005A6E060E596EB2EF12F0FFFF6C506B263A
:102510006BBE90EF12F08DEF12F0FFFF93EF12F011
:10252000FFFF030E6B6EFFFF840E6B24D96EDA6A19
:10253000000EDA22DF508B6EFFFF4AEC14F01250CF
:102540001310D8B4A6EF12F0A9EF12F0FFFF9CEF22
:1025500012F0FFFF84A4AFEF12F0B2EF12F0FFFF12
:1025600071EF12F0FFFFD59ECA94C8EC14F066EC30
:1025700014F0000ED76E000ED66E000ECC6ECDECB1
:1025800014F059501200FFFFF40EF66E230EF76E92
:10259000000EF86E02EE00F010EED6F00900F5CF56
:1025A000EEFFE550E150FAE1FE0EF66E220EF76EF8
:1025B000000EF86E01EE00F010EEF6F00900F5CF17
:1025C000EEFFE550E150FAE12E0EF66E260EF76EA4
:1025D000000EF86E00EE80F010EE64F00900F5CF0A
:1025E000EEFFE550E150FAE1FA0EF66E290EF76EB5
:1025F000000EF86E00EE67F010EE07F00900F5CF60
:10260000EEFFE550E150FAE100EEE4F01C0EEE6A58
:10261000E806FDE100EE43F0240EEE6AE806FDE177
:102620006E906E92000EF86E000197EF0DF0240C84
:1026300018300903060C11050C1822060C285069E5
:10264000636B696E6720746865206F626A65637486
:102650000A004F626A6563742072656C6561736518
:10266000640A004C696674696E672074686520614D
:10267000726D0A00526561647920746F20776F7201
:102680006B0A004F626A656374207069636B6564EE
:102690000A00FFFF000E146EFFFF1450126E136A43
:1026A000D89012361336D89012361336E80E12240C
:1026B000D96E000E1320DA6E1450040DE40EF324CC
:1026C000E16E000EF420E26EDECFE6FFDECFE6FF25
:1026D000DECFE6FFDECFE6FF142A030E146473EFAD
:1026E00013F076EF13F0FFFF4CEF13F0FFFF120033
:1026F000FFFFFFFF010E156E92EF13F0FFFF12C0F8
:10270000D9FF13C0DAFFDF50AD6EFFFFACA28BEF35
:1027100013F08EEF13F0FFFF85EF13F0FFFF124A67
:10272000132A152AFFFF1450155CD8A09AEF13F056
:102730009DEF13F0FFFF7EEF13F0FFFF1200FFFF8E
:10274000FFFF010E046EB9EF13F0FFFF01C0D9FFC8
:1027500002C0DAFFDF50AD6EFFFFACA2B2EF13F0A4
:10276000B5EF13F0FFFFACEF13F0FFFF014A022AB1
:10277000042AFFFF0350045CD8A0C1EF13F0C4EF9C
:1027800013F0FFFFA5EF13F0FFFF1200FFFFFFFFA5
:10279000F2BECDEF13F0D0EF13F0FFFFD2EF13F046
:1027A000FFFFF28EFFFFF2BCD8EF13F0DBEF13F068
:1027B000FFFFDDEF13F0FFFFF28CFFFFD08EF28AF8
:1027C0009D809D829D8A1200FFFFFFFF8C92CA842C
:1027D000FFFF4AEC14F012501310D8B4F2EF13F0CC
:1027E000F5EF13F0FFFFE8EF13F0FFFFCA94000EC0
:1027F000CC6E66EC14F01200FFFFFFFF8C82CA84DF
:10280000FFFF4AEC14F012501310D8B40AEF14F082
:102810000DEF14F0FFFF00EF14F0FFFFCA94000E5D
:10282000CC6E66EC14F01200FFFFFFFFC150F00BFE
:102830000609C16ED10E9216020E9316C00E9416A2
:10284000C00E9516968096829684958E1200FFFF94
:10285000FFFFC2503F0B4009C26EC18CC70EC216AB
:10286000C294C290C19EC150F00B0E09C16E9D8CE6
:102870009F8C1200FFFFFFFF949C948EAC9CAC8A4F
:10288000AC98AC94AB8EAB9CAB98AB96190EAF6E7C
:102890001200FFFFFFFF5BC014F0000E5B6E14C060
:1028A00012F0136A1200FFFFFFFFCA94CA8212C01F
:1028B0004FF013C050F01200FFFFFFFFD59ED59CD4
:1028C000D59AD586070ED5121200FFFFFFFF000E26
:1028D000526E000E516E000E626E1200FFFFFFFF7F
:1028E000070E62EC0FF0FFFF73EF14F01200FFFF12
:1028F000FFFF300ECD12CD92CD801200FFFFFFFF03
:10290000F80E126E000E136E1200FFFFFFFFE40EB2
:10291000126E000E136E1200FFFFFFFF000E5A6EC4
:10292000000E596E1200FFFFFFFF000E5A6E010EDF
:10293000596E1200FFFFFFFF4FC001F050C002F0C0
:102940001200FFFFFFFF64C012F0136A1200FFFFC6
:10295000FFFF65C012F0136A1200FFFFFFFF5CC0AB
:1029600012F0136A1200FFFFFFFF000E5F6E1200ED
:10297000FFFFFFFFC280C2841200FFFFFFFF000EB7
:10298000656E1200FFFFFFFF000E646E1200FFFF76
:10299000FFFF000E636E1200FFFFFFFF000E5C6E74
:1029A0001200FFFFFFFF010E5B6E1200FFFFFFFF33
:1029B000010E656E1200FFFFFFFF010E646E120034
:1029C000FFFFFFFF61061200FFFFFFFF61501200D3
:1029D000FFFFFFFF5F501200FFFFFFFFC2901200DA
:1029E000FFFFFFFF66501200FFFFFFFF5C2A12008F
:1029F000FFFFFFFF60501200FFFF00010001000118
:012A000005D0
:022A0200FFFFD4
:020000040020DA
:08000000FFFFFFFFFFFFFFFF00
:020000040030CA
:0E000000FF210D0EFF0080FF0FC00FE00F402C
:00000001FF
