:020000040000FA
:0600000000F0B5EF00F076
:10000800FFFF6E82D9CF0DF0DACF0EF0F3CF0FF0ED
:10001800F4CF10F0F2A413EF00F016EF00F0FFFF9A
:100028002CEF00F0FFFFF2945F2AFCEC10F00B6E4F
:100038000B505F5CD8A023EF00F026EF00F0FFFF25
:100048002CEF00F0FFFFD59E000E5F6E99EC10F0CC
:10005800FFFF9EA232EF00F035EF00F0FFFF63EFE5
:1000680000F0FFFF9E924F4A502AA0EC10F04F502C
:10007800015C50500258D8B044EF00F047EF00F050
:10008800FFFF63EF00F0FFFF5E2A5E50D8B44FEF2A
:1000980000F052EF00F0FFFF60EF00F0FFFF5EB0EE
:1000A80058EF00F05BEF00F0FFFF60EF00F0FFFF9C
:1000B800000E5E6E00EC11F0FFFFC8EC10F0FFFFC1
:1000C8009EAC69EF00F06CEF00F0FFFF99EF00F0D5
:1000D800FFFF9E9CC3CF51F0526AC4500C6E0B6A4E
:1000E8000B5051120C5052125104040E5258D8A001
:1000F80080EF00F083EF00F0FFFF8AEF00F0FFFFD2
:10010800CDEC10F0D2EC10F099EF00F0FFFF5104A5
:10011800020E5258D8A093EF00F096EF00F0FFFFC0
:1001280099EF00F0FFFFCDEC10F0FFFF9EAA9FEFC4
:1001380000F0A2EF00F0FFFFA9EF00F0FFFF9E9A8A
:10014800AECF11F011503AEC09F0FFFF10C0F4FFE8
:100158000FC0F3FF0EC0DAFF0DC0D9FF6E92110079
:06016800FFFF83EF0EF023
:1006000000ACFFB33D0004000219190F0F050500EF
:10061000FFFF2350800B306E23502324376E22AE11
:1006200014EF03F017EF03F0FFFF19EF03F0FFFFE4
:100630003780FFFF3750D8B420EF03F023EF03F0EB
:10064000FFFF3CEF03F0FFFF3728D8A42AEF03F0A9
:100650002DEF03F0FFFF36EF03F0FFFF000E206EDB
:10066000000E216E000E226E000E236EFFFF228E02
:10067000000E236E45EF03F0FFFF000E206E000E0C
:10068000216E000E226E000E236EFFFF2750800B9E
:10069000301A27502724386E26AE51EF03F054EF5E
:1006A00003F0FFFF56EF03F0FFFF3880FFFF3850E5
:1006B000D8B45DEF03F060EF03F0FFFF79EF03F0D4
:1006C000FFFF3828D8A467EF03F06AEF03F0FFFFBD
:1006D00073EF03F0FFFF000E246E000E256E000E78
:1006E000266E000E276EFFFF268E000E276E82EF0D
:1006F00003F0FFFF000E246E000E256E000E266E26
:10070000000E276EFFFF2450251026102710D8A4B6
:100710008CEF03F08FEF03F0FFFFA9EF03F0FFFF73
:10072000000E206E000E216E000E226E000E236E53
:10073000800E22127F0E2312FFFF3050231220C0A2
:1007400020F021C021F022C022F023C023F01EEFB0
:1007500005F0FFFF3750D8A4B0EF03F0B3EF03F07C
:10076000FFFFBEEF03F0FFFF000E206E000E216EB4
:10077000000E226E000E236E1EEF05F0FFFF3850B4
:1007800037C028F0296A285E000E295A7F0E2824D7
:10079000316E000E2920326E20C02CF021C02DF0C9
:1007A00022C02EF023C02FF0000E206E000E216E0E
:1007B000000E226E000E236E000E336E000E346E9D
:1007C000000E356E000E366E000E386E2AEF04F005
:1007D000FFFF3850D8B4EFEF03F0F2EF03F0FFFF64
:1007E0000DEF04F0FFFFD8902C362D362E362F3625
:1007F000D890203621362236233636AE02EF04F06A
:1008000005EF04F0FFFF07EF04F0FFFF2080FFFF7C
:10081000D8903336343635363636FFFF24502C5CCC
:1008200025502D5826502E5827502F58D8A01BEF52
:1008300004F01EEF04F0FFFF28EF04F0FFFF368CFA
:1008400024502C5E25502D5A26502E5A27502F5AB0
:10085000FFFF382AFFFF190E386431EF04F034EF40
:1008600004F0FFFFE8EF03F0FFFF2C502D102E10D7
:100870002F10D8B43EEF04F041EF04F0FFFF5EEF1D
:1008800004F0FFFF33805EEF04F0FFFFD8902036C6
:1008900021362236233636AE50EF04F053EF04F003
:1008A000FFFF55EF04F0FFFF2080FFFFD8903336A5
:1008B0003436353636363106D8A03206FFFF22AE42
:1008C00064EF04F067EF04F0FFFF45EF04F0FFFF73
:1008D000000E386E36AE6FEF04F072EF04F0FFFFDB
:1008E0009DEF04F0FFFFFF0E3314286EFF0E34144B
:1008F000296EFF0E35142A6E7F0E36142B6E28508B
:1009000029102A102B10D8B488EF04F08BEF04F0D4
:10091000FFFF91EF04F0FFFFFFFF010E386E9DEF28
:1009200004F0FFFF20A097EF04F09AEF04F0FFFF20
:100930009DEF04F0FFFF8CEF04F0FFFF3850D8B4B8
:10094000A4EF04F0A7EF04F0FFFFCEEF04F0FFFFE9
:10095000010E2026000E21222222232223A0B3EF03
:1009600004F0B6EF04F0FFFFCEEF04F0FFFF20C06D
:1009700028F021C029F022C02AF023C02BF02B340C
:100980002B322A322932283228C020F029C021F007
:100990002AC022F02BC023F0314A322AFFFF32BE98
:1009A000DAEF04F0325009E13128D8A0DAEF04F090
:1009B000DDEF04F0FFFFE9EF04F0FFFF000E326E01
:1009C0003168000E206E000E216E000E226E000EA9
:1009D000236EFFFF32BEF8EF04F0325006E131041F
:1009E000D8B0F5EF04F0F8EF04F0FFFF07EF05F0E3
:1009F000FFFF000E326E000E316E000E206E000EF4
:100A0000216E000E226E000E236E000E306EFFFF70
:100A100031C037F037A00FEF05F012EF05F0FFFF00
:100A200016EF05F0FFFF228E18EF05F0FFFF229E64
:100A3000FFFFD8903730236E9CEF03F0FFFF1200CA
:100A4000FFFFFFFF8BEC10F012C0FAF013C0FBF0B9
:100A5000000E0001F96FBFEF05F0FFFF4CC016F06C
:100A6000176A4DC018F0196A0D0EF66E060EF76E75
:100A70000800FFFFF5501A6E1B6A0E0EF66E060E8A
:100A8000F76E0800FFFFF5501C6E1D6A45EC08F07C
:100A90000001F96F0D0EF66E060EF76E0800FFFFEF
:100AA000F5CF4CF00E0EF66E060EF76E0800FFFF47
:100AB000F5CF4DF0E2EF05F0FFFF4CC016F0176ADE
:100AC0004DC018F0196A0B0EF66E060EF76E080090
:100AD000FFFFF5501A6E1B6A0C0EF66E060EF76ECF
:100AE0000800FFFFF5501C6E1D6A45EC08F0000180
:100AF000F96F0B0EF66E060EF76E0800FFFFF5CFCE
:100B00004CF00C0EF66E060EF76E0800FFFFF5CFE8
:100B10004DF0E2EF05F0FFFF4CC016F0176A4DC034
:100B200018F0196A090EF66E060EF76E0800FFFF40
:100B3000F5501A6E1B6A0A0EF66E060EF76E080066
:100B4000FFFFF5501C6E1D6A45EC08F00001F96FBF
:100B5000090EF66E060EF76E0800FFFFF5CF4CF09B
:100B60000A0EF66E060EF76E0800FFFFF5CF4DF089
:100B7000E2EF05F0FFFF010EF96FE2EF05F0FFFF76
:100B8000FAC0D9FFFBC0DAFFDF50F76FF86BF851FE
:100B9000000AD8B4CEEF05F0BAEF05F0FFFFF75129
:100BA000300AD8B42DEF05F0010AD8B45CEF05F097
:100BB000030AD8B48BEF05F0CD0AD8B4E2EF05F004
:100BC000BAEF05F0FFFFF951D8A4E9EF05F0ECEF1B
:100BD00005F0FFFF4CEF06F0FFFF1BEC0CF0F8EC0C
:100BE00010F02BEC0EF04CC016F0176A4DC018F048
:100BF000196A000120EE01F0FA51D926FB51DA22E0
:100C0000DF50F76FF7511A6E1B6A20EE02F0FA51AF
:100C1000D926FB51DA22DF50F86FF8511C6E1D6A9D
:100C200045EC08F0000120EE01F0FA51D926FB5105
:100C3000DA22DF504C6E20EE02F0FA51D926FB5139
:100C4000DA22DF504D6E20EE03F0FA51D926FB5127
:100C5000DA22DF50F76F5550F75D556E5650D8A029
:100C60005628566A565E56BE3BEF06F038EF06F041
:100C7000FFFF40EF06F0FFFF680E5526010E5622DB
:100C8000FFFF5550CEEC0DF0A2EC0BF0F4EC10F0A1
:100C90002BEC0EF00001F96FFFFFF9511200FFFF7E
:100CA000FFFF1A6E1A50D8B458EF06F05BEF06F04B
:100CB000FFFF80EF06F0FFFF15BE64EF06F061EF67
:100CC00006F0FFFF80EF06F0FFFF12C016F013C022
:100CD00017F014C018F015C019F0161E171E181EB4
:100CE000191E162A000E17221822192216C01CF0EF
:100CF00017C01DF018C01EF019C01FF089EF06F0D4
:100D0000FFFF12C01CF013C01DF014C01EF015C070
:100D10001FF0FFFF1250131014101510D8A493EFFA
:100D200006F096EF06F0FFFFA1EF06F0FFFF000EC2
:100D3000126E000E136E000E146E000E156E49EF4B
:100D400007F0FFFF960E1B6EADEF06F0FFFF1B2AAC
:100D5000D8901F321E321D321C32FFFF000E1C14B1
:100D6000166E000E1D14176E000E1E14186EFE0E69
:100D70001F14196E1650171018101910D8A4C3EFAD
:100D800006F0C6EF06F0FFFFA6EF06F0FFFFD6EF76
:100D900006F0FFFF1B2A010E1C26000E1D221E223C
:100DA0001F22D8901F321E321D321C32FFFF000E50
:100DB0001C14166E000E1D14176E000E1E14186EF5
:100DC000FF0E1F14196E1650171018101910D8A402
:100DD000ECEF06F0EFEF06F0FFFFC9EF06F0FFFFC4
:100DE000F9EF06F0FFFF1B06D8901C361D361E36A5
:100DF0001F36FFFF1EBEFFEF06F002EF07F0FFFFFA
:100E00000CEF07F0FFFF020E1B6009EF07F00CEF7D
:100E100007F0FFFFF2EF06F0FFFF1BB012EF07F045
:100E200015EF07F0FFFF17EF07F0FFFF1E9EFFFF14
:100E3000D8901B321BC016F0176A186A196A16C0C0
:100E400019F0186A176A166A16501C1217501D12EC
:100E500018501E1219501F121A50D8B432EF07F052
:100E600035EF07F0FFFF40EF07F0FFFF15BE3EEF45
:100E700007F03BEF07F0FFFF40EF07F0FFFF1F8E8B
:100E8000FFFF1CC012F01DC013F01EC014F01FC0E5
:100E900015F0FFFF1200FFFFFFFF000E126E000EA5
:100EA00094EC0CF0000E126E010E94EC0CF0000E9F
:100EB000126E020E94EC0CF0000E126E000E3AEC64
:100EC0000FF0010E126E000E3AEC0FF0020E126ED1
:100ED000000E3AEC0FF0000E126E010EC6EC0EF092
:100EE000010E126E010EC6EC0EF0020E126E010E15
:100EF000C6EC0EF0000E126E000E00EC0FF0010EAC
:100F0000126E000E00EC0FF0020E126E000E00ECDE
:100F10000FF0010E166E010E176E010E186ECA84C8
:100F2000000E586E000E576EC80E646ED58E1AEF06
:100F300008F0FFFF57505810D8B4A1EF07F0A4EF06
:100F400007F0FFFFAEEF07F0FFFF89948A988B94BC
:100F5000000E586E030E576E38EF08F0FFFF84B096
:100F6000B4EF07F0B7EF07F0FFFFC1EF07F0FFFFA7
:100F70001650D8A4BEEF07F0C1EF07F0FFFFC6EF91
:100F800007F0FFFF000E166EC8EF07F0FFFF898421
:100F9000FFFF84B2CEEF07F0D1EF07F0FFFFDBEFEA
:100FA00007F0FFFF1750D8A4D8EF07F0DBEF07F0EA
:100FB000FFFFE0EF07F0FFFF000E176EE2EF07F014
:100FC000FFFF8A88FFFF84B4E8EF07F0EBEF07F03C
:100FD000FFFFF5EF07F0FFFF1850D8A4F2EF07F07E
:100FE000F5EF07F0FFFFFAEF07F0FFFF000E186EB6
:100FF000FCEF07F0FFFF8B84FFFF78EC10F012503E
:101000001310D8B406EF08F009EF08F0FFFFFCEF6B
:1010100007F0FFFF89948A988B94FFFF78EC10F01B
:1010200012501310D8B417EF08F01AEF08F0FFFFB2
:101030000DEF08F0FFFF1650D8A421EF08F024EFC1
:1010400008F0FFFF99EF07F0FFFF1750D8A42BEF30
:1010500008F02EEF08F0FFFF99EF07F0FFFF1850A0
:10106000D8A435EF08F038EF08F0FFFF99EF07F04C
:10107000FFFFD59ECA94000ED76E000ED66E000EEE
:10108000CC6EC3EC10F01200FFFFFFFFE90E1A5CFC
:10109000030E1B58D8B04FEF08F052EF08F0FFFFD7
:1010A0005FEF08F0FFFFE90E1C5C030E1D58D8A08F
:1010B0005CEF08F05FEF08F0FFFF63EF08F0FFFF61
:1010C000050E37EF09F0FFFF16501A5C1E6E175021
:1010D0001B581F6E1E501F10D8B471EF08F074EF2C
:1010E00008F0FFFF7CEF08F0FFFF000E126E010E0C
:1010F0003AEC0FF082EF08F0FFFF000E126E000EC8
:101100003AEC0FF0FFFF18501C5C1E6E19501D5872
:101110001F6E1E501F10D8B490EF08F093EF08F028
:10112000FFFF9BEF08F0FFFF010E126E010E3AEC7D
:101130000FF0A1EF08F0FFFF010E126E000E3AEC67
:101140000FF0FFFF010E206E010E216ECA84000E0B
:10115000586E000E576EC80E646ED58E17EF09F0EC
:10116000FFFF57505810D8B4B8EF08F0BBEF08F0A5
:10117000FFFFC4EF08F0FFFF89948A98000E586EB5
:10118000040E576E2BEF09F0FFFFB3EC10F0165072
:101190001226175013221A50121807E11B50131869
:1011A000D8A4D5EF08F0D8EF08F0FFFFDDEF08F086
:1011B000FFFF000E206EDFEF08F0FFFF8984FFFFC6
:1011C000B3EC10F018501226195013221C501218AC
:1011D00007E11D501318D8A4F0EF08F0F3EF08F062
:1011E000FFFFF8EF08F0FFFF000E216EFAEF08F0A6
:1011F000FFFF8A88FFFF78EC10F012501310D8B46C
:1012000004EF09F007EF09F0FFFFFAEF08F0FFFF26
:1012100089948A98FFFF78EC10F012501310D8B41C
:1012200014EF09F017EF09F0FFFF0AEF09F0FFFFD5
:101230002050D8A41EEF09F021EF09F0FFFFB0EF16
:1012400008F0FFFF2150D8A428EF09F02BEF09F098
:10125000FFFFB0EF08F0FFFFD59ECA94000ED76ED7
:10126000000ED66E000ECC6EC3EC10F05750FFFF90
:101270001200FFFFFFFF0A6E430E5A24D96EDA6A8E
:10128000000EDA220AC0DFFF5A2A56EF09F0FFFFEC
:10129000050E6D6E71EF09F0FFFF090E6D6E71EFB7
:1012A00009F0FFFF010E6D6E71EF09F0FFFF435073
:1012B000086E096A0950000AD8B461EF09F071EFAD
:1012C00009F0FFFF0850000AD8B447EF09F0010AFF
:1012D000D8B44CEF09F0030AD8B451EF09F071EF1C
:1012E00009F0FFFF6D505A5CD8A079EF09F07CEF50
:1012F00009F0FFFFE8EF09F0FFFF000E5A6ECDEF97
:1013000009F0FFFF5D50040DDC0EF324D96E000ED2
:10131000F420DA6E44C0DFFF5D50040DDD0EF324CF
:10132000D96E000EF420DA6E45C0DFFF5D50040D6B
:10133000DE0EF324D96E000EF420DA6E46C0DFFF15
:101340005D50040DDF0EF324D96E000EF420DA6E2A
:1013500047C0DFFF5D2AE8EF09F0FFFF44C0D4F08B
:1013600045C0D5F046C0D6F047C0D7F048C0D8F049
:1013700049C0D9F04AC0DAF04BC0DBF0010E5B6E19
:10138000E8EF09F0FFFF010E5C6EE8EF09F0FFFFE8
:10139000080E14EC0BF0E8EF09F0FFFF4350086E65
:1013A000096A0950000AD8B4D8EF09F0C7EF09F06C
:1013B000FFFF0850000AD8B481EF09F0010AD8B441
:1013C000ADEF09F0030AD8B4C2EF09F0C7EF09F096
:1013D000FFFF1200FFFFFFFF3B343C34426E4250E0
:1013E000D8A4F5EF09F0F8EF09F0FFFF04EF0AF0D9
:1013F000FFFFFFFF000E396E000E3A6E000E3B6ECF
:10140000000E3C6E83EF0AF0FFFF39C03DF03AC09A
:101410003EF03BC03FF03CC040F0200E16EF0AF01B
:10142000FFFFD89040323F323E323D32FFFFE82E80
:1014300010EF0AF03D50416E3B8EFF0E3916FF0E45
:101440003A16FF0E3B16000E3C16960E425E42BE4A
:101450002FEF0AF02CEF0AF0FFFF49EF0AF0FFFF31
:101460004250800A970FD8B038EF0AF03BEF0AF0ED
:10147000FFFF3EEF0AF0FFFFF9EF09F0FFFFD89002
:101480003C323B323A323932423E3EEF0AF067EFAD
:101490000AF0FFFF1F0E426450EF0AF053EF0AF00C
:1014A000FFFF5DEF0AF0FFFFF9EF09F0FFFFD890B3
:1014B00039363A363B363C364206FFFF4250D8A416
:1014C00064EF0AF067EF0AF0FFFF56EF0AF0FFFF44
:1014D0004150D8B46EEF0AF071EF0AF0FFFF7AEFD7
:1014E0000AF0FFFF3C1E3B1E3A1E396C000E3A22EA
:1014F0003B223C22FFFF39C039F03AC03AF03BC0F2
:101500003BF03CC03CF0FFFF1200FFFFFFFF186EF6
:10151000E2EF0AF0FFFFA00E126E000E136E1D0E1A
:10152000146ECEEC0FF011EF0BF0FFFF5C0E126E9D
:10153000010E136E280E146ECEEC0FF011EF0BF0AF
:10154000FFFF840E126E010E136E270E146ECEEC8A
:101550000FF011EF0BF0FFFF340E126E010E136E41
:10156000280E146ECEEC0FF011EF0BF0FFFF800E83
:10157000126E000E136E200E146ECEEC0FF011EFF3
:101580000BF0FFFF000E126E010E136E340E146E80
:10159000CEEC0FF011EF0BF0FFFFAB0E126E010E51
:1015A000136E260E146ECEEC0FF011EF0BF0FFFF52
:1015B000BD0E126E000E136E170E146ECEEC0FF0F1
:1015C00011EF0BF0FFFF1850166E176A1750000A44
:1015D000D8B4EDEF0AF011EF0BF0FFFF1650010A3F
:1015E000D8B48AEF0AF0030AD8B495EF0AF0010ADA
:1015F000D8B4A0EF0AF0070AD8B4ABEF0AF0010A9A
:10160000D8B4B6EF0AF0030AD8B4C1EF0AF0010A61
:10161000D8B4CCEF0AF00F0AD8B4D7EF0AF011EF24
:101620000BF0FFFF1200FFFFFFFF076E70EF0BF0E4
:10163000FFFFA00E016E000E026E1D0E036EF5EC94
:101640000FF09FEF0BF0FFFF5C0E016E010E026EBC
:10165000280E036EF5EC0FF09FEF0BF0FFFF840EEA
:10166000016E010E026E270E036EF5EC0FF09FEF78
:101670000BF0FFFF340E016E010E026E280E036E9A
:10168000F5EC0FF09FEF0BF0FFFF800E016E000EE8
:10169000026E200E036EF5EC0FF09FEF0BF0FFFFD4
:1016A000000E016E010E026E340E036EF5EC0FF0AB
:1016B0009FEF0BF0FFFFAB0E016E010E026E260EC8
:1016C000036EF5EC0FF09FEF0BF0FFFFBD0E016E08
:1016D000000E026E170E036EF5EC0FF09FEF0BF08D
:1016E000FFFF0750056E066A0650000AD8B47BEF6C
:1016F0000BF09FEF0BF0FFFF0550010AD8B418EF75
:101700000BF0030AD8B423EF0BF0010AD8B42EEF84
:101710000BF0070AD8B439EF0BF0010AD8B444EF44
:101720000BF0030AD8B44FEF0BF0010AD8B45AEF0C
:101730000BF00F0AD8B465EF0BF09FEF0BF0FFFF33
:101740001200FFFFFFFF020E126E010E3AEC0FF0C7
:10175000CA84000E586E000E576EC80E646ED58E89
:10176000F0EC10F0E5EF0BF0FFFF57505810D8B435
:10177000BCEF0BF0BFEF0BF0FFFFC7EF0BF0FFFF6D
:101780008B94000E586E060E576EFBEF0BF0FFFFAA
:101790008B84FFFF78EC10F012501310D8B4D3EF05
:1017A0000BF0D6EF0BF0FFFFC9EF0BF0FFFF8B94B0
:1017B000FFFF78EC10F012501310D8B4E2EF0BF0EA
:1017C000E5EF0BF0FFFFD8EF0BF0FFFFA7EC10F0F9
:1017D00012501310D8B4EFEF0BF0F2EF0BF0FFFF45
:1017E000B4EF0BF0FFFF83BEF8EF0BF0FBEF0BF055
:1017F000FFFFB4EF0BF0FFFFECEC10F0B9EC10F0D2
:10180000D59ECA94000ED76E000ED66E000ECC6E1A
:10181000C3EC10F083AE0FEF0CF012EF0CF0FFFFF3
:1018200017EF0CF0FFFF000E586E020E576EFFFF11
:1018300057501200FFFFFFFF020E126E010E3AEC2E
:101840000FF0CA84000E586E000E576EC80E646EFC
:10185000D58EF0EC10F05EEF0CF0FFFF57505810F3
:10186000D8B435EF0CF038EF0CF0FFFF40EF0CF080
:10187000FFFF8B94000E586E060E576E74EF0CF03F
:10188000FFFF8B84FFFF78EC10F012501310D8B4D8
:101890004CEF0CF04FEF0CF0FFFF42EF0CF0FFFFAE
:1018A0008B94FFFF78EC10F012501310D8B45BEF5C
:1018B0000CF05EEF0CF0FFFF51EF0CF0FFFFADEC12
:1018C00010F012501310D8B468EF0CF06BEF0CF05E
:1018D000FFFF2DEF0CF0FFFF83BE71EF0CF074EFF4
:1018E0000CF0FFFF2DEF0CF0FFFFECEC10F0BEEC66
:1018F00010F0D59ECA94000ED76E000ED66E000E64
:10190000CC6EC3EC10F083AE88EF0CF08BEF0CF0D4
:10191000FFFF90EF0CF0FFFF000E586E020E576EA7
:10192000FFFF57501200FFFFFFFF156EE1EF0CF0B5
:10193000FFFF15C013F0010E1316133A134689501A
:101940001318DF0B1318896E15C013F0020E13164F
:101950008A501318FE0B13188A6EFCEF0CF0FFFF71
:1019600015C013F0010E1316133A134613468A508E
:101970001318BF0B13188A6E15C013F0020E13163E
:10198000133213328A5013187F0B13188A6EFCEF30
:101990000CF0FFFF15C013F0010E1316133A8B5015
:1019A0001318EF0B13188B6E15C013F0020E1316DD
:1019B000133A13468B501318DF0B13188B6EFCEF82
:1019C0000CF0FFFF1250136E146A1450000AD8B4C2
:1019D000ECEF0CF0FCEF0CF0FFFF1350000AD8B452
:1019E00098EF0CF0010AD8B4AFEF0CF0030AD8B4AA
:1019F000C9EF0CF0FCEF0CF0FFFF1200FFFF457287
:101A0000726F722C2074696D6520657863656564FA
:101A1000656420746F207265616368207468652056
:101A2000656E64206F6620746865205A204178696D
:101A300073004572726F722C2074696D6520657831
:101A400063656564656420746F20726561636820F6
:101A500074686520706F696E74004572726F722CC5
:101A6000206E6F206F626A6563742072656C6576A4
:101A70006174656420616C6F6E67205A20417869DB
:101A800073004572726F722C2074696D65206578E1
:101A900063656564656420746F2072657365742086
:101AA000706F736974696F6E00466174616C204574
:101AB00072726F722C20706C656173652072657331
:0F1AC0006574207468652064657669636521002C
:101AD000FFFF1CEC10F039EC10F04CEC10F082EC35
:101AE00010F0000E136E0A0E126E6EEC10F04CEC3D
:101AF00007F05FEC10F0AB88FFFFE8EC10F0000996
:101B0000D8B485EF0DF088EF0DF0FFFF9EEF0DF0DC
:101B1000FFFF000E126E010E00EC0FF0010E126EB0
:101B2000010E00EC0FF0020E126E010E00EC0FF031
:101B3000070E86EC0AF0FFFF9BEF0DF0FFFFE4ECD1
:101B400010F00009D8B4A7EF0DF0AAEF0DF0FFFFD9
:101B5000ADEF0DF0FFFF7CEF0DF0FFFFE0EC10F0BC
:101B60000009D8B4B6EF0DF0B9EF0DF0FFFFC9EFE3
:101B70000DF0FFFF21EC05F00001FC6FFC5186EC3D
:101B80000AF092EC10F0DCEC10F074EC0FF07CEF4B
:101B90000DF0FFFF7CEF0DF0B5EF00F0FFFF00014F
:101BA000F36FAC0E246EFF0E256EB30E266E3D0E47
:101BB000276E0001F351126E136A146A156A010E42
:101BC00050EC06F012C020F013C021F014C022F037
:101BD00015C023F008EC03F020C039F021C03AF022
:101BE00022C03BF023C03CF0EBEC09F039C0F4F02C
:101BF0003AC0F5F0000E0001F66F14EF0EF0FFFF93
:101C0000C30E8C16F651030BF06FF16B650EF025C9
:101C1000D96E000EF121DA6EDF50F26FD890F237F4
:101C2000D890F2358C12F62BFFFFF651F06FF16B66
:101C3000F451F05DF151800AF26FF551800AF259CA
:101C4000D8A025EF0EF028EF0EF0FFFFFFEF0DF00C
:101C5000FFFF1200FFFFFFFF020E126E000E3AECB4
:101C60000FF0CA84000E586E000E576EC80E646ED8
:101C7000D58E6CEF0EF0FFFF57505810D8B443EFDD
:101C80000EF046EF0EF0FFFF4EEF0EF0FFFF8B94CD
:101C9000000E586E060E576E75EF0EF0FFFF8B8428
:101CA000FFFF78EC10F012501310D8B45AEF0EF07A
:101CB0005DEF0EF0FFFF50EF0EF0FFFF8B94FFFF84
:101CC00078EC10F012501310D8B469EF0EF06CEFEE
:101CD0000EF0FFFF5FEF0EF0FFFF84A472EF0EF037
:101CE00075EF0EF0FFFF3BEF0EF0FFFFD59ECA949D
:101CF000000ED76E000ED66E000ECC6EC3EC10F048
:101D000057501200FFFFFE0EF66E190EF76E000E12
:101D1000F86E01EE00F010EED1F00900F5CFEEFF05
:101D2000E550E150FAE1480EF66E1F0EF76E000E18
:101D3000F86E00EE80F010EE54F00900F5CFEEFFE3
:101D4000E550E150FAE1AE0EF66E210EF76E000E90
:101D5000F86E00EE65F010EE09F00900F5CFEEFF29
:101D6000E550E150FAE100EED4F01C0EEE6AE80610
:101D7000FDE100EE43F0220EEE6AE806FDE16E9012
:101D80006E92000EF86E000168EF0DF0FFFF156E09
:101D9000E2EF0EF0FFFF15B002D08A9401D08A84E2
:101DA000FDEF0EF0FFFF15B002D08B9001D08B80BD
:101DB000FDEF0EF0FFFF15B002D08C9001D08C80AB
:101DC000FDEF0EF0FFFF1250136E146A1450000A5C
:101DD000D8B4EDEF0EF0FDEF0EF0FFFF1350000A48
:101DE000D8B4CAEF0EF0010AD8B4D2EF0EF0030A4D
:101DF000D8B4DAEF0EF0FDEF0EF0FFFF1200FFFF98
:101E0000FFFF156E1CEF0FF0FFFF15B002D0899693
:101E100001D0898637EF0FF0FFFF15B002D08A9A04
:101E200001D08A8A37EF0FF0FFFF15B002D08B96F2
:101E300001D08B8637EF0FF0FFFF1250136E146A3C
:101E40001450000AD8B427EF0FF037EF0FF0FFFF60
:101E50001350000AD8B404EF0FF0010AD8B40CEF05
:101E60000FF0030AD8B414EF0FF037EF0FF0FFFFB5
:101E70001200FFFFFFFF156E56EF0FF0FFFF15B0CA
:101E800002D0899201D0898271EF0FF0FFFF15B067
:101E900002D08A9601D08A8671EF0FF0FFFF15B04D
:101EA00002D08B9201D08B8271EF0FF0FFFF1250A6
:101EB000136E146A1450000AD8B461EF0FF071EF7A
:101EC0000FF0FFFF1350000AD8B43EEF0FF0010AE5
:101ED000D8B446EF0FF0030AD8B44EEF0FF071EF0D
:101EE0000FF0FFFF1200FFFFFFFF000E146EFFFF59
:101EF0001450126E136AD89012361336D8901236D8
:101F00001336E00E1224D96E000E1320DA6E145030
:101F1000040DDC0EF324E16E000EF420E26EDECF41
:101F2000E6FFDECFE6FFDECFE6FFDECFE6FF142AD8
:101F3000030E14649EEF0FF0A1EF0FF0FFFF77EF99
:101F40000FF0FFFF1200FFFF4572726F722C2070BE
:101F50006F696E74206F75747369646520626F7544
:101F60006E646172696573004572726F722C2066CF
:101F7000656564206C696E65206E6F7420646566AB
:101F8000696E656400436F6D6D616E64206E6F7481
:101F9000207265636F676E697A656400FFFF010EEA
:101FA000156EE7EF0FF0FFFF12C0D9FF13C0DAFF85
:101FB000DF50AD6EFFFFACA2E0EF0FF0E3EF0FF0EC
:101FC000FFFFDAEF0FF0FFFF124A132A152AFFFF77
:101FD0001450155CD8A0EFEF0FF0F2EF0FF0FFFFF9
:101FE000D3EF0FF0FFFF1200FFFFFFFF010E046EA3
:101FF0000EEF10F0FFFF01C0D9FF02C0DAFFDF5083
:10200000AD6EFFFFACA207EF10F00AEF10F0FFFF7C
:1020100001EF10F0FFFF014A022A042AFFFF0350DC
:10202000045CD8A016EF10F019EF10F0FFFFFAEFE4
:102030000FF0FFFF1200FFFFFFFFF2BE22EF10F0D4
:1020400025EF10F0FFFF27EF10F0FFFFF28EFFFFEC
:10205000F2BC2DEF10F030EF10F0FFFF32EF10F078
:10206000FFFFF28CFFFFD08EF28A9D829D8A1200C4
:10207000FFFFFFFFC150F00B0609C16ED10E921693
:10208000020E9316C00E9416C00E95169680968278
:102090009684958E1200FFFFFFFFC2503F0B400950
:1020A000C26EC18CC70EC216C294C290C19EC150EE
:1020B000F00B0E09C16E9D8C9F8C1200FFFFFFFF7D
:1020C000949C948EAC9CAC8AAC98AC94AB8EAB9C3C
:1020D000AB98AB96190EAF6E1200FFFFFFFFCA94CC
:1020E000030ECA1212C053F013C054F01200FFFFC7
:1020F000FFFF62C014F0000E626E14C012F0136A8B
:102100001200FFFFFFFFD59ED59CD59AD586070EFE
:10211000D5121200FFFFFFFFDC0E126E000E136ED1
:102120001200FFFFFFFF000E586E000E576E1200E8
:10213000FFFFFFFF000E586E010E576E1200FFFFEB
:10214000FFFF53C001F054C002F01200FFFFFFFF79
:1021500060C012F0136A1200FFFFFFFF61C012F0AF
:10216000136A1200FFFFFFFF63C012F0136A120030
:10217000FFFFFFFF000E606E1200FFFFFFFF000E6B
:10218000616E1200FFFFFFFF000E636E1200FFFF83
:10219000FFFF010E626E1200FFFFFFFF010E616E76
:1021A0001200FFFFFFFF010E606E1200FFFF090328
:0721B000060CE803E803053B
:1021B800FFFF5D061200FFFFFFFF5D501200FFFFEB
:1021C800FFFF5B501200FFFFFFFF5C501200FFFF94
:1021D800FFFFC2901200FFFFFFFFC2801200FFFF47
:1021E800FFFF8C921200FFFFFFFF8C821200FFFF9F
:1021F800FFFF64501200FFFFFFFF632A1200FFFF7A
:02220800FFFFD6
:020000040020DA
:08000000FFFFFFFFFFFFFFFF00
:020000040030CA
:0E000000FF210D0EFF0080FF0FC00FE00F402C
:00000001FF
