:020000040000FA
:0600000000F0CEEF00F05D
:10000800FFFF6D82D9CF0DF0DACF0EF0F3CF0FF0EE
:10001800F4CF10F0F2A413EF00F016EF00F0FFFF9A
:100028002CEF00F0FFFFF2945A2AE2EC12F00B6E6C
:100038000B505A5CD8A023EF00F026EF00F0FFFF2A
:100048002CEF00F0FFFFD59E000E5A6E8AEC12F0DE
:10005800FFFF9EA032EF00F035EF00F0FFFF45EF05
:1000680000F0FFFF9E90EAEC12F00009D8B43FEFD1
:1000780000F042EF00F0FFFF45EF00F0FFFF5DECFE
:1000880012F0FFFF9EA24BEF00F04EEF00F0FFFFD3
:100098007CEF00F0FFFF9E92484A492A91EC12F04B
:1000A8004850015C49500258D8B05DEF00F060EF4D
:1000B80000F0FFFF7CEF00F0FFFF592A5950D8B439
:1000C80068EF00F06BEF00F0FFFF79EF00F0FFFF43
:1000D80059B071EF00F074EF00F0FFFF79EF00F016
:1000E800FFFF000E596EE6EC12F0FFFFC3EC12F0B2
:1000F800FFFF9EAC82EF00F085EF00F0FFFFB2EF4C
:1001080000F0FFFF9E9CC3CF4AF04B6AC4500C6EB0
:100118000B6A0B504A120C504B124A04040E4B58EF
:10012800D8A099EF00F09CEF00F0FFFFA3EF00F0DC
:10013800FFFFC8EC12F0CDEC12F0B2EF00F0FFFFB9
:100148004A04020E4B58D8A0ACEF00F0AFEF00F015
:10015800FFFFB2EF00F0FFFFC8EC12F0FFFF9EAA0E
:10016800B8EF00F0BBEF00F0FFFFC2EF00F0FFFFB9
:100178009E9AAECF11F01150E9EC0BF0FFFF10C0C2
:10018800F4FF0FC0F3FF0EC0DAFF0DC0D9FF6D9268
:080198001100FFFFDAEF10F087
:1006000000ACFFB33D00040002030F030A0305140E
:100610000600FFFF2350800B306E23502324376EDB
:1006200022AE15EF03F018EF03F0FFFF1AEF03F00F
:10063000FFFF3780FFFF3750D8B421EF03F024EFDE
:1006400003F0FFFF3DEF03F0FFFF3728D8A42BEFA7
:1006500003F02EEF03F0FFFF37EF03F0FFFF000E74
:10066000206E000E216E000E226E000E236EFFFF24
:10067000228E000E236E46EF03F0FFFF000E206E69
:10068000000E216E000E226E000E236EFFFF27501B
:10069000800B301A27502724386E26AE52EF03F015
:1006A00055EF03F0FFFF57EF03F0FFFF3880FFFF28
:1006B0003850D8B45EEF03F061EF03F0FFFF7AEF3C
:1006C00003F0FFFF3828D8A468EF03F06BEF03F0C6
:1006D000FFFF74EF03F0FFFF000E246E000E256E87
:1006E000000E266E000E276EFFFF268E000E276E70
:1006F00083EF03F0FFFF000E246E000E256E000E48
:10070000266E000E276EFFFF24502510261027109E
:10071000D8A48DEF03F090EF03F0FFFFAAEF03F0F2
:10072000FFFF000E206E000E216E000E226E000EE6
:10073000236E800E22127F0E2312FFFF30502312F1
:1007400020C020F021C021F022C022F023C023F0DD
:100750001FEF05F0FFFF3750D8A4B1EF03F0B4EF5F
:1007600003F0FFFFBFEF03F0FFFF000E206E000E4F
:10077000216E000E226E000E236E1FEF05F0FFFFAC
:10078000385037C028F0296A285E000E295A7F0E9B
:100790002824316E000E2920326E20C02CF021C09A
:1007A0002DF022C02EF023C02FF0000E206E000E80
:1007B000216E000E226E000E236E000E336E000EB0
:1007C000346E000E356E000E366E000E386E2BEF56
:1007D00004F0FFFF3850D8B4F0EF03F0F3EF03F06C
:1007E000FFFF0EEF04F0FFFFD8902C362D362E368B
:1007F0002F36D890203621362236233636AE03EFF8
:1008000004F006EF04F0FFFF08EF04F0FFFF208084
:10081000FFFFD8903336343635363636FFFF245056
:100820002C5C25502D5826502E5827502F58D8A0D4
:100830001CEF04F01FEF04F0FFFF29EF04F0FFFFAF
:10084000368C24502C5E25502D5A26502E5A275077
:100850002F5AFFFF382AFFFF190E386432EF04F0D9
:1008600035EF04F0FFFFE9EF03F0FFFF2C502D10F0
:100870002E102F10D8B43FEF04F042EF04F0FFFF2A
:100880005FEF04F0FFFF33805FEF04F0FFFFD890CD
:10089000203621362236233636AE51EF04F054EF9F
:1008A00004F0FFFF56EF04F0FFFF2080FFFFD89019
:1008B00033363436353636363106D8A03206FFFFA9
:1008C00022AE65EF04F068EF04F0FFFF46EF04F09E
:1008D000FFFF000E386E36AE70EF04F073EF04F0D9
:1008E000FFFF9EEF04F0FFFFFF0E3314286EFF0E94
:1008F0003414296EFF0E35142A6E7F0E36142B6EBB
:10090000285029102A102B10D8B489EF04F08CEF4E
:1009100004F0FFFF92EF04F0FFFFFFFF010E386EBF
:100920009EEF04F0FFFF20A098EF04F09BEF04F08F
:10093000FFFF9EEF04F0FFFF8DEF04F0FFFF385044
:10094000D8B4A5EF04F0A8EF04F0FFFFCFEF04F058
:10095000FFFF010E2026000E21222222232223A0A7
:10096000B4EF04F0B7EF04F0FFFFCFEF04F0FFFFA8
:1009700020C028F021C029F022C02AF023C02BF08B
:100980002B342B322A322932283228C020F029C0B9
:1009900021F02AC022F02BC023F0314A322AFFFF77
:1009A00032BEDBEF04F0325009E13128D8A0DBEF92
:1009B00004F0DEEF04F0FFFFEAEF04F0FFFF000EAB
:1009C000326E3168000E206E000E216E000E226E17
:1009D000000E236EFFFF32BEF9EF04F0325006E145
:1009E0003104D8B0F6EF04F0F9EF04F0FFFF08EFA0
:1009F00005F0FFFF000E326E000E316E000E206E0D
:100A0000000E216E000E226E000E236E000E306E60
:100A1000FFFF31C037F037A010EF05F013EF05F0FE
:100A2000FFFF17EF05F0FFFF228E19EF05F0FFFF24
:100A3000229EFFFFD8903730236E9DEF03F0FFFF1B
:100A40001200FFFFFFFF1A5007E1150E195CD8B026
:100A50002CEF05F02FEF05F0FFFF3CEF05F0FFFF57
:100A60001C500AE1150E1B5CD8A039EF05F03CEFD5
:100A700005F0FFFF40EF05F0FFFF050E10EF07F058
:100A8000FFFF1550195C1D6E16501A581E6E1EBEC3
:100A900052EF05F01E5009E11D04D8A052EF05F0F9
:100AA00055EF05F0FFFF5EEF05F0FFFF000E616EF2
:100AB000010E606E010E206E63EF05F0FFFF6068AF
:100AC0006168000E206EFFFF17501B5C1D6E1850F2
:100AD0001C581E6E1EBE75EF05F01E5009E11D0468
:100AE000D8A075EF05F078EF05F0FFFF81EF05F076
:100AF000FFFF000E656E010E646E010E216E86EF23
:100B000005F0FFFF68686968000E216EFFFF010EA7
:100B1000226E010E1F6ECA84000E516E000E506EC2
:100B2000FA0E5D6ED58EF0EF06F0FFFF50505110BB
:100B3000D8B49DEF05F0A0EF05F0FFFFA7EF05F09B
:100B4000FFFF000E516E040E506E04EF07F0FFFF22
:100B50002004D8A4AEEF05F0B1EF05F0FFFFFAEFE7
:100B600005F0FFFFA4EC12F01550122616501322C8
:100B70001950125C1A501358D8A0C1EF05F0C4EFF9
:100B800005F0FFFFCAEF05F0FFFFFFFF000E226E2A
:100B90003EEF06F0FFFF2250D8A4D1EF05F0D4EFCE
:100BA00005F0FFFF3EEF06F0FFFF20EE60F0DE50A5
:100BB0005E26DD505F225FBEE7EF05F05F500AE181
:100BC000040E5E5CD8A0E7EF05F0EAEF05F0FFFF4A
:100BD000EFEF05F0FFFF000E5F6E000E5E6EFFFF91
:100BE0008C0E5E24D96E000E5F20DA6EDF50896EA7
:100BF0003EEF06F0FFFF2050D8A401EF06F004EF0F
:100C000006F0FFFF3EEF06F0FFFFA4EC12F015C068
:100C10001DF016C01EF012501D5E13501E5A1D50BE
:100C2000195C1E501A58D8A018EF06F01BEF06F0FA
:100C3000FFFF1EEF06F0FFFFC5EF05F0FFFF22509C
:100C4000D8A425EF06F028EF06F0FFFF3EEF06F0F0
:100C5000FFFF20EE60F0DE505E26DD505F225FBEBB
:100C600037EF06F034EF06F0FFFFEFEF05F0FFFF80
:100C7000000E5F6E030E5E6EEFEF05F0FFFF2104C6
:100C8000D8A445EF06F048EF06F0FFFF91EF06F01D
:100C9000FFFFA4EC12F017501226185013221B501D
:100CA000125C1C501358D8A058EF06F05BEF06F00A
:100CB000FFFF61EF06F0FFFFFFFF000E1F6ED5EF95
:100CC00006F0FFFF2250D8A468EF06F06BEF06F0A5
:100CD000FFFFD5EF06F0FFFF20EE64F0DE50622646
:100CE000DD50632263BE7EEF06F063500AE1040E1E
:100CF000625CD8A07EEF06F081EF06F0FFFF86EF82
:100D000006F0FFFF000E636E000E626EFFFF880E9E
:100D10006224D96E000E6320DA6EDF508A6ED5EF42
:100D200006F0FFFF2150D8A498EF06F09BEF06F0E5
:100D3000FFFFD5EF06F0FFFFA4EC12F017C01DF087
:100D400018C01EF012501D5E13501E5A1D501B5C21
:100D50001E501C58D8A0AFEF06F0B2EF06F0FFFF10
:100D6000B5EF06F0FFFF5CEF06F0FFFF2250D8A4BE
:100D7000BCEF06F0BFEF06F0FFFFD5EF06F0FFFF78
:100D800020EE64F0DE506226DD50632263BECEEFBB
:100D900006F0CBEF06F0FFFF86EF06F0FFFF000E38
:100DA000636E030E626E86EF06F0FFFF4AEC12F0F0
:100DB00012501310D8B4DFEF06F0E2EF06F0FFFF99
:100DC000D5EF06F0FFFFFFFF4AEC12F012501310B0
:100DD000D8B4EDEF06F0F0EF06F0FFFFE3EF06F01A
:100DE000FFFF2250D8A4F7EF06F0FAEF06F0FFFF5E
:100DF00095EF05F0FFFF1F50D8A401EF07F004EFB7
:100E000007F0FFFF95EF05F0FFFFD59ECA94000E97
:100E1000D76E000ED66E000ECC6EBEEC12F05050A7
:100E2000FFFF1200FFFFFFFF7CEC12F012C0F8F092
:100E300013C0F9F0C5EF07F0FFFF43C015F0166AC5
:100E400044C017F0186A0D0EF66E060EF76E080015
:100E5000FFFFF550196E1A6A0E0EF66E060EF76E4B
:100E60000800FFFFF5501B6E1C6A22EC05F0000124
:100E7000F76F0D0EF66E060EF76E0800FFFFF5CF4A
:100E800043F00E0EF66E060EF76E0800FFFFF5CF6C
:100E900044F0E9EF07F0FFFF43C015F0166A44C0C5
:100EA00017F0186A0B0EF66E060EF76E0800FFFFBD
:100EB000F550196E1A6A0C0EF66E060EF76E0800E3
:100EC000FFFFF5501B6E1C6A22EC05F00001F76F66
:100ED0000B0EF66E060EF76E0800FFFFF5CF43F01F
:100EE0000C0EF66E060EF76E0800FFFFF5CF44F00D
:100EF000E9EF07F0FFFF43C015F0166A44C017F092
:100F0000186A090EF66E060EF76E0800FFFFF55020
:100F1000196E1A6A0A0EF66E060EF76E0800FFFFCB
:100F2000F5501B6E1C6A22EC05F00001F76F090EEC
:100F3000F66E060EF76E0800FFFFF5CF43F00A0EBF
:100F4000F66E060EF76E0800FFFFF5CF44F0E9EFEE
:100F500007F0FFFF43C015F0166A44C017F0186A87
:100F60004CC019F01A6A4DC01BF01C6A22EC05F047
:100F70000001F76F4CC043F04DC044F0E9EF07F0BB
:100F8000FFFF010EF76FE9EF07F0FFFFF8C0D9FF91
:100F9000F9C0DAFFDF500001F56FF66BF651000A79
:100FA000D8B4D5EF07F0C0EF07F0FFFFF551000A06
:100FB000D8B41CEF07F0010AD8B44BEF07F0030ACE
:100FC000D8B47AEF07F0FD0AD8B4A9EF07F0C0EF64
:100FD00007F0FFFFF751D8A4F0EF07F0F3EF07F0A9
:100FE000FFFF53EF08F0FFFFCEEC0DF0F3EC11F034
:100FF0006CEC10F043C015F0166A44C017F0186A84
:10100000000120EE01F0F851D926F951DA22DF5023
:10101000F56FF551196E1A6A20EE02F0F851D926D3
:10102000F951DA22DF50F66FF6511B6E1C6A22EC82
:1010300005F0000120EE01F0F851D926F951DA222D
:10104000DF50436E20EE02F0F851D926F951DA2232
:10105000DF50446E20EE03F0F851D926F951DA2220
:10106000DF50F56F4E50F55D4E6E4F50D8A04F28B3
:101070004F6A4F5E4FBE42EF08F03FEF08F0FFFFB0
:1010800047EF08F0FFFF680E4E26010E4F22FFFFCC
:101090004E50FEEC0FF036EC0DF0DDEC11F06CEC88
:1010A00010F00001F76FFFFFF7511200FFFFFFFF85
:1010B000606861686468656868686968010E156ED3
:1010C000010E166E010E176ECA84000E516E000ED0
:1010D000506EFA0E5D6ED58E3AEF09F0FFFF50505C
:1010E0005110D8B476EF08F079EF08F0FFFF80EFE9
:1010F00008F0FFFF000E516E030E506E58EF09F01E
:10110000FFFF84B086EF08F089EF08F0FFFF93EF50
:1011100008F0FFFF1550D8A490EF08F093EF08F007
:10112000FFFF98EF08F0FFFF000E156EB5EF08F017
:10113000FFFF20EE60F0DE505E26DD505F225FBED6
:10114000A7EF08F0A4EF08F0FFFFACEF08F0FFFFF7
:10115000000E5F6E030E5E6EFFFF8C0E5E24D96E76
:10116000000E5F20DA6EDF50896EFFFF84B2BBEFA6
:1011700008F0BEEF08F0FFFFC8EF08F0FFFF1650C1
:10118000D8A4C5EF08F0C8EF08F0FFFFCDEF08F0D6
:10119000FFFF000E166EEAEF08F0FFFF20EE64F08E
:1011A000DE506226DD50632263BEDCEF08F0D9EF2B
:1011B00008F0FFFFE1EF08F0FFFF000E636E030E83
:1011C000626EFFFF880E6224D96E000E6320DA6E15
:1011D000DF508A6EFFFF84B4F0EF08F0F3EF08F001
:1011E000FFFFFDEF08F0FFFF1750D8A4FAEF08F05B
:1011F000FDEF08F0FFFF02EF09F0FFFF000E176E92
:101200001FEF09F0FFFF20EE68F0DE506626DD508C
:10121000672267BE11EF09F00EEF09F0FFFF16EF2E
:1012200009F0FFFF000E676E030E666EFFFF840E6F
:101230006624D96E000E6720DA6EDF508B6EFFFFDA
:101240004AEC12F012501310D8B429EF09F02CEF29
:1012500009F0FFFF1FEF09F0FFFFFFFF4AEC12F05C
:1012600012501310D8B437EF09F03AEF09F0FFFF2E
:101270002DEF09F0FFFF1550D8A441EF09F044EF1E
:1012800009F0FFFF6EEF08F0FFFF1650D8A44BEFF8
:1012900009F04EEF09F0FFFF6EEF08F0FFFF175067
:1012A000D8A455EF09F058EF09F0FFFF6EEF08F0F2
:1012B000FFFFD59ECA94000ED76E000ED66E000EAC
:1012C000CC6EBEEC12F050501200FFFFFFFF1A6E02
:1012D0001A50D8B46EEF09F071EF09F0FFFF96EFE6
:1012E00009F0FFFF15BE7AEF09F077EF09F0FFFF75
:1012F00096EF09F0FFFF12C016F013C017F014C0EC
:1013000018F015C019F0161E171E181E191E162AE1
:10131000000E17221822192216C01CF017C01DF04B
:1013200018C01EF019C01FF09FEF09F0FFFF12C098
:101330001CF013C01DF014C01EF015C01FF0FFFFFD
:101340001250131014101510D8A4A9EF09F0ACEF27
:1013500009F0FFFFB7EF09F0FFFF000E126E000E5D
:10136000136E000E146E000E156E5FEF0AF0FFFF95
:10137000960E1B6EC3EF09F0FFFF1B2AD8901F3299
:101380001E321D321C32FFFF000E1C14166E000EA2
:101390001D14176E000E1E14186EFE0E1F14196E0B
:1013A0001650171018101910D8A4D9EF09F0DCEF57
:1013B00009F0FFFFBCEF09F0FFFFECEF09F0FFFFC2
:1013C0001B2A010E1C26000E1D221E221F22D89051
:1013D0001F321E321D321C32FFFF000E1C14166E0F
:1013E000000E1D14176E000E1E14186EFF0E1F1433
:1013F000196E1650171018101910D8A402EF0AF021
:1014000005EF0AF0FFFFDFEF09F0FFFF0FEF0AF033
:10141000FFFF1B06D8901C361D361E361F36FFFFF9
:101420001EBE15EF0AF018EF0AF0FFFF22EF0AF0D8
:10143000FFFF020E1B601FEF0AF022EF0AF0FFFF12
:1014400008EF0AF0FFFF1BB028EF0AF02BEF0AF0BD
:10145000FFFF2DEF0AF0FFFF1E9EFFFFD8901B320B
:101460001BC016F0176A186A196A16C019F0186AB4
:10147000176A166A16501C1217501D1218501E12A9
:1014800019501F121A50D8B448EF0AF04BEF0AF067
:10149000FFFF56EF0AF0FFFF15BE54EF0AF051EFC1
:1014A0000AF0FFFF56EF0AF0FFFF1F8EFFFF1CC080
:1014B00012F01DC013F01EC014F01FC015F0FFFF86
:1014C0001200FFFFFFFFBFEC11F009EC12F01CEC63
:1014D00012F02FEC12F054EC12F06EEC12F0000E41
:1014E000136E0A0E126E3EEC12F057EC08F000017B
:1014F000FC6FFC51D8B47FEF0AF082EF0AF0FFFFD7
:1015000089EF0AF0FFFFFC5166EC0EF0FFFF86EF5B
:101510000AF0FFFFAB88FFFFDAEC12F00009D8B445
:1015200094EF0AF097EF0AF0FFFF19EF0BF0FFFFBF
:1015300075EC12F012C0FDF013C0FEF0000120EEB9
:1015400002F0FD51D926FE51DA22DF504C6E20EE1A
:1015500003F0FD51D926FE51DA22DF504D6EAB98D3
:1015600020EE05F0FD51D926FE51DA22070EDF608C
:10157000BCEF0AF0BFEF0AF0FFFFCFEF0AF0FFFF6A
:1015800020EE06F0FD51D926FE51DA22140EDF645A
:10159000CCEF0AF0CFEF0AF0FFFFD4EF0AF0FFFF25
:1015A000050EFC6FE8EF0AF0FFFF20EE05F0FD519D
:1015B000D926FE51DA22DF5037EC0BF0000120EE85
:1015C00006F0FD51D926FE51DA22DF5037EC0BF040
:1015D000FFFF0001FC51D8A4F0EF0AF0F3EF0AF08E
:1015E000FFFF11EF0BF0FFFF000E37EC0BF0FF0ECB
:1015F00037EC0BF0000120EE04F0FD51D926FE512E
:10160000DA22DF50FA6F20EE07F0FD51D926FE51A5
:10161000DA22DF50FB6FFA51FB5D37EC0BF015EF70
:101620000BF0FFFFFC5166EC0EF0FFFFAB88AAEC5D
:1016300012F0FFFFD6EC12F00009D8B422EF0BF045
:1016400025EF0BF0FFFF8BEF0AF0FFFF13EC07F025
:101650000001FC6FFC5166EC0EF083EC12F0D2EC52
:1016600012F01DEC11F08BEF0AF0CEEF00F0FFFF4F
:101670001B6EC80E5524D96EDA6A000EDA221BC022
:10168000DFFF552A53EF0BF0FFFF050E6C6E6FEF77
:101690000BF0FFFF090E6C6E6FEF0BF0FFFF010EFA
:1016A0006C6E6FEF0BF0FFFF0001C851196E1A6AE4
:1016B0001A50000AD8B45FEF0BF06FEF0BF0FFFF8A
:1016C0001950000AD8B444EF0BF0010AD8B449EF1E
:1016D0000BF0030AD8B44EEF0BF06FEF0BF0FFFFE7
:1016E0006C50555CD8A077EF0BF07AEF0BF0FFFF52
:1016F000E6EF0BF0FFFF000E556ECBEF0BF0FFFF98
:101700005850040DD10EF324D96E000EF420DA6E79
:10171000C9C0DFFF5850040DD20EF324D96E000E5D
:10172000F420DA6ECAC0DFFF5850040DD30EF32444
:10173000D96E000EF420DA6ECBC0DFFF5850040DD6
:10174000D40EF324D96E000EF420DA6ECCC0DFFF85
:10175000582AE6EF0BF0FFFFC9C0E5F0CAC0E6F07B
:10176000CBC0E7F0CCC0E8F0CDC0E9F0CEC0EAF0E5
:10177000CFC0EBF0D0C0ECF0010E566EE6EF0BF0F0
:10178000FFFF010E576EE6EF0BF0FFFF080E66EC51
:101790000EF0E6EF0BF0FFFFC851196E1A6A1A50EF
:1017A000000AD8B4D6EF0BF0C5EF0BF0FFFF1950CD
:1017B000000AD8B47FEF0BF0010AD8B4ABEF0BF0FE
:1017C000030AD8B4C0EF0BF0C5EF0BF0FFFF120017
:1017D000FFFFFFFF0A6EC80E5524D96EDA6A000EAD
:1017E000DA220AC0DFFF552A05EF0CF0FFFF050ED5
:1017F0006C6E21EF0CF0FFFF090E6C6E21EF0CF008
:10180000FFFF010E6C6E21EF0CF0FFFF0001C851CD
:10181000086E096A0950000AD8B411EF0CF021EFE4
:101820000CF0FFFF0850000AD8B4F6EF0BF0010AE5
:10183000D8B4FBEF0BF0030AD8B400EF0CF021EFA3
:101840000CF0FFFF6C50555CD8A029EF0CF02CEF8A
:101850000CF0FFFF98EF0CF0FFFF000E556E7DEFD0
:101860000CF0FFFF5850040DD10EF324D96E000E7A
:10187000F420DA6EC9C0DFFF5850040DD20EF324F5
:10188000D96E000EF420DA6ECAC0DFFF5850040D86
:10189000D30EF324D96E000EF420DA6ECBC0DFFF36
:1018A0005850040DD40EF324D96E000EF420DA6ED5
:1018B000CCC0DFFF582A98EF0CF0FFFFC9C0E5F05D
:1018C000CAC0E6F0CBC0E7F0CCC0E8F0CDC0E9F08C
:1018D000CEC0EAF0CFC0EBF0D0C0ECF0010E566EF7
:1018E00098EF0CF0FFFF010E576E98EF0CF0FFFF22
:1018F000080EF4EC0EF098EF0CF0FFFFC851086EE4
:10190000096A0950000AD8B488EF0CF077EF0CF0A0
:10191000FFFF0850000AD8B431EF0CF0010AD8B428
:101920005DEF0CF0030AD8B472EF0CF077EF0CF017
:10193000FFFF1200FFFFFFFF3B343C34426E42507A
:10194000D8A4A5EF0CF0A8EF0CF0FFFFB4EF0CF05B
:10195000FFFFFFFF000E396E000E3A6E000E3B6E69
:10196000000E3C6E33EF0DF0FFFF39C03DF03AC082
:101970003EF03BC03FF03CC040F0200EC6EF0CF004
:10198000FFFFD89040323F323E323D32FFFFE82E1B
:10199000C0EF0CF03D50416E3B8EFF0E3916FF0E2E
:1019A0003A16FF0E3B16000E3C16960E425E42BEE5
:1019B000DFEF0CF0DCEF0CF0FFFFF9EF0CF0FFFFB6
:1019C0004250800A970FD8B0E8EF0CF0EBEF0CF024
:1019D000FFFFEEEF0CF0FFFFA9EF0CF0FFFFD89038
:1019E0003C323B323A323932423EEEEF0CF017EFE6
:1019F0000DF0FFFF1F0E426400EF0DF003EF0DF03E
:101A0000FFFF0DEF0DF0FFFFA9EF0CF0FFFFD890E7
:101A100039363A363B363C364206FFFF4250D8A4B0
:101A200014EF0DF017EF0DF0FFFF06EF0DF0FFFFC5
:101A30004150D8B41EEF0DF021EF0DF0FFFF2AEF5B
:101A40000DF0FFFF3C1E3B1E3A1E396C000E3A2281
:101A50003B223C22FFFF39C039F03AC03AF03BC08C
:101A60003BF03CC03CF0FFFF1200FFFFFFFF000E09
:101A7000696E010E686ECA84000E516E000E506EC3
:101A8000FA0E5D6ED58EB4EC12F098EF0DF0FFFFFC
:101A900050505110D8B44FEF0DF052EF0DF0FFFF42
:101AA00059EF0DF0FFFF000E516E060E506EAEEFB7
:101AB0000DF0FFFF20EE68F0DE506626DD50672255
:101AC00067BE6CEF0DF067500AE1040E665CD8A0AB
:101AD0006CEF0DF06FEF0DF0FFFF74EF0DF0FFFFF7
:101AE000000E676E000E666EFFFF840E6624D96ED0
:101AF000000E6720DA6EDF508B6EFFFF4AEC12F0AB
:101B000012501310D8B487EF0DF08AEF0DF0FFFFDD
:101B10007DEF0DF0FFFFFFFF4AEC12F012501310A3
:101B2000D8B495EF0DF098EF0DF0FFFF8BEF0DF0AF
:101B3000FFFF98EC12F012501310D8B4A2EF0DF082
:101B4000A5EF0DF0FFFF47EF0DF0FFFF83BEABEFFA
:101B50000DF0AEEF0DF0FFFF47EF0DF0FFFFDEECF5
:101B600012F0AFEC12F0D59ECA94000ED76E000EA4
:101B7000D66E000ECC6EBEEC12F083AEC2EF0DF04E
:101B8000C5EF0DF0FFFFCAEF0DF0FFFF000E516E25
:101B9000020E506EFFFF50501200FFFFFFFF000EBD
:101BA000696E010E686ECA84000E516E000E506E92
:101BB000FA0E5D6ED58EB4EC12F030EF0EF0FFFF32
:101BC00050505110D8B4E7EF0DF0EAEF0DF0FFFFE1
:101BD000F1EF0DF0FFFF000E516E060E506E46EF56
:101BE0000EF0FFFF20EE68F0DE506626DD50672223
:101BF00067BE04EF0EF067500AE1040E665CD8A0E1
:101C000004EF0EF007EF0EF0FFFF0CEF0EF0FFFFFA
:101C1000000E676E000E666EFFFF840E6624D96E9E
:101C2000000E6720DA6EDF508B6EFFFF4AEC12F079
:101C300012501310D8B41FEF0EF022EF0EF0FFFF7A
:101C400015EF0EF0FFFFFFFF4AEC12F012501310D9
:101C5000D8B42DEF0EF030EF0EF0FFFF23EF0EF0B3
:101C6000FFFF9EEC12F012501310D8B43AEF0EF0B2
:101C70003DEF0EF0FFFFDFEF0DF0FFFF83BE43EF00
:101C80000EF046EF0EF0FFFFDFEF0DF0FFFFDEEC92
:101C900012F0B9EC12F0D59ECA94000ED76E000E69
:101CA000D66E000ECC6EBEEC12F083AE5AEF0EF084
:101CB0005DEF0EF0FFFF62EF0EF0FFFF000E516EC2
:101CC000020E506EFFFF50501200FFFFFFFF186E14
:101CD000C2EF0EF0FFFF920E126E000E136E1E0E7C
:101CE000146E4DEC11F0F1EF0EF0FFFF5E0E126E70
:101CF000010E136E290E146E4DEC11F0F1EF0EF083
:101D0000FFFF870E126E010E136E280E146E4DEC3F
:101D100011F0F1EF0EF0FFFF350E126E010E136E93
:101D2000290E146E4DEC11F0F1EF0EF0FFFFD60E00
:101D3000126E010E136E210E146E4DEC11F0F1EFC8
:101D40000EF0FFFF000E126E010E136E350E146EB4
:101D50004DEC11F0F1EF0EF0FFFFAF0E126E010E21
:101D6000136E270E146E4DEC11F0F1EF0EF0FFFF25
:101D7000B00E126E000E136E180E146E4DEC11F0B4
:101D8000F1EF0EF0FFFF1850166E176A1750000A99
:101D9000D8B4CDEF0EF0F1EF0EF0FFFF1650010AB0
:101DA000D8B46AEF0EF0030AD8B475EF0EF0010A4A
:101DB000D8B480EF0EF0070AD8B48BEF0EF0010A0A
:101DC000D8B496EF0EF0030AD8B4A1EF0EF0010AD2
:101DD000D8B4ACEF0EF00F0AD8B4B7EF0EF0F1EFB5
:101DE0000EF0FFFF1200FFFFFFFF076E50EF0FF036
:101DF000FFFF920E016E000E026E1E0E036E74EC5B
:101E000011F07FEF0FF0FFFF5E0E016E010E026E0C
:101E1000290E036E74EC11F07FEF0FF0FFFF870EB9
:101E2000016E010E026E280E036E74EC11F07FEF4E
:101E30000FF0FFFF350E016E010E026E290E036ECC
:101E400074EC11F07FEF0FF0FFFFD60E016E010E64
:101E5000026E210E036E74EC11F07FEF0FF0FFFFA6
:101E6000000E016E010E026E350E036E74EC11F061
:101E70007FEF0FF0FFFFAF0E016E010E026E270E17
:101E8000036E74EC11F07FEF0FF0FFFFB00E016EE8
:101E9000000E026E180E036E74EC11F07FEF0FF05F
:101EA000FFFF0750056E066A0650000AD8B45BEFC4
:101EB0000FF07FEF0FF0FFFF0550010AD8B4F8EFE5
:101EC0000EF0030AD8B403EF0FF0010AD8B40EEFF6
:101ED0000FF0070AD8B419EF0FF0010AD8B424EFB5
:101EE0000FF0030AD8B42FEF0FF0010AD8B43AEF7D
:101EF0000FF00F0AD8B445EF0FF07FEF0FF0FFFFA0
:101F00001200FFFF4572726F722C2074696D65209C
:101F1000657863656564656420746F2072656163CC
:101F2000682074686520656E64206F66207468653B
:101F3000205A20417869730A004572726F722C2012
:101F400074696D6520657863656564656420746F88
:101F50002072656163682074686520706F696E74B3
:101F60000A004572726F722C206E6F206F626A6574
:101F700063742072656C65766174656420616C6F52
:101F80006E67205A20417869730A004572726F7239
:101F90002C2074696D6520657863656564656420CF
:101FA000746F20726573657420706F736974696FE4
:101FB0006E0A00466174616C204572726F722C204B
:101FC000706C6561736520726573657420746865F3
:101FD00020646576696365210A004572726F722C10
:101FE00020706F696E74206F757473696465206208
:0B1FF0006F756E6461726965730A0012
:101FFC00FFFF0001F06FAC0E246EFF0E256EB30ECA
:10200C00266E3D0E276E0001F051126E136A146A93
:10201C00156A010E66EC09F012C020F013C021F015
:10202C0014C022F015C023F009EC03F020C039F0E5
:10203C0021C03AF022C03BF023C03CF09BEC0CF0EA
:10204C0039C0F1F03AC0F2F0000E0001F46F000E4E
:10205C00F36F5CEF10F0FFFFC30E8C16030EF3153D
:10206C00ED6F000EF415EE6F800EED25D96E000E9F
:10207C00EE21DA6EDF50EF6FD890EF37D890EF3556
:10208C008C12CA84FFFF4AEC12F012501310D8B411
:10209C0052EF10F055EF10F0FFFF48EF10F0FFFF7C
:1020AC00CA84000ECC6E0001F34BF42BFFFFF151F0
:1020BC00F35DF251F459D8A066EF10F069EF10F00F
:1020CC00FFFF31EF10F0FFFF1200FFFFFFFF68680A
:1020DC006968CA84000E516E000E506EFA0E5D6E69
:1020EC00D58EC3EF10F0FFFF50505110D8B481EFD4
:1020FC0010F084EF10F0FFFF8BEF10F0FFFF000EDD
:10210C00516E060E506ECCEF10F0FFFF20EE68F013
:10211C00DE506626DD50672267BE9AEF10F097EF0F
:10212C0010F0FFFF9FEF10F0FFFF000E676E030E25
:10213C00666EFFFF840E6624D96E000E6720DA6E81
:10214C00DF508B6EFFFF4AEC12F012501310D8B414
:10215C00B2EF10F0B5EF10F0FFFFA8EF10F0FFFF9B
:10216C00FFFF4AEC12F012501310D8B4C0EF10F06D
:10217C00C3EF10F0FFFFB6EF10F0FFFF84A4C9EF20
:10218C0010F0CCEF10F0FFFF79EF10F0FFFFD59EB1
:10219C00CA94000ED76E000ED66E000ECC6EBEEC3E
:1021AC0012F050501200FFFF040EF66E1F0EF76E69
:1021BC00000EF86E01EE00F010EEF7F00900F5CF0E
:1021CC00EEFFE550E150FAE1360EF66E230EF76E97
:1021DC00000EF86E00EE80F010EE48F00900F5CF1E
:1021EC00EEFFE550E150FAE1CC0EF66E240EF76EE0
:1021FC00000EF86E00EE5EF010EE0FF00900F5CF59
:10220C00EEFFE550E150FAE100EEC8F0250EEE6A63
:10221C00E806FDE100EE43F01B0EEE6AE806FDE178
:10222C006D906D92000EF86E000162EF0AF0FFFFE8
:10223C00000E146EFFFF1450126E136AD8901236F3
:10224C001336D89012361336D50E1224D96E000ED2
:10225C001320DA6E1450040DD10EF324E16E000E2F
:10226C00F420E26EDECFE6FFDECFE6FFDECFE6FF48
:10227C00DECFE6FF142A030E146447EF11F04AEF89
:10228C0011F0FFFF20EF11F0FFFF1200FFFFFFFF27
:10229C00010E156E66EF11F0FFFF12C0D9FF13C0CF
:1022AC00DAFFDF50AD6EFFFFACA25FEF11F062EF13
:1022BC0011F0FFFF59EF11F0FFFF124A132A152AF4
:1022CC00FFFF1450155CD8A06EEF11F071EF11F0F8
:1022DC00FFFF52EF11F0FFFF1200FFFFFFFF010E97
:1022EC00046E8DEF11F0FFFF01C0D9FF02C0DAFFC1
:1022FC00DF50AD6EFFFFACA286EF11F089EF11F04D
:10230C00FFFF80EF11F0FFFF014A022A042AFFFFB2
:10231C000350045CD8A095EF11F098EF11F0FFFF7B
:10232C0079EF11F0FFFF1200FFFF0903060C090300
:10233C00060C11050C1822060C2814004572726F3D
:10234C00722C2066656564206C696E65206E6F74F6
:10235C0020646566696E65640A00436F6D6D616E1D
:10236C0064206E6F74207265636F676E697A656442
:10237C000A00FFFFF2BEC5EF11F0C8EF11F0FFFF2E
:10238C00CAEF11F0FFFFF28EFFFFF2BCD0EF11F09D
:10239C00D3EF11F0FFFFD5EF11F0FFFFF28CFFFF31
:1023AC00D08EF28A9D809D829D8A1200FFFFFFFFD6
:1023BC008C92CA84FFFF4AEC12F012501310D8B45E
:1023CC00EAEF11F0EDEF11F0FFFFE0EF11F0FFFF7E
:1023DC00CA84000ECC6E1200FFFFFFFF8C82CA84F1
:1023EC00FFFF4AEC12F012501310D8B400EF12F0A9
:1023FC0003EF12F0FFFFF6EF11F0FFFFCA84000E9F
:10240C00CC6E1200FFFFFFFFC150F00B0609C16E2E
:10241C00D10E9216020E9316C00E9416C00E95167F
:10242C00968096829684958E1200FFFFFFFFC25015
:10243C003F0B4009C26EC18CC70EC216C294C2902B
:10244C00C19EC150F00B0E09C16E9D8C9F8C120069
:10245C00FFFFFFFF949C948EAC9CAC8AAC98AC9420
:10246C00AB8EAB9CAB98AB96190EAF6E1200FFFF08
:10247C00FFFFCA94CA50FC0B0109CA6E12C046F089
:10248C0013C047F01200FFFFFFFF52C014F0000E04
:10249C00526E14C012F0136A1200FFFFFFFFD59E9C
:1024AC00D59CD59AD586070ED5121200FFFFFFFFDB
:1024BC00070EF4EC0EF0FFFF61EF12F01200FFFFBD
:0F24CC00000001000000010000000100140005E5
:1024DC00FFFF300ECD12CD92CD801200FFFFFFFF1B
:1024EC00E50E126E000E136E1200FFFFFFFFD10EF1
:1024FC00126E000E136E1200FFFFFFFF000E516EE6
:10250C00000E506E1200FFFFFFFF000E516E010E09
:10251C00506E1200FFFFFFFF46C001F047C002F0F3
:10252C001200FFFFFFFF5BC012F0136A1200FFFFE7
:10253C00FFFF5CC012F0136A1200FFFFFFFF53C0D5
:10254C0012F0136A1200FFFFFFFF000E566E12000E
:10255C00FFFFFFFF000E5B6E1200FFFFFFFFC2804C
:10256C00C2841200FFFFFFFF000E5C6E1200FFFF23
:10257C00FFFF000E536E1200FFFFFFFF010E526EA5
:10258C001200FFFFFFFF010E5C6E1200FFFFFFFF4A
:10259C00010E5B6E1200FFFFFFFF58061200FFFFDB
:1025AC00FFFF58501200FFFFFFFF56501200FFFFB5
:1025BC00FFFFC2901200FFFFFFFF5D501200FFFFF4
:1025CC00FFFF532A1200FFFFFFFF57501200FFFFBF
:0225DC00FFFFFF
:020000040020DA
:08000000FFFFFFFFFFFFFFFF00
:020000040030CA
:0E000000FF210D0EFF0080FF0FC00FE00F402C
:00000001FF
