:020000040000FA
:0600000000F0B5EF00F076
:10000800FFFF6E82D9CF0DF0DACF0EF0F3CF0FF0ED
:10001800F4CF10F0F2A413EF00F016EF00F0FFFF9A
:100028002CEF00F0FFFFF294632AB6EC12F00B6E8F
:100038000B50635CD8A023EF00F026EF00F0FFFF21
:100048002CEF00F0FFFFD59E000E636E5AEC12F005
:10005800FFFF9EA232EF00F035EF00F0FFFF63EFE5
:1000680000F0FFFF9E92514A522A61EC12F0515063
:10007800015C52500258D8B044EF00F047EF00F04E
:10008800FFFF63EF00F0FFFF622A6250D8B44FEF22
:1000980000F052EF00F0FFFF60EF00F0FFFF62B0EA
:1000A80058EF00F05BEF00F0FFFF60EF00F0FFFF9C
:1000B800000E626EBAEC12F0FFFF93EC12F0FFFF35
:1000C8009EAC69EF00F06CEF00F0FFFF99EF00F0D5
:1000D800FFFF9E9CC3CF53F0546AC4500C6E0B6A4A
:1000E8000B5053120C5054125304040E5458D8A0F9
:1000F80080EF00F083EF00F0FFFF8AEF00F0FFFFD2
:1001080098EC12F09DEC12F099EF00F0FFFF530409
:10011800020E5458D8A093EF00F096EF00F0FFFFBE
:1001280099EF00F0FFFF98EC12F0FFFF9EAA9FEFF7
:1001380000F0A2EF00F0FFFFA9EF00F0FFFF9E9A8A
:10014800AECF11F0115027EC0BF0FFFF10C0F4FFF9
:100158000FC0F3FF0EC0DAFF0DC0D9FF6E92110079
:06016800FFFF17EF10F08D
:1006000000ACFFB33D0004000219190F0F050500EF
:10061000FFFF2350800B306E23502324376E22AE11
:1006200014EF03F017EF03F0FFFF19EF03F0FFFFE4
:100630003780FFFF3750D8B420EF03F023EF03F0EB
:10064000FFFF3CEF03F0FFFF3728D8A42AEF03F0A9
:100650002DEF03F0FFFF36EF03F0FFFF000E206EDB
:10066000000E216E000E226E000E236EFFFF228E02
:10067000000E236E45EF03F0FFFF000E206E000E0C
:10068000216E000E226E000E236EFFFF2750800B9E
:10069000301A27502724386E26AE51EF03F054EF5E
:1006A00003F0FFFF56EF03F0FFFF3880FFFF3850E5
:1006B000D8B45DEF03F060EF03F0FFFF79EF03F0D4
:1006C000FFFF3828D8A467EF03F06AEF03F0FFFFBD
:1006D00073EF03F0FFFF000E246E000E256E000E78
:1006E000266E000E276EFFFF268E000E276E82EF0D
:1006F00003F0FFFF000E246E000E256E000E266E26
:10070000000E276EFFFF2450251026102710D8A4B6
:100710008CEF03F08FEF03F0FFFFA9EF03F0FFFF73
:10072000000E206E000E216E000E226E000E236E53
:10073000800E22127F0E2312FFFF3050231220C0A2
:1007400020F021C021F022C022F023C023F01EEFB0
:1007500005F0FFFF3750D8A4B0EF03F0B3EF03F07C
:10076000FFFFBEEF03F0FFFF000E206E000E216EB4
:10077000000E226E000E236E1EEF05F0FFFF3850B4
:1007800037C028F0296A285E000E295A7F0E2824D7
:10079000316E000E2920326E20C02CF021C02DF0C9
:1007A00022C02EF023C02FF0000E206E000E216E0E
:1007B000000E226E000E236E000E336E000E346E9D
:1007C000000E356E000E366E000E386E2AEF04F005
:1007D000FFFF3850D8B4EFEF03F0F2EF03F0FFFF64
:1007E0000DEF04F0FFFFD8902C362D362E362F3625
:1007F000D890203621362236233636AE02EF04F06A
:1008000005EF04F0FFFF07EF04F0FFFF2080FFFF7C
:10081000D8903336343635363636FFFF24502C5CCC
:1008200025502D5826502E5827502F58D8A01BEF52
:1008300004F01EEF04F0FFFF28EF04F0FFFF368CFA
:1008400024502C5E25502D5A26502E5A27502F5AB0
:10085000FFFF382AFFFF190E386431EF04F034EF40
:1008600004F0FFFFE8EF03F0FFFF2C502D102E10D7
:100870002F10D8B43EEF04F041EF04F0FFFF5EEF1D
:1008800004F0FFFF33805EEF04F0FFFFD8902036C6
:1008900021362236233636AE50EF04F053EF04F003
:1008A000FFFF55EF04F0FFFF2080FFFFD8903336A5
:1008B0003436353636363106D8A03206FFFF22AE42
:1008C00064EF04F067EF04F0FFFF45EF04F0FFFF73
:1008D000000E386E36AE6FEF04F072EF04F0FFFFDB
:1008E0009DEF04F0FFFFFF0E3314286EFF0E34144B
:1008F000296EFF0E35142A6E7F0E36142B6E28508B
:1009000029102A102B10D8B488EF04F08BEF04F0D4
:10091000FFFF91EF04F0FFFFFFFF010E386E9DEF28
:1009200004F0FFFF20A097EF04F09AEF04F0FFFF20
:100930009DEF04F0FFFF8CEF04F0FFFF3850D8B4B8
:10094000A4EF04F0A7EF04F0FFFFCEEF04F0FFFFE9
:10095000010E2026000E21222222232223A0B3EF03
:1009600004F0B6EF04F0FFFFCEEF04F0FFFF20C06D
:1009700028F021C029F022C02AF023C02BF02B340C
:100980002B322A322932283228C020F029C021F007
:100990002AC022F02BC023F0314A322AFFFF32BE98
:1009A000DAEF04F0325009E13128D8A0DAEF04F090
:1009B000DDEF04F0FFFFE9EF04F0FFFF000E326E01
:1009C0003168000E206E000E216E000E226E000EA9
:1009D000236EFFFF32BEF8EF04F0325006E131041F
:1009E000D8B0F5EF04F0F8EF04F0FFFF07EF05F0E3
:1009F000FFFF000E326E000E316E000E206E000EF4
:100A0000216E000E226E000E236E000E306EFFFF70
:100A100031C037F037A00FEF05F012EF05F0FFFF00
:100A200016EF05F0FFFF228E18EF05F0FFFF229E64
:100A3000FFFFD8903730236E9CEF03F0FFFF1200CA
:100A4000FFFFFFFFE90E1A5C030E1B58D8B02BEF17
:100A500005F02EEF05F0FFFF3BEF05F0FFFFE90E7D
:100A60001C5C030E1D58D8A038EF05F03BEF05F0D5
:100A7000FFFF3FEF05F0FFFF050E7FEF06F0FFFFE2
:100A800016501A5C1E6E17501B581F6E1E501F10FA
:100A9000D8B44DEF05F050EF05F0FFFF5AEF05F029
:100AA000FFFF000E126E010ECEEC10F0010E226E52
:100AB00062EF05F0FFFF000E126E000ECEEC10F09C
:100AC000000E226EFFFF18501C5C1E6E19501D5840
:100AD0001F6E1E501F10D8B470EF05F073EF05F0B5
:100AE000FFFF7DEF05F0FFFF010E126E010ECEEC51
:100AF00010F0010E236E85EF05F0FFFF010E126E60
:100B0000000ECEEC10F0000E236EFFFF010E206EE3
:100B1000010E216ECA84000E5C6E000E5B6EC80E64
:100B2000686ED58E5FEF06F0FFFF5B505C10D8B4A7
:100B30009CEF05F09FEF05F0FFFFA8EF05F0FFFF2A
:100B400089948A98000E5C6E040E5B6E73EF06F05B
:100B5000FFFF2204D8A4AFEF05F0B2EF05F0FFFFCE
:100B6000D0EF05F0FFFF74EC12F01650122617506C
:100B700013221A50121807E11B501318D8A4C3EF00
:100B800005F0C6EF05F0FFFFCCEF05F0FFFFFFFF1C
:100B9000000E206EF7EF05F0FFFF8984F7EF05F0F8
:100BA000FFFF2250D8A4D7EF05F0DAEF05F0FFFFE2
:100BB000F7EF05F0FFFF74EC12F016C01EF017C03F
:100BC0001FF012501E5E13501F5A1A501E1807E1D4
:100BD0001B501F18D8A4EFEF05F0F2EF05F0FFFF50
:100BE000F5EF05F0FFFFC7EF05F0FFFF8984FFFF7A
:100BF0002304D8A4FEEF05F001EF06F0FFFF1FEF7E
:100C000006F0FFFF74EC12F0185012261950132250
:100C10001C50121807E11D501318D8A412EF06F04B
:100C200015EF06F0FFFF1BEF06F0FFFFFFFF000EC2
:100C3000216E42EF06F0FFFF8A8842EF06F0FFFFC9
:100C40002350D8A426EF06F029EF06F0FFFF42EF6D
:100C500006F0FFFF74EC12F0185012261950132200
:100C60001C50121807E11D501318D8A43AEF06F0D3
:100C70003DEF06F0FFFF40EF06F0FFFF16EF06F036
:100C8000FFFF8A88FFFF32EC12F012501310D8B425
:100C90004CEF06F04FEF06F0FFFF42EF06F0FFFFCC
:100CA00089948A98FFFF32EC12F012501310D8B4D6
:100CB0005CEF06F05FEF06F0FFFF52EF06F0FFFF7C
:100CC0002050D8A466EF06F069EF06F0FFFF94EF1E
:100CD00005F0FFFF2150D8A470EF06F073EF06F087
:100CE000FFFF94EF05F0FFFFD59ECA94000ED76E6C
:100CF000000ED66E000ECC6E8EEC12F05B50FFFF35
:100D00001200FFFFFFFF4CEC12F012C0FDF013C009
:100D1000FEF035EF07F0FFFF4EC016F0176A4FC028
:100D200018F0196A0D0EF66E060EF76E0800FFFF3A
:100D3000F5501A6E1B6A0E0EF66E060EF76E080060
:100D4000FFFFF5501C6E1D6A21EC05F00001FC6FE1
:100D50000D0EF66E060EF76E0800FFFFF5CF4EF093
:100D60000E0EF66E060EF76E0800FFFFF5CF4FF081
:100D700058EF07F0FFFF4EC016F0176A4FC018F08B
:100D8000196A0B0EF66E060EF76E0800FFFFF5509F
:100D90001A6E1B6A0C0EF66E060EF76E0800FFFF49
:100DA000F5501C6E1D6A21EC05F00001FC6F0B0E66
:100DB000F66E060EF76E0800FFFFF5CF4EF00C0E34
:100DC000F66E060EF76E0800FFFFF5CF4FF058EFF6
:100DD00007F0FFFF4EC016F0176A4FC018F0196AEF
:100DE000090EF66E060EF76E0800FFFFF5501A6E3C
:100DF0001B6A0A0EF66E060EF76E0800FFFFF5502E
:100E00001C6E1D6A21EC05F00001FC6F090EF66EE8
:100E1000060EF76E0800FFFFF5CF4EF00A0EF66ED5
:100E2000060EF76E0800FFFFF5CF4FF058EF07F002
:100E3000FFFF4EC016F0176A4FC018F0196A57C06E
:100E40001AF01B6A58C01CF01D6A21EC05F0000165
:100E5000FC6F57C04EF058C04FF058EF07F0FFFF3F
:100E6000010E0001FC6F58EF07F0FFFFFDC0D9FF36
:100E7000FEC0DAFFDF50436E446A4450000AD8B423
:100E800044EF07F02FEF07F0FFFF4350000AD8B4FC
:100E90008BEF06F0010AD8B4BAEF06F0030AD8B413
:100EA000E9EF06F0FD0AD8B418EF07F02FEF07F0CE
:100EB000FFFFFC51D8A45FEF07F062EF07F0FFFFE0
:100EC000C5EF07F0FFFF08EC0EF00001FC6F07EC28
:100ED00012F0BFEC0FF00001FC6F4EC016F0176A65
:100EE0004FC018F0196A20EE01F0FD51D926FE51CD
:100EF000DA22DF50436E43501A6E1B6A20EE02F076
:100F0000FD51D926FE51DA22DF50446E44501C6E4A
:100F10001D6A21EC05F0000120EE01F0FD51D926FB
:100F2000FE51DA22DF504E6E20EE02F0FD51D9263E
:100F3000FE51DA22DF504F6E20EE03F0FD51D9262C
:100F4000FE51DA22DF50436E5950435C596E5A50BD
:100F5000D8A05A285A6A5A5E5ABEB4EF07F0B1EFC9
:100F600007F0FFFFB9EF07F0FFFF680E5926010EEB
:100F70005A22FFFF5950ECEC0EF08FEC0DF0F5EC1F
:100F800011F0BFEC0FF00001FC6FFFFFFC511200ED
:100F9000FFFFFFFF1A6E1A50D8B4D1EF07F0D4EF5D
:100FA00007F0FFFFF9EF07F0FFFF15BEDDEF07F0D9
:100FB000DAEF07F0FFFFF9EF07F0FFFF12C016F0BE
:100FC00013C017F014C018F015C019F0161E171E24
:100FD000181E191E162A000E17221822192216C0D2
:100FE0001CF017C01DF018C01EF019C01FF002EF52
:100FF00008F0FFFF12C01CF013C01DF014C01EF05B
:1010000015C01FF0FFFF1250131014101510D8A4B4
:101010000CEF08F00FEF08F0FFFF1AEF08F0FFFFEA
:10102000000E126E000E136E000E146E000E156E82
:10103000C2EF08F0FFFF960E1B6E26EF08F0FFFFD1
:101040001B2AD8901F321E321D321C32FFFF000EA9
:101050001C14166E000E1D14176E000E1E14186E52
:10106000FE0E1F14196E1650171018101910D8A460
:101070003CEF08F03FEF08F0FFFF1FEF08F0FFFF25
:101080004FEF08F0FFFF1B2A010E1C26000E1D2249
:101090001E221F22D8901F321E321D321C32FFFF2B
:1010A000000E1C14166E000E1D14176E000E1E147A
:1010B000186EFF0E1F14196E165017101810191005
:1010C000D8A465EF08F068EF08F0FFFF42EF08F0E2
:1010D000FFFF72EF08F0FFFF1B06D8901C361D368D
:1010E0001E361F36FFFF1EBE78EF08F07BEF08F0BC
:1010F000FFFF85EF08F0FFFF020E1B6082EF08F094
:1011000085EF08F0FFFF6BEF08F0FFFF1BB08BEFE0
:1011100008F08EEF08F0FFFF90EF08F0FFFF1E9E33
:10112000FFFFD8901B321BC016F0176A186A196AA5
:1011300016C019F0186A176A166A16501C12175052
:101140001D1218501E1219501F121A50D8B4ABEFAE
:1011500008F0AEEF08F0FFFFB9EF08F0FFFF15BE93
:10116000B7EF08F0B4EF08F0FFFFB9EF08F0FFFFAA
:101170001F8EFFFF1CC012F01DC013F01EC014F024
:101180001FC015F0FFFF1200FFFFFFFF000E126EE1
:10119000000E81EC0EF0000E126E010E81EC0EF0CE
:1011A000000E126E020E81EC0EF0000E126E000E9A
:1011B000CEEC10F0010E126E000ECEEC10F0020E0E
:1011C000126E000ECEEC10F0000E126E010E5AECF4
:1011D00010F0010E126E010E5AEC10F0020E126E9B
:1011E000010E5AEC10F0000E126E000E94EC10F08E
:1011F000010E126E000E94EC10F0020E126E000E34
:1012000094EC10F0010E166E010E176E010E186EA2
:10121000CA84000E5C6E000E5B6EC80E686ED58EC2
:1012200093EF09F0FFFF5B505C10D8B41AEF09F0A0
:101230001DEF09F0FFFF27EF09F0FFFF89948A985F
:101240008B94000E5C6E030E5B6EB1EF09F0FFFF36
:1012500084B02DEF09F030EF09F0FFFF3AEF09F00D
:10126000FFFF1650D8A437EF09F03AEF09F0FFFF5F
:101270003FEF09F0FFFF000E166E41EF09F0FFFF90
:101280008984FFFF84B247EF09F04AEF09F0FFFFBE
:1012900054EF09F0FFFF1750D8A451EF09F054EFB5
:1012A00009F0FFFF59EF09F0FFFF000E176E5BEF2B
:1012B00009F0FFFF8A88FFFF84B461EF09F064EF53
:1012C00009F0FFFF6EEF09F0FFFF1850D8A46BEF95
:1012D00009F06EEF09F0FFFF73EF09F0FFFF000E5A
:1012E000186E75EF09F0FFFF8B84FFFF32EC12F0F0
:1012F00012501310D8B47FEF09F082EF09F0FFFF0E
:1013000075EF09F0FFFF89948A988B94FFFF32EC08
:1013100012F012501310D8B490EF09F093EF09F0C7
:10132000FFFF86EF09F0FFFF1650D8A49AEF09F0EF
:101330009DEF09F0FFFF12EF09F0FFFF1750D8A44F
:10134000A4EF09F0A7EF09F0FFFF12EF09F0FFFF8C
:101350001850D8A4AEEF09F0B1EF09F0FFFF12EF7B
:1013600009F0FFFFD59ECA94000ED76E000ED66E10
:10137000000ECC6E8EEC12F01200FFFFFFFFB2ECFD
:1013800011F0CFEC11F0E2EC11F03CEC12F0000E99
:10139000136E0A0E126E28EC12F0C5EC08F019EC70
:1013A00012F0AB88FFFFAEEC12F00009D8B4DBEF0F
:1013B00009F0DEEF09F0FFFFF4EF09F0FFFF000E88
:1013C000126E010E94EC10F0010E126E010E94ECF0
:1013D00010F0020E126E010E94EC10F0070E73EC7A
:1013E0000CF0FFFFF1EF09F0FFFFAAEC12F000098B
:1013F000D8B4FDEF09F000EF0AF0FFFF5BEF0AF051
:10140000FFFF45EC12F012C0D4F113C0D5F1010179
:1014100020EE02F0D451D926D551DA22DF50576E92
:1014200020EE03F0D451D926D551DA22DF50586E80
:10143000AB98000E76EC0AF0FF0E76EC0AF0010194
:1014400020EE05F0D451D926D551DA22DF5076ECC2
:101450000AF0010120EE06F0D451D926D551DA2246
:10146000DF5076EC0AF0010120EE04F0D451D926C9
:10147000D551DA22DF50D16F20EE07F0D451D926B2
:10148000D551DA22DF50D26FD151D25D76EC0AF01D
:10149000AB887AEC12F082EC06F00101D36FD351E5
:1014A00073EC0CF0FFFF53EC12F0A2EC12F008EC1E
:1014B00011F0D2EF09F0FFFFA6EC12F00009D8B44A
:1014C00064EF0AF067EF0AF0FFFF71EF0AF0FFFF29
:1014D00082EC06F00101D36FD35173EC0CF052EFA4
:1014E0000AF0FFFFD2EF09F0B5EF00F0FFFF1B6E2F
:1014F000450E5E24D96EDA6A000EDA221BC0DFFFC9
:101500005E2A92EF0AF0FFFF050E6D6EADEF0AF056
:10151000FFFF090E6D6EADEF0AF0FFFF010E6D6E5D
:10152000ADEF0AF0FFFF4550196E1A6A1A50000A13
:10153000D8B49DEF0AF0ADEF0AF0FFFF1950000A92
:10154000D8B483EF0AF0010AD8B488EF0AF0030A8E
:10155000D8B48DEF0AF0ADEF0AF0FFFF6D505E5C7E
:10156000D8A0B5EF0AF0B8EF0AF0FFFF24EF0BF0B8
:10157000FFFF000E5E6E09EF0BF0FFFF6150040DE0
:10158000D80EF324D96E000EF420DA6E46C0DFFFC9
:101590006150040DD90EF324D96E000EF420DA6EDA
:1015A00047C0DFFF6150040DDA0EF324D96E000E40
:1015B000F420DA6E48C0DFFF6150040DDB0EF32427
:1015C000D96E000EF420DA6E49C0DFFF612A24EFE5
:1015D0000BF0FFFF46C0ECF047C0EDF048C0EEF066
:1015E00049C0EFF04AC0F0F04BC0F1F04CC0F2F04F
:1015F0004DC0F3F0010E5F6E24EF0BF0FFFF010E04
:10160000606E24EF0BF0FFFF080E73EC0CF024EF7C
:101610000BF0FFFF4550196E1A6A1A50000AD8B431
:1016200014EF0BF003EF0BF0FFFF1950000AD8B4D2
:10163000BDEF0AF0010AD8B4E9EF0AF0030AD8B402
:10164000FEEF0AF003EF0BF0FFFF1200FFFFFFFFBA
:101650000A6E450E5E24D96EDA6A000EDA220AC0DE
:10166000DFFF5E2A43EF0BF0FFFF050E6D6E5EEFAE
:101670000BF0FFFF090E6D6E5EEF0BF0FFFF010E2A
:101680006D6E5EEF0BF0FFFF4550086E096A095062
:10169000000AD8B44EEF0BF05EEF0BF0FFFF0850DE
:1016A000000AD8B434EF0BF0010AD8B439EF0BF0CC
:1016B000030AD8B43EEF0BF05EEF0BF0FFFF6D5066
:1016C0005E5CD8A066EF0BF069EF0BF0FFFFD5EF83
:1016D0000BF0FFFF000E5E6EBAEF0BF0FFFF6150E4
:1016E000040DD80EF324D96E000EF420DA6E46C035
:1016F000DFFF6150040DD90EF324D96E000EF420E3
:10170000DA6E47C0DFFF6150040DDA0EF324D96EA4
:10171000000EF420DA6E48C0DFFF6150040DDB0ECE
:10172000F324D96E000EF420DA6E49C0DFFF612A7F
:10173000D5EF0BF0FFFF46C0ECF047C0EDF048C01E
:10174000EEF049C0EFF04AC0F0F04BC0F1F04CC0F1
:10175000F2F04DC0F3F0010E5F6ED5EF0BF0FFFF1E
:10176000010E606ED5EF0BF0FFFF080E01EC0DF0DF
:10177000D5EF0BF0FFFF4550086E096A0950000ACB
:10178000D8B4C5EF0BF0B4EF0BF0FFFF0850000A20
:10179000D8B46EEF0BF0010AD8B49AEF0BF0030A3D
:1017A000D8B4AFEF0BF0B4EF0BF0FFFF1200FFFF68
:1017B000FFFF3B343C34426E4250D8A4E2EF0BF0C2
:1017C000E5EF0BF0FFFFF1EF0BF0FFFFFFFF000E67
:1017D000396E000E3A6E000E3B6E000E3C6E70EFDE
:1017E0000CF0FFFF39C03DF03AC03EF03BC03FF087
:1017F0003CC040F0200E03EF0CF0FFFFD8904032C9
:101800003F323E323D32FFFFE82EFDEF0BF03D5000
:10181000416E3B8EFF0E3916FF0E3A16FF0E3B1639
:10182000000E3C16960E425E42BE1CEF0CF019EF05
:101830000CF0FFFF36EF0CF0FFFF4250800A970FCD
:10184000D8B025EF0CF028EF0CF0FFFF2BEF0CF0D9
:10185000FFFFE6EF0BF0FFFFD8903C323B323A320D
:101860003932423E2BEF0CF054EF0CF0FFFF1F0E0D
:1018700042643DEF0CF040EF0CF0FFFF4AEF0CF03C
:10188000FFFFE6EF0BF0FFFFD89039363A363B36D4
:101890003C364206FFFF4250D8A451EF0CF054EF03
:1018A0000CF0FFFF43EF0CF0FFFF4150D8B45BEFAB
:1018B0000CF05EEF0CF0FFFF67EF0CF0FFFF3C1E3B
:1018C0003B1E3A1E396C000E3A223B223C22FFFF9F
:1018D00039C039F03AC03AF03BC03BF03CC03CF074
:1018E000FFFF1200FFFFFFFF186ECFEF0CF0FFFFAE
:1018F000A40E126E000E136E1D0E146E64EC11F029
:10190000FEEF0CF0FFFF5C0E126E010E136E280E40
:10191000146E64EC11F0FEEF0CF0FFFF840E126EFB
:10192000010E136E270E146E64EC11F0FEEF0CF036
:10193000FFFF340E126E010E136E280E146E64EC4F
:1019400011F0FEEF0CF0FFFF840E126E000E136E0E
:10195000200E146E64EC11F0FEEF0CF0FFFF000E91
:10196000126E010E136E340E146E64EC11F0FEEF65
:101970000CF0FFFFAB0E126E010E136E260E146EEE
:1019800064EC11F0FEEF0CF0FFFFC10E126E000EC2
:10199000136E170E146E64EC11F0FEEF0CF0FFFFE7
:1019A0001850166E176A1750000AD8B4DAEF0CF008
:1019B000FEEF0CF0FFFF1650010AD8B477EF0CF0E1
:1019C000030AD8B482EF0CF0010AD8B48DEF0CF002
:1019D000070AD8B498EF0CF0010AD8B4A3EF0CF0C2
:1019E000030AD8B4AEEF0CF0010AD8B4B9EF0CF08A
:1019F0000F0AD8B4C4EF0CF0FEEF0CF0FFFF12009A
:101A0000FFFFFFFF076E5DEF0DF0FFFFA40E016EFD
:101A1000000E026E1D0E036E8BEC11F08CEF0DF0BC
:101A2000FFFF5C0E016E010E026E280E036E8BEC42
:101A300011F08CEF0DF0FFFF840E016E010E026EAF
:101A4000270E036E8BEC11F08CEF0DF0FFFF340EC0
:101A5000016E010E026E280E036E8BEC11F08CEFFE
:101A60000DF0FFFF840E016E000E026E200E036E5D
:101A70008BEC11F08CEF0DF0FFFF000E016E010EEC
:101A8000026E340E036E8BEC11F08CEF0DF0FFFF45
:101A9000AB0E016E010E026E260E036E8BEC11F082
:101AA0008CEF0DF0FFFFC10E016E000E026E170EDF
:101AB000036E8BEC11F08CEF0DF0FFFF0750056EFD
:101AC000066A0650000AD8B468EF0DF08CEF0DF0EE
:101AD000FFFF0550010AD8B405EF0DF0030AD8B492
:101AE00010EF0DF0010AD8B41BEF0DF0070AD8B4BF
:101AF00026EF0DF0010AD8B431EF0DF0030AD8B487
:101B00003CEF0DF0010AD8B447EF0DF00F0AD8B43E
:101B100052EF0DF08CEF0DF0FFFF1200FFFFFFFF03
:101B2000020E126E010ECEEC10F0CA84000E5C6E36
:101B3000000E5B6EC80E686ED58E84EC12F0D2EF8C
:101B40000DF0FFFF5B505C10D8B4A9EF0DF0ACEFC7
:101B50000DF0FFFFB4EF0DF0FFFF8B94000E5C6EF5
:101B6000060E5B6EE8EF0DF0FFFF8B84FFFF32EC9B
:101B700012F012501310D8B4C0EF0DF0C3EF0DF0F7
:101B8000FFFFB6EF0DF0FFFF8B94FFFF32EC12F07A
:101B900012501310D8B4CFEF0DF0D2EF0DF0FFFFBD
:101BA000C5EF0DF0FFFF68EC12F012501310D8B41F
:101BB000DCEF0DF0DFEF0DF0FFFFA1EF0DF0FFFF09
:101BC00083BEE5EF0DF0E8EF0DF0FFFFA1EF0DF0A4
:101BD000FFFFB2EC12F07FEC12F0D59ECA94000E1B
:101BE000D76E000ED66E000ECC6E8EEC12F083AE69
:101BF000FCEF0DF0FFEF0DF0FFFF04EF0EF0FFFF25
:101C0000000E5C6E020E5B6EFFFF5B501200FFFF6A
:101C1000FFFF020E126E010ECEEC10F0CA84000E11
:101C20005C6E000E5B6EC80E686ED58E84EC12F092
:101C30004BEF0EF0FFFF5B505C10D8B422EF0EF0BC
:101C400025EF0EF0FFFF2DEF0EF0FFFF8B94000E3F
:101C50005C6E060E5B6E61EF0EF0FFFF8B84FFFF84
:101C600032EC12F012501310D8B439EF0EF03CEFF2
:101C70000EF0FFFF2FEF0EF0FFFF8B94FFFF32EC13
:101C800012F012501310D8B448EF0EF04BEF0EF0D4
:101C9000FFFF3EEF0EF0FFFF6EEC12F0125013103C
:101CA000D8B455EF0EF058EF0EF0FFFF1AEF0EF01C
:101CB000FFFF83BE5EEF0EF061EF0EF0FFFF1AEF45
:101CC0000EF0FFFFB2EC12F089EC12F0D59ECA9430
:101CD000000ED76E000ED66E000ECC6E8EEC12F09B
:101CE00083AE75EF0EF078EF0EF0FFFF7DEF0EF094
:101CF000FFFF000E5C6E020E5B6EFFFF5B5012007A
:101D0000FFFFFFFF156ECEEF0EF0FFFF15C013F0C3
:101D1000010E1316133A134689501318DF0B1318CC
:101D2000896E15C013F0020E13168A501318FE0B9D
:101D300013188A6EE9EF0EF0FFFF15C013F0010EC5
:101D40001316133A134613468A501318BF0B131871
:101D50008A6E15C013F0020E1316133213328A5016
:101D600013187F0B13188A6EE9EF0EF0FFFF15C0F2
:101D700013F0010E1316133A8B501318EF0B1318B0
:101D80008B6E15C013F0020E1316133A13468B50C8
:101D90001318DF0B13188B6EE9EF0EF0FFFF1250D4
:101DA000136E146A1450000AD8B4D9EF0EF0E9EF9C
:101DB0000EF0FFFF1350000AD8B485EF0EF0010AB1
:101DC000D8B49CEF0EF0030AD8B4B6EF0EF0E9EFEA
:101DD0000EF0FFFF1200FFFFFFFF0001F76FAC0ED8
:101DE000246EFF0E256EB30E266E3D0E276E00018B
:101DF000F751126E136A146A156A010EC9EC07F0E6
:101E000012C020F013C021F014C022F015C023F03E
:101E100008EC03F020C039F021C03AF022C03BF0BA
:101E200023C03CF0D8EC0BF039C0F8F03AC0F9F020
:101E3000000E0001FB6F000EFA6F46EF0FF0FFFF80
:101E4000C30E8C16030EFA15F46F000EFB15F56F1A
:101E5000800EF425D96E000EF521DA6EDF50F66F94
:101E6000D890F637D890F6358C12FFFF32EC12F08E
:101E700012501310D8B43FEF0FF042EF0FF0FFFFF6
:101E800035EF0FF0FFFF0001FA4BFB2BFFFFF8517E
:101E9000FA5DF951FB59D8A050EF0FF053EF0FF056
:101EA000FFFF1FEF0FF0FFFF1200FFFF4572726F81
:101EB000722C2074696D652065786365656465645E
:101EC00020746F2072656163682074686520656E98
:101ED00064206F6620746865205A20417869730019
:101EE0004572726F722C2074696D65206578636528
:101EF0006564656420746F2072656163682074682E
:101F00006520706F696E74004572726F722C206E5E
:101F10006F206F626A6563742072656C65766174A8
:101F2000656420616C6F6E67205A20417869730088
:101F30004572726F722C2074696D652065786365D7
:101F40006564656420746F20726573657420706FBA
:101F5000736974696F6E00466174616C20457272BA
:101F60006F722C20706C6561736520726573657487
:0D1F70002074686520646576696365210052
:101F7E00FFFF020E126E000ECEEC10F0CA84000EA1
:101F8E005C6E000E5B6EC80E686ED58E00EF10F0A4
:101F9E00FFFF5B505C10D8B4D7EF0FF0DAEF0FF005
:101FAE00FFFFE2EF0FF0FFFF8B94000E5C6E060E4C
:101FBE005B6E09EF10F0FFFF8B84FFFF32EC12F027
:101FCE0012501310D8B4EEEF0FF0F1EF0FF0FFFF39
:101FDE00E4EF0FF0FFFF8B94FFFF32EC12F0125084
:101FEE001310D8B4FDEF0FF000EF10F0FFFFF3EF7A
:101FFE000FF0FFFF84A406EF10F009EF10F0FFFFC3
:10200E00CFEF0FF0FFFFD59ECA94000ED76E000ED5
:10201E00D66E000ECC6E8EEC12F05B501200FFFFEF
:10202E00AC0EF66E1E0EF76E000EF86E01EE00F0A0
:10203E0010EED1F00900F5CFEEFFE550E150FAE1D8
:10204E00700EF66E220EF76E000EF86E00EE80F039
:10205E0010EE58F00900F5CFEEFFE550E150FAE131
:10206E007C0EF66E250EF76E000EF86E00EE69F021
:10207E0010EE05F00900F5CFEEFFE550E150FAE164
:10208E0000EED8F01C0EEE6AE806FDE100EE45F01B
:10209E00240EEE6AE806FDE16E906E92000EF86E6A
:1020AE000001BEEF09F0FFFF156E76EF10F0FFFF97
:1020BE0015B002D08A9401D08A8491EF10F0FFFF00
:1020CE0015B002D08B9001D08B8091EF10F0FFFFF6
:1020DE0015B002D08C9001D08C8091EF10F0FFFFE4
:1020EE001250136E146A1450000AD8B481EF10F017
:1020FE0091EF10F0FFFF1350000AD8B45EEF10F00E
:10210E00010AD8B466EF10F0030AD8B46EEF10F0DF
:10211E0091EF10F0FFFF1200FFFFFFFF156EB0EF03
:10212E0010F0FFFF15B002D0899601D08986CBEF53
:10213E0010F0FFFF15B002D08A9A01D08A8ACBEF39
:10214E0010F0FFFF15B002D08B9601D08B86CBEF2F
:10215E0010F0FFFF1250136E146A1450000AD8B418
:10216E00BBEF10F0CBEF10F0FFFF1350000AD8B406
:10217E0098EF10F0010AD8B4A0EF10F0030AD8B40B
:10218E00A8EF10F0CBEF10F0FFFF1200FFFFFFFFE4
:10219E00156EEAEF10F0FFFF15B002D0899201D054
:1021AE00898205EF11F0FFFF15B002D08A9601D09B
:1021BE008A8605EF11F0FFFF15B002D08B9201D089
:1021CE008B8205EF11F0FFFF1250136E146A14503C
:1021DE00000AD8B4F5EF10F005EF11F0FFFF135021
:1021EE00000AD8B4D2EF10F0010AD8B4DAEF10F02A
:1021FE00030AD8B4E2EF10F005EF11F0FFFF120062
:10220E00FFFFFFFF000E146EFFFF1450126E136AD5
:10221E00D89012361336D89012361336DC0E12249E
:10222E00D96E000E1320DA6E1450040DD80EF3245E
:10223E00E16E000EF420E26EDECFE6FFDECFE6FFAB
:10224E00DECFE6FFDECFE6FF142A030E146432EF74
:10225E0011F035EF11F0FFFF0BEF11F0FFFF120041
:10226E00FFFF0903060C4572726F722C20706F69A6
:10227E006E74206F75747369646520626F756E6419
:10228E006172696573004572726F722C20666565A6
:10229E0064206C696E65206E6F7420646566696E6D
:1022AE00656400436F6D6D616E64206E6F74207295
:1022BE0065636F676E697A656400FFFF010E156EC8
:1022CE007DEF11F0FFFF12C0D9FF13C0DAFFDF5010
:1022DE00AD6EFFFFACA276EF11F079EF11F0FFFFBC
:1022EE0070EF11F0FFFF124A132A152AFFFF145048
:1022FE00155CD8A085EF11F088EF11F0FFFF69EFA4
:10230E0011F0FFFF1200FFFFFFFF010E046EA4EF9E
:10231E0011F0FFFF01C0D9FF02C0DAFFDF50AD6E32
:10232E00FFFFACA29DEF11F0A0EF11F0FFFF97EFB2
:10233E0011F0FFFF014A022A042AFFFF0350045C3A
:10234E00D8A0ACEF11F0AFEF11F0FFFF90EF11F04E
:10235E00FFFF1200FFFFFFFFF2BEB8EF11F0BBEF61
:10236E0011F0FFFFBDEF11F0FFFFF28EFFFFF2BC89
:10237E00C3EF11F0C6EF11F0FFFFC8EF11F0FFFF32
:10238E00F28CFFFFD08EF28A9D829D8A1200FFFF93
:10239E00FFFFC150F00B0609C16ED10E9216020E50
:1023AE009316C00E9416C00E95169680968296843D
:1023BE00958E1200FFFFFFFFC2503F0B4009C26E09
:1023CE00C18CC70EC216C294C290C19EC150F00BF2
:1023DE000E09C16E9D8C9F8C1200FFFFFFFF8C9229
:1023EE00FFFF32EC12F012501310D8B401EF12F0BE
:1023FE0004EF12F0FFFFF7EF11F0FFFF1200FFFFE7
:10240E00FFFF8C82FFFF32EC12F012501310D8B483
:10241E0013EF12F016EF12F0FFFF09EF12F0FFFFAD
:10242E001200FFFFFFFF949C948EAC9CAC8AAC987C
:10243E00AC94AB8EAB9CAB98AB96190EAF6E1200F4
:10244E00FFFFFFFFCA94030ECA1212C055F013C04D
:10245E0056F01200FFFFFFFF66C014F0000E666E0E
:10246E0014C012F0136A1200FFFFFFFFD59ED59C19
:10247E00D59AD586070ED5121200FFFFFFFFEC0E80
:10248E00126E000E136E1200FFFFFFFFD80E126EBB
:10249E00000E136E1200FFFFFFFF000E5C6E000EAB
:1024AE005B6E1200FFFFFFFF000E5C6E010E5B6E97
:1024BE001200FFFFFFFF55C001F056C002F01200E0
:1024CE00FFFFFFFF64C012F0136A1200FFFFFFFF51
:1024DE0065C012F0136A1200FFFFFFFF67C012F013
:1024EE00136A1200FFFFFFFF000E5F6E1200FFFF68
:1024FE00FFFF000E646E1200FFFFFFFFC280C2845A
:10250E001200FFFFFFFF000E656E1200FFFFFFFFC0
:10251E00000E676E1200FFFFFFFF010E666E1200C7
:10252E00FFFFFFFF010E656E1200FFFFFFFF010EA2
:10253E00646E1200FFFFFFFF61061200FFFFFFFF38
:10254E0061501200FFFFFFFF5F501200FFFFFFFF01
:10255E0060501200FFFFFFFFC2901200FFFFFFFF4F
:10256E0068501200FFFFFFFF672A1200FFFFE8030B
:03257E00E803056A
:02258200FFFF59
:020000040020DA
:08000000FFFFFFFFFFFFFFFF00
:020000040030CA
:0E000000FF210D0EFF0080FF0FC00FE00F402C
:00000001FF
