:020000040000FA
:0600000000F0D4EF00F057
:10000800FFFF6E82D9CF0DF0DACF0EF0F3CF0FF0ED
:10001800F4CF10F0F2A413EF00F016EF00F0FFFF9A
:100028002CEF00F0FFFFF2945F2A94EC13F00B6EB4
:100038000B505F5CD8A023EF00F026EF00F0FFFF25
:100048002CEF00F0FFFFD59E000E5F6E31EC13F031
:10005800FFFF9EA032EF00F035EF00F0FFFF45EF05
:1000680000F0FFFF9E909CEC13F00009D8B43FEF1E
:1000780000F042EF00F0FFFF45EF00F0FFFF0CEC4F
:1000880013F0FFFF9EA24BEF00F04EEF00F0FFFFD2
:1000980082EF00F0FFFF9E920001C84BC92B38EC9D
:1000A80013F00001C851015CC9510258D8B05FEF84
:1000B80000F062EF00F0FFFF82EF00F0FFFF000E9C
:1000C800C96F000EC86F5E2A5E50D8B46EEF00F09C
:1000D80071EF00F0FFFF7FEF00F0FFFF5EB077EFFA
:1000E80000F07AEF00F0FFFF7FEF00F0FFFF000E57
:1000F8005E6E98EC13F0FFFF75EC13F0FFFF9EACFB
:1001080088EF00F08BEF00F0FFFFB8EF00F0FFFF83
:100118009E9CC3CF4FF0506AC4500C6E0B6A0B50B4
:100128004F120C5050124F04040E5058D8A09FEF95
:1001380000F0A2EF00F0FFFFA9EF00F0FFFF7AEC5C
:1001480013F07FEC13F0B8EF00F0FFFF4F04020E3E
:100158005058D8A0B2EF00F0B5EF00F0FFFFB8EFAD
:1001680000F0FFFF7AEC13F0FFFF9EAABEEF00F04D
:10017800C1EF00F0FFFFC8EF00F0FFFF9E9AAECF7F
:1001880011F0115075EC09F0FFFF10C0F4FF0FC01B
:10019800F3FF0EC0DAFF0DC0D9FF6E921100FFFF0A
:0401A8007FEF11F0E4
:100600000000002041000400020F500F320F14645C
:100610001E00FFFF2350800B306E23502324376EC3
:1006200022AE15EF03F018EF03F0FFFF1AEF03F00F
:10063000FFFF3780FFFF3750D8B421EF03F024EFDE
:1006400003F0FFFF3DEF03F0FFFF3728D8A42BEFA7
:1006500003F02EEF03F0FFFF37EF03F0FFFF000E74
:10066000206E000E216E000E226E000E236EFFFF24
:10067000228E000E236E46EF03F0FFFF000E206E69
:10068000000E216E000E226E000E236EFFFF27501B
:10069000800B301A27502724386E26AE52EF03F015
:1006A00055EF03F0FFFF57EF03F0FFFF3880FFFF28
:1006B0003850D8B45EEF03F061EF03F0FFFF7AEF3C
:1006C00003F0FFFF3828D8A468EF03F06BEF03F0C6
:1006D000FFFF74EF03F0FFFF000E246E000E256E87
:1006E000000E266E000E276EFFFF268E000E276E70
:1006F00083EF03F0FFFF000E246E000E256E000E48
:10070000266E000E276EFFFF24502510261027109E
:10071000D8A48DEF03F090EF03F0FFFFAAEF03F0F2
:10072000FFFF000E206E000E216E000E226E000EE6
:10073000236E800E22127F0E2312FFFF30502312F1
:1007400020C020F021C021F022C022F023C023F0DD
:100750001FEF05F0FFFF3750D8A4B1EF03F0B4EF5F
:1007600003F0FFFFBFEF03F0FFFF000E206E000E4F
:10077000216E000E226E000E236E1FEF05F0FFFFAC
:10078000385037C028F0296A285E000E295A7F0E9B
:100790002824316E000E2920326E20C02CF021C09A
:1007A0002DF022C02EF023C02FF0000E206E000E80
:1007B000216E000E226E000E236E000E336E000EB0
:1007C000346E000E356E000E366E000E386E2BEF56
:1007D00004F0FFFF3850D8B4F0EF03F0F3EF03F06C
:1007E000FFFF0EEF04F0FFFFD8902C362D362E368B
:1007F0002F36D890203621362236233636AE03EFF8
:1008000004F006EF04F0FFFF08EF04F0FFFF208084
:10081000FFFFD8903336343635363636FFFF245056
:100820002C5C25502D5826502E5827502F58D8A0D4
:100830001CEF04F01FEF04F0FFFF29EF04F0FFFFAF
:10084000368C24502C5E25502D5A26502E5A275077
:100850002F5AFFFF382AFFFF190E386432EF04F0D9
:1008600035EF04F0FFFFE9EF03F0FFFF2C502D10F0
:100870002E102F10D8B43FEF04F042EF04F0FFFF2A
:100880005FEF04F0FFFF33805FEF04F0FFFFD890CD
:10089000203621362236233636AE51EF04F054EF9F
:1008A00004F0FFFF56EF04F0FFFF2080FFFFD89019
:1008B00033363436353636363106D8A03206FFFFA9
:1008C00022AE65EF04F068EF04F0FFFF46EF04F09E
:1008D000FFFF000E386E36AE70EF04F073EF04F0D9
:1008E000FFFF9EEF04F0FFFFFF0E3314286EFF0E94
:1008F0003414296EFF0E35142A6E7F0E36142B6EBB
:10090000285029102A102B10D8B489EF04F08CEF4E
:1009100004F0FFFF92EF04F0FFFFFFFF010E386EBF
:100920009EEF04F0FFFF20A098EF04F09BEF04F08F
:10093000FFFF9EEF04F0FFFF8DEF04F0FFFF385044
:10094000D8B4A5EF04F0A8EF04F0FFFFCFEF04F058
:10095000FFFF010E2026000E21222222232223A0A7
:10096000B4EF04F0B7EF04F0FFFFCFEF04F0FFFFA8
:1009700020C028F021C029F022C02AF023C02BF08B
:100980002B342B322A322932283228C020F029C0B9
:1009900021F02AC022F02BC023F0314A322AFFFF77
:1009A00032BEDBEF04F0325009E13128D8A0DBEF92
:1009B00004F0DEEF04F0FFFFEAEF04F0FFFF000EAB
:1009C000326E3168000E206E000E216E000E226E17
:1009D000000E236EFFFF32BEF9EF04F0325006E145
:1009E0003104D8B0F6EF04F0F9EF04F0FFFF08EFA0
:1009F00005F0FFFF000E326E000E316E000E206E0D
:100A0000000E216E000E226E000E236E000E306E60
:100A1000FFFF31C037F037A010EF05F013EF05F0FE
:100A2000FFFF17EF05F0FFFF228E19EF05F0FFFF24
:100A3000229EFFFFD8903730236E9DEF03F0FFFF1B
:100A40001200FFFFFFFF1550195C1D6E16501A585B
:100A50001E6E1EBE34EF05F01E5009E11D04D8A025
:100A600034EF05F037EF05F0FFFF3EEF05F0FFFF35
:100A7000010E646E010E1F6E42EF05F0FFFF646809
:100A8000000E1F6EFFFF17501B5C1D6E18501C5888
:100A90001E6E1EBE54EF05F01E5009E11D04D8A0C5
:100AA00054EF05F057EF05F0FFFF5EEF05F0FFFF95
:100AB000010E666E010E206E62EF05F0FFFF6668A4
:100AC000000E206EFFFF010E216E010E226ECA8401
:100AD000000E566E000E556EC80E626ED58E9EEFDD
:100AE00006F0FFFF55505610D8B479EF05F07CEFB3
:100AF00005F0FFFF83EF05F0FFFF000E566E040EBA
:100B0000556EB2EF06F0FFFF1F04D8A48AEF05F080
:100B10008DEF05F0FFFFCCEF05F0FFFF4BEC13F07E
:100B200015501226165013221950125C1A501358E1
:100B3000D8A09DEF05F0A0EF05F0FFFFA6EF05F0B0
:100B4000FFFFFFFF000E216E0AEF06F0FFFF2150AE
:100B5000D8B4ADEF05F0B0EF05F0FFFF0AEF06F0F7
:100B6000FFFF645063266350800A7C0FD8A0BBEF60
:100B700005F0BEEF05F0FFFFC1EF05F0FFFF000E2F
:100B8000636EFFFF8C0E6324D96EDA6A000EDA22E0
:100B9000DF50896E0AEF06F0FFFF1F50D8A4D3EF95
:100BA00005F0D6EF05F0FFFF0AEF06F0FFFF4BEC74
:100BB00013F015C01DF016C01EF012501D5E13502C
:100BC0001E5A1D50195C1E501A58D8A0EAEF05F0A5
:100BD000EDEF05F0FFFFF0EF05F0FFFFA1EF05F0EF
:100BE000FFFF2150D8B4F7EF05F0FAEF05F0FFFF53
:100BF0000AEF06F0FFFF6450632663BE05EF06F0C0
:100C000002EF06F0FFFFC1EF05F0FFFF030E636E7A
:100C1000C1EF05F0FFFF2004D8A411EF06F014EF98
:100C200006F0FFFF53EF06F0FFFF4BEC13F01750F9
:100C30001226185013221B50125C1C501358D8A0B7
:100C400024EF06F027EF06F0FFFF2DEF06F0FFFF81
:100C5000FFFF000E226E91EF06F0FFFF2250D8B486
:100C600034EF06F037EF06F0FFFF91EF06F0FFFFDD
:100C7000665065266550800A7C0FD8A042EF06F0CA
:100C800045EF06F0FFFF48EF06F0FFFF000E656E30
:100C9000FFFF880E6524D96EDA6A000EDA22DF5073
:100CA0008A6E91EF06F0FFFF2050D8A45AEF06F0AD
:100CB0005DEF06F0FFFF91EF06F0FFFF4BEC13F046
:100CC00017C01DF018C01EF012501D5E13501E5AA2
:100CD0001D501B5C1E501C58D8A071EF06F074EF1D
:100CE00006F0FFFF77EF06F0FFFF28EF06F0FFFFAB
:100CF0002250D8B47EEF06F081EF06F0FFFF91EFAF
:100D000006F0FFFF6650652665BE8CEF06F089EFA2
:100D100006F0FFFF48EF06F0FFFF030E656E48EF99
:100D200006F0FFFFE6EC12F012501310D8B49BEF60
:100D300006F09EEF06F0FFFF91EF06F0FFFF215057
:100D4000D8A4A5EF06F0A8EF06F0FFFF71EF05F0BD
:100D5000FFFF2250D8A4AFEF06F0B2EF06F0FFFF7E
:100D600071EF05F0FFFFD59ECA946BEC13F0F0EC29
:100D700012F0000ED76E000ED66E000ECC6E70EC28
:100D800013F055501200FFFFFFFF23EC13F012C0C9
:100D9000EFF013C0F0F076EF07F0FFFF4CC015F056
:100DA000166A4DC017F0186A0D0EF66E060EF76E35
:100DB0000800FFFFF550196E1A6A0E0EF66E060E49
:100DC000F76E0800FFFFF5501B6E1C6A22EC05F061
:100DD0000001F16F0D0EF66E060EF76E0800FFFFB4
:100DE000F5CF4CF00E0EF66E060EF76E0800FFFF04
:100DF000F5CF4DF09AEF07F0FFFF4CC015F0166AE3
:100E00004DC017F0186A0B0EF66E060EF76E08004E
:100E1000FFFFF550196E1A6A0C0EF66E060EF76E8D
:100E20000800FFFFF5501B6E1C6A22EC05F0000164
:100E3000F16F0B0EF66E060EF76E0800FFFFF5CF92
:100E40004CF00C0EF66E060EF76E0800FFFFF5CFA5
:100E50004DF09AEF07F0FFFF4CC015F0166A4DC039
:100E600017F0186A090EF66E060EF76E0800FFFFFF
:100E7000F550196E1A6A0A0EF66E060EF76E080025
:100E8000FFFFF5501B6E1C6A22EC05F00001F16FAC
:100E9000090EF66E060EF76E0800FFFFF5CF4CF058
:100EA0000A0EF66E060EF76E0800FFFFF5CF4DF046
:100EB0009AEF07F0FFFF4CC015F0166A4DC017F00F
:100EC000186A51C019F01A6A52C01BF01C6A22EC51
:100ED00005F00001F16F51C04CF052C04DF09AEF97
:100EE00007F0FFFF010EF16F9AEF07F0FFFFEFC071
:100EF000D9FFF0C0DAFFDF500001ED6FEE6BEE516D
:100F0000000AD8B486EF07F071EF07F0FFFFED514C
:100F1000000AD8B4CDEF06F0010AD8B4FCEF06F011
:100F2000030AD8B42BEF07F0FD0AD8B45AEF07F044
:100F300071EF07F0FFFFF151D8A4A1EF07F0A4EF84
:100F400007F0FFFFB2EF07F0FFFFAEEC0FF000017C
:100F5000F16FF151D8B4AFEF07F0B2EF07F0FFFF38
:100F6000B6EF07F0FFFFF1513CEF08F0FFFF99ECFF
:100F700012F020EC11F00001F16FF151D8B4C3EF81
:100F800007F0C6EF07F0FFFFC9EF07F0FFFFB2EF72
:100F900007F0FFFF4CC015F0166A4DC017F0186A35
:100FA00020EE01F0EF51D926F051DA22DF50ED6F3B
:100FB000ED51196E1A6A20EE02F0EF51D926F05168
:100FC000DA22DF50EE6FEE511B6E1C6A22EC05F048
:100FD0000001F16FF151D8B4F0EF07F0F3EF07F033
:100FE000FFFFF6EF07F0FFFFB2EF07F0FFFF20EE85
:100FF00001F0EF51D926F051DA22DF504C6E20EE8D
:1010000002F0EF51D926F051DA22DF504D6E20EE7A
:1010100003F0EF51D926F051DA22DF50ED6FED5198
:10102000536E546A54BE1AEF08F017EF08F0FFFF32
:101030001FEF08F0FFFF680E5326010E5422FFFF3A
:101040005350B3EC10F025EC0FF00001F16FF151AB
:10105000D8B42DEF08F030EF08F0FFFF33EF08F0C1
:10106000FFFFB2EF07F0FFFF81EC12F020EC11F070
:101070000001F16FB2EF07F0FFFF1200FFFFFFFF6B
:101080001B6E430E5A24D96EDA6A000EDA221BC098
:10109000DFFF5A2A5BEF08F0FFFF050E6D6E76EF5B
:1010A00008F0FFFF090E6D6E76EF08F0FFFF010EEE
:1010B0006D6E76EF08F0FFFF4350196E1A6A1A50F2
:1010C000000AD8B466EF08F076EF08F0FFFF195079
:1010D000000AD8B44CEF08F0010AD8B451EF08F078
:1010E000030AD8B456EF08F076EF08F0FFFF6D5012
:1010F0005A5CD8A07EEF08F081EF08F0FFFF72EF96
:1011000009F0FFFF000E5A6E57EF09F0FFFF5D5028
:10111000040DCA0EF324D96E000EF420DA6E44C01A
:10112000DFFF5D50040DCB0EF324D96E000EF420CA
:10113000DA6E4550050DF3CFDFFF5D50040DCC0E88
:10114000F324D96E000EF420DA6E4650050DF3CF6D
:10115000DFFF5D50040DCD0EF324D96E000EF42098
:10116000DA6E47C0DFFF5D50040DCB0EF324D96E5D
:10117000000EF420DA6EDF50196E1A6A19506B5C9B
:101180001A506C58D8A0C7EF08F0CAEF08F0FFFF5C
:10119000E1EF08F0FFFF5D50040DCC0EF324D96E93
:1011A000000EF420DA6EDF50196E1950695C000EE3
:1011B0006A58D8B0DEEF08F0E1EF08F0FFFFE7EF84
:1011C00008F0FFFF050E09EC0EF072EF09F0FFFFCB
:1011D0005D2A72EF09F0FFFF44C0DEF045C0DFF08A
:1011E0004650050DF3CFE0F04750050DF3CFE1F089
:1011F00048C0E2F04950050DF3CFE3F04A50050D29
:10120000F3CFE4F04BC0E5F00001E051196E1A6A2B
:1012100019506B5C1A506C58D8A011EF09F014EFFC
:1012200009F0FFFF41EF09F0FFFFE351196E1A6A61
:1012300019506B5C1A506C58D8A021EF09F024EFBC
:1012400009F0FFFF41EF09F0FFFFE151196E1A6A43
:101250001950695C1A506A58D8A031EF09F034EF80
:1012600009F0FFFF41EF09F0FFFFE451695C000E58
:101270006A58D8B03EEF09F041EF09F0FFFF47EFA1
:1012800009F0FFFF050E09EC0EF072EF09F0FFFF09
:10129000010E5B6E72EF09F0FFFF010E5C6E72EFE4
:1012A00009F0FFFF080E09EC0EF072EF09F0FFFFE6
:1012B0004350196E1A6A1A50000AD8B462EF09F046
:1012C00051EF09F0FFFF1950000AD8B486EF08F07B
:1012D000010AD8B4EBEF08F0030AD8B44CEF09F0D8
:1012E00051EF09F0FFFF1200FFFFFFFF0A6E430EF0
:1012F0005A24D96EDA6A000EDA220AC0DFFF5A2AAF
:1013000091EF09F0FFFF050E6D6EACEF09F0FFFFE6
:10131000090E6D6EACEF09F0FFFF010E6D6EACEFC4
:1013200009F0FFFF4350086E096A0950000AD8B45B
:101330009CEF09F0ACEF09F0FFFF0850000AD8B4A9
:1013400082EF09F0010AD8B487EF09F0030AD8B494
:101350008CEF09F0ACEF09F0FFFF6D505A5CD8A09C
:10136000B4EF09F0B7EF09F0FFFFA8EF0AF0FFFFB5
:10137000000E5A6E8DEF0AF0FFFF5D50040DCA0E8D
:10138000F324D96E000EF420DA6E44C0DFFF5D5006
:10139000040DCB0EF324D96E000EF420DA6E455006
:1013A000050DF3CFDFFF5D50040DCC0EF324D96E95
:1013B000000EF420DA6E4650050DF3CFDFFF5D50CE
:1013C000040DCD0EF324D96E000EF420DA6E47C062
:1013D000DFFF5D50040DCB0EF324D96E000EF42018
:1013E000DA6EDF50086E096A08506B5C09506C5861
:1013F000D8A0FDEF09F000EF0AF0FFFF17EF0AF0A9
:10140000FFFF5D50040DCC0EF324D96E000EF420C6
:10141000DA6EDF50086E0850695C000E6A58D8B06A
:1014200014EF0AF017EF0AF0FFFF1DEF0AF0FFFFBD
:10143000050E97EC0EF0A8EF0AF0FFFF5D2AA8EF6B
:101440000AF0FFFF44C0DEF045C0DFF04650050D56
:10145000F3CFE0F04750050DF3CFE1F048C0E2F0E4
:101460004950050DF3CFE3F04A50050DF3CFE4F0FA
:101470004BC0E5F00001E051086E096A08506B5C52
:1014800009506C58D8A047EF0AF04AEF0AF0FFFF66
:1014900077EF0AF0FFFFE351086E096A08506B5CB2
:1014A00009506C58D8A057EF0AF05AEF0AF0FFFF26
:1014B00077EF0AF0FFFFE151086E096A0850695C96
:1014C00009506A58D8A067EF0AF06AEF0AF0FFFFE8
:1014D00077EF0AF0FFFFE451695C000E6A58D8B05C
:1014E00074EF0AF077EF0AF0FFFF7DEF0AF0FFFFDD
:1014F000050E97EC0EF0A8EF0AF0FFFF010E5B6EF1
:10150000A8EF0AF0FFFF010E5C6EA8EF0AF0FFFFE4
:10151000080E97EC0EF0A8EF0AF0FFFF4350086E9C
:10152000096A0950000AD8B498EF0AF087EF0AF068
:10153000FFFF0850000AD8B4BCEF09F0010AD8B484
:1015400021EF0AF0030AD8B482EF0AF087EF0AF01D
:10155000FFFF1200FFFFFFFF1A6E1A50D8B4B3EF5F
:101560000AF0B6EF0AF0FFFFDBEF0AF0FFFF15BE4F
:10157000BFEF0AF0BCEF0AF0FFFFDBEF0AF0FFFF5E
:1015800012C016F013C017F014C018F015C019F0EF
:10159000161E171E181E191E162A000E17221822B4
:1015A000192216C01CF017C01DF018C01EF019C07B
:1015B0001FF0E4EF0AF0FFFF12C01CF013C01DF093
:1015C00014C01EF015C01FF0FFFF125013101410AE
:1015D0001510D8A4EEEF0AF0F1EF0AF0FFFFFCEFD0
:1015E0000AF0FFFF000E126E000E136E000E146E56
:1015F000000E156EA4EF0BF0FFFF960E1B6E08EFAA
:101600000BF0FFFF1B2AD8901F321E321D321C32F6
:10161000FFFF000E1C14166E000E1D14176E000E38
:101620001E14186EFE0E1F14196E16501710181087
:101630001910D8A41EEF0BF021EF0BF0FFFF01EF04
:101640000BF0FFFF31EF0BF0FFFF1B2A010E1C26F2
:10165000000E1D221E221F22D8901F321E321D3264
:101660001C32FFFF000E1C14166E000E1D14176EA8
:10167000000E1E14186EFF0E1F14196E1650171050
:1016800018101910D8A447EF0BF04AEF0BF0FFFF2A
:1016900024EF0BF0FFFF54EF0BF0FFFF1B06D89079
:1016A0001C361D361E361F36FFFF1EBE5AEF0BF0CE
:1016B0005DEF0BF0FFFF67EF0BF0FFFF020E1B600B
:1016C00064EF0BF067EF0BF0FFFF4DEF0BF0FFFF48
:1016D0001BB06DEF0BF070EF0BF0FFFF72EF0BF034
:1016E000FFFF1E9EFFFFD8901B321BC016F0176A2B
:1016F000186A196A16C019F0186A176A166A16501D
:101700001C1217501D1218501E1219501F121A5079
:10171000D8B48DEF0BF090EF0BF0FFFF9BEF0BF0C9
:10172000FFFF15BE99EF0BF096EF0BF0FFFF9BEF5D
:101730000BF0FFFF1F8EFFFF1CC012F01DC013F047
:101740001EC014F01FC015F0FFFF1200FFFFFFFFC7
:10175000646866686868010E156E010E166E010EEB
:10176000176ECA84000E566E000E556EC80E626E5D
:10177000D58E69EF0CF0FFFF70EC13F0555056104A
:10178000D8B4C5EF0BF0C8EF0BF0FFFFCFEF0BF0B5
:10179000FFFF000E566E030E556E87EF0CF0FFFF35
:1017A00084B0D5EF0BF0D8EF0BF0FFFFE2EF0BF0BA
:1017B000FFFF1550D8A4DFEF0BF0E2EF0BF0FFFFB7
:1017C000E7EF0BF0FFFF000E156EFEEF0BF0FFFFD3
:1017D0006450632663BEF2EF0BF0EFEF0BF0FFFFF8
:1017E000F5EF0BF0FFFF030E636EFFFF8C0E63241B
:1017F000D96EDA6A000EDA22DF50896EFFFF84B2FA
:1018000004EF0CF007EF0CF0FFFF11EF0CF0FFFFFF
:101810001650D8A40EEF0CF011EF0CF0FFFF16EFEE
:101820000CF0FFFF000E166E2DEF0CF0FFFF665060
:10183000652665BE21EF0CF01EEF0CF0FFFF24EFD4
:101840000CF0FFFF030E656EFFFF880E6524D96E56
:10185000DA6A000EDA22DF508A6EFFFF84B433EFBB
:101860000CF036EF0CF0FFFF40EF0CF0FFFF1750CD
:10187000D8A43DEF0CF040EF0CF0FFFF45EF0CF06B
:10188000FFFF000E176E5CEF0CF0FFFF685067263D
:1018900067BE50EF0CF04DEF0CF0FFFF53EF0CF074
:1018A000FFFF030E676EFFFF840E6724D96EDA6AAE
:1018B000000EDA22DF508B6EFFFFE6EC12F01250C2
:1018C0001310D8B466EF0CF069EF0CF0FFFF5CEF7B
:1018D0000CF0FFFF1550D8A470EF0CF073EF0CF074
:1018E000FFFFBBEF0BF0FFFF1650D8A47AEF0CF010
:1018F0007DEF0CF0FFFFBBEF0BF0FFFF1750D8A4FC
:1019000084EF0CF087EF0CF0FFFFBBEF0BF0FFFF55
:10191000D59ECA946BEC13F0F0EC12F0000ED76E6B
:10192000000ED66E000ECC6E70EC13F05550120007
:10193000FFFFFFFF63EC12F0B1EC12F0C4EC12F009
:10194000D7EC12F003EC13F015EC13F0000E136E4D
:101950000A0E126EFAEC12F0A7EC0BF00001F46F15
:10196000F451D8B4B6EF0CF0B9EF0CF0FFFFC0EFB4
:101970000CF0FFFFF45109EC0EF0FFFFBDEF0CF08F
:10198000FFFFAB88FFFF8CEC13F00009D8B4CBEF5E
:101990000CF0CEEF0CF0FFFF50EF0DF0FFFF1CEC52
:1019A00013F012C0F5F013C0F6F0000120EE02F0C3
:1019B000F551D926F651DA22DF50516E20EE03F0B0
:1019C000F551D926F651DA22DF50526EAB9820EE4F
:1019D00005F0F551D926F651DA221F0EDF60F3EF3C
:1019E0000CF0F6EF0CF0FFFF06EF0DF0FFFF20EE1E
:1019F00006F0F551D926F651DA22640EDF6403EFC2
:101A00000DF006EF0DF0FFFF0BEF0DF0FFFF050EE1
:101A1000F46F1FEF0DF0FFFF20EE05F0F551D92612
:101A2000F651DA22DF503FEC08F0000120EE06F01C
:101A3000F551D926F651DA22DF503FEC08F0FFFFCE
:101A40000001F451D8A427EF0DF02AEF0DF0FFFFAD
:101A500048EF0DF0FFFF000E3FEC08F0FF0E3FECEB
:101A600008F0000120EE04F0F551D926F651DA22F3
:101A7000DF50F26F20EE07F0F551D926F651DA2249
:101A8000DF50F36FF251F35D3FEC08F04CEF0DF0D7
:101A9000FFFFF45109EC0EF0FFFFAB8857EC13F099
:101AA000FFFF88EC13F00009D8B459EF0DF05CEF9C
:101AB0000DF0FFFFC2EF0CF0FFFFC4EC06F00001D9
:101AC000F46FF45109EC0EF02AEC13F084EC13F0EF
:101AD000C2EC11F0C2EF0CF0D4EF00F0FFFF3B348A
:101AE0003C34426E4250D8A478EF0DF07BEF0DF0FD
:101AF000FFFF87EF0DF0FFFFFFFF000E396E000EB6
:101B00003A6E000E3B6E000E3C6E06EF0EF0FFFFCD
:101B100039C03DF03AC03EF03BC03FF03CC040F021
:101B2000200E99EF0DF0FFFFD89040323F323E3249
:101B30003D32FFFFE82E93EF0DF03D50416E3B8E9E
:101B4000FF0E3916FF0E3A16FF0E3B16000E3C161E
:101B5000960E425E42BEB2EF0DF0AFEF0DF0FFFF0A
:101B6000CCEF0DF0FFFF4250800A970FD8B0BBEFCB
:101B70000DF0BEEF0DF0FFFFC1EF0DF0FFFF7CEFAA
:101B80000DF0FFFFD8903C323B323A323932423EC0
:101B9000C1EF0DF0EAEF0DF0FFFF1F0E4264D3EF2F
:101BA0000DF0D6EF0DF0FFFFE0EF0DF0FFFF7CEF43
:101BB0000DF0FFFFD89039363A363B363C364206B8
:101BC000FFFF4250D8A4E7EF0DF0EAEF0DF0FFFF62
:101BD000D9EF0DF0FFFF4150D8B4F1EF0DF0F4EF65
:101BE0000DF0FFFFFDEF0DF0FFFF3C1E3B1E3A1E08
:101BF000396C000E3A223B223C22FFFF39C039F0FB
:101C00003AC03AF03BC03BF03CC03CF0FFFF120052
:101C1000FFFFFFFF186E65EF0EF0FFFF900E126ED4
:101C2000000E136E1E0E146EF2EC11F094EF0EF017
:101C3000FFFF5E0E126E010E136E290E146EF2EC93
:101C400011F094EF0EF0FFFF870E126E010E136E6F
:101C5000280E146EF2EC11F094EF0EF0FFFF350E2B
:101C6000126E010E136E290E146EF2EC11F094EF49
:101C70000EF0FFFFD60E126E010E136E210E146EC3
:101C8000F2EC11F094EF0EF0FFFF000E126E010E59
:101C9000136E350E146EF2EC11F094EF0EF0FFFFA0
:101CA000AF0E126E010E136E270E146EF2EC11F0D1
:101CB00094EF0EF0FFFFAE0E126E000E136E180EB4
:101CC000146EF2EC11F094EF0EF0FFFF1850166E48
:101CD000176A1750000AD8B470EF0EF094EF0EF0A8
:101CE000FFFF1650010AD8B40DEF0EF0030AD8B466
:101CF00018EF0EF0010AD8B423EF0EF0070AD8B49B
:101D00002EEF0EF0010AD8B439EF0EF0030AD8B462
:101D100044EF0EF0010AD8B44FEF0EF00F0AD8B41A
:101D20005AEF0EF094EF0EF0FFFF1200FFFFFFFFDF
:101D3000076EF3EF0EF0FFFF900E016E000E026EC5
:101D40001E0E036E19EC12F022EF0FF0FFFF5E0E75
:101D5000016E010E026E290E036E19EC12F022EFD5
:101D60000FF0FFFF870E016E010E026E280E036E4C
:101D700019EC12F022EF0FF0FFFF350E016E010E8D
:101D8000026E290E036E19EC12F022EF0FF0FFFF26
:101D9000D60E016E010E026E210E036E19EC12F0CA
:101DA00022EF0FF0FFFF000E016E010E026E350EE6
:101DB000036E19EC12F022EF0FF0FFFFAF0E016E71
:101DC000010E026E270E036E19EC12F022EF0FF0D7
:101DD000FFFFAE0E016E000E026E180E036E19ECC0
:101DE00012F022EF0FF0FFFF0750056E066A065053
:101DF000000AD8B4FEEF0EF022EF0FF0FFFF0550FF
:101E0000010AD8B49BEF0EF0030AD8B4A6EF0EF087
:101E1000010AD8B4B1EF0EF0070AD8B4BCEF0EF047
:101E2000010AD8B4C7EF0EF0030AD8B4D2EF0EF00F
:101E3000010AD8B4DDEF0EF00F0AD8B4E8EF0EF0C7
:101E400022EF0FF0FFFF1200FFFFFFFF010E686E91
:101E5000CA84000E566E000E556EC80E626ED58E88
:101E60005CEC13F061EC13F066EC13F076EF0FF01E
:101E7000FFFF70EC13F055505610D8B442EF0FF03E
:101E800045EF0FF0FFFF4CEF0FF0FFFF000E566E17
:101E9000060E556E8CEF0FF0FFFF685067266750F7
:101EA000800A7C0FD8A057EF0FF05AEF0FF0FFFF1A
:101EB0005DEF0FF0FFFF000E676EFFFF840E6724DB
:101EC000D96EDA6A000EDA22DF508B6EFFFFE6EC85
:101ED00012F012501310D8B470EF0FF073EF0FF030
:101EE000FFFF66EF0FF0FFFF5CEC13F0FFFF3FEC2E
:101EF00013F012501310D8B480EF0FF083EF0FF0EF
:101F0000FFFF38EF0FF0FFFF83BE89EF0FF08CEF7C
:101F10000FF0FFFF38EF0FF0FFFF90EC13F0D59EAE
:101F2000CA946BEC13F0F0EC12F0000ED76E000EBA
:101F3000D66E000ECC6E70EC13F083AEA2EF0FF0F5
:101F4000A5EF0FF0FFFFAAEF0FF0FFFF000E566E98
:101F5000020E556EFFFF55501200FFFFFFFF010EEE
:101F6000686ECA84000E566E000E556EC80E626E04
:101F7000D58E5CEC13F061EC13F066EC13F0FFEF20
:101F80000FF0FFFF70EC13F055505610D8B4CBEFA4
:101F90000FF0CEEF0FF0FFFFD5EF0FF0FFFF000EB9
:101FA000566E060E556E15EF10F0FFFF685067264F
:101FB0006750800A7C0FD8A0E0EF0FF0E3EF0FF03E
:101FC000FFFFE6EF0FF0FFFF000E676EFFFF840ECE
:101FD0006724D96EDA6A000EDA22DF508B6EFFFFBB
:101FE000E6EC12F012501310D8B4F9EF0FF0FCEF3A
:101FF0000FF0FFFFEFEF0FF0FFFF5CEC13F0FFFFC0
:1020000045EC13F012501310D8B409EF10F00CEF98
:1020100010F0FFFFC1EF0FF0FFFF83BE12EF10F0D3
:1020200015EF10F0FFFFC1EF0FF0FFFF90EC13F082
:10203000D59ECA946BEC13F0F0EC12F0000ED76E44
:10204000000ED66E000ECC6E70EC13F083AE2BEF4C
:1020500010F02EEF10F0FFFF33EF10F0FFFF000E37
:10206000566E020E556EFFFF55501200FFFF45726F
:10207000726F722C2074696D652065786365656484
:10208000656420746F2072656163682074686520E0
:10209000656E64206F6620746865205A20417869F7
:1020A000730A004572726F722C2074696D65206529
:1020B0007863656564656420746F20726561636828
:1020C0002074686520706F696E740A004572726FC3
:1020D000722C206E6F206F626A6563742072656C6B
:1020E00065766174656420616C6F6E67205A20416B
:1020F0007869730A004572726F722C2074696D657D
:1021000020657863656564656420746F207265730B
:10211000657420706F736974696F6E0A004661742C
:10212000616C204572726F722C20706C65617365F2
:1021300020726573657420746865206465766963D0
:1021400065210A004572726F722C20706F696E747F
:10215000206F75747369646520626F756E64617257
:052160006965730A002F
:10216600FFFF0001E86F000E246E000E256E200EA4
:10217600266E410E276E0001E851126E136A146A2C
:10218600156A010EABEC0AF012C020F013C021F064
:1021960014C022F015C023F009EC03F020C039F07A
:1021A60021C03AF022C03BF023C03CF06EEC0DF0AB
:1021B60039C0E9F03AC0EAF0000E0001EC6F000EFB
:1021C600EB6F0CEF11F0FFFFC30E8C16030EEB1531
:1021D600E66F000EEC15E76F800EE625D96E000E51
:1021E600E721DA6EDF508C12CA84FFFFE6EC12F0AC
:1021F60012501310D8B402EF11F005EF11F0FFFFE3
:10220600F8EF10F0FFFFCA94000ECC6E0001EB4B06
:10221600EC2BFFFFE951EB5DEA51EC59D8A016EF24
:1022260011F019EF11F0FFFFE6EF10F0FFFFF0ECF1
:1022360012F070EC13F01200FFFFFFFF6868CA840B
:10224600000E566E000E556EC80E626ED58E64EF89
:1022560011F0FFFF70EC13F055505610D8B436EF5E
:1022660011F039EF11F0FFFF40EF11F0FFFF000E04
:10227600566E060E556E6DEF11F0FFFF685067261D
:1022860067BE4BEF11F048EF11F0FFFF4EEF11F074
:10229600FFFF030E676EFFFF840E6724D96EDA6AAE
:1022A600000EDA22DF508B6EFFFFE6EC12F01250C2
:1022B6001310D8B461EF11F064EF11F0FFFF57EF80
:1022C60011F0FFFF84A46AEF11F06DEF11F0FFFF2C
:1022D6002CEF11F0FFFFD59ECA946BEC13F0F0ECD7
:1022E60012F0000ED76E000ED66E000ECC6E70EC9D
:1022F60013F055501200FFFF6E0EF66E200EF76EAD
:10230600000EF86E01EE00F010EEF7F00900F5CFC2
:10231600EEFFE550E150FAE1800EF66E240EF76E00
:10232600000EF86E00EE80F010EE46F00900F5CFD4
:10233600EEFFE550E150FAE1A20EF66E260EF76EBC
:10234600000EF86E00EE63F010EE0BF00900F5CF0C
:10235600EEFFE550E150FAE100EEC6F0200EEE6A1F
:10236600E806FDE100EE43F0200EEE6AE806FDE128
:102376006E906E92000EF86E000199EF0CF0FFFF62
:10238600000E146EFFFF1450126E136AD8901236A8
:102396001336D89012361336CE0E1224D96E000E8E
:1023A6001320DA6E1450040DCA0EF324E16E000EEB
:1023B600F420E26EDECFE6FFDECFE6FFDECFE6FFFD
:1023C600DECFE6FF142A030E1464ECEF11F0EFEFF4
:1023D60011F0FFFFC5EF11F0FFFF1200FFFFFFFF37
:1023E600010E156E0BEF12F0FFFF12C0D9FF13C0DE
:1023F600DAFFDF50AD6EFFFFACA204EF12F007EF7D
:1024060012F0FFFFFEEF11F0FFFF124A132A152A02
:10241600FFFF1450155CD8A013EF12F016EF12F060
:10242600FFFFF7EF11F0FFFF1200FFFFFFFF010EA6
:10243600046E32EF12F0FFFF01C0D9FF02C0DAFFCF
:10244600DF50AD6EFFFFACA22BEF12F02EEF12F0B5
:10245600FFFF25EF12F0FFFF014A022A042AFFFFC1
:102466000350045CD8A03AEF12F03DEF12F0FFFFE4
:102476001EEF12F0FFFF1200FFFF240C18300903B5
:10248600060C11050C1822060C284572726F722C68
:102496002066656564206C696E65206E6F742064C5
:1024A6006566696E65640A00436F6D6D616E6420D2
:1024B6006E6F74207265636F676E697A65640A0071
:1024C600FFFFF2BE69EF12F06CEF12F0FFFF6EEF46
:1024D60012F0FFFFF28EFFFFF2BC74EF12F077EFFF
:1024E60012F0FFFF79EF12F0FFFFF28CFFFFD08EA4
:1024F600F28A9D809D829D8A1200FFFFFFFF8C92CB
:10250600CA84FFFFE6EC12F012501310D8B48EEF17
:1025160012F091EF12F0FFFF84EF12F0FFFFCA9462
:10252600000ECC6EF0EC12F01200FFFFFFFF8C8263
:10253600CA84FFFFE6EC12F012501310D8B4A6EFCF
:1025460012F0A9EF12F0FFFF9CEF12F0FFFFCA9402
:10255600000ECC6EF0EC12F01200FFFFFFFFC15030
:10256600F00B0609C16ED10E9216020E9316C00E1E
:102576009416C00E9516968096829684958E1200B5
:10258600FFFFFFFFC2503F0B4009C26EC18CC70E52
:10259600C216C294C290C19EC150F00B0E09C16E04
:1025A6009D8C9F8C1200FFFFFFFF949C948EAC9C29
:1025B600AC8AAC98AC94AB8EAB9CAB98AB96190E30
:1025C600AF6E1200FFFFFFFF57C014F0000E576EEC
:1025D60014C012F0136A1200FFFFFFFF000E000185
:1025E600C96F000EC86F000E5E6E1200FFFFFFFF80
:1025F600CA94CA8212C0C6F013C0C7F01200FFFF09
:10260600FFFFD59ED59CD59AD586070ED51212000A
:10261600FFFFFFFF070E97EC0EF0FFFF10EF13F022
:102626001200FFFFFFFF300ECD12CD92CD801200BB
:10263600FFFFFFFFDE0E126E000E136E1200FFFF8D
:10264600FFFFCA0E126E000E136E1200FFFFFFFF91
:10265600000E566E000E556E1200FFFFFFFF000EB5
:10266600566E010E556E1200FFFFFFFFC6C001F049
:10267600C7C002F01200FFFFFFFF60C012F0136A2E
:102686001200FFFFFFFF61C012F0136A1200FFFF86
:10269600FFFF58C012F0136A1200FFFF000100018D
:0726A600000165006500055D
:1026AE00FFFF000E5B6E1200FFFFFFFFC280C284B1
:1026BE001200FFFFFFFF000E616E1200FFFFFFFF13
:1026CE00000E606E1200FFFFFFFF000E5F6E120025
:1026DE00FFFFFFFF000E586E1200FFFFFFFF010EFF
:1026EE00576E1200FFFFFFFF010E616E1200FFFF1B
:1026FE00FFFF010E606E1200FFFFFFFF5D0612006E
:10270E00FFFFFFFF5D501200FFFFFFFF5B50120047
:10271E00FFFFFFFFC2901200FFFFFFFF625012008B
:10272E00FFFFFFFF582A1200FFFFFFFF5C50120051
:04273E00FFFFFFFF9B
:020000040020DA
:08000000FFFFFFFFFFFFFFFF00
:020000040030CA
:0E000000FF210D0EFF0080FF0FC00FE00F402C
:00000001FF
